{
  "_format": "hh-sol-artifact-1",
  "contractName": "CryptoWordsV1",
  "sourceName": "contracts/CryptoWordsV1.sol",
  "abi": [
    {
      "inputs": [],
      "stateMutability": "nonpayable",
      "type": "constructor"
    },
    {
      "anonymous": false,
      "inputs": [
        {
          "indexed": true,
          "internalType": "address",
          "name": "owner",
          "type": "address"
        },
        {
          "indexed": true,
          "internalType": "address",
          "name": "approved",
          "type": "address"
        },
        {
          "indexed": true,
          "internalType": "uint256",
          "name": "tokenId",
          "type": "uint256"
        }
      ],
      "name": "Approval",
      "type": "event"
    },
    {
      "anonymous": false,
      "inputs": [
        {
          "indexed": true,
          "internalType": "address",
          "name": "owner",
          "type": "address"
        },
        {
          "indexed": true,
          "internalType": "address",
          "name": "operator",
          "type": "address"
        },
        {
          "indexed": false,
          "internalType": "bool",
          "name": "approved",
          "type": "bool"
        }
      ],
      "name": "ApprovalForAll",
      "type": "event"
    },
    {
      "anonymous": false,
      "inputs": [
        {
          "indexed": false,
          "internalType": "address",
          "name": "account",
          "type": "address"
        }
      ],
      "name": "Paused",
      "type": "event"
    },
    {
      "anonymous": false,
      "inputs": [
        {
          "indexed": false,
          "internalType": "address",
          "name": "account",
          "type": "address"
        },
        {
          "indexed": false,
          "internalType": "uint256",
          "name": "shares",
          "type": "uint256"
        }
      ],
      "name": "PayeeAdded",
      "type": "event"
    },
    {
      "anonymous": false,
      "inputs": [
        {
          "indexed": false,
          "internalType": "address",
          "name": "from",
          "type": "address"
        },
        {
          "indexed": false,
          "internalType": "uint256",
          "name": "amount",
          "type": "uint256"
        }
      ],
      "name": "PaymentReceived",
      "type": "event"
    },
    {
      "anonymous": false,
      "inputs": [
        {
          "indexed": false,
          "internalType": "address",
          "name": "to",
          "type": "address"
        },
        {
          "indexed": false,
          "internalType": "uint256",
          "name": "amount",
          "type": "uint256"
        }
      ],
      "name": "PaymentReleased",
      "type": "event"
    },
    {
      "anonymous": false,
      "inputs": [
        {
          "indexed": true,
          "internalType": "bytes32",
          "name": "role",
          "type": "bytes32"
        },
        {
          "indexed": true,
          "internalType": "bytes32",
          "name": "previousAdminRole",
          "type": "bytes32"
        },
        {
          "indexed": true,
          "internalType": "bytes32",
          "name": "newAdminRole",
          "type": "bytes32"
        }
      ],
      "name": "RoleAdminChanged",
      "type": "event"
    },
    {
      "anonymous": false,
      "inputs": [
        {
          "indexed": true,
          "internalType": "bytes32",
          "name": "role",
          "type": "bytes32"
        },
        {
          "indexed": true,
          "internalType": "address",
          "name": "account",
          "type": "address"
        },
        {
          "indexed": true,
          "internalType": "address",
          "name": "sender",
          "type": "address"
        }
      ],
      "name": "RoleGranted",
      "type": "event"
    },
    {
      "anonymous": false,
      "inputs": [
        {
          "indexed": true,
          "internalType": "bytes32",
          "name": "role",
          "type": "bytes32"
        },
        {
          "indexed": true,
          "internalType": "address",
          "name": "account",
          "type": "address"
        },
        {
          "indexed": true,
          "internalType": "address",
          "name": "sender",
          "type": "address"
        }
      ],
      "name": "RoleRevoked",
      "type": "event"
    },
    {
      "anonymous": false,
      "inputs": [
        {
          "indexed": true,
          "internalType": "address",
          "name": "from",
          "type": "address"
        },
        {
          "indexed": true,
          "internalType": "address",
          "name": "to",
          "type": "address"
        },
        {
          "indexed": true,
          "internalType": "uint256",
          "name": "tokenId",
          "type": "uint256"
        }
      ],
      "name": "Transfer",
      "type": "event"
    },
    {
      "anonymous": false,
      "inputs": [
        {
          "indexed": false,
          "internalType": "address",
          "name": "account",
          "type": "address"
        }
      ],
      "name": "Unpaused",
      "type": "event"
    },
    {
      "inputs": [],
      "name": "DEFAULT_ADMIN_ROLE",
      "outputs": [
        {
          "internalType": "bytes32",
          "name": "",
          "type": "bytes32"
        }
      ],
      "stateMutability": "view",
      "type": "function"
    },
    {
      "inputs": [],
      "name": "DISCOUNTED_ROLE",
      "outputs": [
        {
          "internalType": "bytes32",
          "name": "",
          "type": "bytes32"
        }
      ],
      "stateMutability": "view",
      "type": "function"
    },
    {
      "inputs": [],
      "name": "MINTER_ROLE",
      "outputs": [
        {
          "internalType": "bytes32",
          "name": "",
          "type": "bytes32"
        }
      ],
      "stateMutability": "view",
      "type": "function"
    },
    {
      "inputs": [],
      "name": "PAUSER_ROLE",
      "outputs": [
        {
          "internalType": "bytes32",
          "name": "",
          "type": "bytes32"
        }
      ],
      "stateMutability": "view",
      "type": "function"
    },
    {
      "inputs": [
        {
          "internalType": "address",
          "name": "to",
          "type": "address"
        },
        {
          "internalType": "uint256",
          "name": "tokenId",
          "type": "uint256"
        }
      ],
      "name": "approve",
      "outputs": [],
      "stateMutability": "nonpayable",
      "type": "function"
    },
    {
      "inputs": [
        {
          "internalType": "address",
          "name": "owner",
          "type": "address"
        }
      ],
      "name": "balanceOf",
      "outputs": [
        {
          "internalType": "uint256",
          "name": "",
          "type": "uint256"
        }
      ],
      "stateMutability": "view",
      "type": "function"
    },
    {
      "inputs": [
        {
          "internalType": "uint256",
          "name": "tokenId",
          "type": "uint256"
        }
      ],
      "name": "burn",
      "outputs": [],
      "stateMutability": "nonpayable",
      "type": "function"
    },
    {
      "inputs": [],
      "name": "defaultPrice",
      "outputs": [
        {
          "internalType": "uint256",
          "name": "",
          "type": "uint256"
        }
      ],
      "stateMutability": "view",
      "type": "function"
    },
    {
      "inputs": [],
      "name": "discountPercentage",
      "outputs": [
        {
          "internalType": "uint256",
          "name": "",
          "type": "uint256"
        }
      ],
      "stateMutability": "view",
      "type": "function"
    },
    {
      "inputs": [
        {
          "internalType": "uint256",
          "name": "tokenId",
          "type": "uint256"
        }
      ],
      "name": "getApproved",
      "outputs": [
        {
          "internalType": "address",
          "name": "",
          "type": "address"
        }
      ],
      "stateMutability": "view",
      "type": "function"
    },
    {
      "inputs": [
        {
          "internalType": "string",
          "name": "word",
          "type": "string"
        }
      ],
      "name": "getCustomPrice",
      "outputs": [
        {
          "internalType": "uint256",
          "name": "",
          "type": "uint256"
        }
      ],
      "stateMutability": "view",
      "type": "function"
    },
    {
      "inputs": [
        {
          "internalType": "address",
          "name": "account",
          "type": "address"
        },
        {
          "internalType": "string",
          "name": "word",
          "type": "string"
        }
      ],
      "name": "getPrice",
      "outputs": [
        {
          "internalType": "uint256",
          "name": "",
          "type": "uint256"
        }
      ],
      "stateMutability": "view",
      "type": "function"
    },
    {
      "inputs": [
        {
          "internalType": "bytes32",
          "name": "role",
          "type": "bytes32"
        }
      ],
      "name": "getRoleAdmin",
      "outputs": [
        {
          "internalType": "bytes32",
          "name": "",
          "type": "bytes32"
        }
      ],
      "stateMutability": "view",
      "type": "function"
    },
    {
      "inputs": [
        {
          "internalType": "bytes32",
          "name": "role",
          "type": "bytes32"
        },
        {
          "internalType": "uint256",
          "name": "index",
          "type": "uint256"
        }
      ],
      "name": "getRoleMember",
      "outputs": [
        {
          "internalType": "address",
          "name": "",
          "type": "address"
        }
      ],
      "stateMutability": "view",
      "type": "function"
    },
    {
      "inputs": [
        {
          "internalType": "bytes32",
          "name": "role",
          "type": "bytes32"
        }
      ],
      "name": "getRoleMemberCount",
      "outputs": [
        {
          "internalType": "uint256",
          "name": "",
          "type": "uint256"
        }
      ],
      "stateMutability": "view",
      "type": "function"
    },
    {
      "inputs": [
        {
          "internalType": "uint256",
          "name": "tokenId",
          "type": "uint256"
        }
      ],
      "name": "getWordById",
      "outputs": [
        {
          "internalType": "string",
          "name": "",
          "type": "string"
        }
      ],
      "stateMutability": "view",
      "type": "function"
    },
    {
      "inputs": [
        {
          "internalType": "bytes32",
          "name": "role",
          "type": "bytes32"
        },
        {
          "internalType": "address",
          "name": "account",
          "type": "address"
        }
      ],
      "name": "grantRole",
      "outputs": [],
      "stateMutability": "nonpayable",
      "type": "function"
    },
    {
      "inputs": [
        {
          "internalType": "bytes32",
          "name": "role",
          "type": "bytes32"
        },
        {
          "internalType": "address",
          "name": "account",
          "type": "address"
        }
      ],
      "name": "hasRole",
      "outputs": [
        {
          "internalType": "bool",
          "name": "",
          "type": "bool"
        }
      ],
      "stateMutability": "view",
      "type": "function"
    },
    {
      "inputs": [
        {
          "internalType": "string",
          "name": "name",
          "type": "string"
        },
        {
          "internalType": "string",
          "name": "symbol",
          "type": "string"
        },
        {
          "internalType": "address[]",
          "name": "payees",
          "type": "address[]"
        },
        {
          "internalType": "uint256[]",
          "name": "shares",
          "type": "uint256[]"
        }
      ],
      "name": "initialize",
      "outputs": [],
      "stateMutability": "payable",
      "type": "function"
    },
    {
      "inputs": [
        {
          "internalType": "address",
          "name": "owner",
          "type": "address"
        },
        {
          "internalType": "address",
          "name": "operator",
          "type": "address"
        }
      ],
      "name": "isApprovedForAll",
      "outputs": [
        {
          "internalType": "bool",
          "name": "",
          "type": "bool"
        }
      ],
      "stateMutability": "view",
      "type": "function"
    },
    {
      "inputs": [],
      "name": "name",
      "outputs": [
        {
          "internalType": "string",
          "name": "",
          "type": "string"
        }
      ],
      "stateMutability": "view",
      "type": "function"
    },
    {
      "inputs": [
        {
          "internalType": "uint256",
          "name": "tokenId",
          "type": "uint256"
        }
      ],
      "name": "ownerOf",
      "outputs": [
        {
          "internalType": "address",
          "name": "",
          "type": "address"
        }
      ],
      "stateMutability": "view",
      "type": "function"
    },
    {
      "inputs": [],
      "name": "pause",
      "outputs": [],
      "stateMutability": "nonpayable",
      "type": "function"
    },
    {
      "inputs": [],
      "name": "paused",
      "outputs": [
        {
          "internalType": "bool",
          "name": "",
          "type": "bool"
        }
      ],
      "stateMutability": "view",
      "type": "function"
    },
    {
      "inputs": [
        {
          "internalType": "uint256",
          "name": "index",
          "type": "uint256"
        }
      ],
      "name": "payee",
      "outputs": [
        {
          "internalType": "address",
          "name": "",
          "type": "address"
        }
      ],
      "stateMutability": "view",
      "type": "function"
    },
    {
      "inputs": [
        {
          "internalType": "address",
          "name": "to",
          "type": "address"
        },
        {
          "internalType": "string",
          "name": "word",
          "type": "string"
        }
      ],
      "name": "purchaseWord",
      "outputs": [],
      "stateMutability": "payable",
      "type": "function"
    },
    {
      "inputs": [
        {
          "internalType": "address payable",
          "name": "account",
          "type": "address"
        }
      ],
      "name": "release",
      "outputs": [],
      "stateMutability": "nonpayable",
      "type": "function"
    },
    {
      "inputs": [
        {
          "internalType": "address",
          "name": "account",
          "type": "address"
        }
      ],
      "name": "released",
      "outputs": [
        {
          "internalType": "uint256",
          "name": "",
          "type": "uint256"
        }
      ],
      "stateMutability": "view",
      "type": "function"
    },
    {
      "inputs": [
        {
          "internalType": "bytes32",
          "name": "role",
          "type": "bytes32"
        },
        {
          "internalType": "address",
          "name": "account",
          "type": "address"
        }
      ],
      "name": "renounceRole",
      "outputs": [],
      "stateMutability": "nonpayable",
      "type": "function"
    },
    {
      "inputs": [
        {
          "internalType": "bytes32",
          "name": "role",
          "type": "bytes32"
        },
        {
          "internalType": "address",
          "name": "account",
          "type": "address"
        }
      ],
      "name": "revokeRole",
      "outputs": [],
      "stateMutability": "nonpayable",
      "type": "function"
    },
    {
      "inputs": [
        {
          "internalType": "address",
          "name": "from",
          "type": "address"
        },
        {
          "internalType": "address",
          "name": "to",
          "type": "address"
        },
        {
          "internalType": "uint256",
          "name": "tokenId",
          "type": "uint256"
        }
      ],
      "name": "safeTransferFrom",
      "outputs": [],
      "stateMutability": "nonpayable",
      "type": "function"
    },
    {
      "inputs": [
        {
          "internalType": "address",
          "name": "from",
          "type": "address"
        },
        {
          "internalType": "address",
          "name": "to",
          "type": "address"
        },
        {
          "internalType": "uint256",
          "name": "tokenId",
          "type": "uint256"
        },
        {
          "internalType": "bytes",
          "name": "_data",
          "type": "bytes"
        }
      ],
      "name": "safeTransferFrom",
      "outputs": [],
      "stateMutability": "nonpayable",
      "type": "function"
    },
    {
      "inputs": [
        {
          "internalType": "address",
          "name": "operator",
          "type": "address"
        },
        {
          "internalType": "bool",
          "name": "approved",
          "type": "bool"
        }
      ],
      "name": "setApprovalForAll",
      "outputs": [],
      "stateMutability": "nonpayable",
      "type": "function"
    },
    {
      "inputs": [
        {
          "internalType": "uint256",
          "name": "price",
          "type": "uint256"
        }
      ],
      "name": "setDefaultPrice",
      "outputs": [],
      "stateMutability": "nonpayable",
      "type": "function"
    },
    {
      "inputs": [
        {
          "internalType": "uint256",
          "name": "percentage",
          "type": "uint256"
        }
      ],
      "name": "setDiscountPercentage",
      "outputs": [],
      "stateMutability": "nonpayable",
      "type": "function"
    },
    {
      "inputs": [
        {
          "internalType": "uint256",
          "name": "price",
          "type": "uint256"
        },
        {
          "internalType": "string",
          "name": "word",
          "type": "string"
        }
      ],
      "name": "setPriceByWord",
      "outputs": [],
      "stateMutability": "nonpayable",
      "type": "function"
    },
    {
      "inputs": [
        {
          "internalType": "address",
          "name": "account",
          "type": "address"
        }
      ],
      "name": "shares",
      "outputs": [
        {
          "internalType": "uint256",
          "name": "",
          "type": "uint256"
        }
      ],
      "stateMutability": "view",
      "type": "function"
    },
    {
      "inputs": [
        {
          "internalType": "bytes4",
          "name": "interfaceId",
          "type": "bytes4"
        }
      ],
      "name": "supportsInterface",
      "outputs": [
        {
          "internalType": "bool",
          "name": "",
          "type": "bool"
        }
      ],
      "stateMutability": "view",
      "type": "function"
    },
    {
      "inputs": [],
      "name": "symbol",
      "outputs": [
        {
          "internalType": "string",
          "name": "",
          "type": "string"
        }
      ],
      "stateMutability": "view",
      "type": "function"
    },
    {
      "inputs": [
        {
          "internalType": "uint256",
          "name": "index",
          "type": "uint256"
        }
      ],
      "name": "tokenByIndex",
      "outputs": [
        {
          "internalType": "uint256",
          "name": "",
          "type": "uint256"
        }
      ],
      "stateMutability": "view",
      "type": "function"
    },
    {
      "inputs": [
        {
          "internalType": "address",
          "name": "owner",
          "type": "address"
        },
        {
          "internalType": "uint256",
          "name": "index",
          "type": "uint256"
        }
      ],
      "name": "tokenOfOwnerByIndex",
      "outputs": [
        {
          "internalType": "uint256",
          "name": "",
          "type": "uint256"
        }
      ],
      "stateMutability": "view",
      "type": "function"
    },
    {
      "inputs": [
        {
          "internalType": "uint256",
          "name": "tokenId",
          "type": "uint256"
        }
      ],
      "name": "tokenURI",
      "outputs": [
        {
          "internalType": "string",
          "name": "",
          "type": "string"
        }
      ],
      "stateMutability": "view",
      "type": "function"
    },
    {
      "inputs": [],
      "name": "totalReleased",
      "outputs": [
        {
          "internalType": "uint256",
          "name": "",
          "type": "uint256"
        }
      ],
      "stateMutability": "view",
      "type": "function"
    },
    {
      "inputs": [],
      "name": "totalShares",
      "outputs": [
        {
          "internalType": "uint256",
          "name": "",
          "type": "uint256"
        }
      ],
      "stateMutability": "view",
      "type": "function"
    },
    {
      "inputs": [],
      "name": "totalSupply",
      "outputs": [
        {
          "internalType": "uint256",
          "name": "",
          "type": "uint256"
        }
      ],
      "stateMutability": "view",
      "type": "function"
    },
    {
      "inputs": [
        {
          "internalType": "address",
          "name": "from",
          "type": "address"
        },
        {
          "internalType": "address",
          "name": "to",
          "type": "address"
        },
        {
          "internalType": "uint256",
          "name": "tokenId",
          "type": "uint256"
        }
      ],
      "name": "transferFrom",
      "outputs": [],
      "stateMutability": "nonpayable",
      "type": "function"
    },
    {
      "inputs": [],
      "name": "unpause",
      "outputs": [],
      "stateMutability": "nonpayable",
      "type": "function"
    },
    {
      "inputs": [
        {
          "internalType": "string",
          "name": "word",
          "type": "string"
        }
      ],
      "name": "wordExists",
      "outputs": [
        {
          "internalType": "bool",
          "name": "",
          "type": "bool"
        }
      ],
      "stateMutability": "view",
      "type": "function"
    },
    {
      "stateMutability": "payable",
      "type": "receive"
    }
  ],
  "bytecode": "0x60806040523480156200001157600080fd5b50600054610100900460ff16806200002c575060005460ff16155b620000945760405162461bcd60e51b815260206004820152602e60248201527f496e697469616c697a61626c653a20636f6e747261637420697320616c72656160448201526d191e481a5b9a5d1a585b1a5e995960921b606482015260840160405180910390fd5b600054610100900460ff16158015620000b7576000805461ffff19166101011790555b8015620000ca576000805461ff00191690555b50613f5180620000db6000396000f3fe6080604052600436106102975760003560e01c80638b83209b1161015a578063c87b56dd116100c1578063e33b7de31161007a578063e33b7de314610826578063e63ab1e91461083c578063e69e04b314610853578063e985e9c51461086a578063ed8868fb146108b3578063f8370231146108d357600080fd5b8063c87b56dd14610765578063ca15c87314610785578063ce7c2ac2146107a5578063d0fd890d146107dc578063d5391393146107ef578063d547741f1461080657600080fd5b8063a22cb46511610113578063a22cb465146106b7578063a7abb8b7146106d7578063b3428d15146106ee578063b3fa9f241461070e578063b88d4fde14610725578063c32107f61461074557600080fd5b80638b83209b146105f65780639010d07c1461061657806391d148541461063657806395d89b41146106565780639852595c1461066b578063a217fddf146106a257600080fd5b80633a98ef39116101fe5780635c975abb116101b75780635c975abb146105485780636352211e146105615780636d3c7ec51461058157806370a08231146105a157806376977a3a146105c15780638456cb59146105e157600080fd5b80633a98ef39146104aa5780633f4ba83a146104c057806342842e0e146104d557806342966c68146104f5578063445d9787146105155780634f6ccce71461052857600080fd5b8063191655871161025057806319165587146103d957806323b872dd146103f9578063248a9ca3146104195780632f2ff15d1461044a5780632f745c591461046a57806336568abe1461048a57600080fd5b806301ffc9a7146102e557806306fdde031461031a578063081812fc1461033c578063095ea7b3146103745780630df9eeef1461039657806318160ddd146103c457600080fd5b366102e0577f6ef95f06320e7a25a04a175ca677b7052bdd97131872c2192525a629f51be77033604080516001600160a01b0390921682523460208301520160405180910390a1005b600080fd5b3480156102f157600080fd5b506103056103003660046138c5565b6108f3565b60405190151581526020015b60405180910390f35b34801561032657600080fd5b5061032f610904565b6040516103119190613c01565b34801561034857600080fd5b5061035c610357366004613868565b610996565b6040516001600160a01b039091168152602001610311565b34801561038057600080fd5b5061039461038f36600461383d565b610a23565b005b3480156103a257600080fd5b506103b66103b136600461396a565b610b39565b604051908152602001610311565b3480156103d057600080fd5b506099546103b6565b3480156103e557600080fd5b506103946103f43660046136ad565b610b6f565b34801561040557600080fd5b50610394610414366004613701565b610d49565b34801561042557600080fd5b506103b6610434366004613868565b600090815261015f602052604090206001015490565b34801561045657600080fd5b50610394610465366004613880565b610d7b565b34801561047657600080fd5b506103b661048536600461383d565b610d9e565b34801561049657600080fd5b506103946104a5366004613880565b610e34565b3480156104b657600080fd5b506101c3546103b6565b3480156104cc57600080fd5b50610394610e57565b3480156104e157600080fd5b506103946104f0366004613701565b610e70565b34801561050157600080fd5b50610394610510366004613868565b610e8b565b61039461052336600461399d565b610f02565b34801561053457600080fd5b506103b6610543366004613868565b611074565b34801561055457600080fd5b5061012d5460ff16610305565b34801561056d57600080fd5b5061035c61057c366004613868565b611115565b34801561058d57600080fd5b5061039461059c366004613868565b61118c565b3480156105ad57600080fd5b506103b66105bc3660046136ad565b61119f565b3480156105cd57600080fd5b506103b66105dc3660046137ef565b611226565b3480156105ed57600080fd5b50610394611275565b34801561060257600080fd5b5061035c610611366004613868565b61128b565b34801561062257600080fd5b5061035c6106313660046138a4565b6112ca565b34801561064257600080fd5b50610305610651366004613880565b6112ea565b34801561066257600080fd5b5061032f611316565b34801561067757600080fd5b506103b66106863660046136ad565b6001600160a01b031660009081526101c6602052604090205490565b3480156106ae57600080fd5b506103b6600081565b3480156106c357600080fd5b506103946106d23660046137be565b611325565b3480156106e357600080fd5b506103b66101fb5481565b3480156106fa57600080fd5b50610394610709366004613868565b6113ea565b34801561071a57600080fd5b506103b66101f85481565b34801561073157600080fd5b50610394610740366004613741565b6113fd565b34801561075157600080fd5b506103056107603660046138fd565b611435565b34801561077157600080fd5b5061032f610780366004613868565b611465565b34801561079157600080fd5b506103b66107a0366004613868565b611470565b3480156107b157600080fd5b506103b66107c03660046136ad565b6001600160a01b031660009081526101c5602052604090205490565b6103946107ea3660046137ef565b611488565b3480156107fb57600080fd5b506103b66101fa5481565b34801561081257600080fd5b50610394610821366004613880565b611645565b34801561083257600080fd5b506101c4546103b6565b34801561084857600080fd5b506103b66101f95481565b34801561085f57600080fd5b506103b66101f75481565b34801561087657600080fd5b506103056108853660046136c9565b6001600160a01b039182166000908152606a6020908152604080832093909416825291909152205460ff1690565b3480156108bf57600080fd5b5061032f6108ce366004613868565b61164f565b3480156108df57600080fd5b506103946108ee366004613a99565b6116fd565b60006108fe82611730565b92915050565b60606065805461091390613e29565b80601f016020809104026020016040519081016040528092919081815260200182805461093f90613e29565b801561098c5780601f106109615761010080835404028352916020019161098c565b820191906000526020600020905b81548152906001019060200180831161096f57829003601f168201915b5050505050905090565b60006109a182611755565b610a075760405162461bcd60e51b815260206004820152602c60248201527f4552433732313a20617070726f76656420717565727920666f72206e6f6e657860448201526b34b9ba32b73a103a37b5b2b760a11b60648201526084015b60405180910390fd5b506000908152606960205260409020546001600160a01b031690565b6000610a2e82611115565b9050806001600160a01b0316836001600160a01b03161415610a9c5760405162461bcd60e51b815260206004820152602160248201527f4552433732313a20617070726f76616c20746f2063757272656e74206f776e656044820152603960f91b60648201526084016109fe565b336001600160a01b0382161480610ab85750610ab88133610885565b610b2a5760405162461bcd60e51b815260206004820152603860248201527f4552433732313a20617070726f76652063616c6c6572206973206e6f74206f7760448201527f6e6572206e6f7220617070726f76656420666f7220616c6c000000000000000060648201526084016109fe565b610b348383611772565b505050565b600080610b4681336117e0565b6101fe83604051610b579190613b04565b90815260200160405180910390205491505b50919050565b6001600160a01b03811660009081526101c56020526040902054610be45760405162461bcd60e51b815260206004820152602660248201527f5061796d656e7453706c69747465723a206163636f756e7420686173206e6f2060448201526573686172657360d01b60648201526084016109fe565b60006101c45447610bf59190613d84565b6001600160a01b03831660009081526101c660209081526040808320546101c3546101c5909352908320549394509192610c2f9085613db0565b610c399190613d9c565b610c439190613dcf565b905080610ca65760405162461bcd60e51b815260206004820152602b60248201527f5061796d656e7453706c69747465723a206163636f756e74206973206e6f742060448201526a191d59481c185e5b595b9d60aa1b60648201526084016109fe565b6001600160a01b03831660009081526101c66020526040902054610ccb908290613d84565b6001600160a01b03841660009081526101c660205260409020556101c454610cf4908290613d84565b6101c455610d028382611848565b604080516001600160a01b0385168152602081018390527fdf20fd1e76bc69d672e4814fafb2c449bba3a5369d8359adf9e05e6fde87b056910160405180910390a1505050565b610d54335b82611961565b610d705760405162461bcd60e51b81526004016109fe90613cde565b610b34838383611a4b565b610d858282611bf6565b600082815261019160205260409020610b349082611c1d565b6000610da98361119f565b8210610e0b5760405162461bcd60e51b815260206004820152602b60248201527f455243373231456e756d657261626c653a206f776e657220696e646578206f7560448201526a74206f6620626f756e647360a81b60648201526084016109fe565b506001600160a01b03919091166000908152609760209081526040808320938352929052205490565b610e3e8282611c32565b600082815261019160205260409020610b349082611cac565b6101f954610e6581336117e0565b610e6d611cc1565b50565b610b34838383604051806020016040528060008152506113fd565b610e9433610d4e565b610ef95760405162461bcd60e51b815260206004820152603060248201527f4552433732314275726e61626c653a2063616c6c6572206973206e6f74206f7760448201526f1b995c881b9bdc88185c1c1c9bdd995960821b60648201526084016109fe565b610e6d81611d56565b600054610100900460ff1680610f1b575060005460ff16155b610f375760405162461bcd60e51b81526004016109fe90613c90565b600054610100900460ff16158015610f59576000805461ffff19166101011790555b610f638585611d5f565b610f6b611de6565b610f73611de6565b610f7b611de6565b610f83611e69565b610f8b611ed0565b610f958383611f2f565b6101f680546001600160a01b031916339081179091556702c68af0bb1400006101f7556113886101f8557f65d7a28e3265b37a6474929f336521b332c1681b933f6cb9f3376673440d862a6101f9557f9f2df0fed2c77648de5860a4cc508cd0818c85b8b8a1ab4ceeef8d981c8956a66101fa557ff9e9e1c8035f82fd72c5438c5719fd5349deacb4207f4fcbbda606cb5a39d5096101fb5561103f90600090611f98565b611f98565b61104d6101f95461103a3390565b61105b6101fa5461103a3390565b801561106d576000805461ff00191690555b5050505050565b600061107f60995490565b82106110e25760405162461bcd60e51b815260206004820152602c60248201527f455243373231456e756d657261626c653a20676c6f62616c20696e646578206f60448201526b7574206f6620626f756e647360a01b60648201526084016109fe565b6099828154811061110357634e487b7160e01b600052603260045260246000fd5b90600052602060002001549050919050565b6000818152606760205260408120546001600160a01b0316806108fe5760405162461bcd60e51b815260206004820152602960248201527f4552433732313a206f776e657220717565727920666f72206e6f6e657869737460448201526832b73a103a37b5b2b760b91b60648201526084016109fe565b600061119881336117e0565b506101f755565b60006001600160a01b03821661120a5760405162461bcd60e51b815260206004820152602a60248201527f4552433732313a2062616c616e636520717565727920666f7220746865207a65604482015269726f206164647265737360b01b60648201526084016109fe565b506001600160a01b031660009081526068602052604090205490565b60006112356101fa54846112ea565b15611242575060006108fe565b61124f6101fb54846112ea565b1561126c5761126561126083611fa2565b611ffb565b90506108fe565b61126582611fa2565b6101f95461128381336117e0565b610e6d612019565b60006101c782815481106112af57634e487b7160e01b600052603260045260246000fd5b6000918252602090912001546001600160a01b031692915050565b6000828152610191602052604081206112e39083612073565b9392505050565b600091825261015f602090815260408084206001600160a01b0393909316845291905290205460ff1690565b60606066805461091390613e29565b6001600160a01b03821633141561137e5760405162461bcd60e51b815260206004820152601960248201527f4552433732313a20617070726f766520746f2063616c6c65720000000000000060448201526064016109fe565b336000818152606a602090815260408083206001600160a01b03871680855290835292819020805460ff191686151590811790915590519081529192917f17307eab39ab6107e8899845ad3d59bd9653f200f220920489ca2b5937696c31910160405180910390a35050565b60006113f681336117e0565b506101f855565b6114073383611961565b6114235760405162461bcd60e51b81526004016109fe90613cde565b61142f8484848461207f565b50505050565b60006101fc838360405161144a929190613af4565b9081526040519081900360200190205460ff16905092915050565b60606108fe826120b2565b6000818152610191602052604081206108fe90612214565b61012d5460ff16156114ac5760405162461bcd60e51b81526004016109fe90613c66565b6114ba6101fa546106513390565b611588576101fc816040516114cf9190613b04565b9081526040519081900360200190205460ff16156115255760405162461bcd60e51b8152602060048201526013602482015272576f726420616c72656164792065786973747360681b60448201526064016109fe565b61152f3382611226565b3410156115885760405162461bcd60e51b815260206004820152602160248201527f4e6f7420656e6f756768204554482073656e743b20636865636b2070726963656044820152602160f81b60648201526084016109fe565b6115976101f580546001019055565b60006115a36101f55490565b905060016101fc836040516115b89190613b04565b9081526040805160209281900383019020805460ff19169315159390931790925560008381526101fd82529190912083516115f5928501906134f8565b506101f65461160d906001600160a01b03168261221e565b6116178183612238565b6101f6546001600160a01b03848116911614610b34576101f654610b34906001600160a01b03168483611a4b565b610e3e82826122c3565b6060600061165d81336117e0565b60008381526101fd60205260409020805461167790613e29565b80601f01602080910402602001604051908101604052809291908181526020018280546116a390613e29565b80156116f05780601f106116c5576101008083540402835291602001916116f0565b820191906000526020600020905b8154815290600101906020018083116116d357829003601f168201915b5050505050915050919050565b600061170981336117e0565b826101fe8360405161171b9190613b04565b90815260405190819003602001902055505050565b60006001600160e01b03198216635a05180f60e01b14806108fe57506108fe826122ea565b6000908152606760205260409020546001600160a01b0316151590565b600081815260696020526040902080546001600160a01b0319166001600160a01b03841690811790915581906117a782611115565b6001600160a01b03167f8c5be1e5ebec7d5bd14f71427d1e84f3dd0314c0f7b2291e5b200ac8c7c3b92560405160405180910390a45050565b6117ea82826112ea565b61184457611802816001600160a01b0316601461230f565b61180d83602061230f565b60405160200161181e929190613b4f565b60408051601f198184030181529082905262461bcd60e51b82526109fe91600401613c01565b5050565b804710156118985760405162461bcd60e51b815260206004820152601d60248201527f416464726573733a20696e73756666696369656e742062616c616e636500000060448201526064016109fe565b6000826001600160a01b03168260405160006040518083038185875af1925050503d80600081146118e5576040519150601f19603f3d011682016040523d82523d6000602084013e6118ea565b606091505b5050905080610b345760405162461bcd60e51b815260206004820152603a60248201527f416464726573733a20756e61626c6520746f2073656e642076616c75652c207260448201527f6563697069656e74206d6179206861766520726576657274656400000000000060648201526084016109fe565b600061196c82611755565b6119cd5760405162461bcd60e51b815260206004820152602c60248201527f4552433732313a206f70657261746f7220717565727920666f72206e6f6e657860448201526b34b9ba32b73a103a37b5b2b760a11b60648201526084016109fe565b60006119d883611115565b9050806001600160a01b0316846001600160a01b03161480611a135750836001600160a01b0316611a0884610996565b6001600160a01b0316145b80611a4357506001600160a01b038082166000908152606a602090815260408083209388168352929052205460ff165b949350505050565b826001600160a01b0316611a5e82611115565b6001600160a01b031614611ac65760405162461bcd60e51b815260206004820152602960248201527f4552433732313a207472616e73666572206f6620746f6b656e2074686174206960448201526839903737ba1037bbb760b91b60648201526084016109fe565b6001600160a01b038216611b285760405162461bcd60e51b8152602060048201526024808201527f4552433732313a207472616e7366657220746f20746865207a65726f206164646044820152637265737360e01b60648201526084016109fe565b611b338383836124f1565b611b3e600082611772565b6001600160a01b0383166000908152606860205260408120805460019290611b67908490613dcf565b90915550506001600160a01b0382166000908152606860205260408120805460019290611b95908490613d84565b909155505060008181526067602052604080822080546001600160a01b0319166001600160a01b0386811691821790925591518493918716917fddf252ad1be2c89b69c2b068fc378daa952ba7f163c4a11628f55a4df523b3ef91a4505050565b600082815261015f6020526040902060010154611c1381336117e0565b610b348383612520565b60006112e3836001600160a01b0384166125a7565b6001600160a01b0381163314611ca25760405162461bcd60e51b815260206004820152602f60248201527f416363657373436f6e74726f6c3a2063616e206f6e6c792072656e6f756e636560448201526e103937b632b9903337b91039b2b63360891b60648201526084016109fe565b61184482826125f6565b60006112e3836001600160a01b03841661265e565b61012d5460ff16611d0b5760405162461bcd60e51b815260206004820152601460248201527314185d5cd8589b194e881b9bdd081c185d5cd95960621b60448201526064016109fe565b61012d805460ff191690557f5db9ee0a495bf2e6ff9c91a7834c1ba4fdd244a5e8aa4e537bd38aeae4b073aa335b6040516001600160a01b03909116815260200160405180910390a1565b610e6d8161277b565b600054610100900460ff1680611d78575060005460ff16155b611d945760405162461bcd60e51b81526004016109fe90613c90565b600054610100900460ff16158015611db6576000805461ffff19166101011790555b611dbe6127bb565b611dc66127bb565b611dd08383612825565b8015610b34576000805461ff0019169055505050565b600054610100900460ff1680611dff575060005460ff16155b611e1b5760405162461bcd60e51b81526004016109fe90613c90565b600054610100900460ff16158015611e3d576000805461ffff19166101011790555b611e456127bb565b611e4d6127bb565b611e556127bb565b8015610e6d576000805461ff001916905550565b600054610100900460ff1680611e82575060005460ff16155b611e9e5760405162461bcd60e51b81526004016109fe90613c90565b600054610100900460ff16158015611ec0576000805461ffff19166101011790555b611ec86127bb565b611e556128ba565b600054610100900460ff1680611ee9575060005460ff16155b611f055760405162461bcd60e51b81526004016109fe90613c90565b600054610100900460ff16158015611f27576000805461ffff19166101011790555b611e3d6127bb565b600054610100900460ff1680611f48575060005460ff16155b611f645760405162461bcd60e51b81526004016109fe90613c90565b600054610100900460ff16158015611f86576000805461ffff19166101011790555b611f8e6127bb565b611dd08383612930565b610d858282612aba565b6000806101fe83604051611fb69190613b04565b9081526020016040518091039020541115611ff2576101fe82604051611fdc9190613b04565b9081526020016040518091039020549050919050565b50506101f75490565b60006127106101f8548361200f9190613db0565b6108fe9190613d9c565b61012d5460ff161561203d5760405162461bcd60e51b81526004016109fe90613c66565b61012d805460ff191660011790557f62e78cea01bee320cd4e420270b5ea74000d11b0c9f74754ebdbfc544b05a258611d393390565b60006112e38383612ac4565b61208a848484611a4b565b61209684848484612afc565b61142f5760405162461bcd60e51b81526004016109fe90613c14565b60606120bd82611755565b6121235760405162461bcd60e51b815260206004820152603160248201527f45524337323155524953746f726167653a2055524920717565727920666f72206044820152703737b732bc34b9ba32b73a103a37b5b2b760791b60648201526084016109fe565b600082815260c960205260408120805461213c90613e29565b80601f016020809104026020016040519081016040528092919081815260200182805461216890613e29565b80156121b55780601f1061218a576101008083540402835291602001916121b5565b820191906000526020600020905b81548152906001019060200180831161219857829003601f168201915b5050505050905060006121c6612c09565b90508051600014156121d9575092915050565b81511561220b5780826040516020016121f3929190613b20565b60405160208183030381529060405292505050919050565b611a4384612c29565b60006108fe825490565b611844828260405180602001604052806000815250612cf3565b61224182611755565b6122a45760405162461bcd60e51b815260206004820152602e60248201527f45524337323155524953746f726167653a2055524920736574206f66206e6f6e60448201526d32bc34b9ba32b73a103a37b5b2b760911b60648201526084016109fe565b600082815260c9602090815260409091208251610b34928401906134f8565b600082815261015f60205260409020600101546122e081336117e0565b610b3483836125f6565b60006001600160e01b03198216637965db0b60e01b14806108fe57506108fe82612d26565b6060600061231e836002613db0565b612329906002613d84565b67ffffffffffffffff81111561234f57634e487b7160e01b600052604160045260246000fd5b6040519080825280601f01601f191660200182016040528015612379576020820181803683370190505b509050600360fc1b816000815181106123a257634e487b7160e01b600052603260045260246000fd5b60200101906001600160f81b031916908160001a905350600f60fb1b816001815181106123df57634e487b7160e01b600052603260045260246000fd5b60200101906001600160f81b031916908160001a9053506000612403846002613db0565b61240e906001613d84565b90505b60018111156124a2576f181899199a1a9b1b9c1cb0b131b232b360811b85600f166010811061245057634e487b7160e01b600052603260045260246000fd5b1a60f81b82828151811061247457634e487b7160e01b600052603260045260246000fd5b60200101906001600160f81b031916908160001a90535060049490941c9361249b81613e12565b9050612411565b5083156112e35760405162461bcd60e51b815260206004820181905260248201527f537472696e67733a20686578206c656e67746820696e73756666696369656e7460448201526064016109fe565b61012d5460ff16156125155760405162461bcd60e51b81526004016109fe90613c66565b610b34838383612d4b565b61252a82826112ea565b61184457600082815261015f602090815260408083206001600160a01b03851684529091529020805460ff191660011790556125633390565b6001600160a01b0316816001600160a01b0316837f2f8788117e7eff1d82e926ec794901d17c78024a50270940304540a733656f0d60405160405180910390a45050565b60008181526001830160205260408120546125ee575081546001818101845560008481526020808220909301849055845484825282860190935260409020919091556108fe565b5060006108fe565b61260082826112ea565b1561184457600082815261015f602090815260408083206001600160a01b0385168085529252808320805460ff1916905551339285917ff6391f5c32d9c69d2a47ea670b442974b53935d1edc7fd64eb21e047a839171b9190a45050565b60008181526001830160205260408120548015612771576000612682600183613dcf565b855490915060009061269690600190613dcf565b90508181146127175760008660000182815481106126c457634e487b7160e01b600052603260045260246000fd5b90600052602060002001549050808760000184815481106126f557634e487b7160e01b600052603260045260246000fd5b6000918252602080832090910192909255918252600188019052604090208390555b855486908061273657634e487b7160e01b600052603160045260246000fd5b6001900381819060005260206000200160009055905585600101600086815260200190815260200160002060009055600193505050506108fe565b60009150506108fe565b61278481612e03565b600081815260c960205260409020805461279d90613e29565b159050610e6d57600081815260c960205260408120610e6d9161357c565b600054610100900460ff16806127d4575060005460ff16155b6127f05760405162461bcd60e51b81526004016109fe90613c90565b600054610100900460ff16158015611e55576000805461ffff19166101011790558015610e6d576000805461ff001916905550565b600054610100900460ff168061283e575060005460ff16155b61285a5760405162461bcd60e51b81526004016109fe90613c90565b600054610100900460ff1615801561287c576000805461ffff19166101011790555b825161288f9060659060208601906134f8565b5081516128a39060669060208501906134f8565b508015610b34576000805461ff0019169055505050565b600054610100900460ff16806128d3575060005460ff16155b6128ef5760405162461bcd60e51b81526004016109fe90613c90565b600054610100900460ff16158015612911576000805461ffff19166101011790555b61012d805460ff191690558015610e6d576000805461ff001916905550565b600054610100900460ff1680612949575060005460ff16155b6129655760405162461bcd60e51b81526004016109fe90613c90565b600054610100900460ff16158015612987576000805461ffff19166101011790555b81518351146129f35760405162461bcd60e51b815260206004820152603260248201527f5061796d656e7453706c69747465723a2070617965657320616e6420736861726044820152710cae640d8cadccee8d040dad2e6dac2e8c6d60731b60648201526084016109fe565b6000835111612a445760405162461bcd60e51b815260206004820152601a60248201527f5061796d656e7453706c69747465723a206e6f2070617965657300000000000060448201526064016109fe565b60005b83518110156128a357612aa8848281518110612a7357634e487b7160e01b600052603260045260246000fd5b6020026020010151848381518110612a9b57634e487b7160e01b600052603260045260246000fd5b6020026020010151612eaa565b80612ab281613e5e565b915050612a47565b6118448282612520565b6000826000018281548110612ae957634e487b7160e01b600052603260045260246000fd5b9060005260206000200154905092915050565b60006001600160a01b0384163b15612bfe57604051630a85bd0160e11b81526001600160a01b0385169063150b7a0290612b40903390899088908890600401613bc4565b602060405180830381600087803b158015612b5a57600080fd5b505af1925050508015612b8a575060408051601f3d908101601f19168201909252612b87918101906138e1565b60015b612be4573d808015612bb8576040519150601f19603f3d011682016040523d82523d6000602084013e612bbd565b606091505b508051612bdc5760405162461bcd60e51b81526004016109fe90613c14565b805181602001fd5b6001600160e01b031916630a85bd0160e11b149050611a43565b506001949350505050565b6060604051806060016040528060218152602001613efb60219139905090565b6060612c3482611755565b612c985760405162461bcd60e51b815260206004820152602f60248201527f4552433732314d657461646174613a2055524920717565727920666f72206e6f60448201526e3732bc34b9ba32b73a103a37b5b2b760891b60648201526084016109fe565b6000612ca2612c09565b90506000815111612cc257604051806020016040528060008152506112e3565b80612ccc84613095565b604051602001612cdd929190613b20565b6040516020818303038152906040529392505050565b612cfd83836131af565b612d0a6000848484612afc565b610b345760405162461bcd60e51b81526004016109fe90613c14565b60006001600160e01b0319821663780e9d6360e01b14806108fe57506108fe826132ee565b6001600160a01b038316612da657612da181609980546000838152609a60205260408120829055600182018355919091527f72a152ddfb8e864297c917af52ea6c1c68aead0fee1a62673fcc7e0c94979d000155565b612dc9565b816001600160a01b0316836001600160a01b031614612dc957612dc9838261333e565b6001600160a01b038216612de057610b34816133db565b826001600160a01b0316826001600160a01b031614610b3457610b3482826134b4565b6000612e0e82611115565b9050612e1c816000846124f1565b612e27600083611772565b6001600160a01b0381166000908152606860205260408120805460019290612e50908490613dcf565b909155505060008281526067602052604080822080546001600160a01b0319169055518391906001600160a01b038416907fddf252ad1be2c89b69c2b068fc378daa952ba7f163c4a11628f55a4df523b3ef908390a45050565b6001600160a01b038216612f155760405162461bcd60e51b815260206004820152602c60248201527f5061796d656e7453706c69747465723a206163636f756e74206973207468652060448201526b7a65726f206164647265737360a01b60648201526084016109fe565b60008111612f655760405162461bcd60e51b815260206004820152601d60248201527f5061796d656e7453706c69747465723a2073686172657320617265203000000060448201526064016109fe565b6001600160a01b03821660009081526101c5602052604090205415612fe05760405162461bcd60e51b815260206004820152602b60248201527f5061796d656e7453706c69747465723a206163636f756e7420616c726561647960448201526a206861732073686172657360a81b60648201526084016109fe565b6101c78054600181019091557fff6df30967a6a678f565c59a19e91e5c0dbb20cfe9f9bf26d7da6dea0fffa24c0180546001600160a01b0319166001600160a01b03841690811790915560009081526101c5602052604090208190556101c35461304b908290613d84565b6101c355604080516001600160a01b0384168152602081018390527f40c340f65e17194d14ddddb073d3c9f888e3cb52b5aae0c6c7706b4fbc905fac910160405180910390a15050565b6060816130b95750506040805180820190915260018152600360fc1b602082015290565b8160005b81156130e357806130cd81613e5e565b91506130dc9050600a83613d9c565b91506130bd565b60008167ffffffffffffffff81111561310c57634e487b7160e01b600052604160045260246000fd5b6040519080825280601f01601f191660200182016040528015613136576020820181803683370190505b5090505b8415611a435761314b600183613dcf565b9150613158600a86613e79565b613163906030613d84565b60f81b81838151811061318657634e487b7160e01b600052603260045260246000fd5b60200101906001600160f81b031916908160001a9053506131a8600a86613d9c565b945061313a565b6001600160a01b0382166132055760405162461bcd60e51b815260206004820181905260248201527f4552433732313a206d696e7420746f20746865207a65726f206164647265737360448201526064016109fe565b61320e81611755565b1561325b5760405162461bcd60e51b815260206004820152601c60248201527f4552433732313a20746f6b656e20616c7265616479206d696e7465640000000060448201526064016109fe565b613267600083836124f1565b6001600160a01b0382166000908152606860205260408120805460019290613290908490613d84565b909155505060008181526067602052604080822080546001600160a01b0319166001600160a01b03861690811790915590518392907fddf252ad1be2c89b69c2b068fc378daa952ba7f163c4a11628f55a4df523b3ef908290a45050565b60006001600160e01b031982166380ac58cd60e01b148061331f57506001600160e01b03198216635b5e139f60e01b145b806108fe57506301ffc9a760e01b6001600160e01b03198316146108fe565b6000600161334b8461119f565b6133559190613dcf565b6000838152609860205260409020549091508082146133a8576001600160a01b03841660009081526097602090815260408083208584528252808320548484528184208190558352609890915290208190555b5060009182526098602090815260408084208490556001600160a01b039094168352609781528383209183525290812055565b6099546000906133ed90600190613dcf565b6000838152609a60205260408120546099805493945090928490811061342357634e487b7160e01b600052603260045260246000fd5b90600052602060002001549050806099838154811061345257634e487b7160e01b600052603260045260246000fd5b6000918252602080832090910192909255828152609a9091526040808220849055858252812055609980548061349857634e487b7160e01b600052603160045260246000fd5b6001900381819060005260206000200160009055905550505050565b60006134bf8361119f565b6001600160a01b039093166000908152609760209081526040808320868452825280832085905593825260989052919091209190915550565b82805461350490613e29565b90600052602060002090601f016020900481019282613526576000855561356c565b82601f1061353f57805160ff191683800117855561356c565b8280016001018555821561356c579182015b8281111561356c578251825591602001919060010190613551565b506135789291506135b2565b5090565b50805461358890613e29565b6000825580601f10613598575050565b601f016020900490600052602060002090810190610e6d91905b5b8082111561357857600081556001016135b3565b600067ffffffffffffffff8311156135e1576135e1613eb9565b6135f4601f8401601f1916602001613d2f565b905082815283838301111561360857600080fd5b828260208301376000602084830101529392505050565b600082601f83011261362f578081fd5b8135602061364461363f83613d60565b613d2f565b80838252828201915082860187848660051b8901011115613663578586fd5b855b8581101561368157813584529284019290840190600101613665565b5090979650505050505050565b600082601f83011261369e578081fd5b6112e3838335602085016135c7565b6000602082840312156136be578081fd5b81356112e381613ecf565b600080604083850312156136db578081fd5b82356136e681613ecf565b915060208301356136f681613ecf565b809150509250929050565b600080600060608486031215613715578081fd5b833561372081613ecf565b9250602084013561373081613ecf565b929592945050506040919091013590565b60008060008060808587031215613756578081fd5b843561376181613ecf565b9350602085013561377181613ecf565b925060408501359150606085013567ffffffffffffffff811115613793578182fd5b8501601f810187136137a3578182fd5b6137b2878235602084016135c7565b91505092959194509250565b600080604083850312156137d0578182fd5b82356137db81613ecf565b9150602083013580151581146136f6578182fd5b60008060408385031215613801578182fd5b823561380c81613ecf565b9150602083013567ffffffffffffffff811115613827578182fd5b6138338582860161368e565b9150509250929050565b6000806040838503121561384f578182fd5b823561385a81613ecf565b946020939093013593505050565b600060208284031215613879578081fd5b5035919050565b60008060408385031215613892578182fd5b8235915060208301356136f681613ecf565b600080604083850312156138b6578182fd5b50508035926020909101359150565b6000602082840312156138d6578081fd5b81356112e381613ee4565b6000602082840312156138f2578081fd5b81516112e381613ee4565b6000806020838503121561390f578182fd5b823567ffffffffffffffff80821115613926578384fd5b818501915085601f830112613939578384fd5b813581811115613947578485fd5b866020828501011115613958578485fd5b60209290920196919550909350505050565b60006020828403121561397b578081fd5b813567ffffffffffffffff811115613991578182fd5b611a438482850161368e565b600080600080608085870312156139b2578182fd5b843567ffffffffffffffff808211156139c9578384fd5b6139d58883890161368e565b95506020915081870135818111156139eb578485fd5b6139f789828a0161368e565b955050604087013581811115613a0b578485fd5b8701601f81018913613a1b578485fd5b8035613a2961363f82613d60565b8082825285820191508584018c878560051b8701011115613a48578889fd5b8894505b83851015613a73578035613a5f81613ecf565b835260019490940193918601918601613a4c565b5096505050506060870135915080821115613a8c578283fd5b506137b28782880161361f565b60008060408385031215613aab578182fd5b82359150602083013567ffffffffffffffff811115613827578182fd5b60008151808452613ae0816020860160208601613de6565b601f01601f19169290920160200192915050565b8183823760009101908152919050565b60008251613b16818460208701613de6565b9190910192915050565b60008351613b32818460208801613de6565b835190830190613b46818360208801613de6565b01949350505050565b7f416363657373436f6e74726f6c3a206163636f756e7420000000000000000000815260008351613b87816017850160208801613de6565b7001034b99036b4b9b9b4b733903937b6329607d1b6017918401918201528351613bb8816028840160208801613de6565b01602801949350505050565b6001600160a01b0385811682528416602082015260408101839052608060608201819052600090613bf790830184613ac8565b9695505050505050565b6020815260006112e36020830184613ac8565b60208082526032908201527f4552433732313a207472616e7366657220746f206e6f6e20455243373231526560408201527131b2b4bb32b91034b6b83632b6b2b73a32b960711b606082015260800190565b60208082526010908201526f14185d5cd8589b194e881c185d5cd95960821b604082015260600190565b6020808252602e908201527f496e697469616c697a61626c653a20636f6e747261637420697320616c72656160408201526d191e481a5b9a5d1a585b1a5e995960921b606082015260800190565b60208082526031908201527f4552433732313a207472616e736665722063616c6c6572206973206e6f74206f6040820152701ddb995c881b9bdc88185c1c1c9bdd9959607a1b606082015260800190565b604051601f8201601f1916810167ffffffffffffffff81118282101715613d5857613d58613eb9565b604052919050565b600067ffffffffffffffff821115613d7a57613d7a613eb9565b5060051b60200190565b60008219821115613d9757613d97613e8d565b500190565b600082613dab57613dab613ea3565b500490565b6000816000190483118215151615613dca57613dca613e8d565b500290565b600082821015613de157613de1613e8d565b500390565b60005b83811015613e01578181015183820152602001613de9565b8381111561142f5750506000910152565b600081613e2157613e21613e8d565b506000190190565b600181811c90821680613e3d57607f821691505b60208210811415610b6957634e487b7160e01b600052602260045260246000fd5b6000600019821415613e7257613e72613e8d565b5060010190565b600082613e8857613e88613ea3565b500690565b634e487b7160e01b600052601160045260246000fd5b634e487b7160e01b600052601260045260246000fd5b634e487b7160e01b600052604160045260246000fd5b6001600160a01b0381168114610e6d57600080fd5b6001600160e01b031981168114610e6d57600080fdfe68747470733a2f2f63727970746f776f7264732e6172742f6170692f776f72642fa264697066735822122008ffd5c83f54147806f5cfe3a9485a076fcab2cc0defc0fae0730f9a94ea1f9464736f6c63430008040033",
  "linkReferences": {},
  "deployedLinkReferences": {}
}