{
  "_format": "hh-sol-artifact-1",
  "contractName": "CryptoWordsV1",
  "sourceName": "contracts/CryptoWordsV1.sol",
  "abi": [
    {
      "inputs": [],
      "stateMutability": "nonpayable",
      "type": "constructor"
    },
    {
      "anonymous": false,
      "inputs": [
        {
          "indexed": true,
          "internalType": "address",
          "name": "owner",
          "type": "address"
        },
        {
          "indexed": true,
          "internalType": "address",
          "name": "approved",
          "type": "address"
        },
        {
          "indexed": true,
          "internalType": "uint256",
          "name": "tokenId",
          "type": "uint256"
        }
      ],
      "name": "Approval",
      "type": "event"
    },
    {
      "anonymous": false,
      "inputs": [
        {
          "indexed": true,
          "internalType": "address",
          "name": "owner",
          "type": "address"
        },
        {
          "indexed": true,
          "internalType": "address",
          "name": "operator",
          "type": "address"
        },
        {
          "indexed": false,
          "internalType": "bool",
          "name": "approved",
          "type": "bool"
        }
      ],
      "name": "ApprovalForAll",
      "type": "event"
    },
    {
      "anonymous": false,
      "inputs": [
        {
          "indexed": false,
          "internalType": "uint256",
          "name": "discount",
          "type": "uint256"
        }
      ],
      "name": "DiscountGlobalSet",
      "type": "event"
    },
    {
      "anonymous": false,
      "inputs": [
        {
          "indexed": false,
          "internalType": "uint256",
          "name": "discount",
          "type": "uint256"
        }
      ],
      "name": "DiscountSet",
      "type": "event"
    },
    {
      "anonymous": false,
      "inputs": [
        {
          "indexed": false,
          "internalType": "address",
          "name": "account",
          "type": "address"
        }
      ],
      "name": "Paused",
      "type": "event"
    },
    {
      "anonymous": false,
      "inputs": [
        {
          "indexed": false,
          "internalType": "address",
          "name": "account",
          "type": "address"
        },
        {
          "indexed": false,
          "internalType": "uint256",
          "name": "shares",
          "type": "uint256"
        }
      ],
      "name": "PayeeAdded",
      "type": "event"
    },
    {
      "anonymous": false,
      "inputs": [
        {
          "indexed": false,
          "internalType": "address",
          "name": "from",
          "type": "address"
        },
        {
          "indexed": false,
          "internalType": "uint256",
          "name": "amount",
          "type": "uint256"
        }
      ],
      "name": "PaymentReceived",
      "type": "event"
    },
    {
      "anonymous": false,
      "inputs": [
        {
          "indexed": false,
          "internalType": "address",
          "name": "to",
          "type": "address"
        },
        {
          "indexed": false,
          "internalType": "uint256",
          "name": "amount",
          "type": "uint256"
        }
      ],
      "name": "PaymentReleased",
      "type": "event"
    },
    {
      "anonymous": false,
      "inputs": [
        {
          "indexed": false,
          "internalType": "uint256",
          "name": "price",
          "type": "uint256"
        }
      ],
      "name": "PriceSet",
      "type": "event"
    },
    {
      "anonymous": false,
      "inputs": [
        {
          "indexed": true,
          "internalType": "bytes32",
          "name": "role",
          "type": "bytes32"
        },
        {
          "indexed": true,
          "internalType": "bytes32",
          "name": "previousAdminRole",
          "type": "bytes32"
        },
        {
          "indexed": true,
          "internalType": "bytes32",
          "name": "newAdminRole",
          "type": "bytes32"
        }
      ],
      "name": "RoleAdminChanged",
      "type": "event"
    },
    {
      "anonymous": false,
      "inputs": [
        {
          "indexed": true,
          "internalType": "bytes32",
          "name": "role",
          "type": "bytes32"
        },
        {
          "indexed": true,
          "internalType": "address",
          "name": "account",
          "type": "address"
        },
        {
          "indexed": true,
          "internalType": "address",
          "name": "sender",
          "type": "address"
        }
      ],
      "name": "RoleGranted",
      "type": "event"
    },
    {
      "anonymous": false,
      "inputs": [
        {
          "indexed": true,
          "internalType": "bytes32",
          "name": "role",
          "type": "bytes32"
        },
        {
          "indexed": true,
          "internalType": "address",
          "name": "account",
          "type": "address"
        },
        {
          "indexed": true,
          "internalType": "address",
          "name": "sender",
          "type": "address"
        }
      ],
      "name": "RoleRevoked",
      "type": "event"
    },
    {
      "anonymous": false,
      "inputs": [
        {
          "indexed": true,
          "internalType": "address",
          "name": "from",
          "type": "address"
        },
        {
          "indexed": true,
          "internalType": "address",
          "name": "to",
          "type": "address"
        },
        {
          "indexed": true,
          "internalType": "uint256",
          "name": "tokenId",
          "type": "uint256"
        }
      ],
      "name": "Transfer",
      "type": "event"
    },
    {
      "anonymous": false,
      "inputs": [
        {
          "indexed": false,
          "internalType": "address",
          "name": "account",
          "type": "address"
        }
      ],
      "name": "Unpaused",
      "type": "event"
    },
    {
      "anonymous": false,
      "inputs": [
        {
          "indexed": false,
          "internalType": "uint256",
          "name": "tokenId",
          "type": "uint256"
        },
        {
          "indexed": false,
          "internalType": "string",
          "name": "word",
          "type": "string"
        },
        {
          "indexed": false,
          "internalType": "address",
          "name": "to",
          "type": "address"
        }
      ],
      "name": "WordMinted",
      "type": "event"
    },
    {
      "inputs": [],
      "name": "DEFAULT_ADMIN_ROLE",
      "outputs": [
        {
          "internalType": "bytes32",
          "name": "",
          "type": "bytes32"
        }
      ],
      "stateMutability": "view",
      "type": "function"
    },
    {
      "inputs": [],
      "name": "DISCOUNTED_ROLE",
      "outputs": [
        {
          "internalType": "bytes32",
          "name": "",
          "type": "bytes32"
        }
      ],
      "stateMutability": "view",
      "type": "function"
    },
    {
      "inputs": [],
      "name": "MINTER_ROLE",
      "outputs": [
        {
          "internalType": "bytes32",
          "name": "",
          "type": "bytes32"
        }
      ],
      "stateMutability": "view",
      "type": "function"
    },
    {
      "inputs": [],
      "name": "PAUSER_ROLE",
      "outputs": [
        {
          "internalType": "bytes32",
          "name": "",
          "type": "bytes32"
        }
      ],
      "stateMutability": "view",
      "type": "function"
    },
    {
      "inputs": [],
      "name": "ROYALTY_FREE_ROLE",
      "outputs": [
        {
          "internalType": "bytes32",
          "name": "",
          "type": "bytes32"
        }
      ],
      "stateMutability": "view",
      "type": "function"
    },
    {
      "inputs": [
        {
          "internalType": "address",
          "name": "to",
          "type": "address"
        },
        {
          "internalType": "uint256",
          "name": "tokenId",
          "type": "uint256"
        }
      ],
      "name": "approve",
      "outputs": [],
      "stateMutability": "nonpayable",
      "type": "function"
    },
    {
      "inputs": [],
      "name": "artist",
      "outputs": [
        {
          "internalType": "address",
          "name": "",
          "type": "address"
        }
      ],
      "stateMutability": "view",
      "type": "function"
    },
    {
      "inputs": [
        {
          "internalType": "address",
          "name": "owner",
          "type": "address"
        }
      ],
      "name": "balanceOf",
      "outputs": [
        {
          "internalType": "uint256",
          "name": "",
          "type": "uint256"
        }
      ],
      "stateMutability": "view",
      "type": "function"
    },
    {
      "inputs": [
        {
          "internalType": "uint256",
          "name": "tokenId",
          "type": "uint256"
        }
      ],
      "name": "burn",
      "outputs": [],
      "stateMutability": "nonpayable",
      "type": "function"
    },
    {
      "inputs": [
        {
          "internalType": "string",
          "name": "word",
          "type": "string"
        }
      ],
      "name": "burnByWord",
      "outputs": [],
      "stateMutability": "nonpayable",
      "type": "function"
    },
    {
      "inputs": [],
      "name": "defaultPrice",
      "outputs": [
        {
          "internalType": "uint256",
          "name": "",
          "type": "uint256"
        }
      ],
      "stateMutability": "view",
      "type": "function"
    },
    {
      "inputs": [],
      "name": "discountPercentage",
      "outputs": [
        {
          "internalType": "uint256",
          "name": "",
          "type": "uint256"
        }
      ],
      "stateMutability": "view",
      "type": "function"
    },
    {
      "inputs": [],
      "name": "discountPercentageGlobal",
      "outputs": [
        {
          "internalType": "uint256",
          "name": "",
          "type": "uint256"
        }
      ],
      "stateMutability": "view",
      "type": "function"
    },
    {
      "inputs": [
        {
          "internalType": "uint256",
          "name": "tokenId",
          "type": "uint256"
        }
      ],
      "name": "getApproved",
      "outputs": [
        {
          "internalType": "address",
          "name": "",
          "type": "address"
        }
      ],
      "stateMutability": "view",
      "type": "function"
    },
    {
      "inputs": [
        {
          "internalType": "string",
          "name": "word",
          "type": "string"
        }
      ],
      "name": "getCustomPriceByWord",
      "outputs": [
        {
          "internalType": "uint256",
          "name": "",
          "type": "uint256"
        }
      ],
      "stateMutability": "view",
      "type": "function"
    },
    {
      "inputs": [
        {
          "internalType": "string",
          "name": "word",
          "type": "string"
        }
      ],
      "name": "getIdByWord",
      "outputs": [
        {
          "internalType": "uint256",
          "name": "",
          "type": "uint256"
        }
      ],
      "stateMutability": "view",
      "type": "function"
    },
    {
      "inputs": [
        {
          "internalType": "address",
          "name": "account",
          "type": "address"
        },
        {
          "internalType": "string",
          "name": "word",
          "type": "string"
        }
      ],
      "name": "getPrice",
      "outputs": [
        {
          "internalType": "uint256",
          "name": "",
          "type": "uint256"
        }
      ],
      "stateMutability": "view",
      "type": "function"
    },
    {
      "inputs": [
        {
          "internalType": "uint256",
          "name": "_limit",
          "type": "uint256"
        }
      ],
      "name": "getRecentTokenIds",
      "outputs": [
        {
          "internalType": "uint256[]",
          "name": "",
          "type": "uint256[]"
        }
      ],
      "stateMutability": "view",
      "type": "function"
    },
    {
      "inputs": [
        {
          "internalType": "uint256",
          "name": "_limit",
          "type": "uint256"
        }
      ],
      "name": "getRecentWords",
      "outputs": [
        {
          "internalType": "string[]",
          "name": "",
          "type": "string[]"
        }
      ],
      "stateMutability": "view",
      "type": "function"
    },
    {
      "inputs": [
        {
          "internalType": "bytes32",
          "name": "role",
          "type": "bytes32"
        }
      ],
      "name": "getRoleAdmin",
      "outputs": [
        {
          "internalType": "bytes32",
          "name": "",
          "type": "bytes32"
        }
      ],
      "stateMutability": "view",
      "type": "function"
    },
    {
      "inputs": [
        {
          "internalType": "bytes32",
          "name": "role",
          "type": "bytes32"
        },
        {
          "internalType": "uint256",
          "name": "index",
          "type": "uint256"
        }
      ],
      "name": "getRoleMember",
      "outputs": [
        {
          "internalType": "address",
          "name": "",
          "type": "address"
        }
      ],
      "stateMutability": "view",
      "type": "function"
    },
    {
      "inputs": [
        {
          "internalType": "bytes32",
          "name": "role",
          "type": "bytes32"
        }
      ],
      "name": "getRoleMemberCount",
      "outputs": [
        {
          "internalType": "uint256",
          "name": "",
          "type": "uint256"
        }
      ],
      "stateMutability": "view",
      "type": "function"
    },
    {
      "inputs": [
        {
          "internalType": "address",
          "name": "_owner",
          "type": "address"
        }
      ],
      "name": "getTokenIdsByOwner",
      "outputs": [
        {
          "internalType": "uint256[]",
          "name": "",
          "type": "uint256[]"
        }
      ],
      "stateMutability": "view",
      "type": "function"
    },
    {
      "inputs": [
        {
          "internalType": "address",
          "name": "_owner",
          "type": "address"
        }
      ],
      "name": "getWordsByOwner",
      "outputs": [
        {
          "internalType": "string[]",
          "name": "",
          "type": "string[]"
        }
      ],
      "stateMutability": "view",
      "type": "function"
    },
    {
      "inputs": [
        {
          "internalType": "bytes32",
          "name": "role",
          "type": "bytes32"
        },
        {
          "internalType": "address",
          "name": "account",
          "type": "address"
        }
      ],
      "name": "grantRole",
      "outputs": [],
      "stateMutability": "nonpayable",
      "type": "function"
    },
    {
      "inputs": [
        {
          "internalType": "bytes32",
          "name": "role",
          "type": "bytes32"
        },
        {
          "internalType": "address",
          "name": "account",
          "type": "address"
        }
      ],
      "name": "hasRole",
      "outputs": [
        {
          "internalType": "bool",
          "name": "",
          "type": "bool"
        }
      ],
      "stateMutability": "view",
      "type": "function"
    },
    {
      "inputs": [
        {
          "internalType": "string",
          "name": "name",
          "type": "string"
        },
        {
          "internalType": "string",
          "name": "symbol",
          "type": "string"
        },
        {
          "internalType": "address[]",
          "name": "payees",
          "type": "address[]"
        },
        {
          "internalType": "uint256[]",
          "name": "shares",
          "type": "uint256[]"
        }
      ],
      "name": "initialize",
      "outputs": [],
      "stateMutability": "payable",
      "type": "function"
    },
    {
      "inputs": [
        {
          "internalType": "address",
          "name": "owner",
          "type": "address"
        },
        {
          "internalType": "address",
          "name": "operator",
          "type": "address"
        }
      ],
      "name": "isApprovedForAll",
      "outputs": [
        {
          "internalType": "bool",
          "name": "",
          "type": "bool"
        }
      ],
      "stateMutability": "view",
      "type": "function"
    },
    {
      "inputs": [],
      "name": "name",
      "outputs": [
        {
          "internalType": "string",
          "name": "",
          "type": "string"
        }
      ],
      "stateMutability": "view",
      "type": "function"
    },
    {
      "inputs": [
        {
          "internalType": "uint256",
          "name": "tokenId",
          "type": "uint256"
        }
      ],
      "name": "ownerOf",
      "outputs": [
        {
          "internalType": "address",
          "name": "",
          "type": "address"
        }
      ],
      "stateMutability": "view",
      "type": "function"
    },
    {
      "inputs": [],
      "name": "pause",
      "outputs": [],
      "stateMutability": "nonpayable",
      "type": "function"
    },
    {
      "inputs": [],
      "name": "paused",
      "outputs": [
        {
          "internalType": "bool",
          "name": "",
          "type": "bool"
        }
      ],
      "stateMutability": "view",
      "type": "function"
    },
    {
      "inputs": [
        {
          "internalType": "uint256",
          "name": "index",
          "type": "uint256"
        }
      ],
      "name": "payee",
      "outputs": [
        {
          "internalType": "address",
          "name": "",
          "type": "address"
        }
      ],
      "stateMutability": "view",
      "type": "function"
    },
    {
      "inputs": [
        {
          "internalType": "address",
          "name": "to",
          "type": "address"
        },
        {
          "internalType": "string",
          "name": "word",
          "type": "string"
        }
      ],
      "name": "purchaseWord",
      "outputs": [],
      "stateMutability": "payable",
      "type": "function"
    },
    {
      "inputs": [
        {
          "internalType": "address payable",
          "name": "account",
          "type": "address"
        }
      ],
      "name": "release",
      "outputs": [],
      "stateMutability": "nonpayable",
      "type": "function"
    },
    {
      "inputs": [
        {
          "internalType": "address",
          "name": "account",
          "type": "address"
        }
      ],
      "name": "released",
      "outputs": [
        {
          "internalType": "uint256",
          "name": "",
          "type": "uint256"
        }
      ],
      "stateMutability": "view",
      "type": "function"
    },
    {
      "inputs": [
        {
          "internalType": "bytes32",
          "name": "role",
          "type": "bytes32"
        },
        {
          "internalType": "address",
          "name": "account",
          "type": "address"
        }
      ],
      "name": "renounceRole",
      "outputs": [],
      "stateMutability": "nonpayable",
      "type": "function"
    },
    {
      "inputs": [
        {
          "internalType": "bytes32",
          "name": "role",
          "type": "bytes32"
        },
        {
          "internalType": "address",
          "name": "account",
          "type": "address"
        }
      ],
      "name": "revokeRole",
      "outputs": [],
      "stateMutability": "nonpayable",
      "type": "function"
    },
    {
      "inputs": [],
      "name": "royaltiesPercentage",
      "outputs": [
        {
          "internalType": "uint256",
          "name": "",
          "type": "uint256"
        }
      ],
      "stateMutability": "view",
      "type": "function"
    },
    {
      "inputs": [],
      "name": "royaltiesReceiver",
      "outputs": [
        {
          "internalType": "address",
          "name": "",
          "type": "address"
        }
      ],
      "stateMutability": "view",
      "type": "function"
    },
    {
      "inputs": [
        {
          "internalType": "uint256",
          "name": "_tokenId",
          "type": "uint256"
        },
        {
          "internalType": "uint256",
          "name": "_salePrice",
          "type": "uint256"
        }
      ],
      "name": "royaltyInfo",
      "outputs": [
        {
          "internalType": "address",
          "name": "receiver",
          "type": "address"
        },
        {
          "internalType": "uint256",
          "name": "royaltyAmount",
          "type": "uint256"
        }
      ],
      "stateMutability": "view",
      "type": "function"
    },
    {
      "inputs": [
        {
          "internalType": "address",
          "name": "from",
          "type": "address"
        },
        {
          "internalType": "address",
          "name": "to",
          "type": "address"
        },
        {
          "internalType": "uint256",
          "name": "tokenId",
          "type": "uint256"
        }
      ],
      "name": "safeTransferFrom",
      "outputs": [],
      "stateMutability": "nonpayable",
      "type": "function"
    },
    {
      "inputs": [
        {
          "internalType": "address",
          "name": "from",
          "type": "address"
        },
        {
          "internalType": "address",
          "name": "to",
          "type": "address"
        },
        {
          "internalType": "uint256",
          "name": "tokenId",
          "type": "uint256"
        },
        {
          "internalType": "bytes",
          "name": "_data",
          "type": "bytes"
        }
      ],
      "name": "safeTransferFrom",
      "outputs": [],
      "stateMutability": "nonpayable",
      "type": "function"
    },
    {
      "inputs": [
        {
          "internalType": "address",
          "name": "operator",
          "type": "address"
        },
        {
          "internalType": "bool",
          "name": "approved",
          "type": "bool"
        }
      ],
      "name": "setApprovalForAll",
      "outputs": [],
      "stateMutability": "nonpayable",
      "type": "function"
    },
    {
      "inputs": [
        {
          "internalType": "uint256",
          "name": "price",
          "type": "uint256"
        },
        {
          "internalType": "string",
          "name": "word",
          "type": "string"
        }
      ],
      "name": "setCustomPriceByWord",
      "outputs": [],
      "stateMutability": "nonpayable",
      "type": "function"
    },
    {
      "inputs": [
        {
          "internalType": "uint256",
          "name": "price",
          "type": "uint256"
        }
      ],
      "name": "setDefaultPrice",
      "outputs": [],
      "stateMutability": "nonpayable",
      "type": "function"
    },
    {
      "inputs": [
        {
          "internalType": "uint256",
          "name": "percentage",
          "type": "uint256"
        }
      ],
      "name": "setDiscountPercentage",
      "outputs": [],
      "stateMutability": "nonpayable",
      "type": "function"
    },
    {
      "inputs": [
        {
          "internalType": "uint256",
          "name": "percentage",
          "type": "uint256"
        }
      ],
      "name": "setDiscountPercentageGlobal",
      "outputs": [],
      "stateMutability": "nonpayable",
      "type": "function"
    },
    {
      "inputs": [
        {
          "internalType": "address",
          "name": "newRoyaltiesReceiver",
          "type": "address"
        }
      ],
      "name": "setRoyaltiesReceiver",
      "outputs": [],
      "stateMutability": "nonpayable",
      "type": "function"
    },
    {
      "inputs": [
        {
          "internalType": "address",
          "name": "account",
          "type": "address"
        }
      ],
      "name": "shares",
      "outputs": [
        {
          "internalType": "uint256",
          "name": "",
          "type": "uint256"
        }
      ],
      "stateMutability": "view",
      "type": "function"
    },
    {
      "inputs": [
        {
          "internalType": "bytes4",
          "name": "interfaceId",
          "type": "bytes4"
        }
      ],
      "name": "supportsInterface",
      "outputs": [
        {
          "internalType": "bool",
          "name": "",
          "type": "bool"
        }
      ],
      "stateMutability": "view",
      "type": "function"
    },
    {
      "inputs": [],
      "name": "symbol",
      "outputs": [
        {
          "internalType": "string",
          "name": "",
          "type": "string"
        }
      ],
      "stateMutability": "view",
      "type": "function"
    },
    {
      "inputs": [
        {
          "internalType": "uint256",
          "name": "index",
          "type": "uint256"
        }
      ],
      "name": "tokenByIndex",
      "outputs": [
        {
          "internalType": "uint256",
          "name": "",
          "type": "uint256"
        }
      ],
      "stateMutability": "view",
      "type": "function"
    },
    {
      "inputs": [
        {
          "internalType": "address",
          "name": "owner",
          "type": "address"
        },
        {
          "internalType": "uint256",
          "name": "index",
          "type": "uint256"
        }
      ],
      "name": "tokenOfOwnerByIndex",
      "outputs": [
        {
          "internalType": "uint256",
          "name": "",
          "type": "uint256"
        }
      ],
      "stateMutability": "view",
      "type": "function"
    },
    {
      "inputs": [
        {
          "internalType": "uint256",
          "name": "tokenId",
          "type": "uint256"
        }
      ],
      "name": "tokenURI",
      "outputs": [
        {
          "internalType": "string",
          "name": "",
          "type": "string"
        }
      ],
      "stateMutability": "view",
      "type": "function"
    },
    {
      "inputs": [],
      "name": "totalReleased",
      "outputs": [
        {
          "internalType": "uint256",
          "name": "",
          "type": "uint256"
        }
      ],
      "stateMutability": "view",
      "type": "function"
    },
    {
      "inputs": [],
      "name": "totalShares",
      "outputs": [
        {
          "internalType": "uint256",
          "name": "",
          "type": "uint256"
        }
      ],
      "stateMutability": "view",
      "type": "function"
    },
    {
      "inputs": [],
      "name": "totalSupply",
      "outputs": [
        {
          "internalType": "uint256",
          "name": "",
          "type": "uint256"
        }
      ],
      "stateMutability": "view",
      "type": "function"
    },
    {
      "inputs": [
        {
          "internalType": "address",
          "name": "from",
          "type": "address"
        },
        {
          "internalType": "address",
          "name": "to",
          "type": "address"
        },
        {
          "internalType": "uint256",
          "name": "tokenId",
          "type": "uint256"
        }
      ],
      "name": "transferFrom",
      "outputs": [],
      "stateMutability": "nonpayable",
      "type": "function"
    },
    {
      "inputs": [],
      "name": "unpause",
      "outputs": [],
      "stateMutability": "nonpayable",
      "type": "function"
    },
    {
      "inputs": [
        {
          "internalType": "string",
          "name": "word",
          "type": "string"
        }
      ],
      "name": "wordExists",
      "outputs": [
        {
          "internalType": "bool",
          "name": "",
          "type": "bool"
        }
      ],
      "stateMutability": "view",
      "type": "function"
    },
    {
      "stateMutability": "payable",
      "type": "receive"
    }
  ],
  "bytecode": "0x60806040523480156200001157600080fd5b50600054610100900460ff16806200002c575060005460ff16155b620000945760405162461bcd60e51b815260206004820152602e60248201527f496e697469616c697a61626c653a20636f6e747261637420697320616c72656160448201526d191e481a5b9a5d1a585b1a5e995960921b606482015260840160405180910390fd5b600054610100900460ff16158015620000b7576000805461ffff19166101011790555b8015620000ca576000805461ff00191690555b50614a3380620000db6000396000f3fe6080604052600436106103a65760003560e01c80638456cb59116101e7578063b3fa9f241161010d578063d0fd890d116100a0578063e63ab1e91161006f578063e63ab1e914610b27578063e69e04b314610b3e578063e985e9c514610b55578063ece7669e14610b9e57600080fd5b8063d0fd890d14610ac7578063d539139314610ada578063d547741f14610af1578063e33b7de314610b1157600080fd5b8063c87b56dd116100dc578063c87b56dd14610a39578063ca15c87314610a59578063cafa8dfe14610a79578063ce7c2ac214610a9057600080fd5b8063b3fa9f24146109c2578063b5143715146109d9578063b88d4fde146109f9578063c32107f614610a1957600080fd5b806395d89b4111610185578063a22cb46511610154578063a22cb4651461094a578063a3a51bd51461096a578063a7abb8b71461098b578063b3428d15146109a257600080fd5b806395d89b41146108c95780639838b024146108de5780639852595c146108fe578063a217fddf1461093557600080fd5b80638ae1b3e2116101c15780638ae1b3e2146108495780638b83209b146108695780639010d07c1461088957806391d14854146108a957600080fd5b80638456cb59146107f4578063845bcce11461080957806387ded6c61461082957600080fd5b80633f4ba83a116102cc5780636352211e1161026a57806370a082311161023957806370a082311461077057806373f36e581461079057806376977a3a146107a75780637b63c0fc146107c757600080fd5b80636352211e146106e35780636970bb0a146107035780636d3c7ec51461073057806370868d6f1461075057600080fd5b806343bc1612116102a657806343bc161214610676578063445d9787146106975780634f6ccce7146106aa5780635c975abb146106ca57600080fd5b80633f4ba83a1461062157806342842e0e1461063657806342966c681461065657600080fd5b806323b872dd116103445780632f2ff15d116103135780632f2ff15d146105ab5780632f745c59146105cb57806336568abe146105eb5780633a98ef391461060b57600080fd5b806323b872dd14610504578063248a9ca3146105245780632a55205a146105555780632f0f0dac1461059457600080fd5b8063095ea7b311610380578063095ea7b3146104835780630e28a9e7146104a557806318160ddd146104c557806319165587146104e457600080fd5b806301ffc9a7146103f457806306fdde0314610429578063081812fc1461044b57600080fd5b366103ef577f6ef95f06320e7a25a04a175ca677b7052bdd97131872c2192525a629f51be77033604080516001600160a01b0390921682523460208301520160405180910390a1005b600080fd5b34801561040057600080fd5b5061041461040f366004614352565b610bbe565b60405190151581526020015b60405180910390f35b34801561043557600080fd5b5061043e610be9565b60405161042091906146b3565b34801561045757600080fd5b5061046b6104663660046142f5565b610c7b565b6040516001600160a01b039091168152602001610420565b34801561048f57600080fd5b506104a361049e3660046142ca565b610d08565b005b3480156104b157600080fd5b506104a36104c036600461438a565b610e1e565b3480156104d157600080fd5b506099545b604051908152602001610420565b3480156104f057600080fd5b506104a36104ff36600461413c565b610e57565b34801561051057600080fd5b506104a361051f366004614190565b611032565b34801561053057600080fd5b506104d661053f3660046142f5565b600090815261015f602052604090206001015490565b34801561056157600080fd5b50610575610570366004614331565b611064565b604080516001600160a01b039093168352602083019190915201610420565b3480156105a057600080fd5b506104d66101f85481565b3480156105b757600080fd5b506104a36105c636600461430d565b6110d0565b3480156105d757600080fd5b506104d66105e63660046142ca565b6110f3565b3480156105f757600080fd5b506104a361060636600461430d565b611189565b34801561061757600080fd5b506101c3546104d6565b34801561062d57600080fd5b506104a36111ac565b34801561064257600080fd5b506104a3610651366004614190565b6111c5565b34801561066257600080fd5b506104a36106713660046142f5565b6111e0565b34801561068257600080fd5b506101f65461046b906001600160a01b031681565b6104a36106a53660046143bc565b611257565b3480156106b657600080fd5b506104d66106c53660046142f5565b611415565b3480156106d657600080fd5b5061012d5460ff16610414565b3480156106ef57600080fd5b5061046b6106fe3660046142f5565b6114b6565b34801561070f57600080fd5b5061072361071e36600461413c565b61152d565b604051610420919061466f565b34801561073c57600080fd5b506104a361074b3660046142f5565b6115ec565b34801561075c57600080fd5b506104d661076b36600461438a565b611646565b34801561077c57600080fd5b506104d661078b36600461413c565b61167c565b34801561079c57600080fd5b506104d66101ff5481565b3480156107b357600080fd5b506104d66107c236600461427d565b611703565b3480156107d357600080fd5b506107e76107e236600461413c565b61177f565b604051610420919061460e565b34801561080057600080fd5b506104a3611903565b34801561081557600080fd5b506104a36108243660046142f5565b611919565b34801561083557600080fd5b506107e76108443660046142f5565b61196b565b34801561085557600080fd5b506104a36108643660046144b7565b611ae7565b34801561087557600080fd5b5061046b6108843660046142f5565b611b70565b34801561089557600080fd5b5061046b6108a4366004614331565b611baf565b3480156108b557600080fd5b506104146108c436600461430d565b611bc8565b3480156108d557600080fd5b5061043e611bf4565b3480156108ea57600080fd5b506104d66108f936600461438a565b611c03565b34801561090a57600080fd5b506104d661091936600461413c565b6001600160a01b031660009081526101c6602052604090205490565b34801561094157600080fd5b506104d6600081565b34801561095657600080fd5b506104a361096536600461424c565b611c21565b34801561097657600080fd5b506101fa5461046b906001600160a01b031681565b34801561099757600080fd5b506104d66101fe5481565b3480156109ae57600080fd5b506104a36109bd3660046142f5565b611ce6565b3480156109ce57600080fd5b506104d66101f95481565b3480156109e557600080fd5b506104a36109f436600461413c565b611d38565b348015610a0557600080fd5b506104a3610a143660046141d0565b611d84565b348015610a2557600080fd5b50610414610a3436600461438a565b611dbc565b348015610a4557600080fd5b5061043e610a543660046142f5565b611de8565b348015610a6557600080fd5b506104d6610a743660046142f5565b611df3565b348015610a8557600080fd5b506104d66101fb5481565b348015610a9c57600080fd5b506104d6610aab36600461413c565b6001600160a01b031660009081526101c5602052604090205490565b6104a3610ad536600461427d565b611e0b565b348015610ae657600080fd5b506104d66101fd5481565b348015610afd57600080fd5b506104a3610b0c36600461430d565b611fe6565b348015610b1d57600080fd5b506101c4546104d6565b348015610b3357600080fd5b506104d66101fc5481565b348015610b4a57600080fd5b506104d66101f75481565b348015610b6157600080fd5b50610414610b70366004614158565b6001600160a01b039182166000908152606a6020908152604080832093909416825291909152205460ff1690565b348015610baa57600080fd5b50610723610bb93660046142f5565b611ff0565b60006001600160e01b0319821663152a902d60e11b1480610be35750610be3826120de565b92915050565b606060658054610bf89061490a565b80601f0160208091040260200160405190810160405280929190818152602001828054610c249061490a565b8015610c715780601f10610c4657610100808354040283529160200191610c71565b820191906000526020600020905b815481529060010190602001808311610c5457829003601f168201915b5050505050905090565b6000610c8682612103565b610cec5760405162461bcd60e51b815260206004820152602c60248201527f4552433732313a20617070726f76656420717565727920666f72206e6f6e657860448201526b34b9ba32b73a103a37b5b2b760a11b60648201526084015b60405180910390fd5b506000908152606960205260409020546001600160a01b031690565b6000610d13826114b6565b9050806001600160a01b0316836001600160a01b03161415610d815760405162461bcd60e51b815260206004820152602160248201527f4552433732313a20617070726f76616c20746f2063757272656e74206f776e656044820152603960f91b6064820152608401610ce3565b336001600160a01b0382161480610d9d5750610d9d8133610b70565b610e0f5760405162461bcd60e51b815260206004820152603860248201527f4552433732313a20617070726f76652063616c6c6572206973206e6f74206f7760448201527f6e6572206e6f7220617070726f76656420666f7220616c6c00000000000000006064820152608401610ce3565b610e198383612120565b505050565b6000610e2a813361218e565b600061020083604051610e3d9190614511565b9081526020016040518091039020549050610e19816121f6565b6001600160a01b03811660009081526101c56020526040902054610ecc5760405162461bcd60e51b815260206004820152602660248201527f5061796d656e7453706c69747465723a206163636f756e7420686173206e6f2060448201526573686172657360d01b6064820152608401610ce3565b60006101c45447610edd9190614865565b6001600160a01b03831660009081526101c660209081526040808320546101c3546101c5909352908320549394509192610f179085614891565b610f21919061487d565b610f2b91906148b0565b905080610f8e5760405162461bcd60e51b815260206004820152602b60248201527f5061796d656e7453706c69747465723a206163636f756e74206973206e6f742060448201526a191d59481c185e5b595b9d60aa1b6064820152608401610ce3565b6001600160a01b03831660009081526101c66020526040902054610fb3908290614865565b6001600160a01b03841660009081526101c660205260409020556101c454610fdc908290614865565b6101c455610fea83826122cc565b604080516001600160a01b0385168152602081018390527fdf20fd1e76bc69d672e4814fafb2c449bba3a5369d8359adf9e05e6fde87b05691015b60405180910390a1505050565b61103d335b826123e5565b6110595760405162461bcd60e51b8152600401610ce390614790565b610e198383836124cf565b6000806110756101fd546108c43390565b8061108957506110896101ff546108c43390565b15611099575060009050806110c9565b600060646101fb54856110ac9190614891565b6110b6919061487d565b6101fa546001600160a01b031693509150505b9250929050565b6110da828261267a565b600082815261019160205260409020610e1990826126a1565b60006110fe8361167c565b82106111605760405162461bcd60e51b815260206004820152602b60248201527f455243373231456e756d657261626c653a206f776e657220696e646578206f7560448201526a74206f6620626f756e647360a81b6064820152608401610ce3565b506001600160a01b03919091166000908152609760209081526040808320938352929052205490565b61119382826126b6565b600082815261019160205260409020610e199082612730565b6101fc546111ba813361218e565b6111c2612745565b50565b610e1983838360405180602001604052806000815250611d84565b6111e933611037565b61124e5760405162461bcd60e51b815260206004820152603060248201527f4552433732314275726e61626c653a2063616c6c6572206973206e6f74206f7760448201526f1b995c881b9bdc88185c1c1c9bdd995960821b6064820152608401610ce3565b6111c2816121f6565b600054610100900460ff1680611270575060005460ff16155b61128c5760405162461bcd60e51b8152600401610ce390614742565b600054610100900460ff161580156112ae576000805461ffff19166101011790555b6112b885856127da565b6112c0612861565b6112c8612861565b6112d0612861565b6112d86128e4565b6112e061294b565b6112ea83836129aa565b6101f68054336001600160a01b031991821681179092556702c68af0bb1400006101f75560006101f88190556113886101f9556101fa8054909216831790915560086101fb557f65d7a28e3265b37a6474929f336521b332c1681b933f6cb9f3376673440d862a6101fc557f9f2df0fed2c77648de5860a4cc508cd0818c85b8b8a1ab4ceeef8d981c8956a66101fd557ff9e9e1c8035f82fd72c5438c5719fd5349deacb4207f4fcbbda606cb5a39d5096101fe557f29434eb5e8812e221f75c8938ee14034fc1cbbc820ce3ab1dd76fa5eb480c48d6101ff556113d291612a13565b612a13565b6113e06101fc546113cd3390565b6113ee6101fd546113cd3390565b6113fc6101ff546113cd3390565b801561140e576000805461ff00191690555b5050505050565b600061142060995490565b82106114835760405162461bcd60e51b815260206004820152602c60248201527f455243373231456e756d657261626c653a20676c6f62616c20696e646578206f60448201526b7574206f6620626f756e647360a01b6064820152608401610ce3565b609982815481106114a457634e487b7160e01b600052603260045260246000fd5b90600052602060002001549050919050565b6000818152606760205260408120546001600160a01b031680610be35760405162461bcd60e51b815260206004820152602960248201527f4552433732313a206f776e657220717565727920666f72206e6f6e657869737460448201526832b73a103a37b5b2b760b91b6064820152608401610ce3565b6060600061153a8361167c565b6001600160401b0381111561155f57634e487b7160e01b600052604160045260246000fd5b604051908082528060200260200182016040528015611588578160200160208202803683370190505b50905060005b6115978461167c565b8110156115e5576115a884826110f3565b8282815181106115c857634e487b7160e01b600052603260045260246000fd5b6020908102919091010152806115dd8161493f565b91505061158e565b5092915050565b60006115f8813361218e565b6101f75482141561160857600080fd5b6101f78290556040518281527f6bfd5e75539a9d2626425a2e2922675256b219fe546d63dad56011759b9a2f66906020015b60405180910390a15050565b600080611653813361218e565b610203836040516116649190614511565b90815260200160405180910390205491505b50919050565b60006001600160a01b0382166116e75760405162461bcd60e51b815260206004820152602a60248201527f4552433732313a2062616c616e636520717565727920666f7220746865207a65604482015269726f206164647265737360b01b6064820152608401610ce3565b506001600160a01b031660009081526068602052604090205490565b60006117126101fd5484611bc8565b1561171f57506000610be3565b61172c6101fe5484611bc8565b1561176c576101f9546101f854116117545761174f61174a83612a1d565b612a76565b611765565b61176561176083612a1d565b612a9e565b9050610be3565b61177861176083612a1d565b9392505050565b6060600061178c8361152d565b9050600081516001600160401b038111156117b757634e487b7160e01b600052604160045260246000fd5b6040519080825280602002602001820160405280156117ea57816020015b60608152602001906001900390816117d55790505b50905060005b82518110156118fb57610201600084838151811061181e57634e487b7160e01b600052603260045260246000fd5b60200260200101518152602001908152602001600020805461183f9061490a565b80601f016020809104026020016040519081016040528092919081815260200182805461186b9061490a565b80156118b85780601f1061188d576101008083540402835291602001916118b8565b820191906000526020600020905b81548152906001019060200180831161189b57829003601f168201915b50505050508282815181106118dd57634e487b7160e01b600052603260045260246000fd5b602002602001018190525080806118f39061493f565b9150506117f0565b509392505050565b6101fc54611911813361218e565b6111c2612ab2565b6000611925813361218e565b6101f85482141561193557600080fd5b6101f88290556040518281527fc1ff72bca032e30387f94c0af05dd3033d0de460a2b682abb2f2890036bf607a9060200161163a565b6060600061197883611ff0565b9050600081516001600160401b038111156119a357634e487b7160e01b600052604160045260246000fd5b6040519080825280602002602001820160405280156119d657816020015b60608152602001906001900390816119c15790505b50905060005b82518110156118fb576102016000848381518110611a0a57634e487b7160e01b600052603260045260246000fd5b602002602001015181526020019081526020016000208054611a2b9061490a565b80601f0160208091040260200160405190810160405280929190818152602001828054611a579061490a565b8015611aa45780601f10611a7957610100808354040283529160200191611aa4565b820191906000526020600020905b815481529060010190602001808311611a8757829003601f168201915b5050505050828281518110611ac957634e487b7160e01b600052603260045260246000fd5b60200260200101819052508080611adf9061493f565b9150506119dc565b6000611af3813361218e565b61020382604051611b049190614511565b908152602001604051809103902054831415611b1f57600080fd5b8261020383604051611b319190614511565b90815260405160209181900382018120929092558482527f6bfd5e75539a9d2626425a2e2922675256b219fe546d63dad56011759b9a2f669101611025565b60006101c78281548110611b9457634e487b7160e01b600052603260045260246000fd5b6000918252602090912001546001600160a01b031692915050565b6000828152610191602052604081206117789083612b0c565b600091825261015f602090815260408084206001600160a01b0393909316845291905290205460ff1690565b606060668054610bf89061490a565b600080611c10813361218e565b610200836040516116649190614511565b6001600160a01b038216331415611c7a5760405162461bcd60e51b815260206004820152601960248201527f4552433732313a20617070726f766520746f2063616c6c6572000000000000006044820152606401610ce3565b336000818152606a602090815260408083206001600160a01b03871680855290835292819020805460ff191686151590811790915590519081529192917f17307eab39ab6107e8899845ad3d59bd9653f200f220920489ca2b5937696c31910160405180910390a35050565b6000611cf2813361218e565b6101f954821415611d0257600080fd5b6101f98290556040518281527f1b69574255c79758c64d1a097acfd0300110698292feae84be7ab7e574f195d29060200161163a565b6000611d44813361218e565b6101fa546001600160a01b0383811691161415611d6057600080fd5b506101fa80546001600160a01b0319166001600160a01b0392909216919091179055565b611d8e33836123e5565b611daa5760405162461bcd60e51b8152600401610ce390614790565b611db684848484612b18565b50505050565b600061020282604051611dcf9190614511565b9081526040519081900360200190205460ff1692915050565b6060610be382612b4b565b600081815261019160205260408120610be390612cad565b61012d5460ff1615611e2f5760405162461bcd60e51b8152600401610ce390614718565b611e3d6101fd546108c43390565b611f0b5761020281604051611e529190614511565b9081526040519081900360200190205460ff1615611ea85760405162461bcd60e51b8152602060048201526013602482015272576f726420616c72656164792065786973747360681b6044820152606401610ce3565b611eb23382611703565b341015611f0b5760405162461bcd60e51b815260206004820152602160248201527f4e6f7420656e6f756768204554482073656e743b20636865636b2070726963656044820152602160f81b6064820152608401610ce3565b6000611f176101f55490565b9050611f286101f580546001019055565b8061020083604051611f3a9190614511565b90815260408051602092819003830190209290925560008381526102018252919091208351611f6b92850190613f88565b50600161020283604051611f7f9190614511565b908152604051908190036020019020805491151560ff19909216919091179055611fa98382612cb7565b611fb38183612cd1565b7fe7619a6b73b99956e487541f2eafbf4cb611a98b8391e31858fe02ba08669f05818385604051611025939291906147e1565b6111938282612d5c565b60606000611ffd60995490565b905060008382111561200f5783612011565b815b90506000816001600160401b0381111561203b57634e487b7160e01b600052604160045260246000fd5b604051908082528060200260200182016040528015612064578160200160208202803683370190505b509050600061207383856148b0565b905060005b838110156120d35761208982611415565b8382815181106120a957634e487b7160e01b600052603260045260246000fd5b60209081029190910101526120bf600183614865565b9150806120cb8161493f565b915050612078565b509095945050505050565b60006001600160e01b03198216635a05180f60e01b1480610be35750610be382612d83565b6000908152606760205260409020546001600160a01b0316151590565b600081815260696020526040902080546001600160a01b0319166001600160a01b0384169081179091558190612155826114b6565b6001600160a01b03167f8c5be1e5ebec7d5bd14f71427d1e84f3dd0314c0f7b2291e5b200ac8c7c3b92560405160405180910390a45050565b6121988282611bc8565b6121f2576121b0816001600160a01b03166014612da8565b6121bb836020612da8565b6040516020016121cc92919061455c565b60408051601f198184030181529082905262461bcd60e51b8252610ce3916004016146b3565b5050565b60008181526102016020526040812080546122109061490a565b80601f016020809104026020016040519081016040528092919081815260200182805461223c9061490a565b80156122895780601f1061225e57610100808354040283529160200191612289565b820191906000526020600020905b81548152906001019060200180831161226c57829003601f168201915b505050505090506000610202826040516122a39190614511565b908152604051908190036020019020805491151560ff199092169190911790556121f282612f89565b8047101561231c5760405162461bcd60e51b815260206004820152601d60248201527f416464726573733a20696e73756666696369656e742062616c616e63650000006044820152606401610ce3565b6000826001600160a01b03168260405160006040518083038185875af1925050503d8060008114612369576040519150601f19603f3d011682016040523d82523d6000602084013e61236e565b606091505b5050905080610e195760405162461bcd60e51b815260206004820152603a60248201527f416464726573733a20756e61626c6520746f2073656e642076616c75652c207260448201527f6563697069656e74206d617920686176652072657665727465640000000000006064820152608401610ce3565b60006123f082612103565b6124515760405162461bcd60e51b815260206004820152602c60248201527f4552433732313a206f70657261746f7220717565727920666f72206e6f6e657860448201526b34b9ba32b73a103a37b5b2b760a11b6064820152608401610ce3565b600061245c836114b6565b9050806001600160a01b0316846001600160a01b031614806124975750836001600160a01b031661248c84610c7b565b6001600160a01b0316145b806124c757506001600160a01b038082166000908152606a602090815260408083209388168352929052205460ff165b949350505050565b826001600160a01b03166124e2826114b6565b6001600160a01b03161461254a5760405162461bcd60e51b815260206004820152602960248201527f4552433732313a207472616e73666572206f6620746f6b656e2074686174206960448201526839903737ba1037bbb760b91b6064820152608401610ce3565b6001600160a01b0382166125ac5760405162461bcd60e51b8152602060048201526024808201527f4552433732313a207472616e7366657220746f20746865207a65726f206164646044820152637265737360e01b6064820152608401610ce3565b6125b7838383612fc9565b6125c2600082612120565b6001600160a01b03831660009081526068602052604081208054600192906125eb9084906148b0565b90915550506001600160a01b0382166000908152606860205260408120805460019290612619908490614865565b909155505060008181526067602052604080822080546001600160a01b0319166001600160a01b0386811691821790925591518493918716917fddf252ad1be2c89b69c2b068fc378daa952ba7f163c4a11628f55a4df523b3ef91a4505050565b600082815261015f6020526040902060010154612697813361218e565b610e198383612ff8565b6000611778836001600160a01b03841661307f565b6001600160a01b03811633146127265760405162461bcd60e51b815260206004820152602f60248201527f416363657373436f6e74726f6c3a2063616e206f6e6c792072656e6f756e636560448201526e103937b632b9903337b91039b2b63360891b6064820152608401610ce3565b6121f282826130ce565b6000611778836001600160a01b038416613136565b61012d5460ff1661278f5760405162461bcd60e51b815260206004820152601460248201527314185d5cd8589b194e881b9bdd081c185d5cd95960621b6044820152606401610ce3565b61012d805460ff191690557f5db9ee0a495bf2e6ff9c91a7834c1ba4fdd244a5e8aa4e537bd38aeae4b073aa335b6040516001600160a01b03909116815260200160405180910390a1565b600054610100900460ff16806127f3575060005460ff16155b61280f5760405162461bcd60e51b8152600401610ce390614742565b600054610100900460ff16158015612831576000805461ffff19166101011790555b612839613253565b612841613253565b61284b83836132bd565b8015610e19576000805461ff0019169055505050565b600054610100900460ff168061287a575060005460ff16155b6128965760405162461bcd60e51b8152600401610ce390614742565b600054610100900460ff161580156128b8576000805461ffff19166101011790555b6128c0613253565b6128c8613253565b6128d0613253565b80156111c2576000805461ff001916905550565b600054610100900460ff16806128fd575060005460ff16155b6129195760405162461bcd60e51b8152600401610ce390614742565b600054610100900460ff1615801561293b576000805461ffff19166101011790555b612943613253565b6128d0613352565b600054610100900460ff1680612964575060005460ff16155b6129805760405162461bcd60e51b8152600401610ce390614742565b600054610100900460ff161580156129a2576000805461ffff19166101011790555b6128b8613253565b600054610100900460ff16806129c3575060005460ff16155b6129df5760405162461bcd60e51b8152600401610ce390614742565b600054610100900460ff16158015612a01576000805461ffff19166101011790555b612a09613253565b61284b83836133c8565b6110da8282613552565b60008061020383604051612a319190614511565b9081526020016040518091039020541115612a6d5761020382604051612a579190614511565b9081526020016040518091039020549050919050565b50506101f75490565b60006127106101f95483612a8a9190614891565b612a94919061487d565b610be390836148b0565b60006127106101f85483612a8a9190614891565b61012d5460ff1615612ad65760405162461bcd60e51b8152600401610ce390614718565b61012d805460ff191660011790557f62e78cea01bee320cd4e420270b5ea74000d11b0c9f74754ebdbfc544b05a2586127bd3390565b6000611778838361355c565b612b238484846124cf565b612b2f84848484613594565b611db65760405162461bcd60e51b8152600401610ce3906146c6565b6060612b5682612103565b612bbc5760405162461bcd60e51b815260206004820152603160248201527f45524337323155524953746f726167653a2055524920717565727920666f72206044820152703737b732bc34b9ba32b73a103a37b5b2b760791b6064820152608401610ce3565b600082815260c9602052604081208054612bd59061490a565b80601f0160208091040260200160405190810160405280929190818152602001828054612c019061490a565b8015612c4e5780601f10612c2357610100808354040283529160200191612c4e565b820191906000526020600020905b815481529060010190602001808311612c3157829003601f168201915b505050505090506000612c5f6136a1565b9050805160001415612c72575092915050565b815115612ca4578082604051602001612c8c92919061452d565b60405160208183030381529060405292505050919050565b6124c7846136c1565b6000610be3825490565b6121f282826040518060200160405280600081525061378b565b612cda82612103565b612d3d5760405162461bcd60e51b815260206004820152602e60248201527f45524337323155524953746f726167653a2055524920736574206f66206e6f6e60448201526d32bc34b9ba32b73a103a37b5b2b760911b6064820152608401610ce3565b600082815260c9602090815260409091208251610e1992840190613f88565b600082815261015f6020526040902060010154612d79813361218e565b610e1983836130ce565b60006001600160e01b03198216637965db0b60e01b1480610be35750610be3826137be565b60606000612db7836002614891565b612dc2906002614865565b6001600160401b03811115612de757634e487b7160e01b600052604160045260246000fd5b6040519080825280601f01601f191660200182016040528015612e11576020820181803683370190505b509050600360fc1b81600081518110612e3a57634e487b7160e01b600052603260045260246000fd5b60200101906001600160f81b031916908160001a905350600f60fb1b81600181518110612e7757634e487b7160e01b600052603260045260246000fd5b60200101906001600160f81b031916908160001a9053506000612e9b846002614891565b612ea6906001614865565b90505b6001811115612f3a576f181899199a1a9b1b9c1cb0b131b232b360811b85600f1660108110612ee857634e487b7160e01b600052603260045260246000fd5b1a60f81b828281518110612f0c57634e487b7160e01b600052603260045260246000fd5b60200101906001600160f81b031916908160001a90535060049490941c93612f33816148f3565b9050612ea9565b5083156117785760405162461bcd60e51b815260206004820181905260248201527f537472696e67733a20686578206c656e67746820696e73756666696369656e746044820152606401610ce3565b612f92816137e3565b600081815260c9602052604090208054612fab9061490a565b1590506111c257600081815260c9602052604081206111c29161400c565b61012d5460ff1615612fed5760405162461bcd60e51b8152600401610ce390614718565b610e1983838361388a565b6130028282611bc8565b6121f257600082815261015f602090815260408083206001600160a01b03851684529091529020805460ff1916600117905561303b3390565b6001600160a01b0316816001600160a01b0316837f2f8788117e7eff1d82e926ec794901d17c78024a50270940304540a733656f0d60405160405180910390a45050565b60008181526001830160205260408120546130c657508154600181810184556000848152602080822090930184905584548482528286019093526040902091909155610be3565b506000610be3565b6130d88282611bc8565b156121f257600082815261015f602090815260408083206001600160a01b0385168085529252808320805460ff1916905551339285917ff6391f5c32d9c69d2a47ea670b442974b53935d1edc7fd64eb21e047a839171b9190a45050565b6000818152600183016020526040812054801561324957600061315a6001836148b0565b855490915060009061316e906001906148b0565b90508181146131ef57600086600001828154811061319c57634e487b7160e01b600052603260045260246000fd5b90600052602060002001549050808760000184815481106131cd57634e487b7160e01b600052603260045260246000fd5b6000918252602080832090910192909255918252600188019052604090208390555b855486908061320e57634e487b7160e01b600052603160045260246000fd5b600190038181906000526020600020016000905590558560010160008681526020019081526020016000206000905560019350505050610be3565b6000915050610be3565b600054610100900460ff168061326c575060005460ff16155b6132885760405162461bcd60e51b8152600401610ce390614742565b600054610100900460ff161580156128d0576000805461ffff191661010117905580156111c2576000805461ff001916905550565b600054610100900460ff16806132d6575060005460ff16155b6132f25760405162461bcd60e51b8152600401610ce390614742565b600054610100900460ff16158015613314576000805461ffff19166101011790555b8251613327906065906020860190613f88565b50815161333b906066906020850190613f88565b508015610e19576000805461ff0019169055505050565b600054610100900460ff168061336b575060005460ff16155b6133875760405162461bcd60e51b8152600401610ce390614742565b600054610100900460ff161580156133a9576000805461ffff19166101011790555b61012d805460ff1916905580156111c2576000805461ff001916905550565b600054610100900460ff16806133e1575060005460ff16155b6133fd5760405162461bcd60e51b8152600401610ce390614742565b600054610100900460ff1615801561341f576000805461ffff19166101011790555b815183511461348b5760405162461bcd60e51b815260206004820152603260248201527f5061796d656e7453706c69747465723a2070617965657320616e6420736861726044820152710cae640d8cadccee8d040dad2e6dac2e8c6d60731b6064820152608401610ce3565b60008351116134dc5760405162461bcd60e51b815260206004820152601a60248201527f5061796d656e7453706c69747465723a206e6f207061796565730000000000006044820152606401610ce3565b60005b835181101561333b5761354084828151811061350b57634e487b7160e01b600052603260045260246000fd5b602002602001015184838151811061353357634e487b7160e01b600052603260045260246000fd5b6020026020010151613942565b8061354a8161493f565b9150506134df565b6121f28282612ff8565b600082600001828154811061358157634e487b7160e01b600052603260045260246000fd5b9060005260206000200154905092915050565b60006001600160a01b0384163b1561369657604051630a85bd0160e11b81526001600160a01b0385169063150b7a02906135d89033908990889088906004016145d1565b602060405180830381600087803b1580156135f257600080fd5b505af1925050508015613622575060408051601f3d908101601f1916820190925261361f9181019061436e565b60015b61367c573d808015613650576040519150601f19603f3d011682016040523d82523d6000602084013e613655565b606091505b5080516136745760405162461bcd60e51b8152600401610ce3906146c6565b805181602001fd5b6001600160e01b031916630a85bd0160e11b1490506124c7565b506001949350505050565b60606040518060600160405280602281526020016149dc60229139905090565b60606136cc82612103565b6137305760405162461bcd60e51b815260206004820152602f60248201527f4552433732314d657461646174613a2055524920717565727920666f72206e6f60448201526e3732bc34b9ba32b73a103a37b5b2b760891b6064820152608401610ce3565b600061373a6136a1565b9050600081511161375a5760405180602001604052806000815250611778565b8061376484613b26565b60405160200161377592919061452d565b6040516020818303038152906040529392505050565b6137958383613c3f565b6137a26000848484613594565b610e195760405162461bcd60e51b8152600401610ce3906146c6565b60006001600160e01b0319821663780e9d6360e01b1480610be35750610be382613d7e565b60006137ee826114b6565b90506137fc81600084612fc9565b613807600083612120565b6001600160a01b03811660009081526068602052604081208054600192906138309084906148b0565b909155505060008281526067602052604080822080546001600160a01b0319169055518391906001600160a01b038416907fddf252ad1be2c89b69c2b068fc378daa952ba7f163c4a11628f55a4df523b3ef908390a45050565b6001600160a01b0383166138e5576138e081609980546000838152609a60205260408120829055600182018355919091527f72a152ddfb8e864297c917af52ea6c1c68aead0fee1a62673fcc7e0c94979d000155565b613908565b816001600160a01b0316836001600160a01b031614613908576139088382613dce565b6001600160a01b03821661391f57610e1981613e6b565b826001600160a01b0316826001600160a01b031614610e1957610e198282613f44565b6001600160a01b0382166139ad5760405162461bcd60e51b815260206004820152602c60248201527f5061796d656e7453706c69747465723a206163636f756e74206973207468652060448201526b7a65726f206164647265737360a01b6064820152608401610ce3565b600081116139fd5760405162461bcd60e51b815260206004820152601d60248201527f5061796d656e7453706c69747465723a207368617265732061726520300000006044820152606401610ce3565b6001600160a01b03821660009081526101c5602052604090205415613a785760405162461bcd60e51b815260206004820152602b60248201527f5061796d656e7453706c69747465723a206163636f756e7420616c726561647960448201526a206861732073686172657360a81b6064820152608401610ce3565b6101c78054600181019091557fff6df30967a6a678f565c59a19e91e5c0dbb20cfe9f9bf26d7da6dea0fffa24c0180546001600160a01b0319166001600160a01b03841690811790915560009081526101c5602052604090208190556101c354613ae3908290614865565b6101c355604080516001600160a01b0384168152602081018390527f40c340f65e17194d14ddddb073d3c9f888e3cb52b5aae0c6c7706b4fbc905fac910161163a565b606081613b4a5750506040805180820190915260018152600360fc1b602082015290565b8160005b8115613b745780613b5e8161493f565b9150613b6d9050600a8361487d565b9150613b4e565b6000816001600160401b03811115613b9c57634e487b7160e01b600052604160045260246000fd5b6040519080825280601f01601f191660200182016040528015613bc6576020820181803683370190505b5090505b84156124c757613bdb6001836148b0565b9150613be8600a8661495a565b613bf3906030614865565b60f81b818381518110613c1657634e487b7160e01b600052603260045260246000fd5b60200101906001600160f81b031916908160001a905350613c38600a8661487d565b9450613bca565b6001600160a01b038216613c955760405162461bcd60e51b815260206004820181905260248201527f4552433732313a206d696e7420746f20746865207a65726f20616464726573736044820152606401610ce3565b613c9e81612103565b15613ceb5760405162461bcd60e51b815260206004820152601c60248201527f4552433732313a20746f6b656e20616c7265616479206d696e746564000000006044820152606401610ce3565b613cf760008383612fc9565b6001600160a01b0382166000908152606860205260408120805460019290613d20908490614865565b909155505060008181526067602052604080822080546001600160a01b0319166001600160a01b03861690811790915590518392907fddf252ad1be2c89b69c2b068fc378daa952ba7f163c4a11628f55a4df523b3ef908290a45050565b60006001600160e01b031982166380ac58cd60e01b1480613daf57506001600160e01b03198216635b5e139f60e01b145b80610be357506301ffc9a760e01b6001600160e01b0319831614610be3565b60006001613ddb8461167c565b613de591906148b0565b600083815260986020526040902054909150808214613e38576001600160a01b03841660009081526097602090815260408083208584528252808320548484528184208190558352609890915290208190555b5060009182526098602090815260408084208490556001600160a01b039094168352609781528383209183525290812055565b609954600090613e7d906001906148b0565b6000838152609a602052604081205460998054939450909284908110613eb357634e487b7160e01b600052603260045260246000fd5b906000526020600020015490508060998381548110613ee257634e487b7160e01b600052603260045260246000fd5b6000918252602080832090910192909255828152609a90915260408082208490558582528120556099805480613f2857634e487b7160e01b600052603160045260246000fd5b6001900381819060005260206000200160009055905550505050565b6000613f4f8361167c565b6001600160a01b039093166000908152609760209081526040808320868452825280832085905593825260989052919091209190915550565b828054613f949061490a565b90600052602060002090601f016020900481019282613fb65760008555613ffc565b82601f10613fcf57805160ff1916838001178555613ffc565b82800160010185558215613ffc579182015b82811115613ffc578251825591602001919060010190613fe1565b50614008929150614042565b5090565b5080546140189061490a565b6000825580601f10614028575050565b601f0160209004906000526020600020908101906111c291905b5b808211156140085760008155600101614043565b60006001600160401b038311156140705761407061499a565b614083601f8401601f1916602001614812565b905082815283838301111561409757600080fd5b828260208301376000602084830101529392505050565b600082601f8301126140be578081fd5b813560206140d36140ce83614842565b614812565b80838252828201915082860187848660051b89010111156140f2578586fd5b855b85811015614110578135845292840192908401906001016140f4565b5090979650505050505050565b600082601f83011261412d578081fd5b61177883833560208501614057565b60006020828403121561414d578081fd5b8135611778816149b0565b6000806040838503121561416a578081fd5b8235614175816149b0565b91506020830135614185816149b0565b809150509250929050565b6000806000606084860312156141a4578081fd5b83356141af816149b0565b925060208401356141bf816149b0565b929592945050506040919091013590565b600080600080608085870312156141e5578081fd5b84356141f0816149b0565b93506020850135614200816149b0565b92506040850135915060608501356001600160401b03811115614221578182fd5b8501601f81018713614231578182fd5b61424087823560208401614057565b91505092959194509250565b6000806040838503121561425e578182fd5b8235614269816149b0565b915060208301358015158114614185578182fd5b6000806040838503121561428f578182fd5b823561429a816149b0565b915060208301356001600160401b038111156142b4578182fd5b6142c08582860161411d565b9150509250929050565b600080604083850312156142dc578182fd5b82356142e7816149b0565b946020939093013593505050565b600060208284031215614306578081fd5b5035919050565b6000806040838503121561431f578182fd5b823591506020830135614185816149b0565b60008060408385031215614343578182fd5b50508035926020909101359150565b600060208284031215614363578081fd5b8135611778816149c5565b60006020828403121561437f578081fd5b8151611778816149c5565b60006020828403121561439b578081fd5b81356001600160401b038111156143b0578182fd5b6124c78482850161411d565b600080600080608085870312156143d1578182fd5b84356001600160401b03808211156143e7578384fd5b6143f38883890161411d565b9550602091508187013581811115614409578485fd5b61441589828a0161411d565b955050604087013581811115614429578485fd5b8701601f81018913614439578485fd5b80356144476140ce82614842565b8082825285820191508584018c878560051b8701011115614466578889fd5b8894505b8385101561449157803561447d816149b0565b83526001949094019391860191860161446a565b50965050505060608701359150808211156144aa578283fd5b50614240878288016140ae565b600080604083850312156144c9578182fd5b8235915060208301356001600160401b038111156142b4578182fd5b600081518084526144fd8160208601602086016148c7565b601f01601f19169290920160200192915050565b600082516145238184602087016148c7565b9190910192915050565b6000835161453f8184602088016148c7565b8351908301906145538183602088016148c7565b01949350505050565b7f416363657373436f6e74726f6c3a206163636f756e74200000000000000000008152600083516145948160178501602088016148c7565b7001034b99036b4b9b9b4b733903937b6329607d1b60179184019182015283516145c58160288401602088016148c7565b01602801949350505050565b6001600160a01b0385811682528416602082015260408101839052608060608201819052600090614604908301846144e5565b9695505050505050565b6000602080830181845280855180835260408601915060408160051b8701019250838701855b8281101561466257603f198886030184526146508583516144e5565b94509285019290850190600101614634565b5092979650505050505050565b6020808252825182820181905260009190848201906040850190845b818110156146a75783518352928401929184019160010161468b565b50909695505050505050565b60208152600061177860208301846144e5565b60208082526032908201527f4552433732313a207472616e7366657220746f206e6f6e20455243373231526560408201527131b2b4bb32b91034b6b83632b6b2b73a32b960711b606082015260800190565b60208082526010908201526f14185d5cd8589b194e881c185d5cd95960821b604082015260600190565b6020808252602e908201527f496e697469616c697a61626c653a20636f6e747261637420697320616c72656160408201526d191e481a5b9a5d1a585b1a5e995960921b606082015260800190565b60208082526031908201527f4552433732313a207472616e736665722063616c6c6572206973206e6f74206f6040820152701ddb995c881b9bdc88185c1c1c9bdd9959607a1b606082015260800190565b8381526060602082015260006147fa60608301856144e5565b905060018060a01b0383166040830152949350505050565b604051601f8201601f191681016001600160401b038111828210171561483a5761483a61499a565b604052919050565b60006001600160401b0382111561485b5761485b61499a565b5060051b60200190565b600082198211156148785761487861496e565b500190565b60008261488c5761488c614984565b500490565b60008160001904831182151516156148ab576148ab61496e565b500290565b6000828210156148c2576148c261496e565b500390565b60005b838110156148e25781810151838201526020016148ca565b83811115611db65750506000910152565b6000816149025761490261496e565b506000190190565b600181811c9082168061491e57607f821691505b6020821081141561167657634e487b7160e01b600052602260045260246000fd5b60006000198214156149535761495361496e565b5060010190565b60008261496957614969614984565b500690565b634e487b7160e01b600052601160045260246000fd5b634e487b7160e01b600052601260045260246000fd5b634e487b7160e01b600052604160045260246000fd5b6001600160a01b03811681146111c257600080fd5b6001600160e01b0319811681146111c257600080fdfe68747470733a2f2f63727970746f776f7264732e6172742f6170692f746f6b656e2fa26469706673582212200455596dff05e5975cb3f64423a77461d2165dde4916a2a041823138c3dbcc5d64736f6c63430008040033",
  "linkReferences": {},
  "deployedLinkReferences": {}
}