{
  "_format": "hh-sol-artifact-1",
  "contractName": "CryptoWordsV1",
  "sourceName": "contracts/CryptoWordsV1.sol",
  "abi": [
    {
      "inputs": [],
      "stateMutability": "nonpayable",
      "type": "constructor"
    },
    {
      "anonymous": false,
      "inputs": [
        {
          "indexed": true,
          "internalType": "address",
          "name": "owner",
          "type": "address"
        },
        {
          "indexed": true,
          "internalType": "address",
          "name": "approved",
          "type": "address"
        },
        {
          "indexed": true,
          "internalType": "uint256",
          "name": "tokenId",
          "type": "uint256"
        }
      ],
      "name": "Approval",
      "type": "event"
    },
    {
      "anonymous": false,
      "inputs": [
        {
          "indexed": true,
          "internalType": "address",
          "name": "owner",
          "type": "address"
        },
        {
          "indexed": true,
          "internalType": "address",
          "name": "operator",
          "type": "address"
        },
        {
          "indexed": false,
          "internalType": "bool",
          "name": "approved",
          "type": "bool"
        }
      ],
      "name": "ApprovalForAll",
      "type": "event"
    },
    {
      "anonymous": false,
      "inputs": [
        {
          "indexed": false,
          "internalType": "uint256",
          "name": "discount",
          "type": "uint256"
        }
      ],
      "name": "DiscountGlobalSet",
      "type": "event"
    },
    {
      "anonymous": false,
      "inputs": [
        {
          "indexed": false,
          "internalType": "uint256",
          "name": "discount",
          "type": "uint256"
        }
      ],
      "name": "DiscountSet",
      "type": "event"
    },
    {
      "anonymous": false,
      "inputs": [
        {
          "indexed": false,
          "internalType": "uint256",
          "name": "instances",
          "type": "uint256"
        }
      ],
      "name": "MaxInstancesSet",
      "type": "event"
    },
    {
      "anonymous": false,
      "inputs": [
        {
          "indexed": false,
          "internalType": "address",
          "name": "account",
          "type": "address"
        }
      ],
      "name": "Paused",
      "type": "event"
    },
    {
      "anonymous": false,
      "inputs": [
        {
          "indexed": false,
          "internalType": "address",
          "name": "account",
          "type": "address"
        },
        {
          "indexed": false,
          "internalType": "uint256",
          "name": "shares",
          "type": "uint256"
        }
      ],
      "name": "PayeeAdded",
      "type": "event"
    },
    {
      "anonymous": false,
      "inputs": [
        {
          "indexed": false,
          "internalType": "address",
          "name": "from",
          "type": "address"
        },
        {
          "indexed": false,
          "internalType": "uint256",
          "name": "amount",
          "type": "uint256"
        }
      ],
      "name": "PaymentReceived",
      "type": "event"
    },
    {
      "anonymous": false,
      "inputs": [
        {
          "indexed": false,
          "internalType": "address",
          "name": "to",
          "type": "address"
        },
        {
          "indexed": false,
          "internalType": "uint256",
          "name": "amount",
          "type": "uint256"
        }
      ],
      "name": "PaymentReleased",
      "type": "event"
    },
    {
      "anonymous": false,
      "inputs": [
        {
          "indexed": false,
          "internalType": "uint256",
          "name": "price",
          "type": "uint256"
        }
      ],
      "name": "PriceSet",
      "type": "event"
    },
    {
      "anonymous": false,
      "inputs": [
        {
          "indexed": true,
          "internalType": "bytes32",
          "name": "role",
          "type": "bytes32"
        },
        {
          "indexed": true,
          "internalType": "bytes32",
          "name": "previousAdminRole",
          "type": "bytes32"
        },
        {
          "indexed": true,
          "internalType": "bytes32",
          "name": "newAdminRole",
          "type": "bytes32"
        }
      ],
      "name": "RoleAdminChanged",
      "type": "event"
    },
    {
      "anonymous": false,
      "inputs": [
        {
          "indexed": true,
          "internalType": "bytes32",
          "name": "role",
          "type": "bytes32"
        },
        {
          "indexed": true,
          "internalType": "address",
          "name": "account",
          "type": "address"
        },
        {
          "indexed": true,
          "internalType": "address",
          "name": "sender",
          "type": "address"
        }
      ],
      "name": "RoleGranted",
      "type": "event"
    },
    {
      "anonymous": false,
      "inputs": [
        {
          "indexed": true,
          "internalType": "bytes32",
          "name": "role",
          "type": "bytes32"
        },
        {
          "indexed": true,
          "internalType": "address",
          "name": "account",
          "type": "address"
        },
        {
          "indexed": true,
          "internalType": "address",
          "name": "sender",
          "type": "address"
        }
      ],
      "name": "RoleRevoked",
      "type": "event"
    },
    {
      "anonymous": false,
      "inputs": [
        {
          "indexed": true,
          "internalType": "address",
          "name": "from",
          "type": "address"
        },
        {
          "indexed": true,
          "internalType": "address",
          "name": "to",
          "type": "address"
        },
        {
          "indexed": true,
          "internalType": "uint256",
          "name": "tokenId",
          "type": "uint256"
        }
      ],
      "name": "Transfer",
      "type": "event"
    },
    {
      "anonymous": false,
      "inputs": [
        {
          "indexed": false,
          "internalType": "address",
          "name": "account",
          "type": "address"
        }
      ],
      "name": "Unpaused",
      "type": "event"
    },
    {
      "anonymous": false,
      "inputs": [
        {
          "indexed": false,
          "internalType": "uint256",
          "name": "tokenId",
          "type": "uint256"
        },
        {
          "indexed": false,
          "internalType": "string",
          "name": "word",
          "type": "string"
        },
        {
          "indexed": false,
          "internalType": "address",
          "name": "to",
          "type": "address"
        }
      ],
      "name": "WordMinted",
      "type": "event"
    },
    {
      "inputs": [],
      "name": "DEFAULT_ADMIN_ROLE",
      "outputs": [
        {
          "internalType": "bytes32",
          "name": "",
          "type": "bytes32"
        }
      ],
      "stateMutability": "view",
      "type": "function"
    },
    {
      "inputs": [],
      "name": "DISCOUNTED_ROLE",
      "outputs": [
        {
          "internalType": "bytes32",
          "name": "",
          "type": "bytes32"
        }
      ],
      "stateMutability": "view",
      "type": "function"
    },
    {
      "inputs": [],
      "name": "MINTER_ROLE",
      "outputs": [
        {
          "internalType": "bytes32",
          "name": "",
          "type": "bytes32"
        }
      ],
      "stateMutability": "view",
      "type": "function"
    },
    {
      "inputs": [],
      "name": "PAUSER_ROLE",
      "outputs": [
        {
          "internalType": "bytes32",
          "name": "",
          "type": "bytes32"
        }
      ],
      "stateMutability": "view",
      "type": "function"
    },
    {
      "inputs": [],
      "name": "ROYALTY_FREE_ROLE",
      "outputs": [
        {
          "internalType": "bytes32",
          "name": "",
          "type": "bytes32"
        }
      ],
      "stateMutability": "view",
      "type": "function"
    },
    {
      "inputs": [
        {
          "internalType": "address",
          "name": "to",
          "type": "address"
        },
        {
          "internalType": "uint256",
          "name": "tokenId",
          "type": "uint256"
        }
      ],
      "name": "approve",
      "outputs": [],
      "stateMutability": "nonpayable",
      "type": "function"
    },
    {
      "inputs": [],
      "name": "artist",
      "outputs": [
        {
          "internalType": "address",
          "name": "",
          "type": "address"
        }
      ],
      "stateMutability": "view",
      "type": "function"
    },
    {
      "inputs": [
        {
          "internalType": "address",
          "name": "owner",
          "type": "address"
        }
      ],
      "name": "balanceOf",
      "outputs": [
        {
          "internalType": "uint256",
          "name": "",
          "type": "uint256"
        }
      ],
      "stateMutability": "view",
      "type": "function"
    },
    {
      "inputs": [
        {
          "internalType": "uint256",
          "name": "tokenId",
          "type": "uint256"
        }
      ],
      "name": "burn",
      "outputs": [],
      "stateMutability": "nonpayable",
      "type": "function"
    },
    {
      "inputs": [
        {
          "internalType": "uint256",
          "name": "tokenId",
          "type": "uint256"
        }
      ],
      "name": "burnByTokenId",
      "outputs": [],
      "stateMutability": "nonpayable",
      "type": "function"
    },
    {
      "inputs": [],
      "name": "defaultPrice",
      "outputs": [
        {
          "internalType": "uint256",
          "name": "",
          "type": "uint256"
        }
      ],
      "stateMutability": "view",
      "type": "function"
    },
    {
      "inputs": [
        {
          "internalType": "string",
          "name": "word",
          "type": "string"
        }
      ],
      "name": "deleteCustomPriceByWord",
      "outputs": [],
      "stateMutability": "nonpayable",
      "type": "function"
    },
    {
      "inputs": [
        {
          "internalType": "string",
          "name": "word",
          "type": "string"
        }
      ],
      "name": "deleteMaxInstancesByWord",
      "outputs": [],
      "stateMutability": "nonpayable",
      "type": "function"
    },
    {
      "inputs": [],
      "name": "discountPercentage",
      "outputs": [
        {
          "internalType": "uint256",
          "name": "",
          "type": "uint256"
        }
      ],
      "stateMutability": "view",
      "type": "function"
    },
    {
      "inputs": [],
      "name": "discountPercentageGlobal",
      "outputs": [
        {
          "internalType": "uint256",
          "name": "",
          "type": "uint256"
        }
      ],
      "stateMutability": "view",
      "type": "function"
    },
    {
      "inputs": [
        {
          "internalType": "uint256",
          "name": "tokenId",
          "type": "uint256"
        }
      ],
      "name": "getApproved",
      "outputs": [
        {
          "internalType": "address",
          "name": "",
          "type": "address"
        }
      ],
      "stateMutability": "view",
      "type": "function"
    },
    {
      "inputs": [
        {
          "internalType": "string",
          "name": "word",
          "type": "string"
        }
      ],
      "name": "getCustomPriceByWord",
      "outputs": [
        {
          "internalType": "uint256",
          "name": "",
          "type": "uint256"
        }
      ],
      "stateMutability": "view",
      "type": "function"
    },
    {
      "inputs": [
        {
          "internalType": "string",
          "name": "word",
          "type": "string"
        }
      ],
      "name": "getInstancesAvailable",
      "outputs": [
        {
          "internalType": "uint256",
          "name": "",
          "type": "uint256"
        }
      ],
      "stateMutability": "view",
      "type": "function"
    },
    {
      "inputs": [
        {
          "internalType": "string",
          "name": "word",
          "type": "string"
        }
      ],
      "name": "getMaxInstancesByWord",
      "outputs": [
        {
          "internalType": "uint256",
          "name": "",
          "type": "uint256"
        }
      ],
      "stateMutability": "view",
      "type": "function"
    },
    {
      "inputs": [
        {
          "internalType": "address",
          "name": "account",
          "type": "address"
        },
        {
          "internalType": "string",
          "name": "word",
          "type": "string"
        }
      ],
      "name": "getPrice",
      "outputs": [
        {
          "internalType": "uint256",
          "name": "",
          "type": "uint256"
        }
      ],
      "stateMutability": "view",
      "type": "function"
    },
    {
      "inputs": [
        {
          "internalType": "uint256",
          "name": "_limit",
          "type": "uint256"
        }
      ],
      "name": "getRecentTokenIds",
      "outputs": [
        {
          "internalType": "uint256[]",
          "name": "",
          "type": "uint256[]"
        }
      ],
      "stateMutability": "view",
      "type": "function"
    },
    {
      "inputs": [
        {
          "internalType": "uint256",
          "name": "_limit",
          "type": "uint256"
        }
      ],
      "name": "getRecentWords",
      "outputs": [
        {
          "internalType": "string[]",
          "name": "",
          "type": "string[]"
        }
      ],
      "stateMutability": "view",
      "type": "function"
    },
    {
      "inputs": [
        {
          "internalType": "bytes32",
          "name": "role",
          "type": "bytes32"
        }
      ],
      "name": "getRoleAdmin",
      "outputs": [
        {
          "internalType": "bytes32",
          "name": "",
          "type": "bytes32"
        }
      ],
      "stateMutability": "view",
      "type": "function"
    },
    {
      "inputs": [
        {
          "internalType": "bytes32",
          "name": "role",
          "type": "bytes32"
        },
        {
          "internalType": "uint256",
          "name": "index",
          "type": "uint256"
        }
      ],
      "name": "getRoleMember",
      "outputs": [
        {
          "internalType": "address",
          "name": "",
          "type": "address"
        }
      ],
      "stateMutability": "view",
      "type": "function"
    },
    {
      "inputs": [
        {
          "internalType": "bytes32",
          "name": "role",
          "type": "bytes32"
        }
      ],
      "name": "getRoleMemberCount",
      "outputs": [
        {
          "internalType": "uint256",
          "name": "",
          "type": "uint256"
        }
      ],
      "stateMutability": "view",
      "type": "function"
    },
    {
      "inputs": [
        {
          "internalType": "address",
          "name": "_owner",
          "type": "address"
        }
      ],
      "name": "getTokenIdsByOwner",
      "outputs": [
        {
          "internalType": "uint256[]",
          "name": "",
          "type": "uint256[]"
        }
      ],
      "stateMutability": "view",
      "type": "function"
    },
    {
      "inputs": [
        {
          "internalType": "string",
          "name": "word",
          "type": "string"
        }
      ],
      "name": "getWordInstances",
      "outputs": [
        {
          "internalType": "uint256",
          "name": "",
          "type": "uint256"
        }
      ],
      "stateMutability": "view",
      "type": "function"
    },
    {
      "inputs": [
        {
          "internalType": "address",
          "name": "_owner",
          "type": "address"
        }
      ],
      "name": "getWordsByOwner",
      "outputs": [
        {
          "internalType": "string[]",
          "name": "",
          "type": "string[]"
        }
      ],
      "stateMutability": "view",
      "type": "function"
    },
    {
      "inputs": [
        {
          "internalType": "bytes32",
          "name": "role",
          "type": "bytes32"
        },
        {
          "internalType": "address",
          "name": "account",
          "type": "address"
        }
      ],
      "name": "grantRole",
      "outputs": [],
      "stateMutability": "nonpayable",
      "type": "function"
    },
    {
      "inputs": [
        {
          "internalType": "bytes32",
          "name": "role",
          "type": "bytes32"
        },
        {
          "internalType": "address",
          "name": "account",
          "type": "address"
        }
      ],
      "name": "hasRole",
      "outputs": [
        {
          "internalType": "bool",
          "name": "",
          "type": "bool"
        }
      ],
      "stateMutability": "view",
      "type": "function"
    },
    {
      "inputs": [
        {
          "internalType": "string",
          "name": "name",
          "type": "string"
        },
        {
          "internalType": "string",
          "name": "symbol",
          "type": "string"
        },
        {
          "internalType": "address[]",
          "name": "payees",
          "type": "address[]"
        },
        {
          "internalType": "uint256[]",
          "name": "shares",
          "type": "uint256[]"
        }
      ],
      "name": "initialize",
      "outputs": [],
      "stateMutability": "payable",
      "type": "function"
    },
    {
      "inputs": [
        {
          "internalType": "address",
          "name": "owner",
          "type": "address"
        },
        {
          "internalType": "address",
          "name": "operator",
          "type": "address"
        }
      ],
      "name": "isApprovedForAll",
      "outputs": [
        {
          "internalType": "bool",
          "name": "",
          "type": "bool"
        }
      ],
      "stateMutability": "view",
      "type": "function"
    },
    {
      "inputs": [],
      "name": "maxInstances",
      "outputs": [
        {
          "internalType": "uint256",
          "name": "",
          "type": "uint256"
        }
      ],
      "stateMutability": "view",
      "type": "function"
    },
    {
      "inputs": [],
      "name": "name",
      "outputs": [
        {
          "internalType": "string",
          "name": "",
          "type": "string"
        }
      ],
      "stateMutability": "view",
      "type": "function"
    },
    {
      "inputs": [
        {
          "internalType": "uint256",
          "name": "tokenId",
          "type": "uint256"
        }
      ],
      "name": "ownerOf",
      "outputs": [
        {
          "internalType": "address",
          "name": "",
          "type": "address"
        }
      ],
      "stateMutability": "view",
      "type": "function"
    },
    {
      "inputs": [],
      "name": "pause",
      "outputs": [],
      "stateMutability": "nonpayable",
      "type": "function"
    },
    {
      "inputs": [],
      "name": "paused",
      "outputs": [
        {
          "internalType": "bool",
          "name": "",
          "type": "bool"
        }
      ],
      "stateMutability": "view",
      "type": "function"
    },
    {
      "inputs": [
        {
          "internalType": "uint256",
          "name": "index",
          "type": "uint256"
        }
      ],
      "name": "payee",
      "outputs": [
        {
          "internalType": "address",
          "name": "",
          "type": "address"
        }
      ],
      "stateMutability": "view",
      "type": "function"
    },
    {
      "inputs": [
        {
          "internalType": "address",
          "name": "to",
          "type": "address"
        },
        {
          "internalType": "string",
          "name": "word",
          "type": "string"
        }
      ],
      "name": "purchaseWord",
      "outputs": [],
      "stateMutability": "payable",
      "type": "function"
    },
    {
      "inputs": [
        {
          "internalType": "address payable",
          "name": "account",
          "type": "address"
        }
      ],
      "name": "release",
      "outputs": [],
      "stateMutability": "nonpayable",
      "type": "function"
    },
    {
      "inputs": [
        {
          "internalType": "address",
          "name": "account",
          "type": "address"
        }
      ],
      "name": "released",
      "outputs": [
        {
          "internalType": "uint256",
          "name": "",
          "type": "uint256"
        }
      ],
      "stateMutability": "view",
      "type": "function"
    },
    {
      "inputs": [
        {
          "internalType": "bytes32",
          "name": "role",
          "type": "bytes32"
        },
        {
          "internalType": "address",
          "name": "account",
          "type": "address"
        }
      ],
      "name": "renounceRole",
      "outputs": [],
      "stateMutability": "nonpayable",
      "type": "function"
    },
    {
      "inputs": [
        {
          "internalType": "bytes32",
          "name": "role",
          "type": "bytes32"
        },
        {
          "internalType": "address",
          "name": "account",
          "type": "address"
        }
      ],
      "name": "revokeRole",
      "outputs": [],
      "stateMutability": "nonpayable",
      "type": "function"
    },
    {
      "inputs": [],
      "name": "royaltiesPercentage",
      "outputs": [
        {
          "internalType": "uint256",
          "name": "",
          "type": "uint256"
        }
      ],
      "stateMutability": "view",
      "type": "function"
    },
    {
      "inputs": [],
      "name": "royaltiesReceiver",
      "outputs": [
        {
          "internalType": "address",
          "name": "",
          "type": "address"
        }
      ],
      "stateMutability": "view",
      "type": "function"
    },
    {
      "inputs": [
        {
          "internalType": "uint256",
          "name": "_tokenId",
          "type": "uint256"
        },
        {
          "internalType": "uint256",
          "name": "_salePrice",
          "type": "uint256"
        }
      ],
      "name": "royaltyInfo",
      "outputs": [
        {
          "internalType": "address",
          "name": "receiver",
          "type": "address"
        },
        {
          "internalType": "uint256",
          "name": "royaltyAmount",
          "type": "uint256"
        }
      ],
      "stateMutability": "view",
      "type": "function"
    },
    {
      "inputs": [
        {
          "internalType": "address",
          "name": "from",
          "type": "address"
        },
        {
          "internalType": "address",
          "name": "to",
          "type": "address"
        },
        {
          "internalType": "uint256",
          "name": "tokenId",
          "type": "uint256"
        }
      ],
      "name": "safeTransferFrom",
      "outputs": [],
      "stateMutability": "nonpayable",
      "type": "function"
    },
    {
      "inputs": [
        {
          "internalType": "address",
          "name": "from",
          "type": "address"
        },
        {
          "internalType": "address",
          "name": "to",
          "type": "address"
        },
        {
          "internalType": "uint256",
          "name": "tokenId",
          "type": "uint256"
        },
        {
          "internalType": "bytes",
          "name": "_data",
          "type": "bytes"
        }
      ],
      "name": "safeTransferFrom",
      "outputs": [],
      "stateMutability": "nonpayable",
      "type": "function"
    },
    {
      "inputs": [
        {
          "internalType": "address",
          "name": "operator",
          "type": "address"
        },
        {
          "internalType": "bool",
          "name": "approved",
          "type": "bool"
        }
      ],
      "name": "setApprovalForAll",
      "outputs": [],
      "stateMutability": "nonpayable",
      "type": "function"
    },
    {
      "inputs": [
        {
          "internalType": "string",
          "name": "word",
          "type": "string"
        },
        {
          "internalType": "uint256",
          "name": "price",
          "type": "uint256"
        }
      ],
      "name": "setCustomPriceByWord",
      "outputs": [],
      "stateMutability": "nonpayable",
      "type": "function"
    },
    {
      "inputs": [
        {
          "internalType": "uint256",
          "name": "price",
          "type": "uint256"
        }
      ],
      "name": "setDefaultPrice",
      "outputs": [],
      "stateMutability": "nonpayable",
      "type": "function"
    },
    {
      "inputs": [
        {
          "internalType": "uint256",
          "name": "percentage",
          "type": "uint256"
        }
      ],
      "name": "setDiscountPercentage",
      "outputs": [],
      "stateMutability": "nonpayable",
      "type": "function"
    },
    {
      "inputs": [
        {
          "internalType": "uint256",
          "name": "percentage",
          "type": "uint256"
        }
      ],
      "name": "setDiscountPercentageGlobal",
      "outputs": [],
      "stateMutability": "nonpayable",
      "type": "function"
    },
    {
      "inputs": [
        {
          "internalType": "uint256",
          "name": "instances",
          "type": "uint256"
        }
      ],
      "name": "setMaxInstances",
      "outputs": [],
      "stateMutability": "nonpayable",
      "type": "function"
    },
    {
      "inputs": [
        {
          "internalType": "string",
          "name": "word",
          "type": "string"
        },
        {
          "internalType": "uint256",
          "name": "instances",
          "type": "uint256"
        }
      ],
      "name": "setMaxInstancesByWord",
      "outputs": [],
      "stateMutability": "nonpayable",
      "type": "function"
    },
    {
      "inputs": [
        {
          "internalType": "address",
          "name": "newRoyaltiesReceiver",
          "type": "address"
        }
      ],
      "name": "setRoyaltiesReceiver",
      "outputs": [],
      "stateMutability": "nonpayable",
      "type": "function"
    },
    {
      "inputs": [
        {
          "internalType": "address",
          "name": "account",
          "type": "address"
        }
      ],
      "name": "shares",
      "outputs": [
        {
          "internalType": "uint256",
          "name": "",
          "type": "uint256"
        }
      ],
      "stateMutability": "view",
      "type": "function"
    },
    {
      "inputs": [
        {
          "internalType": "bytes4",
          "name": "interfaceId",
          "type": "bytes4"
        }
      ],
      "name": "supportsInterface",
      "outputs": [
        {
          "internalType": "bool",
          "name": "",
          "type": "bool"
        }
      ],
      "stateMutability": "view",
      "type": "function"
    },
    {
      "inputs": [],
      "name": "symbol",
      "outputs": [
        {
          "internalType": "string",
          "name": "",
          "type": "string"
        }
      ],
      "stateMutability": "view",
      "type": "function"
    },
    {
      "inputs": [
        {
          "internalType": "uint256",
          "name": "index",
          "type": "uint256"
        }
      ],
      "name": "tokenByIndex",
      "outputs": [
        {
          "internalType": "uint256",
          "name": "",
          "type": "uint256"
        }
      ],
      "stateMutability": "view",
      "type": "function"
    },
    {
      "inputs": [
        {
          "internalType": "address",
          "name": "owner",
          "type": "address"
        },
        {
          "internalType": "uint256",
          "name": "index",
          "type": "uint256"
        }
      ],
      "name": "tokenOfOwnerByIndex",
      "outputs": [
        {
          "internalType": "uint256",
          "name": "",
          "type": "uint256"
        }
      ],
      "stateMutability": "view",
      "type": "function"
    },
    {
      "inputs": [
        {
          "internalType": "uint256",
          "name": "tokenId",
          "type": "uint256"
        }
      ],
      "name": "tokenURI",
      "outputs": [
        {
          "internalType": "string",
          "name": "",
          "type": "string"
        }
      ],
      "stateMutability": "view",
      "type": "function"
    },
    {
      "inputs": [],
      "name": "totalReleased",
      "outputs": [
        {
          "internalType": "uint256",
          "name": "",
          "type": "uint256"
        }
      ],
      "stateMutability": "view",
      "type": "function"
    },
    {
      "inputs": [],
      "name": "totalShares",
      "outputs": [
        {
          "internalType": "uint256",
          "name": "",
          "type": "uint256"
        }
      ],
      "stateMutability": "view",
      "type": "function"
    },
    {
      "inputs": [],
      "name": "totalSupply",
      "outputs": [
        {
          "internalType": "uint256",
          "name": "",
          "type": "uint256"
        }
      ],
      "stateMutability": "view",
      "type": "function"
    },
    {
      "inputs": [
        {
          "internalType": "address",
          "name": "from",
          "type": "address"
        },
        {
          "internalType": "address",
          "name": "to",
          "type": "address"
        },
        {
          "internalType": "uint256",
          "name": "tokenId",
          "type": "uint256"
        }
      ],
      "name": "transferFrom",
      "outputs": [],
      "stateMutability": "nonpayable",
      "type": "function"
    },
    {
      "inputs": [],
      "name": "unpause",
      "outputs": [],
      "stateMutability": "nonpayable",
      "type": "function"
    },
    {
      "inputs": [
        {
          "internalType": "string",
          "name": "word",
          "type": "string"
        }
      ],
      "name": "wordAvailable",
      "outputs": [
        {
          "internalType": "bool",
          "name": "",
          "type": "bool"
        }
      ],
      "stateMutability": "view",
      "type": "function"
    },
    {
      "stateMutability": "payable",
      "type": "receive"
    }
  ],
  "bytecode": "0x60806040523480156200001157600080fd5b50600054610100900460ff16806200002c575060005460ff16155b620000945760405162461bcd60e51b815260206004820152602e60248201527f496e697469616c697a61626c653a20636f6e747261637420697320616c72656160448201526d191e481a5b9a5d1a585b1a5e995960921b606482015260840160405180910390fd5b600054610100900460ff16158015620000b7576000805461ffff19166101011790555b8015620000ca576000805461ff00191690555b50614e7380620000db6000396000f3fe6080604052600436106103f35760003560e01c80637b63c0fc11610208578063b88d4fde11610118578063d5391393116100ab578063e63ab1e91161007a578063e63ab1e914610c2f578063e69e04b314610c46578063e985e9c514610c5d578063ece7669e14610ca6578063edf4619614610cc657600080fd5b8063d539139314610bc2578063d547741f14610bd9578063dd08eae014610bf9578063e33b7de314610c1957600080fd5b8063cafa8dfe116100e7578063cafa8dfe14610b41578063cc14f2f514610b58578063ce7c2ac214610b78578063d0fd890d14610baf57600080fd5b8063b88d4fde14610ac1578063c5e885e414610ae1578063c87b56dd14610b01578063ca15c87314610b2157600080fd5b80639852595c1161019b578063a7abb8b71161016a578063a7abb8b714610a33578063aef9455d14610a4a578063b3428d1514610a6a578063b3fa9f2414610a8a578063b514371514610aa157600080fd5b80639852595c146109a6578063a217fddf146109dd578063a22cb465146109f2578063a3a51bd514610a1257600080fd5b80638b83209b116101d75780638b83209b146109315780639010d07c1461095157806391d148541461097157806395d89b411461099157600080fd5b80637b63c0fc146108af5780638456cb59146108dc578063845bcce1146108f157806387ded6c61461091157600080fd5b806342842e0e116103035780636352211e1161029657806370a082311161026557806370a08231146108185780637386ca3e1461083857806373f36e581461085857806376977a3a1461086f57806377500c541461088f57600080fd5b80636352211e1461078b5780636970bb0a146107ab5780636d3c7ec5146107d857806370868d6f146107f857600080fd5b80634f6ccce7116102d25780634f6ccce71461071b57806359fb3e601461073b5780635b4b51cf146107525780635c975abb1461077257600080fd5b806342842e0e146106a757806342966c68146106c757806343bc1612146106e7578063445d97871461070857600080fd5b8063248a9ca3116103865780632f745c59116103555780632f745c591461061c57806336568abe1461063c5780633a98ef391461065c5780633cad9587146106725780633f4ba83a1461069257600080fd5b8063248a9ca3146105755780632a55205a146105a65780632f0f0dac146105e55780632f2ff15d146105fc57600080fd5b8063095ea7b3116103c2578063095ea7b3146104fe57806318160ddd14610520578063191655871461053557806323b872dd1461055557600080fd5b806301ffc9a714610441578063027e11a71461047657806306fdde03146104a4578063081812fc146104c657600080fd5b3661043c577f6ef95f06320e7a25a04a175ca677b7052bdd97131872c2192525a629f51be77033604080516001600160a01b0390921682523460208301520160405180910390a1005b600080fd5b34801561044d57600080fd5b5061046161045c36600461473f565b610ce6565b60405190151581526020015b60405180910390f35b34801561048257600080fd5b50610496610491366004614777565b610d11565b60405190815260200161046d565b3480156104b057600080fd5b506104b9610d47565b60405161046d9190614ab4565b3480156104d257600080fd5b506104e66104e13660046146e2565b610dd9565b6040516001600160a01b03909116815260200161046d565b34801561050a57600080fd5b5061051e6105193660046146b7565b610e66565b005b34801561052c57600080fd5b50609954610496565b34801561054157600080fd5b5061051e610550366004614529565b610f7c565b34801561056157600080fd5b5061051e61057036600461457d565b611157565b34801561058157600080fd5b506104966105903660046146e2565b600090815261015f602052604090206001015490565b3480156105b257600080fd5b506105c66105c136600461471e565b611189565b604080516001600160a01b03909316835260208301919091520161046d565b3480156105f157600080fd5b506104966101f95481565b34801561060857600080fd5b5061051e6106173660046146fa565b6111f5565b34801561062857600080fd5b506104966106373660046146b7565b611218565b34801561064857600080fd5b5061051e6106573660046146fa565b6112ae565b34801561066857600080fd5b506101c354610496565b34801561067e57600080fd5b5061051e61068d366004614777565b6112d1565b34801561069e57600080fd5b5061051e611304565b3480156106b357600080fd5b5061051e6106c236600461457d565b61131d565b3480156106d357600080fd5b5061051e6106e23660046146e2565b611338565b3480156106f357600080fd5b506101f6546104e6906001600160a01b031681565b61051e6107163660046147a9565b6113af565b34801561072757600080fd5b506104966107363660046146e2565b6115f2565b34801561074757600080fd5b506104966101f75481565b34801561075e57600080fd5b5061049661076d366004614777565b611693565b34801561077e57600080fd5b5061012d5460ff16610461565b34801561079757600080fd5b506104e66107a63660046146e2565b6116fc565b3480156107b757600080fd5b506107cb6107c6366004614529565b611773565b60405161046d9190614a70565b3480156107e457600080fd5b5061051e6107f33660046146e2565b611832565b34801561080457600080fd5b50610496610813366004614777565b61188c565b34801561082457600080fd5b50610496610833366004614529565b6118aa565b34801561084457600080fd5b5061051e6108533660046148a4565b611931565b34801561086457600080fd5b506104966102005481565b34801561087b57600080fd5b5061049661088a36600461466a565b611990565b34801561089b57600080fd5b506104616108aa366004614777565b611a05565b3480156108bb57600080fd5b506108cf6108ca366004614529565b611a38565b60405161046d9190614a0f565b3480156108e857600080fd5b5061051e611bbc565b3480156108fd57600080fd5b5061051e61090c3660046146e2565b611bd2565b34801561091d57600080fd5b506108cf61092c3660046146e2565b611c24565b34801561093d57600080fd5b506104e661094c3660046146e2565b611da0565b34801561095d57600080fd5b506104e661096c36600461471e565b611ddf565b34801561097d57600080fd5b5061046161098c3660046146fa565b611df8565b34801561099d57600080fd5b506104b9611e24565b3480156109b257600080fd5b506104966109c1366004614529565b6001600160a01b031660009081526101c6602052604090205490565b3480156109e957600080fd5b50610496600081565b3480156109fe57600080fd5b5061051e610a0d366004614639565b611e33565b348015610a1e57600080fd5b506101fb546104e6906001600160a01b031681565b348015610a3f57600080fd5b506104966101ff5481565b348015610a5657600080fd5b5061051e610a653660046146e2565b611ef8565b348015610a7657600080fd5b5061051e610a853660046146e2565b611f4a565b348015610a9657600080fd5b506104966101fa5481565b348015610aad57600080fd5b5061051e610abc366004614529565b611f9c565b348015610acd57600080fd5b5061051e610adc3660046145bd565b611fe8565b348015610aed57600080fd5b5061051e610afc3660046148a4565b612020565b348015610b0d57600080fd5b506104b9610b1c3660046146e2565b6120a9565b348015610b2d57600080fd5b50610496610b3c3660046146e2565b6120b4565b348015610b4d57600080fd5b506104966101fc5481565b348015610b6457600080fd5b5061051e610b733660046146e2565b6120cc565b348015610b8457600080fd5b50610496610b93366004614529565b6001600160a01b031660009081526101c5602052604090205490565b61051e610bbd36600461466a565b6120e5565b348015610bce57600080fd5b506104966101fe5481565b348015610be557600080fd5b5061051e610bf43660046146fa565b61228e565b348015610c0557600080fd5b50610496610c14366004614777565b612298565b348015610c2557600080fd5b506101c454610496565b348015610c3b57600080fd5b506104966101fd5481565b348015610c5257600080fd5b506104966101f85481565b348015610c6957600080fd5b50610461610c78366004614545565b6001600160a01b039182166000908152606a6020908152604080832093909416825291909152205460ff1690565b348015610cb257600080fd5b506107cb610cc13660046146e2565b6122c1565b348015610cd257600080fd5b5061051e610ce1366004614777565b6123af565b60006001600160e01b0319821663152a902d60e11b1480610d0b5750610d0b826123cc565b92915050565b600080610d1e81336123f1565b61020383604051610d2f9190614912565b90815260200160405180910390205491505b50919050565b606060658054610d5690614d4a565b80601f0160208091040260200160405190810160405280929190818152602001828054610d8290614d4a565b8015610dcf5780601f10610da457610100808354040283529160200191610dcf565b820191906000526020600020905b815481529060010190602001808311610db257829003601f168201915b5050505050905090565b6000610de482612455565b610e4a5760405162461bcd60e51b815260206004820152602c60248201527f4552433732313a20617070726f76656420717565727920666f72206e6f6e657860448201526b34b9ba32b73a103a37b5b2b760a11b60648201526084015b60405180910390fd5b506000908152606960205260409020546001600160a01b031690565b6000610e71826116fc565b9050806001600160a01b0316836001600160a01b03161415610edf5760405162461bcd60e51b815260206004820152602160248201527f4552433732313a20617070726f76616c20746f2063757272656e74206f776e656044820152603960f91b6064820152608401610e41565b336001600160a01b0382161480610efb5750610efb8133610c78565b610f6d5760405162461bcd60e51b815260206004820152603860248201527f4552433732313a20617070726f76652063616c6c6572206973206e6f74206f7760448201527f6e6572206e6f7220617070726f76656420666f7220616c6c00000000000000006064820152608401610e41565b610f778383612472565b505050565b6001600160a01b03811660009081526101c56020526040902054610ff15760405162461bcd60e51b815260206004820152602660248201527f5061796d656e7453706c69747465723a206163636f756e7420686173206e6f2060448201526573686172657360d01b6064820152608401610e41565b60006101c454476110029190614c66565b6001600160a01b03831660009081526101c660209081526040808320546101c3546101c590935290832054939450919261103c9085614c92565b6110469190614c7e565b6110509190614cf0565b9050806110b35760405162461bcd60e51b815260206004820152602b60248201527f5061796d656e7453706c69747465723a206163636f756e74206973206e6f742060448201526a191d59481c185e5b595b9d60aa1b6064820152608401610e41565b6001600160a01b03831660009081526101c660205260409020546110d8908290614c66565b6001600160a01b03841660009081526101c660205260409020556101c454611101908290614c66565b6101c45561110f83826124e0565b604080516001600160a01b0385168152602081018390527fdf20fd1e76bc69d672e4814fafb2c449bba3a5369d8359adf9e05e6fde87b05691015b60405180910390a1505050565b611162335b826125f9565b61117e5760405162461bcd60e51b8152600401610e4190614b91565b610f778383836126e3565b60008061119a6101fe5461098c3390565b806111ae57506111ae6102005461098c3390565b156111be575060009050806111ee565b600060646101fc54856111d19190614c92565b6111db9190614c7e565b6101fb546001600160a01b031693509150505b9250929050565b6111ff828261288e565b600082815261019160205260409020610f7790826128b5565b6000611223836118aa565b82106112855760405162461bcd60e51b815260206004820152602b60248201527f455243373231456e756d657261626c653a206f776e657220696e646578206f7560448201526a74206f6620626f756e647360a81b6064820152608401610e41565b506001600160a01b03919091166000908152609760209081526040808320938352929052205490565b6112b882826128ca565b600082815261019160205260409020610f779082612944565b60006112dd81336123f1565b610204826040516112ee9190614912565b9081526020016040518091039020600090555050565b6101fd5461131281336123f1565b61131a612959565b50565b610f7783838360405180602001604052806000815250611fe8565b6113413361115c565b6113a65760405162461bcd60e51b815260206004820152603060248201527f4552433732314275726e61626c653a2063616c6c6572206973206e6f74206f7760448201526f1b995c881b9bdc88185c1c1c9bdd995960821b6064820152608401610e41565b61131a816129ee565b600054610100900460ff16806113c8575060005460ff16155b6113e45760405162461bcd60e51b8152600401610e4190614b43565b600054610100900460ff16158015611406576000805461ffff19166101011790555b6114108585612ade565b611418612b65565b611420612b65565b611428612b65565b611430612be8565b611438612c4f565b6114428383612cae565b336101f680546001600160a01b0319166001600160a01b039290921691909117905560056101f7556040516a63727970746f776f72647360a81b815260019061020390600b01908152604051908190036020018120919091556918dc9e5c1d1bdddbdc9960b21b815260019061020390600a01908152604051908190036020019020556702c68af0bb1400006101f85560006101f98190556113886101fa556101f6546101fb80546001600160a01b0319166001600160a01b0390921691909117905560086101fc557f65d7a28e3265b37a6474929f336521b332c1681b933f6cb9f3376673440d862a6101fd557f9f2df0fed2c77648de5860a4cc508cd0818c85b8b8a1ab4ceeef8d981c8956a66101fe557ff9e9e1c8035f82fd72c5438c5719fd5349deacb4207f4fcbbda606cb5a39d5096101ff557f29434eb5e8812e221f75c8938ee14034fc1cbbc820ce3ab1dd76fa5eb480c48d610200556115af906115aa3390565b612d17565b6115bd6101fd546115aa3390565b6115cb6101fe546115aa3390565b6115d9610200546115aa3390565b80156115eb576000805461ff00191690555b5050505050565b60006115fd60995490565b82106116605760405162461bcd60e51b815260206004820152602c60248201527f455243373231456e756d657261626c653a20676c6f62616c20696e646578206f60448201526b7574206f6620626f756e647360a01b6064820152608401610e41565b6099828154811061168157634e487b7160e01b600052603260045260246000fd5b90600052602060002001549050919050565b6000806116be610202846040516116aa9190614912565b908152602001604051809103902054612d21565b6116cf6116ca85612d8f565b612d21565b6116d99190614cb1565b9050600081136116ec5750600092915050565b6116f581612dd2565b9392505050565b6000818152606760205260408120546001600160a01b031680610d0b5760405162461bcd60e51b815260206004820152602960248201527f4552433732313a206f776e657220717565727920666f72206e6f6e657869737460448201526832b73a103a37b5b2b760b91b6064820152608401610e41565b60606000611780836118aa565b6001600160401b038111156117a557634e487b7160e01b600052604160045260246000fd5b6040519080825280602002602001820160405280156117ce578160200160208202803683370190505b50905060005b6117dd846118aa565b81101561182b576117ee8482611218565b82828151811061180e57634e487b7160e01b600052603260045260246000fd5b60209081029190910101528061182381614d7f565b9150506117d4565b5092915050565b600061183e81336123f1565b6101f85482141561184e57600080fd5b6101f88290556040518281527f6bfd5e75539a9d2626425a2e2922675256b219fe546d63dad56011759b9a2f66906020015b60405180910390a15050565b60008061189981336123f1565b61020483604051610d2f9190614912565b60006001600160a01b0382166119155760405162461bcd60e51b815260206004820152602a60248201527f4552433732313a2062616c616e636520717565727920666f7220746865207a65604482015269726f206164647265737360b01b6064820152608401610e41565b506001600160a01b031660009081526068602052604090205490565b600061193d81336123f1565b6102038360405161194e9190614912565b90815260200160405180910390205482141561196957600080fd5b816102038460405161197b9190614912565b90815260405190819003602001902055505050565b600061199f6101fe5484611df8565b156119ac57506000610d0b565b6119b96101ff5484611df8565b156119f9576101fa546101f954116119e1576119dc6119d783612e24565b612e67565b6119f2565b6119f26119ed83612e24565b612e8f565b9050610d0b565b6116f56119ed83612e24565b6000611a1082612d8f565b61020283604051611a219190614912565b908152602001604051809103902054109050919050565b60606000611a4583611773565b9050600081516001600160401b03811115611a7057634e487b7160e01b600052604160045260246000fd5b604051908082528060200260200182016040528015611aa357816020015b6060815260200190600190039081611a8e5790505b50905060005b8251811015611bb4576102016000848381518110611ad757634e487b7160e01b600052603260045260246000fd5b602002602001015181526020019081526020016000208054611af890614d4a565b80601f0160208091040260200160405190810160405280929190818152602001828054611b2490614d4a565b8015611b715780601f10611b4657610100808354040283529160200191611b71565b820191906000526020600020905b815481529060010190602001808311611b5457829003601f168201915b5050505050828281518110611b9657634e487b7160e01b600052603260045260246000fd5b60200260200101819052508080611bac90614d7f565b915050611aa9565b509392505050565b6101fd54611bca81336123f1565b61131a612ea3565b6000611bde81336123f1565b6101f954821415611bee57600080fd5b6101f98290556040518281527fc1ff72bca032e30387f94c0af05dd3033d0de460a2b682abb2f2890036bf607a90602001611880565b60606000611c31836122c1565b9050600081516001600160401b03811115611c5c57634e487b7160e01b600052604160045260246000fd5b604051908082528060200260200182016040528015611c8f57816020015b6060815260200190600190039081611c7a5790505b50905060005b8251811015611bb4576102016000848381518110611cc357634e487b7160e01b600052603260045260246000fd5b602002602001015181526020019081526020016000208054611ce490614d4a565b80601f0160208091040260200160405190810160405280929190818152602001828054611d1090614d4a565b8015611d5d5780601f10611d3257610100808354040283529160200191611d5d565b820191906000526020600020905b815481529060010190602001808311611d4057829003601f168201915b5050505050828281518110611d8257634e487b7160e01b600052603260045260246000fd5b60200260200101819052508080611d9890614d7f565b915050611c95565b60006101c78281548110611dc457634e487b7160e01b600052603260045260246000fd5b6000918252602090912001546001600160a01b031692915050565b6000828152610191602052604081206116f59083612efd565b600091825261015f602090815260408084206001600160a01b0393909316845291905290205460ff1690565b606060668054610d5690614d4a565b6001600160a01b038216331415611e8c5760405162461bcd60e51b815260206004820152601960248201527f4552433732313a20617070726f766520746f2063616c6c6572000000000000006044820152606401610e41565b336000818152606a602090815260408083206001600160a01b03871680855290835292819020805460ff191686151590811790915590519081529192917f17307eab39ab6107e8899845ad3d59bd9653f200f220920489ca2b5937696c31910160405180910390a35050565b6000611f0481336123f1565b6101f754821415611f1457600080fd5b6101f78290556040518281527f3a8598e300de634f047e360175c9c4dcde54652bf186edfff52b3bd41a833bf890602001611880565b6000611f5681336123f1565b6101fa54821415611f6657600080fd5b6101fa8290556040518281527f1b69574255c79758c64d1a097acfd0300110698292feae84be7ab7e574f195d290602001611880565b6000611fa881336123f1565b6101fb546001600160a01b0383811691161415611fc457600080fd5b506101fb80546001600160a01b0319166001600160a01b0392909216919091179055565b611ff233836125f9565b61200e5760405162461bcd60e51b8152600401610e4190614b91565b61201a84848484612f09565b50505050565b600061202c81336123f1565b6102048360405161203d9190614912565b90815260200160405180910390205482141561205857600080fd5b816102048460405161206a9190614912565b90815260405160209181900382018120929092558382527f6bfd5e75539a9d2626425a2e2922675256b219fe546d63dad56011759b9a2f66910161114a565b6060610d0b82612f3c565b600081815261019160205260408120610d0b9061309e565b60006120d881336123f1565b6120e1826129ee565b5050565b61012d5460ff16156121095760405162461bcd60e51b8152600401610e4190614b19565b6121176101fe5461098c3390565b6121d35761212481611a05565b6121705760405162461bcd60e51b815260206004820181905260248201527f5468697320776f7264206973206e6f206c6f6e67657220617661696c61626c656044820152606401610e41565b61217a3382611990565b3410156121d35760405162461bcd60e51b815260206004820152602160248201527f4e6f7420656e6f756768204554482073656e743b20636865636b2070726963656044820152602160f81b6064820152608401610e41565b60006121df6101f55490565b90506121f06101f580546001019055565b600081815261020160209081526040909120835161221092850190614379565b506001610202836040516122249190614912565b908152602001604051809103902060008282546122419190614c66565b90915550612251905083826130a8565b61225b81836130c2565b7fe7619a6b73b99956e487541f2eafbf4cb611a98b8391e31858fe02ba08669f0581838560405161114a93929190614be2565b6112b8828261314d565b6000610202826040516122ab9190614912565b9081526020016040518091039020549050919050565b606060006122ce60995490565b90506000838211156122e057836122e2565b815b90506000816001600160401b0381111561230c57634e487b7160e01b600052604160045260246000fd5b604051908082528060200260200182016040528015612335578160200160208202803683370190505b50905060006123448385614cf0565b905060005b838110156123a45761235a826115f2565b83828151811061237a57634e487b7160e01b600052603260045260246000fd5b6020908102919091010152612390600183614c66565b91508061239c81614d7f565b915050612349565b509095945050505050565b60006123bb81336123f1565b610203826040516112ee9190614912565b60006001600160e01b03198216635a05180f60e01b1480610d0b5750610d0b82613174565b6123fb8282611df8565b6120e157612413816001600160a01b03166014613199565b61241e836020613199565b60405160200161242f92919061495d565b60408051601f198184030181529082905262461bcd60e51b8252610e4191600401614ab4565b6000908152606760205260409020546001600160a01b0316151590565b600081815260696020526040902080546001600160a01b0319166001600160a01b03841690811790915581906124a7826116fc565b6001600160a01b03167f8c5be1e5ebec7d5bd14f71427d1e84f3dd0314c0f7b2291e5b200ac8c7c3b92560405160405180910390a45050565b804710156125305760405162461bcd60e51b815260206004820152601d60248201527f416464726573733a20696e73756666696369656e742062616c616e63650000006044820152606401610e41565b6000826001600160a01b03168260405160006040518083038185875af1925050503d806000811461257d576040519150601f19603f3d011682016040523d82523d6000602084013e612582565b606091505b5050905080610f775760405162461bcd60e51b815260206004820152603a60248201527f416464726573733a20756e61626c6520746f2073656e642076616c75652c207260448201527f6563697069656e74206d617920686176652072657665727465640000000000006064820152608401610e41565b600061260482612455565b6126655760405162461bcd60e51b815260206004820152602c60248201527f4552433732313a206f70657261746f7220717565727920666f72206e6f6e657860448201526b34b9ba32b73a103a37b5b2b760a11b6064820152608401610e41565b6000612670836116fc565b9050806001600160a01b0316846001600160a01b031614806126ab5750836001600160a01b03166126a084610dd9565b6001600160a01b0316145b806126db57506001600160a01b038082166000908152606a602090815260408083209388168352929052205460ff165b949350505050565b826001600160a01b03166126f6826116fc565b6001600160a01b03161461275e5760405162461bcd60e51b815260206004820152602960248201527f4552433732313a207472616e73666572206f6620746f6b656e2074686174206960448201526839903737ba1037bbb760b91b6064820152608401610e41565b6001600160a01b0382166127c05760405162461bcd60e51b8152602060048201526024808201527f4552433732313a207472616e7366657220746f20746865207a65726f206164646044820152637265737360e01b6064820152608401610e41565b6127cb83838361337a565b6127d6600082612472565b6001600160a01b03831660009081526068602052604081208054600192906127ff908490614cf0565b90915550506001600160a01b038216600090815260686020526040812080546001929061282d908490614c66565b909155505060008181526067602052604080822080546001600160a01b0319166001600160a01b0386811691821790925591518493918716917fddf252ad1be2c89b69c2b068fc378daa952ba7f163c4a11628f55a4df523b3ef91a4505050565b600082815261015f60205260409020600101546128ab81336123f1565b610f7783836133a9565b60006116f5836001600160a01b038416613430565b6001600160a01b038116331461293a5760405162461bcd60e51b815260206004820152602f60248201527f416363657373436f6e74726f6c3a2063616e206f6e6c792072656e6f756e636560448201526e103937b632b9903337b91039b2b63360891b6064820152608401610e41565b6120e1828261347f565b60006116f5836001600160a01b0384166134e7565b61012d5460ff166129a35760405162461bcd60e51b815260206004820152601460248201527314185d5cd8589b194e881b9bdd081c185d5cd95960621b6044820152606401610e41565b61012d805460ff191690557f5db9ee0a495bf2e6ff9c91a7834c1ba4fdd244a5e8aa4e537bd38aeae4b073aa335b6040516001600160a01b03909116815260200160405180910390a1565b6000818152610201602052604081208054612a0890614d4a565b80601f0160208091040260200160405190810160405280929190818152602001828054612a3490614d4a565b8015612a815780601f10612a5657610100808354040283529160200191612a81565b820191906000526020600020905b815481529060010190602001808311612a6457829003601f168201915b50505050509050600161020282604051612a9b9190614912565b908152602001604051809103902054612ab49190614cf0565b61020282604051612ac59190614912565b908152604051908190036020019020556120e182613604565b600054610100900460ff1680612af7575060005460ff16155b612b135760405162461bcd60e51b8152600401610e4190614b43565b600054610100900460ff16158015612b35576000805461ffff19166101011790555b612b3d613644565b612b45613644565b612b4f83836136ae565b8015610f77576000805461ff0019169055505050565b600054610100900460ff1680612b7e575060005460ff16155b612b9a5760405162461bcd60e51b8152600401610e4190614b43565b600054610100900460ff16158015612bbc576000805461ffff19166101011790555b612bc4613644565b612bcc613644565b612bd4613644565b801561131a576000805461ff001916905550565b600054610100900460ff1680612c01575060005460ff16155b612c1d5760405162461bcd60e51b8152600401610e4190614b43565b600054610100900460ff16158015612c3f576000805461ffff19166101011790555b612c47613644565b612bd4613743565b600054610100900460ff1680612c68575060005460ff16155b612c845760405162461bcd60e51b8152600401610e4190614b43565b600054610100900460ff16158015612ca6576000805461ffff19166101011790555b612bbc613644565b600054610100900460ff1680612cc7575060005460ff16155b612ce35760405162461bcd60e51b8152600401610e4190614b43565b600054610100900460ff16158015612d05576000805461ffff19166101011790555b612d0d613644565b612b4f83836137b9565b6111ff8282613943565b60006001600160ff1b03821115612d8b5760405162461bcd60e51b815260206004820152602860248201527f53616665436173743a2076616c756520646f65736e27742066697420696e2061604482015267371034b73a191a9b60c11b6064820152608401610e41565b5090565b60008061020383604051612da39190614912565b9081526020016040518091039020541115612dc957610203826040516122ab9190614912565b50506101f75490565b600080821215612d8b5760405162461bcd60e51b815260206004820181905260248201527f53616665436173743a2076616c7565206d75737420626520706f7369746976656044820152606401610e41565b60008061020483604051612e389190614912565b9081526020016040518091039020541115612e5e57610204826040516122ab9190614912565b50506101f85490565b60006127106101fa5483612e7b9190614c92565b612e859190614c7e565b610d0b9083614cf0565b60006127106101f95483612e7b9190614c92565b61012d5460ff1615612ec75760405162461bcd60e51b8152600401610e4190614b19565b61012d805460ff191660011790557f62e78cea01bee320cd4e420270b5ea74000d11b0c9f74754ebdbfc544b05a2586129d13390565b60006116f5838361394d565b612f148484846126e3565b612f2084848484613985565b61201a5760405162461bcd60e51b8152600401610e4190614ac7565b6060612f4782612455565b612fad5760405162461bcd60e51b815260206004820152603160248201527f45524337323155524953746f726167653a2055524920717565727920666f72206044820152703737b732bc34b9ba32b73a103a37b5b2b760791b6064820152608401610e41565b600082815260c9602052604081208054612fc690614d4a565b80601f0160208091040260200160405190810160405280929190818152602001828054612ff290614d4a565b801561303f5780601f106130145761010080835404028352916020019161303f565b820191906000526020600020905b81548152906001019060200180831161302257829003601f168201915b505050505090506000613050613a92565b9050805160001415613063575092915050565b81511561309557808260405160200161307d92919061492e565b60405160208183030381529060405292505050919050565b6126db84613ab2565b6000610d0b825490565b6120e1828260405180602001604052806000815250613b7c565b6130cb82612455565b61312e5760405162461bcd60e51b815260206004820152602e60248201527f45524337323155524953746f726167653a2055524920736574206f66206e6f6e60448201526d32bc34b9ba32b73a103a37b5b2b760911b6064820152608401610e41565b600082815260c9602090815260409091208251610f7792840190614379565b600082815261015f602052604090206001015461316a81336123f1565b610f77838361347f565b60006001600160e01b03198216637965db0b60e01b1480610d0b5750610d0b82613baf565b606060006131a8836002614c92565b6131b3906002614c66565b6001600160401b038111156131d857634e487b7160e01b600052604160045260246000fd5b6040519080825280601f01601f191660200182016040528015613202576020820181803683370190505b509050600360fc1b8160008151811061322b57634e487b7160e01b600052603260045260246000fd5b60200101906001600160f81b031916908160001a905350600f60fb1b8160018151811061326857634e487b7160e01b600052603260045260246000fd5b60200101906001600160f81b031916908160001a905350600061328c846002614c92565b613297906001614c66565b90505b600181111561332b576f181899199a1a9b1b9c1cb0b131b232b360811b85600f16601081106132d957634e487b7160e01b600052603260045260246000fd5b1a60f81b8282815181106132fd57634e487b7160e01b600052603260045260246000fd5b60200101906001600160f81b031916908160001a90535060049490941c9361332481614d33565b905061329a565b5083156116f55760405162461bcd60e51b815260206004820181905260248201527f537472696e67733a20686578206c656e67746820696e73756666696369656e746044820152606401610e41565b61012d5460ff161561339e5760405162461bcd60e51b8152600401610e4190614b19565b610f77838383613bd4565b6133b38282611df8565b6120e157600082815261015f602090815260408083206001600160a01b03851684529091529020805460ff191660011790556133ec3390565b6001600160a01b0316816001600160a01b0316837f2f8788117e7eff1d82e926ec794901d17c78024a50270940304540a733656f0d60405160405180910390a45050565b600081815260018301602052604081205461347757508154600181810184556000848152602080822090930184905584548482528286019093526040902091909155610d0b565b506000610d0b565b6134898282611df8565b156120e157600082815261015f602090815260408083206001600160a01b0385168085529252808320805460ff1916905551339285917ff6391f5c32d9c69d2a47ea670b442974b53935d1edc7fd64eb21e047a839171b9190a45050565b600081815260018301602052604081205480156135fa57600061350b600183614cf0565b855490915060009061351f90600190614cf0565b90508181146135a057600086600001828154811061354d57634e487b7160e01b600052603260045260246000fd5b906000526020600020015490508087600001848154811061357e57634e487b7160e01b600052603260045260246000fd5b6000918252602080832090910192909255918252600188019052604090208390555b85548690806135bf57634e487b7160e01b600052603160045260246000fd5b600190038181906000526020600020016000905590558560010160008681526020019081526020016000206000905560019350505050610d0b565b6000915050610d0b565b61360d81613c8c565b600081815260c960205260409020805461362690614d4a565b15905061131a57600081815260c96020526040812061131a916143f9565b600054610100900460ff168061365d575060005460ff16155b6136795760405162461bcd60e51b8152600401610e4190614b43565b600054610100900460ff16158015612bd4576000805461ffff1916610101179055801561131a576000805461ff001916905550565b600054610100900460ff16806136c7575060005460ff16155b6136e35760405162461bcd60e51b8152600401610e4190614b43565b600054610100900460ff16158015613705576000805461ffff19166101011790555b8251613718906065906020860190614379565b50815161372c906066906020850190614379565b508015610f77576000805461ff0019169055505050565b600054610100900460ff168061375c575060005460ff16155b6137785760405162461bcd60e51b8152600401610e4190614b43565b600054610100900460ff1615801561379a576000805461ffff19166101011790555b61012d805460ff19169055801561131a576000805461ff001916905550565b600054610100900460ff16806137d2575060005460ff16155b6137ee5760405162461bcd60e51b8152600401610e4190614b43565b600054610100900460ff16158015613810576000805461ffff19166101011790555b815183511461387c5760405162461bcd60e51b815260206004820152603260248201527f5061796d656e7453706c69747465723a2070617965657320616e6420736861726044820152710cae640d8cadccee8d040dad2e6dac2e8c6d60731b6064820152608401610e41565b60008351116138cd5760405162461bcd60e51b815260206004820152601a60248201527f5061796d656e7453706c69747465723a206e6f207061796565730000000000006044820152606401610e41565b60005b835181101561372c576139318482815181106138fc57634e487b7160e01b600052603260045260246000fd5b602002602001015184838151811061392457634e487b7160e01b600052603260045260246000fd5b6020026020010151613d33565b8061393b81614d7f565b9150506138d0565b6120e182826133a9565b600082600001828154811061397257634e487b7160e01b600052603260045260246000fd5b9060005260206000200154905092915050565b60006001600160a01b0384163b15613a8757604051630a85bd0160e11b81526001600160a01b0385169063150b7a02906139c99033908990889088906004016149d2565b602060405180830381600087803b1580156139e357600080fd5b505af1925050508015613a13575060408051601f3d908101601f19168201909252613a109181019061475b565b60015b613a6d573d808015613a41576040519150601f19603f3d011682016040523d82523d6000602084013e613a46565b606091505b508051613a655760405162461bcd60e51b8152600401610e4190614ac7565b805181602001fd5b6001600160e01b031916630a85bd0160e11b1490506126db565b506001949350505050565b6060604051806060016040528060228152602001614e1c60229139905090565b6060613abd82612455565b613b215760405162461bcd60e51b815260206004820152602f60248201527f4552433732314d657461646174613a2055524920717565727920666f72206e6f60448201526e3732bc34b9ba32b73a103a37b5b2b760891b6064820152608401610e41565b6000613b2b613a92565b90506000815111613b4b57604051806020016040528060008152506116f5565b80613b5584613f17565b604051602001613b6692919061492e565b6040516020818303038152906040529392505050565b613b868383614030565b613b936000848484613985565b610f775760405162461bcd60e51b8152600401610e4190614ac7565b60006001600160e01b0319821663780e9d6360e01b1480610d0b5750610d0b8261416f565b6001600160a01b038316613c2f57613c2a81609980546000838152609a60205260408120829055600182018355919091527f72a152ddfb8e864297c917af52ea6c1c68aead0fee1a62673fcc7e0c94979d000155565b613c52565b816001600160a01b0316836001600160a01b031614613c5257613c5283826141bf565b6001600160a01b038216613c6957610f778161425c565b826001600160a01b0316826001600160a01b031614610f7757610f778282614335565b6000613c97826116fc565b9050613ca58160008461337a565b613cb0600083612472565b6001600160a01b0381166000908152606860205260408120805460019290613cd9908490614cf0565b909155505060008281526067602052604080822080546001600160a01b0319169055518391906001600160a01b038416907fddf252ad1be2c89b69c2b068fc378daa952ba7f163c4a11628f55a4df523b3ef908390a45050565b6001600160a01b038216613d9e5760405162461bcd60e51b815260206004820152602c60248201527f5061796d656e7453706c69747465723a206163636f756e74206973207468652060448201526b7a65726f206164647265737360a01b6064820152608401610e41565b60008111613dee5760405162461bcd60e51b815260206004820152601d60248201527f5061796d656e7453706c69747465723a207368617265732061726520300000006044820152606401610e41565b6001600160a01b03821660009081526101c5602052604090205415613e695760405162461bcd60e51b815260206004820152602b60248201527f5061796d656e7453706c69747465723a206163636f756e7420616c726561647960448201526a206861732073686172657360a81b6064820152608401610e41565b6101c78054600181019091557fff6df30967a6a678f565c59a19e91e5c0dbb20cfe9f9bf26d7da6dea0fffa24c0180546001600160a01b0319166001600160a01b03841690811790915560009081526101c5602052604090208190556101c354613ed4908290614c66565b6101c355604080516001600160a01b0384168152602081018390527f40c340f65e17194d14ddddb073d3c9f888e3cb52b5aae0c6c7706b4fbc905fac9101611880565b606081613f3b5750506040805180820190915260018152600360fc1b602082015290565b8160005b8115613f655780613f4f81614d7f565b9150613f5e9050600a83614c7e565b9150613f3f565b6000816001600160401b03811115613f8d57634e487b7160e01b600052604160045260246000fd5b6040519080825280601f01601f191660200182016040528015613fb7576020820181803683370190505b5090505b84156126db57613fcc600183614cf0565b9150613fd9600a86614d9a565b613fe4906030614c66565b60f81b81838151811061400757634e487b7160e01b600052603260045260246000fd5b60200101906001600160f81b031916908160001a905350614029600a86614c7e565b9450613fbb565b6001600160a01b0382166140865760405162461bcd60e51b815260206004820181905260248201527f4552433732313a206d696e7420746f20746865207a65726f20616464726573736044820152606401610e41565b61408f81612455565b156140dc5760405162461bcd60e51b815260206004820152601c60248201527f4552433732313a20746f6b656e20616c7265616479206d696e746564000000006044820152606401610e41565b6140e86000838361337a565b6001600160a01b0382166000908152606860205260408120805460019290614111908490614c66565b909155505060008181526067602052604080822080546001600160a01b0319166001600160a01b03861690811790915590518392907fddf252ad1be2c89b69c2b068fc378daa952ba7f163c4a11628f55a4df523b3ef908290a45050565b60006001600160e01b031982166380ac58cd60e01b14806141a057506001600160e01b03198216635b5e139f60e01b145b80610d0b57506301ffc9a760e01b6001600160e01b0319831614610d0b565b600060016141cc846118aa565b6141d69190614cf0565b600083815260986020526040902054909150808214614229576001600160a01b03841660009081526097602090815260408083208584528252808320548484528184208190558352609890915290208190555b5060009182526098602090815260408084208490556001600160a01b039094168352609781528383209183525290812055565b60995460009061426e90600190614cf0565b6000838152609a6020526040812054609980549394509092849081106142a457634e487b7160e01b600052603260045260246000fd5b9060005260206000200154905080609983815481106142d357634e487b7160e01b600052603260045260246000fd5b6000918252602080832090910192909255828152609a9091526040808220849055858252812055609980548061431957634e487b7160e01b600052603160045260246000fd5b6001900381819060005260206000200160009055905550505050565b6000614340836118aa565b6001600160a01b039093166000908152609760209081526040808320868452825280832085905593825260989052919091209190915550565b82805461438590614d4a565b90600052602060002090601f0160209004810192826143a757600085556143ed565b82601f106143c057805160ff19168380011785556143ed565b828001600101855582156143ed579182015b828111156143ed5782518255916020019190600101906143d2565b50612d8b92915061442f565b50805461440590614d4a565b6000825580601f10614415575050565b601f01602090049060005260206000209081019061131a91905b5b80821115612d8b5760008155600101614430565b60006001600160401b0383111561445d5761445d614dda565b614470601f8401601f1916602001614c13565b905082815283838301111561448457600080fd5b828260208301376000602084830101529392505050565b600082601f8301126144ab578081fd5b813560206144c06144bb83614c43565b614c13565b80838252828201915082860187848660051b89010111156144df578586fd5b855b858110156144fd578135845292840192908401906001016144e1565b5090979650505050505050565b600082601f83011261451a578081fd5b6116f583833560208501614444565b60006020828403121561453a578081fd5b81356116f581614df0565b60008060408385031215614557578081fd5b823561456281614df0565b9150602083013561457281614df0565b809150509250929050565b600080600060608486031215614591578081fd5b833561459c81614df0565b925060208401356145ac81614df0565b929592945050506040919091013590565b600080600080608085870312156145d2578081fd5b84356145dd81614df0565b935060208501356145ed81614df0565b92506040850135915060608501356001600160401b0381111561460e578182fd5b8501601f8101871361461e578182fd5b61462d87823560208401614444565b91505092959194509250565b6000806040838503121561464b578182fd5b823561465681614df0565b915060208301358015158114614572578182fd5b6000806040838503121561467c578182fd5b823561468781614df0565b915060208301356001600160401b038111156146a1578182fd5b6146ad8582860161450a565b9150509250929050565b600080604083850312156146c9578182fd5b82356146d481614df0565b946020939093013593505050565b6000602082840312156146f3578081fd5b5035919050565b6000806040838503121561470c578182fd5b82359150602083013561457281614df0565b60008060408385031215614730578182fd5b50508035926020909101359150565b600060208284031215614750578081fd5b81356116f581614e05565b60006020828403121561476c578081fd5b81516116f581614e05565b600060208284031215614788578081fd5b81356001600160401b0381111561479d578182fd5b6126db8482850161450a565b600080600080608085870312156147be578182fd5b84356001600160401b03808211156147d4578384fd5b6147e08883890161450a565b95506020915081870135818111156147f6578485fd5b61480289828a0161450a565b955050604087013581811115614816578485fd5b8701601f81018913614826578485fd5b80356148346144bb82614c43565b8082825285820191508584018c878560051b8701011115614853578889fd5b8894505b8385101561487e57803561486a81614df0565b835260019490940193918601918601614857565b5096505050506060870135915080821115614897578283fd5b5061462d8782880161449b565b600080604083850312156148b6578182fd5b82356001600160401b038111156148cb578283fd5b6148d78582860161450a565b95602094909401359450505050565b600081518084526148fe816020860160208601614d07565b601f01601f19169290920160200192915050565b60008251614924818460208701614d07565b9190910192915050565b60008351614940818460208801614d07565b835190830190614954818360208801614d07565b01949350505050565b7f416363657373436f6e74726f6c3a206163636f756e7420000000000000000000815260008351614995816017850160208801614d07565b7001034b99036b4b9b9b4b733903937b6329607d1b60179184019182015283516149c6816028840160208801614d07565b01602801949350505050565b6001600160a01b0385811682528416602082015260408101839052608060608201819052600090614a05908301846148e6565b9695505050505050565b6000602080830181845280855180835260408601915060408160051b8701019250838701855b82811015614a6357603f19888603018452614a518583516148e6565b94509285019290850190600101614a35565b5092979650505050505050565b6020808252825182820181905260009190848201906040850190845b81811015614aa857835183529284019291840191600101614a8c565b50909695505050505050565b6020815260006116f560208301846148e6565b60208082526032908201527f4552433732313a207472616e7366657220746f206e6f6e20455243373231526560408201527131b2b4bb32b91034b6b83632b6b2b73a32b960711b606082015260800190565b60208082526010908201526f14185d5cd8589b194e881c185d5cd95960821b604082015260600190565b6020808252602e908201527f496e697469616c697a61626c653a20636f6e747261637420697320616c72656160408201526d191e481a5b9a5d1a585b1a5e995960921b606082015260800190565b60208082526031908201527f4552433732313a207472616e736665722063616c6c6572206973206e6f74206f6040820152701ddb995c881b9bdc88185c1c1c9bdd9959607a1b606082015260800190565b838152606060208201526000614bfb60608301856148e6565b905060018060a01b0383166040830152949350505050565b604051601f8201601f191681016001600160401b0381118282101715614c3b57614c3b614dda565b604052919050565b60006001600160401b03821115614c5c57614c5c614dda565b5060051b60200190565b60008219821115614c7957614c79614dae565b500190565b600082614c8d57614c8d614dc4565b500490565b6000816000190483118215151615614cac57614cac614dae565b500290565b60008083128015600160ff1b850184121615614ccf57614ccf614dae565b6001600160ff1b0384018313811615614cea57614cea614dae565b50500390565b600082821015614d0257614d02614dae565b500390565b60005b83811015614d22578181015183820152602001614d0a565b8381111561201a5750506000910152565b600081614d4257614d42614dae565b506000190190565b600181811c90821680614d5e57607f821691505b60208210811415610d4157634e487b7160e01b600052602260045260246000fd5b6000600019821415614d9357614d93614dae565b5060010190565b600082614da957614da9614dc4565b500690565b634e487b7160e01b600052601160045260246000fd5b634e487b7160e01b600052601260045260246000fd5b634e487b7160e01b600052604160045260246000fd5b6001600160a01b038116811461131a57600080fd5b6001600160e01b03198116811461131a57600080fdfe68747470733a2f2f63727970746f776f7264732e6172742f6170692f746f6b656e2fa26469706673582212201b55654e14d209600c133b986399675b03bf6b6d3b05e6b3bc564cb1cfffc56b64736f6c63430008040033",
  "linkReferences": {},
  "deployedLinkReferences": {}
}