{
  "_format": "hh-sol-artifact-1",
  "contractName": "CryptoWordsV1",
  "sourceName": "contracts/CryptoWordsV1.sol",
  "abi": [
    {
      "inputs": [],
      "stateMutability": "nonpayable",
      "type": "constructor"
    },
    {
      "anonymous": false,
      "inputs": [
        {
          "indexed": true,
          "internalType": "address",
          "name": "owner",
          "type": "address"
        },
        {
          "indexed": true,
          "internalType": "address",
          "name": "approved",
          "type": "address"
        },
        {
          "indexed": true,
          "internalType": "uint256",
          "name": "tokenId",
          "type": "uint256"
        }
      ],
      "name": "Approval",
      "type": "event"
    },
    {
      "anonymous": false,
      "inputs": [
        {
          "indexed": true,
          "internalType": "address",
          "name": "owner",
          "type": "address"
        },
        {
          "indexed": true,
          "internalType": "address",
          "name": "operator",
          "type": "address"
        },
        {
          "indexed": false,
          "internalType": "bool",
          "name": "approved",
          "type": "bool"
        }
      ],
      "name": "ApprovalForAll",
      "type": "event"
    },
    {
      "anonymous": false,
      "inputs": [
        {
          "indexed": false,
          "internalType": "address",
          "name": "account",
          "type": "address"
        }
      ],
      "name": "Paused",
      "type": "event"
    },
    {
      "anonymous": false,
      "inputs": [
        {
          "indexed": false,
          "internalType": "address",
          "name": "account",
          "type": "address"
        },
        {
          "indexed": false,
          "internalType": "uint256",
          "name": "shares",
          "type": "uint256"
        }
      ],
      "name": "PayeeAdded",
      "type": "event"
    },
    {
      "anonymous": false,
      "inputs": [
        {
          "indexed": false,
          "internalType": "address",
          "name": "from",
          "type": "address"
        },
        {
          "indexed": false,
          "internalType": "uint256",
          "name": "amount",
          "type": "uint256"
        }
      ],
      "name": "PaymentReceived",
      "type": "event"
    },
    {
      "anonymous": false,
      "inputs": [
        {
          "indexed": false,
          "internalType": "address",
          "name": "to",
          "type": "address"
        },
        {
          "indexed": false,
          "internalType": "uint256",
          "name": "amount",
          "type": "uint256"
        }
      ],
      "name": "PaymentReleased",
      "type": "event"
    },
    {
      "anonymous": false,
      "inputs": [
        {
          "indexed": true,
          "internalType": "bytes32",
          "name": "role",
          "type": "bytes32"
        },
        {
          "indexed": true,
          "internalType": "bytes32",
          "name": "previousAdminRole",
          "type": "bytes32"
        },
        {
          "indexed": true,
          "internalType": "bytes32",
          "name": "newAdminRole",
          "type": "bytes32"
        }
      ],
      "name": "RoleAdminChanged",
      "type": "event"
    },
    {
      "anonymous": false,
      "inputs": [
        {
          "indexed": true,
          "internalType": "bytes32",
          "name": "role",
          "type": "bytes32"
        },
        {
          "indexed": true,
          "internalType": "address",
          "name": "account",
          "type": "address"
        },
        {
          "indexed": true,
          "internalType": "address",
          "name": "sender",
          "type": "address"
        }
      ],
      "name": "RoleGranted",
      "type": "event"
    },
    {
      "anonymous": false,
      "inputs": [
        {
          "indexed": true,
          "internalType": "bytes32",
          "name": "role",
          "type": "bytes32"
        },
        {
          "indexed": true,
          "internalType": "address",
          "name": "account",
          "type": "address"
        },
        {
          "indexed": true,
          "internalType": "address",
          "name": "sender",
          "type": "address"
        }
      ],
      "name": "RoleRevoked",
      "type": "event"
    },
    {
      "anonymous": false,
      "inputs": [
        {
          "indexed": true,
          "internalType": "address",
          "name": "from",
          "type": "address"
        },
        {
          "indexed": true,
          "internalType": "address",
          "name": "to",
          "type": "address"
        },
        {
          "indexed": true,
          "internalType": "uint256",
          "name": "tokenId",
          "type": "uint256"
        }
      ],
      "name": "Transfer",
      "type": "event"
    },
    {
      "anonymous": false,
      "inputs": [
        {
          "indexed": false,
          "internalType": "address",
          "name": "account",
          "type": "address"
        }
      ],
      "name": "Unpaused",
      "type": "event"
    },
    {
      "inputs": [],
      "name": "DEFAULT_ADMIN_ROLE",
      "outputs": [
        {
          "internalType": "bytes32",
          "name": "",
          "type": "bytes32"
        }
      ],
      "stateMutability": "view",
      "type": "function"
    },
    {
      "inputs": [],
      "name": "DISCOUNTED_ROLE",
      "outputs": [
        {
          "internalType": "bytes32",
          "name": "",
          "type": "bytes32"
        }
      ],
      "stateMutability": "view",
      "type": "function"
    },
    {
      "inputs": [],
      "name": "MINTER_ROLE",
      "outputs": [
        {
          "internalType": "bytes32",
          "name": "",
          "type": "bytes32"
        }
      ],
      "stateMutability": "view",
      "type": "function"
    },
    {
      "inputs": [],
      "name": "PAUSER_ROLE",
      "outputs": [
        {
          "internalType": "bytes32",
          "name": "",
          "type": "bytes32"
        }
      ],
      "stateMutability": "view",
      "type": "function"
    },
    {
      "inputs": [],
      "name": "ROYALTY_FREE_ROLE",
      "outputs": [
        {
          "internalType": "bytes32",
          "name": "",
          "type": "bytes32"
        }
      ],
      "stateMutability": "view",
      "type": "function"
    },
    {
      "inputs": [
        {
          "internalType": "address",
          "name": "to",
          "type": "address"
        },
        {
          "internalType": "uint256",
          "name": "tokenId",
          "type": "uint256"
        }
      ],
      "name": "approve",
      "outputs": [],
      "stateMutability": "nonpayable",
      "type": "function"
    },
    {
      "inputs": [],
      "name": "artist",
      "outputs": [
        {
          "internalType": "address",
          "name": "",
          "type": "address"
        }
      ],
      "stateMutability": "view",
      "type": "function"
    },
    {
      "inputs": [
        {
          "internalType": "address",
          "name": "owner",
          "type": "address"
        }
      ],
      "name": "balanceOf",
      "outputs": [
        {
          "internalType": "uint256",
          "name": "",
          "type": "uint256"
        }
      ],
      "stateMutability": "view",
      "type": "function"
    },
    {
      "inputs": [
        {
          "internalType": "uint256",
          "name": "tokenId",
          "type": "uint256"
        }
      ],
      "name": "burn",
      "outputs": [],
      "stateMutability": "nonpayable",
      "type": "function"
    },
    {
      "inputs": [
        {
          "internalType": "string",
          "name": "word",
          "type": "string"
        }
      ],
      "name": "burnByWord",
      "outputs": [],
      "stateMutability": "nonpayable",
      "type": "function"
    },
    {
      "inputs": [],
      "name": "defaultPrice",
      "outputs": [
        {
          "internalType": "uint256",
          "name": "",
          "type": "uint256"
        }
      ],
      "stateMutability": "view",
      "type": "function"
    },
    {
      "inputs": [],
      "name": "discountPercentage",
      "outputs": [
        {
          "internalType": "uint256",
          "name": "",
          "type": "uint256"
        }
      ],
      "stateMutability": "view",
      "type": "function"
    },
    {
      "inputs": [
        {
          "internalType": "uint256",
          "name": "tokenId",
          "type": "uint256"
        }
      ],
      "name": "getApproved",
      "outputs": [
        {
          "internalType": "address",
          "name": "",
          "type": "address"
        }
      ],
      "stateMutability": "view",
      "type": "function"
    },
    {
      "inputs": [
        {
          "internalType": "string",
          "name": "word",
          "type": "string"
        }
      ],
      "name": "getCustomPriceByWord",
      "outputs": [
        {
          "internalType": "uint256",
          "name": "",
          "type": "uint256"
        }
      ],
      "stateMutability": "view",
      "type": "function"
    },
    {
      "inputs": [
        {
          "internalType": "string",
          "name": "word",
          "type": "string"
        }
      ],
      "name": "getIdByWord",
      "outputs": [
        {
          "internalType": "uint256",
          "name": "",
          "type": "uint256"
        }
      ],
      "stateMutability": "view",
      "type": "function"
    },
    {
      "inputs": [
        {
          "internalType": "address",
          "name": "account",
          "type": "address"
        },
        {
          "internalType": "string",
          "name": "word",
          "type": "string"
        }
      ],
      "name": "getPrice",
      "outputs": [
        {
          "internalType": "uint256",
          "name": "",
          "type": "uint256"
        }
      ],
      "stateMutability": "view",
      "type": "function"
    },
    {
      "inputs": [
        {
          "internalType": "bytes32",
          "name": "role",
          "type": "bytes32"
        }
      ],
      "name": "getRoleAdmin",
      "outputs": [
        {
          "internalType": "bytes32",
          "name": "",
          "type": "bytes32"
        }
      ],
      "stateMutability": "view",
      "type": "function"
    },
    {
      "inputs": [
        {
          "internalType": "bytes32",
          "name": "role",
          "type": "bytes32"
        },
        {
          "internalType": "uint256",
          "name": "index",
          "type": "uint256"
        }
      ],
      "name": "getRoleMember",
      "outputs": [
        {
          "internalType": "address",
          "name": "",
          "type": "address"
        }
      ],
      "stateMutability": "view",
      "type": "function"
    },
    {
      "inputs": [
        {
          "internalType": "bytes32",
          "name": "role",
          "type": "bytes32"
        }
      ],
      "name": "getRoleMemberCount",
      "outputs": [
        {
          "internalType": "uint256",
          "name": "",
          "type": "uint256"
        }
      ],
      "stateMutability": "view",
      "type": "function"
    },
    {
      "inputs": [
        {
          "internalType": "bytes32",
          "name": "role",
          "type": "bytes32"
        },
        {
          "internalType": "address",
          "name": "account",
          "type": "address"
        }
      ],
      "name": "grantRole",
      "outputs": [],
      "stateMutability": "nonpayable",
      "type": "function"
    },
    {
      "inputs": [
        {
          "internalType": "bytes32",
          "name": "role",
          "type": "bytes32"
        },
        {
          "internalType": "address",
          "name": "account",
          "type": "address"
        }
      ],
      "name": "hasRole",
      "outputs": [
        {
          "internalType": "bool",
          "name": "",
          "type": "bool"
        }
      ],
      "stateMutability": "view",
      "type": "function"
    },
    {
      "inputs": [
        {
          "internalType": "string",
          "name": "name",
          "type": "string"
        },
        {
          "internalType": "string",
          "name": "symbol",
          "type": "string"
        },
        {
          "internalType": "address[]",
          "name": "payees",
          "type": "address[]"
        },
        {
          "internalType": "uint256[]",
          "name": "shares",
          "type": "uint256[]"
        }
      ],
      "name": "initialize",
      "outputs": [],
      "stateMutability": "payable",
      "type": "function"
    },
    {
      "inputs": [
        {
          "internalType": "address",
          "name": "owner",
          "type": "address"
        },
        {
          "internalType": "address",
          "name": "operator",
          "type": "address"
        }
      ],
      "name": "isApprovedForAll",
      "outputs": [
        {
          "internalType": "bool",
          "name": "",
          "type": "bool"
        }
      ],
      "stateMutability": "view",
      "type": "function"
    },
    {
      "inputs": [],
      "name": "name",
      "outputs": [
        {
          "internalType": "string",
          "name": "",
          "type": "string"
        }
      ],
      "stateMutability": "view",
      "type": "function"
    },
    {
      "inputs": [
        {
          "internalType": "uint256",
          "name": "tokenId",
          "type": "uint256"
        }
      ],
      "name": "ownerOf",
      "outputs": [
        {
          "internalType": "address",
          "name": "",
          "type": "address"
        }
      ],
      "stateMutability": "view",
      "type": "function"
    },
    {
      "inputs": [],
      "name": "pause",
      "outputs": [],
      "stateMutability": "nonpayable",
      "type": "function"
    },
    {
      "inputs": [],
      "name": "paused",
      "outputs": [
        {
          "internalType": "bool",
          "name": "",
          "type": "bool"
        }
      ],
      "stateMutability": "view",
      "type": "function"
    },
    {
      "inputs": [
        {
          "internalType": "uint256",
          "name": "index",
          "type": "uint256"
        }
      ],
      "name": "payee",
      "outputs": [
        {
          "internalType": "address",
          "name": "",
          "type": "address"
        }
      ],
      "stateMutability": "view",
      "type": "function"
    },
    {
      "inputs": [
        {
          "internalType": "address",
          "name": "to",
          "type": "address"
        },
        {
          "internalType": "string",
          "name": "word",
          "type": "string"
        }
      ],
      "name": "purchaseWord",
      "outputs": [],
      "stateMutability": "payable",
      "type": "function"
    },
    {
      "inputs": [
        {
          "internalType": "address payable",
          "name": "account",
          "type": "address"
        }
      ],
      "name": "release",
      "outputs": [],
      "stateMutability": "nonpayable",
      "type": "function"
    },
    {
      "inputs": [
        {
          "internalType": "address",
          "name": "account",
          "type": "address"
        }
      ],
      "name": "released",
      "outputs": [
        {
          "internalType": "uint256",
          "name": "",
          "type": "uint256"
        }
      ],
      "stateMutability": "view",
      "type": "function"
    },
    {
      "inputs": [
        {
          "internalType": "bytes32",
          "name": "role",
          "type": "bytes32"
        },
        {
          "internalType": "address",
          "name": "account",
          "type": "address"
        }
      ],
      "name": "renounceRole",
      "outputs": [],
      "stateMutability": "nonpayable",
      "type": "function"
    },
    {
      "inputs": [
        {
          "internalType": "bytes32",
          "name": "role",
          "type": "bytes32"
        },
        {
          "internalType": "address",
          "name": "account",
          "type": "address"
        }
      ],
      "name": "revokeRole",
      "outputs": [],
      "stateMutability": "nonpayable",
      "type": "function"
    },
    {
      "inputs": [],
      "name": "royaltiesPercentage",
      "outputs": [
        {
          "internalType": "uint256",
          "name": "",
          "type": "uint256"
        }
      ],
      "stateMutability": "view",
      "type": "function"
    },
    {
      "inputs": [],
      "name": "royaltiesReceiver",
      "outputs": [
        {
          "internalType": "address",
          "name": "",
          "type": "address"
        }
      ],
      "stateMutability": "view",
      "type": "function"
    },
    {
      "inputs": [
        {
          "internalType": "uint256",
          "name": "_tokenId",
          "type": "uint256"
        },
        {
          "internalType": "uint256",
          "name": "_salePrice",
          "type": "uint256"
        }
      ],
      "name": "royaltyInfo",
      "outputs": [
        {
          "internalType": "address",
          "name": "receiver",
          "type": "address"
        },
        {
          "internalType": "uint256",
          "name": "royaltyAmount",
          "type": "uint256"
        }
      ],
      "stateMutability": "view",
      "type": "function"
    },
    {
      "inputs": [
        {
          "internalType": "address",
          "name": "from",
          "type": "address"
        },
        {
          "internalType": "address",
          "name": "to",
          "type": "address"
        },
        {
          "internalType": "uint256",
          "name": "tokenId",
          "type": "uint256"
        }
      ],
      "name": "safeTransferFrom",
      "outputs": [],
      "stateMutability": "nonpayable",
      "type": "function"
    },
    {
      "inputs": [
        {
          "internalType": "address",
          "name": "from",
          "type": "address"
        },
        {
          "internalType": "address",
          "name": "to",
          "type": "address"
        },
        {
          "internalType": "uint256",
          "name": "tokenId",
          "type": "uint256"
        },
        {
          "internalType": "bytes",
          "name": "_data",
          "type": "bytes"
        }
      ],
      "name": "safeTransferFrom",
      "outputs": [],
      "stateMutability": "nonpayable",
      "type": "function"
    },
    {
      "inputs": [
        {
          "internalType": "address",
          "name": "operator",
          "type": "address"
        },
        {
          "internalType": "bool",
          "name": "approved",
          "type": "bool"
        }
      ],
      "name": "setApprovalForAll",
      "outputs": [],
      "stateMutability": "nonpayable",
      "type": "function"
    },
    {
      "inputs": [
        {
          "internalType": "uint256",
          "name": "price",
          "type": "uint256"
        },
        {
          "internalType": "string",
          "name": "word",
          "type": "string"
        }
      ],
      "name": "setCustomPriceByWord",
      "outputs": [],
      "stateMutability": "nonpayable",
      "type": "function"
    },
    {
      "inputs": [
        {
          "internalType": "uint256",
          "name": "price",
          "type": "uint256"
        }
      ],
      "name": "setDefaultPrice",
      "outputs": [],
      "stateMutability": "nonpayable",
      "type": "function"
    },
    {
      "inputs": [
        {
          "internalType": "uint256",
          "name": "percentage",
          "type": "uint256"
        }
      ],
      "name": "setDiscountPercentage",
      "outputs": [],
      "stateMutability": "nonpayable",
      "type": "function"
    },
    {
      "inputs": [
        {
          "internalType": "address",
          "name": "newRoyaltiesReceiver",
          "type": "address"
        }
      ],
      "name": "setRoyaltiesReceiver",
      "outputs": [],
      "stateMutability": "nonpayable",
      "type": "function"
    },
    {
      "inputs": [
        {
          "internalType": "address",
          "name": "account",
          "type": "address"
        }
      ],
      "name": "shares",
      "outputs": [
        {
          "internalType": "uint256",
          "name": "",
          "type": "uint256"
        }
      ],
      "stateMutability": "view",
      "type": "function"
    },
    {
      "inputs": [
        {
          "internalType": "bytes4",
          "name": "interfaceId",
          "type": "bytes4"
        }
      ],
      "name": "supportsInterface",
      "outputs": [
        {
          "internalType": "bool",
          "name": "",
          "type": "bool"
        }
      ],
      "stateMutability": "view",
      "type": "function"
    },
    {
      "inputs": [],
      "name": "symbol",
      "outputs": [
        {
          "internalType": "string",
          "name": "",
          "type": "string"
        }
      ],
      "stateMutability": "view",
      "type": "function"
    },
    {
      "inputs": [
        {
          "internalType": "uint256",
          "name": "index",
          "type": "uint256"
        }
      ],
      "name": "tokenByIndex",
      "outputs": [
        {
          "internalType": "uint256",
          "name": "",
          "type": "uint256"
        }
      ],
      "stateMutability": "view",
      "type": "function"
    },
    {
      "inputs": [
        {
          "internalType": "address",
          "name": "owner",
          "type": "address"
        },
        {
          "internalType": "uint256",
          "name": "index",
          "type": "uint256"
        }
      ],
      "name": "tokenOfOwnerByIndex",
      "outputs": [
        {
          "internalType": "uint256",
          "name": "",
          "type": "uint256"
        }
      ],
      "stateMutability": "view",
      "type": "function"
    },
    {
      "inputs": [
        {
          "internalType": "uint256",
          "name": "tokenId",
          "type": "uint256"
        }
      ],
      "name": "tokenURI",
      "outputs": [
        {
          "internalType": "string",
          "name": "",
          "type": "string"
        }
      ],
      "stateMutability": "view",
      "type": "function"
    },
    {
      "inputs": [],
      "name": "totalReleased",
      "outputs": [
        {
          "internalType": "uint256",
          "name": "",
          "type": "uint256"
        }
      ],
      "stateMutability": "view",
      "type": "function"
    },
    {
      "inputs": [],
      "name": "totalShares",
      "outputs": [
        {
          "internalType": "uint256",
          "name": "",
          "type": "uint256"
        }
      ],
      "stateMutability": "view",
      "type": "function"
    },
    {
      "inputs": [],
      "name": "totalSupply",
      "outputs": [
        {
          "internalType": "uint256",
          "name": "",
          "type": "uint256"
        }
      ],
      "stateMutability": "view",
      "type": "function"
    },
    {
      "inputs": [
        {
          "internalType": "address",
          "name": "from",
          "type": "address"
        },
        {
          "internalType": "address",
          "name": "to",
          "type": "address"
        },
        {
          "internalType": "uint256",
          "name": "tokenId",
          "type": "uint256"
        }
      ],
      "name": "transferFrom",
      "outputs": [],
      "stateMutability": "nonpayable",
      "type": "function"
    },
    {
      "inputs": [],
      "name": "unpause",
      "outputs": [],
      "stateMutability": "nonpayable",
      "type": "function"
    },
    {
      "inputs": [
        {
          "internalType": "string",
          "name": "word",
          "type": "string"
        }
      ],
      "name": "wordExists",
      "outputs": [
        {
          "internalType": "bool",
          "name": "",
          "type": "bool"
        }
      ],
      "stateMutability": "view",
      "type": "function"
    },
    {
      "stateMutability": "payable",
      "type": "receive"
    }
  ],
  "bytecode": "0x60806040523480156200001157600080fd5b50600054610100900460ff16806200002c575060005460ff16155b620000945760405162461bcd60e51b815260206004820152602e60248201527f496e697469616c697a61626c653a20636f6e747261637420697320616c72656160448201526d191e481a5b9a5d1a585b1a5e995960921b606482015260840160405180910390fd5b600054610100900460ff16158015620000b7576000805461ffff19166101011790555b8015620000ca576000805461ff00191690555b5061423e80620000db6000396000f3fe6080604052600436106103545760003560e01c80638456cb59116101c6578063b5143715116100f7578063d0fd890d11610095578063e33b7de31161006f578063e33b7de314610a0e578063e63ab1e914610a24578063e69e04b314610a3b578063e985e9c514610a5257600080fd5b8063d0fd890d146109c4578063d5391393146109d7578063d547741f146109ee57600080fd5b8063c87b56dd116100d1578063c87b56dd14610936578063ca15c87314610956578063cafa8dfe14610976578063ce7c2ac21461098d57600080fd5b8063b5143715146108d6578063b88d4fde146108f6578063c32107f61461091657600080fd5b80639852595c11610164578063a3a51bd51161013e578063a3a51bd514610867578063a7abb8b714610888578063b3428d151461089f578063b3fa9f24146108bf57600080fd5b80639852595c146107fb578063a217fddf14610832578063a22cb4651461084757600080fd5b80639010d07c116101a05780639010d07c1461078657806391d14854146107a657806395d89b41146107c65780639838b024146107db57600080fd5b80638456cb59146107315780638ae1b3e2146107465780638b83209b1461076657600080fd5b80633a98ef39116102a05780635c975abb1161023e57806370868d6f1161021857806370868d6f146106ba57806370a08231146106da57806373f36e58146106fa57806376977a3a1461071157600080fd5b80635c975abb146106615780636352211e1461067a5780636d3c7ec51461069a57600080fd5b806342966c681161027a57806342966c68146105ed57806343bc16121461060d578063445d97871461062e5780634f6ccce71461064157600080fd5b80633a98ef39146105a25780633f4ba83a146105b857806342842e0e146105cd57600080fd5b8063191655871161030d5780632a55205a116102e75780632a55205a146105035780632f2ff15d146105425780632f745c591461056257806336568abe1461058257600080fd5b8063191655871461049257806323b872dd146104b2578063248a9ca3146104d257600080fd5b806301ffc9a7146103a257806306fdde03146103d7578063081812fc146103f9578063095ea7b3146104315780630e28a9e71461045357806318160ddd1461047357600080fd5b3661039d577f6ef95f06320e7a25a04a175ca677b7052bdd97131872c2192525a629f51be77033604080516001600160a01b0390921682523460208301520160405180910390a1005b600080fd5b3480156103ae57600080fd5b506103c26103bd366004613c2e565b610a9b565b60405190151581526020015b60405180910390f35b3480156103e357600080fd5b506103ec610ac6565b6040516103ce9190613eed565b34801561040557600080fd5b50610419610414366004613bd1565b610b58565b6040516001600160a01b0390911681526020016103ce565b34801561043d57600080fd5b5061045161044c366004613ba6565b610be5565b005b34801561045f57600080fd5b5061045161046e366004613c66565b610cfb565b34801561047f57600080fd5b506099545b6040519081526020016103ce565b34801561049e57600080fd5b506104516104ad366004613a16565b610d34565b3480156104be57600080fd5b506104516104cd366004613a6a565b610f0e565b3480156104de57600080fd5b506104846104ed366004613bd1565b600090815261015f602052604090206001015490565b34801561050f57600080fd5b5061052361051e366004613c0d565b610f40565b604080516001600160a01b0390931683526020830191909152016103ce565b34801561054e57600080fd5b5061045161055d366004613be9565b610fac565b34801561056e57600080fd5b5061048461057d366004613ba6565b610fcf565b34801561058e57600080fd5b5061045161059d366004613be9565b611065565b3480156105ae57600080fd5b506101c354610484565b3480156105c457600080fd5b50610451611088565b3480156105d957600080fd5b506104516105e8366004613a6a565b6110a1565b3480156105f957600080fd5b50610451610608366004613bd1565b6110bc565b34801561061957600080fd5b506101f654610419906001600160a01b031681565b61045161063c366004613c99565b611133565b34801561064d57600080fd5b5061048461065c366004613bd1565b6112eb565b34801561066d57600080fd5b5061012d5460ff166103c2565b34801561068657600080fd5b50610419610695366004613bd1565b61138c565b3480156106a657600080fd5b506104516106b5366004613bd1565b611403565b3480156106c657600080fd5b506104846106d5366004613c66565b611426565b3480156106e657600080fd5b506104846106f5366004613a16565b61145c565b34801561070657600080fd5b506104846101fe5481565b34801561071d57600080fd5b5061048461072c366004613b58565b6114e3565b34801561073d57600080fd5b50610451611539565b34801561075257600080fd5b50610451610761366004613d95565b61154f565b34801561077257600080fd5b50610419610781366004613bd1565b6115ae565b34801561079257600080fd5b506104196107a1366004613c0d565b6115ed565b3480156107b257600080fd5b506103c26107c1366004613be9565b611606565b3480156107d257600080fd5b506103ec611632565b3480156107e757600080fd5b506104846107f6366004613c66565b611641565b34801561080757600080fd5b50610484610816366004613a16565b6001600160a01b031660009081526101c6602052604090205490565b34801561083e57600080fd5b50610484600081565b34801561085357600080fd5b50610451610862366004613b27565b61165f565b34801561087357600080fd5b506101f954610419906001600160a01b031681565b34801561089457600080fd5b506104846101fd5481565b3480156108ab57600080fd5b506104516108ba366004613bd1565b611724565b3480156108cb57600080fd5b506104846101f85481565b3480156108e257600080fd5b506104516108f1366004613a16565b611747565b34801561090257600080fd5b50610451610911366004613aaa565b611793565b34801561092257600080fd5b506103c2610931366004613c66565b6117cb565b34801561094257600080fd5b506103ec610951366004613bd1565b6117f7565b34801561096257600080fd5b50610484610971366004613bd1565b611802565b34801561098257600080fd5b506104846101fa5481565b34801561099957600080fd5b506104846109a8366004613a16565b6001600160a01b031660009081526101c5602052604090205490565b6104516109d2366004613b58565b61181a565b3480156109e357600080fd5b506104846101fc5481565b3480156109fa57600080fd5b50610451610a09366004613be9565b6119c2565b348015610a1a57600080fd5b506101c454610484565b348015610a3057600080fd5b506104846101fb5481565b348015610a4757600080fd5b506104846101f75481565b348015610a5e57600080fd5b506103c2610a6d366004613a32565b6001600160a01b039182166000908152606a6020908152604080832093909416825291909152205460ff1690565b60006001600160e01b0319821663152a902d60e11b1480610ac05750610ac0826119cc565b92915050565b606060658054610ad590614115565b80601f0160208091040260200160405190810160405280929190818152602001828054610b0190614115565b8015610b4e5780601f10610b2357610100808354040283529160200191610b4e565b820191906000526020600020905b815481529060010190602001808311610b3157829003601f168201915b5050505050905090565b6000610b63826119f1565b610bc95760405162461bcd60e51b815260206004820152602c60248201527f4552433732313a20617070726f76656420717565727920666f72206e6f6e657860448201526b34b9ba32b73a103a37b5b2b760a11b60648201526084015b60405180910390fd5b506000908152606960205260409020546001600160a01b031690565b6000610bf08261138c565b9050806001600160a01b0316836001600160a01b03161415610c5e5760405162461bcd60e51b815260206004820152602160248201527f4552433732313a20617070726f76616c20746f2063757272656e74206f776e656044820152603960f91b6064820152608401610bc0565b336001600160a01b0382161480610c7a5750610c7a8133610a6d565b610cec5760405162461bcd60e51b815260206004820152603860248201527f4552433732313a20617070726f76652063616c6c6572206973206e6f74206f7760448201527f6e6572206e6f7220617070726f76656420666f7220616c6c00000000000000006064820152608401610bc0565b610cf68383611a0e565b505050565b6000610d078133611a7c565b60006101ff83604051610d1a9190613df0565b9081526020016040518091039020549050610cf681611ae4565b6001600160a01b03811660009081526101c56020526040902054610da95760405162461bcd60e51b815260206004820152602660248201527f5061796d656e7453706c69747465723a206163636f756e7420686173206e6f2060448201526573686172657360d01b6064820152608401610bc0565b60006101c45447610dba9190614070565b6001600160a01b03831660009081526101c660209081526040808320546101c3546101c5909352908320549394509192610df4908561409c565b610dfe9190614088565b610e0891906140bb565b905080610e6b5760405162461bcd60e51b815260206004820152602b60248201527f5061796d656e7453706c69747465723a206163636f756e74206973206e6f742060448201526a191d59481c185e5b595b9d60aa1b6064820152608401610bc0565b6001600160a01b03831660009081526101c66020526040902054610e90908290614070565b6001600160a01b03841660009081526101c660205260409020556101c454610eb9908290614070565b6101c455610ec78382611bba565b604080516001600160a01b0385168152602081018390527fdf20fd1e76bc69d672e4814fafb2c449bba3a5369d8359adf9e05e6fde87b056910160405180910390a1505050565b610f19335b82611cd3565b610f355760405162461bcd60e51b8152600401610bc090613fca565b610cf6838383611dbd565b600080610f516101fc546107c13390565b80610f655750610f656101fe546107c13390565b15610f7557506000905080610fa5565b600060646101fa5485610f88919061409c565b610f929190614088565b6101f9546001600160a01b031693509150505b9250929050565b610fb68282611f68565b600082815261019160205260409020610cf69082611f8f565b6000610fda8361145c565b821061103c5760405162461bcd60e51b815260206004820152602b60248201527f455243373231456e756d657261626c653a206f776e657220696e646578206f7560448201526a74206f6620626f756e647360a81b6064820152608401610bc0565b506001600160a01b03919091166000908152609760209081526040808320938352929052205490565b61106f8282611fa4565b600082815261019160205260409020610cf6908261201e565b6101fb546110968133611a7c565b61109e612033565b50565b610cf683838360405180602001604052806000815250611793565b6110c533610f13565b61112a5760405162461bcd60e51b815260206004820152603060248201527f4552433732314275726e61626c653a2063616c6c6572206973206e6f74206f7760448201526f1b995c881b9bdc88185c1c1c9bdd995960821b6064820152608401610bc0565b61109e81611ae4565b600054610100900460ff168061114c575060005460ff16155b6111685760405162461bcd60e51b8152600401610bc090613f7c565b600054610100900460ff1615801561118a576000805461ffff19166101011790555b61119485856120c8565b61119c61214f565b6111a461214f565b6111ac61214f565b6111b46121d2565b6111bc612239565b6111c68383612298565b6101f68054336001600160a01b031991821681179092556702c68af0bb1400006101f7556113886101f8556101f980549091168217905560086101fa557f65d7a28e3265b37a6474929f336521b332c1681b933f6cb9f3376673440d862a6101fb557f9f2df0fed2c77648de5860a4cc508cd0818c85b8b8a1ab4ceeef8d981c8956a66101fc557ff9e9e1c8035f82fd72c5438c5719fd5349deacb4207f4fcbbda606cb5a39d5096101fd557f29434eb5e8812e221f75c8938ee14034fc1cbbc820ce3ab1dd76fa5eb480c48d6101fe556112a890600090612301565b612301565b6112b66101fb546112a33390565b6112c46101fc546112a33390565b6112d26101fe546112a33390565b80156112e4576000805461ff00191690555b5050505050565b60006112f660995490565b82106113595760405162461bcd60e51b815260206004820152602c60248201527f455243373231456e756d657261626c653a20676c6f62616c20696e646578206f60448201526b7574206f6620626f756e647360a01b6064820152608401610bc0565b6099828154811061137a57634e487b7160e01b600052603260045260246000fd5b90600052602060002001549050919050565b6000818152606760205260408120546001600160a01b031680610ac05760405162461bcd60e51b815260206004820152602960248201527f4552433732313a206f776e657220717565727920666f72206e6f6e657869737460448201526832b73a103a37b5b2b760b91b6064820152608401610bc0565b600061140f8133611a7c565b6101f75482141561141f57600080fd5b506101f755565b6000806114338133611a7c565b610202836040516114449190613df0565b90815260200160405180910390205491505b50919050565b60006001600160a01b0382166114c75760405162461bcd60e51b815260206004820152602a60248201527f4552433732313a2062616c616e636520717565727920666f7220746865207a65604482015269726f206164647265737360b01b6064820152608401610bc0565b506001600160a01b031660009081526068602052604090205490565b60006114f26101fc5484611606565b156114ff57506000610ac0565b61150c6101fd5484611606565b156115295761152261151d8361230b565b612364565b9050610ac0565b6115328261230b565b9392505050565b6101fb546115478133611a7c565b61109e612382565b600061155b8133611a7c565b6102028260405161156c9190613df0565b90815260200160405180910390205483141561158757600080fd5b82610202836040516115999190613df0565b90815260405190819003602001902055505050565b60006101c782815481106115d257634e487b7160e01b600052603260045260246000fd5b6000918252602090912001546001600160a01b031692915050565b60008281526101916020526040812061153290836123dc565b600091825261015f602090815260408084206001600160a01b0393909316845291905290205460ff1690565b606060668054610ad590614115565b60008061164e8133611a7c565b6101ff836040516114449190613df0565b6001600160a01b0382163314156116b85760405162461bcd60e51b815260206004820152601960248201527f4552433732313a20617070726f766520746f2063616c6c6572000000000000006044820152606401610bc0565b336000818152606a602090815260408083206001600160a01b03871680855290835292819020805460ff191686151590811790915590519081529192917f17307eab39ab6107e8899845ad3d59bd9653f200f220920489ca2b5937696c31910160405180910390a35050565b60006117308133611a7c565b6101f85482141561174057600080fd5b506101f855565b60006117538133611a7c565b6101f9546001600160a01b038381169116141561176f57600080fd5b506101f980546001600160a01b0319166001600160a01b0392909216919091179055565b61179d3383611cd3565b6117b95760405162461bcd60e51b8152600401610bc090613fca565b6117c5848484846123e8565b50505050565b6000610201826040516117de9190613df0565b9081526040519081900360200190205460ff1692915050565b6060610ac08261241b565b600081815261019160205260408120610ac09061257d565b61012d5460ff161561183e5760405162461bcd60e51b8152600401610bc090613f52565b61184c6101fc546107c13390565b61191a57610201816040516118619190613df0565b9081526040519081900360200190205460ff16156118b75760405162461bcd60e51b8152602060048201526013602482015272576f726420616c72656164792065786973747360681b6044820152606401610bc0565b6118c133826114e3565b34101561191a5760405162461bcd60e51b815260206004820152602160248201527f4e6f7420656e6f756768204554482073656e743b20636865636b2070726963656044820152602160f81b6064820152608401610bc0565b6119296101f580546001019055565b60006119356101f55490565b9050806101ff836040516119499190613df0565b9081526040805160209281900383019020929092556000838152610200825291909120835161197a92850190613861565b5060016102018360405161198e9190613df0565b908152604051908190036020019020805491151560ff199092169190911790556119b88382612587565b610cf681836125a1565b61106f828261262c565b60006001600160e01b03198216635a05180f60e01b1480610ac05750610ac082612653565b6000908152606760205260409020546001600160a01b0316151590565b600081815260696020526040902080546001600160a01b0319166001600160a01b0384169081179091558190611a438261138c565b6001600160a01b03167f8c5be1e5ebec7d5bd14f71427d1e84f3dd0314c0f7b2291e5b200ac8c7c3b92560405160405180910390a45050565b611a868282611606565b611ae057611a9e816001600160a01b03166014612678565b611aa9836020612678565b604051602001611aba929190613e3b565b60408051601f198184030181529082905262461bcd60e51b8252610bc091600401613eed565b5050565b6000818152610200602052604081208054611afe90614115565b80601f0160208091040260200160405190810160405280929190818152602001828054611b2a90614115565b8015611b775780601f10611b4c57610100808354040283529160200191611b77565b820191906000526020600020905b815481529060010190602001808311611b5a57829003601f168201915b50505050509050600061020182604051611b919190613df0565b908152604051908190036020019020805491151560ff19909216919091179055611ae08261285a565b80471015611c0a5760405162461bcd60e51b815260206004820152601d60248201527f416464726573733a20696e73756666696369656e742062616c616e63650000006044820152606401610bc0565b6000826001600160a01b03168260405160006040518083038185875af1925050503d8060008114611c57576040519150601f19603f3d011682016040523d82523d6000602084013e611c5c565b606091505b5050905080610cf65760405162461bcd60e51b815260206004820152603a60248201527f416464726573733a20756e61626c6520746f2073656e642076616c75652c207260448201527f6563697069656e74206d617920686176652072657665727465640000000000006064820152608401610bc0565b6000611cde826119f1565b611d3f5760405162461bcd60e51b815260206004820152602c60248201527f4552433732313a206f70657261746f7220717565727920666f72206e6f6e657860448201526b34b9ba32b73a103a37b5b2b760a11b6064820152608401610bc0565b6000611d4a8361138c565b9050806001600160a01b0316846001600160a01b03161480611d855750836001600160a01b0316611d7a84610b58565b6001600160a01b0316145b80611db557506001600160a01b038082166000908152606a602090815260408083209388168352929052205460ff165b949350505050565b826001600160a01b0316611dd08261138c565b6001600160a01b031614611e385760405162461bcd60e51b815260206004820152602960248201527f4552433732313a207472616e73666572206f6620746f6b656e2074686174206960448201526839903737ba1037bbb760b91b6064820152608401610bc0565b6001600160a01b038216611e9a5760405162461bcd60e51b8152602060048201526024808201527f4552433732313a207472616e7366657220746f20746865207a65726f206164646044820152637265737360e01b6064820152608401610bc0565b611ea583838361289a565b611eb0600082611a0e565b6001600160a01b0383166000908152606860205260408120805460019290611ed99084906140bb565b90915550506001600160a01b0382166000908152606860205260408120805460019290611f07908490614070565b909155505060008181526067602052604080822080546001600160a01b0319166001600160a01b0386811691821790925591518493918716917fddf252ad1be2c89b69c2b068fc378daa952ba7f163c4a11628f55a4df523b3ef91a4505050565b600082815261015f6020526040902060010154611f858133611a7c565b610cf683836128c9565b6000611532836001600160a01b038416612950565b6001600160a01b03811633146120145760405162461bcd60e51b815260206004820152602f60248201527f416363657373436f6e74726f6c3a2063616e206f6e6c792072656e6f756e636560448201526e103937b632b9903337b91039b2b63360891b6064820152608401610bc0565b611ae0828261299f565b6000611532836001600160a01b038416612a07565b61012d5460ff1661207d5760405162461bcd60e51b815260206004820152601460248201527314185d5cd8589b194e881b9bdd081c185d5cd95960621b6044820152606401610bc0565b61012d805460ff191690557f5db9ee0a495bf2e6ff9c91a7834c1ba4fdd244a5e8aa4e537bd38aeae4b073aa335b6040516001600160a01b03909116815260200160405180910390a1565b600054610100900460ff16806120e1575060005460ff16155b6120fd5760405162461bcd60e51b8152600401610bc090613f7c565b600054610100900460ff1615801561211f576000805461ffff19166101011790555b612127612b24565b61212f612b24565b6121398383612b8e565b8015610cf6576000805461ff0019169055505050565b600054610100900460ff1680612168575060005460ff16155b6121845760405162461bcd60e51b8152600401610bc090613f7c565b600054610100900460ff161580156121a6576000805461ffff19166101011790555b6121ae612b24565b6121b6612b24565b6121be612b24565b801561109e576000805461ff001916905550565b600054610100900460ff16806121eb575060005460ff16155b6122075760405162461bcd60e51b8152600401610bc090613f7c565b600054610100900460ff16158015612229576000805461ffff19166101011790555b612231612b24565b6121be612c23565b600054610100900460ff1680612252575060005460ff16155b61226e5760405162461bcd60e51b8152600401610bc090613f7c565b600054610100900460ff16158015612290576000805461ffff19166101011790555b6121a6612b24565b600054610100900460ff16806122b1575060005460ff16155b6122cd5760405162461bcd60e51b8152600401610bc090613f7c565b600054610100900460ff161580156122ef576000805461ffff19166101011790555b6122f7612b24565b6121398383612c99565b610fb68282612e23565b6000806102028360405161231f9190613df0565b908152602001604051809103902054111561235b57610202826040516123459190613df0565b9081526020016040518091039020549050919050565b50506101f75490565b60006127106101f85483612378919061409c565b610ac09190614088565b61012d5460ff16156123a65760405162461bcd60e51b8152600401610bc090613f52565b61012d805460ff191660011790557f62e78cea01bee320cd4e420270b5ea74000d11b0c9f74754ebdbfc544b05a2586120ab3390565b60006115328383612e2d565b6123f3848484611dbd565b6123ff84848484612e65565b6117c55760405162461bcd60e51b8152600401610bc090613f00565b6060612426826119f1565b61248c5760405162461bcd60e51b815260206004820152603160248201527f45524337323155524953746f726167653a2055524920717565727920666f72206044820152703737b732bc34b9ba32b73a103a37b5b2b760791b6064820152608401610bc0565b600082815260c96020526040812080546124a590614115565b80601f01602080910402602001604051908101604052809291908181526020018280546124d190614115565b801561251e5780601f106124f35761010080835404028352916020019161251e565b820191906000526020600020905b81548152906001019060200180831161250157829003601f168201915b50505050509050600061252f612f72565b9050805160001415612542575092915050565b81511561257457808260405160200161255c929190613e0c565b60405160208183030381529060405292505050919050565b611db584612f92565b6000610ac0825490565b611ae082826040518060200160405280600081525061305c565b6125aa826119f1565b61260d5760405162461bcd60e51b815260206004820152602e60248201527f45524337323155524953746f726167653a2055524920736574206f66206e6f6e60448201526d32bc34b9ba32b73a103a37b5b2b760911b6064820152608401610bc0565b600082815260c9602090815260409091208251610cf692840190613861565b600082815261015f60205260409020600101546126498133611a7c565b610cf6838361299f565b60006001600160e01b03198216637965db0b60e01b1480610ac05750610ac08261308f565b6060600061268783600261409c565b612692906002614070565b67ffffffffffffffff8111156126b857634e487b7160e01b600052604160045260246000fd5b6040519080825280601f01601f1916602001820160405280156126e2576020820181803683370190505b509050600360fc1b8160008151811061270b57634e487b7160e01b600052603260045260246000fd5b60200101906001600160f81b031916908160001a905350600f60fb1b8160018151811061274857634e487b7160e01b600052603260045260246000fd5b60200101906001600160f81b031916908160001a905350600061276c84600261409c565b612777906001614070565b90505b600181111561280b576f181899199a1a9b1b9c1cb0b131b232b360811b85600f16601081106127b957634e487b7160e01b600052603260045260246000fd5b1a60f81b8282815181106127dd57634e487b7160e01b600052603260045260246000fd5b60200101906001600160f81b031916908160001a90535060049490941c93612804816140fe565b905061277a565b5083156115325760405162461bcd60e51b815260206004820181905260248201527f537472696e67733a20686578206c656e67746820696e73756666696369656e746044820152606401610bc0565b612863816130b4565b600081815260c960205260409020805461287c90614115565b15905061109e57600081815260c96020526040812061109e916138e5565b61012d5460ff16156128be5760405162461bcd60e51b8152600401610bc090613f52565b610cf683838361315b565b6128d38282611606565b611ae057600082815261015f602090815260408083206001600160a01b03851684529091529020805460ff1916600117905561290c3390565b6001600160a01b0316816001600160a01b0316837f2f8788117e7eff1d82e926ec794901d17c78024a50270940304540a733656f0d60405160405180910390a45050565b600081815260018301602052604081205461299757508154600181810184556000848152602080822090930184905584548482528286019093526040902091909155610ac0565b506000610ac0565b6129a98282611606565b15611ae057600082815261015f602090815260408083206001600160a01b0385168085529252808320805460ff1916905551339285917ff6391f5c32d9c69d2a47ea670b442974b53935d1edc7fd64eb21e047a839171b9190a45050565b60008181526001830160205260408120548015612b1a576000612a2b6001836140bb565b8554909150600090612a3f906001906140bb565b9050818114612ac0576000866000018281548110612a6d57634e487b7160e01b600052603260045260246000fd5b9060005260206000200154905080876000018481548110612a9e57634e487b7160e01b600052603260045260246000fd5b6000918252602080832090910192909255918252600188019052604090208390555b8554869080612adf57634e487b7160e01b600052603160045260246000fd5b600190038181906000526020600020016000905590558560010160008681526020019081526020016000206000905560019350505050610ac0565b6000915050610ac0565b600054610100900460ff1680612b3d575060005460ff16155b612b595760405162461bcd60e51b8152600401610bc090613f7c565b600054610100900460ff161580156121be576000805461ffff1916610101179055801561109e576000805461ff001916905550565b600054610100900460ff1680612ba7575060005460ff16155b612bc35760405162461bcd60e51b8152600401610bc090613f7c565b600054610100900460ff16158015612be5576000805461ffff19166101011790555b8251612bf8906065906020860190613861565b508151612c0c906066906020850190613861565b508015610cf6576000805461ff0019169055505050565b600054610100900460ff1680612c3c575060005460ff16155b612c585760405162461bcd60e51b8152600401610bc090613f7c565b600054610100900460ff16158015612c7a576000805461ffff19166101011790555b61012d805460ff19169055801561109e576000805461ff001916905550565b600054610100900460ff1680612cb2575060005460ff16155b612cce5760405162461bcd60e51b8152600401610bc090613f7c565b600054610100900460ff16158015612cf0576000805461ffff19166101011790555b8151835114612d5c5760405162461bcd60e51b815260206004820152603260248201527f5061796d656e7453706c69747465723a2070617965657320616e6420736861726044820152710cae640d8cadccee8d040dad2e6dac2e8c6d60731b6064820152608401610bc0565b6000835111612dad5760405162461bcd60e51b815260206004820152601a60248201527f5061796d656e7453706c69747465723a206e6f207061796565730000000000006044820152606401610bc0565b60005b8351811015612c0c57612e11848281518110612ddc57634e487b7160e01b600052603260045260246000fd5b6020026020010151848381518110612e0457634e487b7160e01b600052603260045260246000fd5b6020026020010151613213565b80612e1b8161414a565b915050612db0565b611ae082826128c9565b6000826000018281548110612e5257634e487b7160e01b600052603260045260246000fd5b9060005260206000200154905092915050565b60006001600160a01b0384163b15612f6757604051630a85bd0160e11b81526001600160a01b0385169063150b7a0290612ea9903390899088908890600401613eb0565b602060405180830381600087803b158015612ec357600080fd5b505af1925050508015612ef3575060408051601f3d908101601f19168201909252612ef091810190613c4a565b60015b612f4d573d808015612f21576040519150601f19603f3d011682016040523d82523d6000602084013e612f26565b606091505b508051612f455760405162461bcd60e51b8152600401610bc090613f00565b805181602001fd5b6001600160e01b031916630a85bd0160e11b149050611db5565b506001949350505050565b60606040518060600160405280602281526020016141e760229139905090565b6060612f9d826119f1565b6130015760405162461bcd60e51b815260206004820152602f60248201527f4552433732314d657461646174613a2055524920717565727920666f72206e6f60448201526e3732bc34b9ba32b73a103a37b5b2b760891b6064820152608401610bc0565b600061300b612f72565b9050600081511161302b5760405180602001604052806000815250611532565b80613035846133fe565b604051602001613046929190613e0c565b6040516020818303038152906040529392505050565b6130668383613518565b6130736000848484612e65565b610cf65760405162461bcd60e51b8152600401610bc090613f00565b60006001600160e01b0319821663780e9d6360e01b1480610ac05750610ac082613657565b60006130bf8261138c565b90506130cd8160008461289a565b6130d8600083611a0e565b6001600160a01b03811660009081526068602052604081208054600192906131019084906140bb565b909155505060008281526067602052604080822080546001600160a01b0319169055518391906001600160a01b038416907fddf252ad1be2c89b69c2b068fc378daa952ba7f163c4a11628f55a4df523b3ef908390a45050565b6001600160a01b0383166131b6576131b181609980546000838152609a60205260408120829055600182018355919091527f72a152ddfb8e864297c917af52ea6c1c68aead0fee1a62673fcc7e0c94979d000155565b6131d9565b816001600160a01b0316836001600160a01b0316146131d9576131d983826136a7565b6001600160a01b0382166131f057610cf681613744565b826001600160a01b0316826001600160a01b031614610cf657610cf6828261381d565b6001600160a01b03821661327e5760405162461bcd60e51b815260206004820152602c60248201527f5061796d656e7453706c69747465723a206163636f756e74206973207468652060448201526b7a65726f206164647265737360a01b6064820152608401610bc0565b600081116132ce5760405162461bcd60e51b815260206004820152601d60248201527f5061796d656e7453706c69747465723a207368617265732061726520300000006044820152606401610bc0565b6001600160a01b03821660009081526101c56020526040902054156133495760405162461bcd60e51b815260206004820152602b60248201527f5061796d656e7453706c69747465723a206163636f756e7420616c726561647960448201526a206861732073686172657360a81b6064820152608401610bc0565b6101c78054600181019091557fff6df30967a6a678f565c59a19e91e5c0dbb20cfe9f9bf26d7da6dea0fffa24c0180546001600160a01b0319166001600160a01b03841690811790915560009081526101c5602052604090208190556101c3546133b4908290614070565b6101c355604080516001600160a01b0384168152602081018390527f40c340f65e17194d14ddddb073d3c9f888e3cb52b5aae0c6c7706b4fbc905fac910160405180910390a15050565b6060816134225750506040805180820190915260018152600360fc1b602082015290565b8160005b811561344c57806134368161414a565b91506134459050600a83614088565b9150613426565b60008167ffffffffffffffff81111561347557634e487b7160e01b600052604160045260246000fd5b6040519080825280601f01601f19166020018201604052801561349f576020820181803683370190505b5090505b8415611db5576134b46001836140bb565b91506134c1600a86614165565b6134cc906030614070565b60f81b8183815181106134ef57634e487b7160e01b600052603260045260246000fd5b60200101906001600160f81b031916908160001a905350613511600a86614088565b94506134a3565b6001600160a01b03821661356e5760405162461bcd60e51b815260206004820181905260248201527f4552433732313a206d696e7420746f20746865207a65726f20616464726573736044820152606401610bc0565b613577816119f1565b156135c45760405162461bcd60e51b815260206004820152601c60248201527f4552433732313a20746f6b656e20616c7265616479206d696e746564000000006044820152606401610bc0565b6135d06000838361289a565b6001600160a01b03821660009081526068602052604081208054600192906135f9908490614070565b909155505060008181526067602052604080822080546001600160a01b0319166001600160a01b03861690811790915590518392907fddf252ad1be2c89b69c2b068fc378daa952ba7f163c4a11628f55a4df523b3ef908290a45050565b60006001600160e01b031982166380ac58cd60e01b148061368857506001600160e01b03198216635b5e139f60e01b145b80610ac057506301ffc9a760e01b6001600160e01b0319831614610ac0565b600060016136b48461145c565b6136be91906140bb565b600083815260986020526040902054909150808214613711576001600160a01b03841660009081526097602090815260408083208584528252808320548484528184208190558352609890915290208190555b5060009182526098602090815260408084208490556001600160a01b039094168352609781528383209183525290812055565b609954600090613756906001906140bb565b6000838152609a60205260408120546099805493945090928490811061378c57634e487b7160e01b600052603260045260246000fd5b9060005260206000200154905080609983815481106137bb57634e487b7160e01b600052603260045260246000fd5b6000918252602080832090910192909255828152609a9091526040808220849055858252812055609980548061380157634e487b7160e01b600052603160045260246000fd5b6001900381819060005260206000200160009055905550505050565b60006138288361145c565b6001600160a01b039093166000908152609760209081526040808320868452825280832085905593825260989052919091209190915550565b82805461386d90614115565b90600052602060002090601f01602090048101928261388f57600085556138d5565b82601f106138a857805160ff19168380011785556138d5565b828001600101855582156138d5579182015b828111156138d55782518255916020019190600101906138ba565b506138e192915061391b565b5090565b5080546138f190614115565b6000825580601f10613901575050565b601f01602090049060005260206000209081019061109e91905b5b808211156138e1576000815560010161391c565b600067ffffffffffffffff83111561394a5761394a6141a5565b61395d601f8401601f191660200161401b565b905082815283838301111561397157600080fd5b828260208301376000602084830101529392505050565b600082601f830112613998578081fd5b813560206139ad6139a88361404c565b61401b565b80838252828201915082860187848660051b89010111156139cc578586fd5b855b858110156139ea578135845292840192908401906001016139ce565b5090979650505050505050565b600082601f830112613a07578081fd5b61153283833560208501613930565b600060208284031215613a27578081fd5b8135611532816141bb565b60008060408385031215613a44578081fd5b8235613a4f816141bb565b91506020830135613a5f816141bb565b809150509250929050565b600080600060608486031215613a7e578081fd5b8335613a89816141bb565b92506020840135613a99816141bb565b929592945050506040919091013590565b60008060008060808587031215613abf578081fd5b8435613aca816141bb565b93506020850135613ada816141bb565b925060408501359150606085013567ffffffffffffffff811115613afc578182fd5b8501601f81018713613b0c578182fd5b613b1b87823560208401613930565b91505092959194509250565b60008060408385031215613b39578182fd5b8235613b44816141bb565b915060208301358015158114613a5f578182fd5b60008060408385031215613b6a578182fd5b8235613b75816141bb565b9150602083013567ffffffffffffffff811115613b90578182fd5b613b9c858286016139f7565b9150509250929050565b60008060408385031215613bb8578182fd5b8235613bc3816141bb565b946020939093013593505050565b600060208284031215613be2578081fd5b5035919050565b60008060408385031215613bfb578182fd5b823591506020830135613a5f816141bb565b60008060408385031215613c1f578182fd5b50508035926020909101359150565b600060208284031215613c3f578081fd5b8135611532816141d0565b600060208284031215613c5b578081fd5b8151611532816141d0565b600060208284031215613c77578081fd5b813567ffffffffffffffff811115613c8d578182fd5b611db5848285016139f7565b60008060008060808587031215613cae578182fd5b843567ffffffffffffffff80821115613cc5578384fd5b613cd1888389016139f7565b9550602091508187013581811115613ce7578485fd5b613cf389828a016139f7565b955050604087013581811115613d07578485fd5b8701601f81018913613d17578485fd5b8035613d256139a88261404c565b8082825285820191508584018c878560051b8701011115613d44578889fd5b8894505b83851015613d6f578035613d5b816141bb565b835260019490940193918601918601613d48565b5096505050506060870135915080821115613d88578283fd5b50613b1b87828801613988565b60008060408385031215613da7578182fd5b82359150602083013567ffffffffffffffff811115613b90578182fd5b60008151808452613ddc8160208601602086016140d2565b601f01601f19169290920160200192915050565b60008251613e028184602087016140d2565b9190910192915050565b60008351613e1e8184602088016140d2565b835190830190613e328183602088016140d2565b01949350505050565b7f416363657373436f6e74726f6c3a206163636f756e7420000000000000000000815260008351613e738160178501602088016140d2565b7001034b99036b4b9b9b4b733903937b6329607d1b6017918401918201528351613ea48160288401602088016140d2565b01602801949350505050565b6001600160a01b0385811682528416602082015260408101839052608060608201819052600090613ee390830184613dc4565b9695505050505050565b6020815260006115326020830184613dc4565b60208082526032908201527f4552433732313a207472616e7366657220746f206e6f6e20455243373231526560408201527131b2b4bb32b91034b6b83632b6b2b73a32b960711b606082015260800190565b60208082526010908201526f14185d5cd8589b194e881c185d5cd95960821b604082015260600190565b6020808252602e908201527f496e697469616c697a61626c653a20636f6e747261637420697320616c72656160408201526d191e481a5b9a5d1a585b1a5e995960921b606082015260800190565b60208082526031908201527f4552433732313a207472616e736665722063616c6c6572206973206e6f74206f6040820152701ddb995c881b9bdc88185c1c1c9bdd9959607a1b606082015260800190565b604051601f8201601f1916810167ffffffffffffffff81118282101715614044576140446141a5565b604052919050565b600067ffffffffffffffff821115614066576140666141a5565b5060051b60200190565b6000821982111561408357614083614179565b500190565b6000826140975761409761418f565b500490565b60008160001904831182151516156140b6576140b6614179565b500290565b6000828210156140cd576140cd614179565b500390565b60005b838110156140ed5781810151838201526020016140d5565b838111156117c55750506000910152565b60008161410d5761410d614179565b506000190190565b600181811c9082168061412957607f821691505b6020821081141561145657634e487b7160e01b600052602260045260246000fd5b600060001982141561415e5761415e614179565b5060010190565b6000826141745761417461418f565b500690565b634e487b7160e01b600052601160045260246000fd5b634e487b7160e01b600052601260045260246000fd5b634e487b7160e01b600052604160045260246000fd5b6001600160a01b038116811461109e57600080fd5b6001600160e01b03198116811461109e57600080fdfe68747470733a2f2f63727970746f776f7264732e6172742f6170692f746f6b656e2fa2646970667358221220943f3d56381889f60ab5839160378e8cc19c9536667d9cade2f742094d01c82c64736f6c63430008040033",
  "linkReferences": {},
  "deployedLinkReferences": {}
}