{
  "_format": "hh-sol-artifact-1",
  "contractName": "CryptoWordsV1",
  "sourceName": "contracts/CryptoWordsV1.sol",
  "abi": [
    {
      "inputs": [],
      "stateMutability": "nonpayable",
      "type": "constructor"
    },
    {
      "anonymous": false,
      "inputs": [
        {
          "indexed": false,
          "internalType": "address",
          "name": "previousAdmin",
          "type": "address"
        },
        {
          "indexed": false,
          "internalType": "address",
          "name": "newAdmin",
          "type": "address"
        }
      ],
      "name": "AdminChanged",
      "type": "event"
    },
    {
      "anonymous": false,
      "inputs": [
        {
          "indexed": true,
          "internalType": "address",
          "name": "owner",
          "type": "address"
        },
        {
          "indexed": true,
          "internalType": "address",
          "name": "approved",
          "type": "address"
        },
        {
          "indexed": true,
          "internalType": "uint256",
          "name": "tokenId",
          "type": "uint256"
        }
      ],
      "name": "Approval",
      "type": "event"
    },
    {
      "anonymous": false,
      "inputs": [
        {
          "indexed": true,
          "internalType": "address",
          "name": "owner",
          "type": "address"
        },
        {
          "indexed": true,
          "internalType": "address",
          "name": "operator",
          "type": "address"
        },
        {
          "indexed": false,
          "internalType": "bool",
          "name": "approved",
          "type": "bool"
        }
      ],
      "name": "ApprovalForAll",
      "type": "event"
    },
    {
      "anonymous": false,
      "inputs": [
        {
          "indexed": true,
          "internalType": "address",
          "name": "beacon",
          "type": "address"
        }
      ],
      "name": "BeaconUpgraded",
      "type": "event"
    },
    {
      "anonymous": false,
      "inputs": [
        {
          "indexed": true,
          "internalType": "contract IERC20Upgradeable",
          "name": "token",
          "type": "address"
        },
        {
          "indexed": false,
          "internalType": "address",
          "name": "to",
          "type": "address"
        },
        {
          "indexed": false,
          "internalType": "uint256",
          "name": "amount",
          "type": "uint256"
        }
      ],
      "name": "ERC20PaymentReleased",
      "type": "event"
    },
    {
      "anonymous": false,
      "inputs": [
        {
          "indexed": false,
          "internalType": "address",
          "name": "account",
          "type": "address"
        }
      ],
      "name": "Paused",
      "type": "event"
    },
    {
      "anonymous": false,
      "inputs": [
        {
          "indexed": false,
          "internalType": "address",
          "name": "account",
          "type": "address"
        },
        {
          "indexed": false,
          "internalType": "uint256",
          "name": "shares",
          "type": "uint256"
        }
      ],
      "name": "PayeeAdded",
      "type": "event"
    },
    {
      "anonymous": false,
      "inputs": [
        {
          "indexed": false,
          "internalType": "address",
          "name": "from",
          "type": "address"
        },
        {
          "indexed": false,
          "internalType": "uint256",
          "name": "amount",
          "type": "uint256"
        }
      ],
      "name": "PaymentReceived",
      "type": "event"
    },
    {
      "anonymous": false,
      "inputs": [
        {
          "indexed": false,
          "internalType": "address",
          "name": "to",
          "type": "address"
        },
        {
          "indexed": false,
          "internalType": "uint256",
          "name": "amount",
          "type": "uint256"
        }
      ],
      "name": "PaymentReleased",
      "type": "event"
    },
    {
      "anonymous": false,
      "inputs": [
        {
          "indexed": true,
          "internalType": "bytes32",
          "name": "role",
          "type": "bytes32"
        },
        {
          "indexed": true,
          "internalType": "bytes32",
          "name": "previousAdminRole",
          "type": "bytes32"
        },
        {
          "indexed": true,
          "internalType": "bytes32",
          "name": "newAdminRole",
          "type": "bytes32"
        }
      ],
      "name": "RoleAdminChanged",
      "type": "event"
    },
    {
      "anonymous": false,
      "inputs": [
        {
          "indexed": true,
          "internalType": "bytes32",
          "name": "role",
          "type": "bytes32"
        },
        {
          "indexed": true,
          "internalType": "address",
          "name": "account",
          "type": "address"
        },
        {
          "indexed": true,
          "internalType": "address",
          "name": "sender",
          "type": "address"
        }
      ],
      "name": "RoleGranted",
      "type": "event"
    },
    {
      "anonymous": false,
      "inputs": [
        {
          "indexed": true,
          "internalType": "bytes32",
          "name": "role",
          "type": "bytes32"
        },
        {
          "indexed": true,
          "internalType": "address",
          "name": "account",
          "type": "address"
        },
        {
          "indexed": true,
          "internalType": "address",
          "name": "sender",
          "type": "address"
        }
      ],
      "name": "RoleRevoked",
      "type": "event"
    },
    {
      "anonymous": false,
      "inputs": [
        {
          "indexed": true,
          "internalType": "address",
          "name": "from",
          "type": "address"
        },
        {
          "indexed": true,
          "internalType": "address",
          "name": "to",
          "type": "address"
        },
        {
          "indexed": true,
          "internalType": "uint256",
          "name": "tokenId",
          "type": "uint256"
        }
      ],
      "name": "Transfer",
      "type": "event"
    },
    {
      "anonymous": false,
      "inputs": [
        {
          "indexed": false,
          "internalType": "address",
          "name": "account",
          "type": "address"
        }
      ],
      "name": "Unpaused",
      "type": "event"
    },
    {
      "anonymous": false,
      "inputs": [
        {
          "indexed": true,
          "internalType": "address",
          "name": "implementation",
          "type": "address"
        }
      ],
      "name": "Upgraded",
      "type": "event"
    },
    {
      "anonymous": false,
      "inputs": [
        {
          "indexed": false,
          "internalType": "uint256",
          "name": "tokenId",
          "type": "uint256"
        },
        {
          "indexed": false,
          "internalType": "string",
          "name": "word",
          "type": "string"
        },
        {
          "indexed": false,
          "internalType": "address",
          "name": "to",
          "type": "address"
        }
      ],
      "name": "WordMinted",
      "type": "event"
    },
    {
      "inputs": [],
      "name": "DEFAULT_ADMIN_ROLE",
      "outputs": [
        {
          "internalType": "bytes32",
          "name": "",
          "type": "bytes32"
        }
      ],
      "stateMutability": "view",
      "type": "function"
    },
    {
      "inputs": [],
      "name": "DISCOUNTED_ROLE",
      "outputs": [
        {
          "internalType": "bytes32",
          "name": "",
          "type": "bytes32"
        }
      ],
      "stateMutability": "view",
      "type": "function"
    },
    {
      "inputs": [],
      "name": "MINTER_ROLE",
      "outputs": [
        {
          "internalType": "bytes32",
          "name": "",
          "type": "bytes32"
        }
      ],
      "stateMutability": "view",
      "type": "function"
    },
    {
      "inputs": [
        {
          "internalType": "address",
          "name": "to",
          "type": "address"
        },
        {
          "internalType": "uint256",
          "name": "tokenId",
          "type": "uint256"
        }
      ],
      "name": "approve",
      "outputs": [],
      "stateMutability": "nonpayable",
      "type": "function"
    },
    {
      "inputs": [],
      "name": "artist",
      "outputs": [
        {
          "internalType": "address",
          "name": "",
          "type": "address"
        }
      ],
      "stateMutability": "view",
      "type": "function"
    },
    {
      "inputs": [
        {
          "internalType": "address",
          "name": "owner",
          "type": "address"
        }
      ],
      "name": "balanceOf",
      "outputs": [
        {
          "internalType": "uint256",
          "name": "",
          "type": "uint256"
        }
      ],
      "stateMutability": "view",
      "type": "function"
    },
    {
      "inputs": [
        {
          "internalType": "uint256",
          "name": "tokenId",
          "type": "uint256"
        }
      ],
      "name": "burnByTokenId",
      "outputs": [],
      "stateMutability": "nonpayable",
      "type": "function"
    },
    {
      "inputs": [],
      "name": "defaultPrice",
      "outputs": [
        {
          "internalType": "uint256",
          "name": "",
          "type": "uint256"
        }
      ],
      "stateMutability": "view",
      "type": "function"
    },
    {
      "inputs": [
        {
          "internalType": "string",
          "name": "_word",
          "type": "string"
        }
      ],
      "name": "deleteCustomPriceByWord",
      "outputs": [],
      "stateMutability": "nonpayable",
      "type": "function"
    },
    {
      "inputs": [
        {
          "internalType": "string",
          "name": "_word",
          "type": "string"
        }
      ],
      "name": "deleteMaxInstancesByWord",
      "outputs": [],
      "stateMutability": "nonpayable",
      "type": "function"
    },
    {
      "inputs": [],
      "name": "discountPercentage",
      "outputs": [
        {
          "internalType": "uint256",
          "name": "",
          "type": "uint256"
        }
      ],
      "stateMutability": "view",
      "type": "function"
    },
    {
      "inputs": [],
      "name": "discountPercentageGlobal",
      "outputs": [
        {
          "internalType": "uint256",
          "name": "",
          "type": "uint256"
        }
      ],
      "stateMutability": "view",
      "type": "function"
    },
    {
      "inputs": [
        {
          "internalType": "uint256",
          "name": "tokenId",
          "type": "uint256"
        }
      ],
      "name": "getApproved",
      "outputs": [
        {
          "internalType": "address",
          "name": "",
          "type": "address"
        }
      ],
      "stateMutability": "view",
      "type": "function"
    },
    {
      "inputs": [
        {
          "internalType": "string",
          "name": "_word",
          "type": "string"
        }
      ],
      "name": "getCustomPriceByWord",
      "outputs": [
        {
          "internalType": "uint256",
          "name": "",
          "type": "uint256"
        }
      ],
      "stateMutability": "view",
      "type": "function"
    },
    {
      "inputs": [
        {
          "internalType": "string",
          "name": "_word",
          "type": "string"
        }
      ],
      "name": "getInstancesAvailable",
      "outputs": [
        {
          "internalType": "uint256",
          "name": "",
          "type": "uint256"
        }
      ],
      "stateMutability": "view",
      "type": "function"
    },
    {
      "inputs": [
        {
          "internalType": "string",
          "name": "_word",
          "type": "string"
        }
      ],
      "name": "getMaxInstancesByWord",
      "outputs": [
        {
          "internalType": "uint256",
          "name": "",
          "type": "uint256"
        }
      ],
      "stateMutability": "view",
      "type": "function"
    },
    {
      "inputs": [
        {
          "internalType": "address",
          "name": "account",
          "type": "address"
        },
        {
          "internalType": "string",
          "name": "_word",
          "type": "string"
        }
      ],
      "name": "getPrice",
      "outputs": [
        {
          "internalType": "uint256",
          "name": "",
          "type": "uint256"
        }
      ],
      "stateMutability": "view",
      "type": "function"
    },
    {
      "inputs": [
        {
          "internalType": "bytes32",
          "name": "role",
          "type": "bytes32"
        }
      ],
      "name": "getRoleAdmin",
      "outputs": [
        {
          "internalType": "bytes32",
          "name": "",
          "type": "bytes32"
        }
      ],
      "stateMutability": "view",
      "type": "function"
    },
    {
      "inputs": [
        {
          "internalType": "string",
          "name": "_word",
          "type": "string"
        }
      ],
      "name": "getWordInstances",
      "outputs": [
        {
          "internalType": "uint256",
          "name": "",
          "type": "uint256"
        }
      ],
      "stateMutability": "view",
      "type": "function"
    },
    {
      "inputs": [
        {
          "internalType": "bytes32",
          "name": "role",
          "type": "bytes32"
        },
        {
          "internalType": "address",
          "name": "account",
          "type": "address"
        }
      ],
      "name": "grantRole",
      "outputs": [],
      "stateMutability": "nonpayable",
      "type": "function"
    },
    {
      "inputs": [
        {
          "internalType": "bytes32",
          "name": "role",
          "type": "bytes32"
        },
        {
          "internalType": "address",
          "name": "account",
          "type": "address"
        }
      ],
      "name": "hasRole",
      "outputs": [
        {
          "internalType": "bool",
          "name": "",
          "type": "bool"
        }
      ],
      "stateMutability": "view",
      "type": "function"
    },
    {
      "inputs": [
        {
          "internalType": "string",
          "name": "name",
          "type": "string"
        },
        {
          "internalType": "string",
          "name": "symbol",
          "type": "string"
        },
        {
          "internalType": "address[]",
          "name": "payees",
          "type": "address[]"
        },
        {
          "internalType": "uint256[]",
          "name": "shares",
          "type": "uint256[]"
        }
      ],
      "name": "initialize",
      "outputs": [],
      "stateMutability": "nonpayable",
      "type": "function"
    },
    {
      "inputs": [
        {
          "internalType": "address",
          "name": "owner",
          "type": "address"
        },
        {
          "internalType": "address",
          "name": "operator",
          "type": "address"
        }
      ],
      "name": "isApprovedForAll",
      "outputs": [
        {
          "internalType": "bool",
          "name": "",
          "type": "bool"
        }
      ],
      "stateMutability": "view",
      "type": "function"
    },
    {
      "inputs": [],
      "name": "maxInstances",
      "outputs": [
        {
          "internalType": "uint256",
          "name": "",
          "type": "uint256"
        }
      ],
      "stateMutability": "view",
      "type": "function"
    },
    {
      "inputs": [],
      "name": "name",
      "outputs": [
        {
          "internalType": "string",
          "name": "",
          "type": "string"
        }
      ],
      "stateMutability": "view",
      "type": "function"
    },
    {
      "inputs": [
        {
          "internalType": "uint256",
          "name": "tokenId",
          "type": "uint256"
        }
      ],
      "name": "ownerOf",
      "outputs": [
        {
          "internalType": "address",
          "name": "",
          "type": "address"
        }
      ],
      "stateMutability": "view",
      "type": "function"
    },
    {
      "inputs": [],
      "name": "pause",
      "outputs": [],
      "stateMutability": "nonpayable",
      "type": "function"
    },
    {
      "inputs": [],
      "name": "paused",
      "outputs": [
        {
          "internalType": "bool",
          "name": "",
          "type": "bool"
        }
      ],
      "stateMutability": "view",
      "type": "function"
    },
    {
      "inputs": [
        {
          "internalType": "uint256",
          "name": "index",
          "type": "uint256"
        }
      ],
      "name": "payee",
      "outputs": [
        {
          "internalType": "address",
          "name": "",
          "type": "address"
        }
      ],
      "stateMutability": "view",
      "type": "function"
    },
    {
      "inputs": [
        {
          "internalType": "address",
          "name": "to",
          "type": "address"
        },
        {
          "internalType": "string",
          "name": "_word",
          "type": "string"
        }
      ],
      "name": "purchaseWord",
      "outputs": [],
      "stateMutability": "payable",
      "type": "function"
    },
    {
      "inputs": [
        {
          "internalType": "address payable",
          "name": "account",
          "type": "address"
        }
      ],
      "name": "release",
      "outputs": [],
      "stateMutability": "nonpayable",
      "type": "function"
    },
    {
      "inputs": [
        {
          "internalType": "contract IERC20Upgradeable",
          "name": "token",
          "type": "address"
        },
        {
          "internalType": "address",
          "name": "account",
          "type": "address"
        }
      ],
      "name": "release",
      "outputs": [],
      "stateMutability": "nonpayable",
      "type": "function"
    },
    {
      "inputs": [
        {
          "internalType": "contract IERC20Upgradeable",
          "name": "token",
          "type": "address"
        },
        {
          "internalType": "address",
          "name": "account",
          "type": "address"
        }
      ],
      "name": "released",
      "outputs": [
        {
          "internalType": "uint256",
          "name": "",
          "type": "uint256"
        }
      ],
      "stateMutability": "view",
      "type": "function"
    },
    {
      "inputs": [
        {
          "internalType": "address",
          "name": "account",
          "type": "address"
        }
      ],
      "name": "released",
      "outputs": [
        {
          "internalType": "uint256",
          "name": "",
          "type": "uint256"
        }
      ],
      "stateMutability": "view",
      "type": "function"
    },
    {
      "inputs": [
        {
          "internalType": "bytes32",
          "name": "role",
          "type": "bytes32"
        },
        {
          "internalType": "address",
          "name": "account",
          "type": "address"
        }
      ],
      "name": "renounceRole",
      "outputs": [],
      "stateMutability": "nonpayable",
      "type": "function"
    },
    {
      "inputs": [
        {
          "internalType": "bytes32",
          "name": "role",
          "type": "bytes32"
        },
        {
          "internalType": "address",
          "name": "account",
          "type": "address"
        }
      ],
      "name": "revokeRole",
      "outputs": [],
      "stateMutability": "nonpayable",
      "type": "function"
    },
    {
      "inputs": [],
      "name": "royaltiesPercentage",
      "outputs": [
        {
          "internalType": "uint256",
          "name": "",
          "type": "uint256"
        }
      ],
      "stateMutability": "view",
      "type": "function"
    },
    {
      "inputs": [
        {
          "internalType": "uint256",
          "name": "_tokenId",
          "type": "uint256"
        },
        {
          "internalType": "uint256",
          "name": "_salePrice",
          "type": "uint256"
        }
      ],
      "name": "royaltyInfo",
      "outputs": [
        {
          "internalType": "address",
          "name": "receiver",
          "type": "address"
        },
        {
          "internalType": "uint256",
          "name": "royaltyAmount",
          "type": "uint256"
        }
      ],
      "stateMutability": "view",
      "type": "function"
    },
    {
      "inputs": [
        {
          "internalType": "address",
          "name": "from",
          "type": "address"
        },
        {
          "internalType": "address",
          "name": "to",
          "type": "address"
        },
        {
          "internalType": "uint256",
          "name": "tokenId",
          "type": "uint256"
        }
      ],
      "name": "safeTransferFrom",
      "outputs": [],
      "stateMutability": "nonpayable",
      "type": "function"
    },
    {
      "inputs": [
        {
          "internalType": "address",
          "name": "from",
          "type": "address"
        },
        {
          "internalType": "address",
          "name": "to",
          "type": "address"
        },
        {
          "internalType": "uint256",
          "name": "tokenId",
          "type": "uint256"
        },
        {
          "internalType": "bytes",
          "name": "_data",
          "type": "bytes"
        }
      ],
      "name": "safeTransferFrom",
      "outputs": [],
      "stateMutability": "nonpayable",
      "type": "function"
    },
    {
      "inputs": [
        {
          "internalType": "address",
          "name": "operator",
          "type": "address"
        },
        {
          "internalType": "bool",
          "name": "approved",
          "type": "bool"
        }
      ],
      "name": "setApprovalForAll",
      "outputs": [],
      "stateMutability": "nonpayable",
      "type": "function"
    },
    {
      "inputs": [
        {
          "internalType": "string",
          "name": "_word",
          "type": "string"
        },
        {
          "internalType": "uint256",
          "name": "price",
          "type": "uint256"
        }
      ],
      "name": "setCustomPriceByWord",
      "outputs": [],
      "stateMutability": "nonpayable",
      "type": "function"
    },
    {
      "inputs": [
        {
          "internalType": "uint256",
          "name": "price",
          "type": "uint256"
        }
      ],
      "name": "setDefaultPrice",
      "outputs": [],
      "stateMutability": "nonpayable",
      "type": "function"
    },
    {
      "inputs": [
        {
          "internalType": "uint256",
          "name": "percentage",
          "type": "uint256"
        }
      ],
      "name": "setDiscountPercentage",
      "outputs": [],
      "stateMutability": "nonpayable",
      "type": "function"
    },
    {
      "inputs": [
        {
          "internalType": "uint256",
          "name": "percentage",
          "type": "uint256"
        }
      ],
      "name": "setDiscountPercentageGlobal",
      "outputs": [],
      "stateMutability": "nonpayable",
      "type": "function"
    },
    {
      "inputs": [
        {
          "internalType": "uint256",
          "name": "instances",
          "type": "uint256"
        }
      ],
      "name": "setMaxInstances",
      "outputs": [],
      "stateMutability": "nonpayable",
      "type": "function"
    },
    {
      "inputs": [
        {
          "internalType": "string",
          "name": "_word",
          "type": "string"
        },
        {
          "internalType": "uint256",
          "name": "instances",
          "type": "uint256"
        }
      ],
      "name": "setMaxInstancesByWord",
      "outputs": [],
      "stateMutability": "nonpayable",
      "type": "function"
    },
    {
      "inputs": [
        {
          "internalType": "address",
          "name": "newRoyaltiesReceiver",
          "type": "address"
        }
      ],
      "name": "setRoyaltiesReceiver",
      "outputs": [],
      "stateMutability": "nonpayable",
      "type": "function"
    },
    {
      "inputs": [
        {
          "internalType": "address",
          "name": "account",
          "type": "address"
        }
      ],
      "name": "shares",
      "outputs": [
        {
          "internalType": "uint256",
          "name": "",
          "type": "uint256"
        }
      ],
      "stateMutability": "view",
      "type": "function"
    },
    {
      "inputs": [
        {
          "internalType": "bytes4",
          "name": "interfaceId",
          "type": "bytes4"
        }
      ],
      "name": "supportsInterface",
      "outputs": [
        {
          "internalType": "bool",
          "name": "",
          "type": "bool"
        }
      ],
      "stateMutability": "view",
      "type": "function"
    },
    {
      "inputs": [],
      "name": "symbol",
      "outputs": [
        {
          "internalType": "string",
          "name": "",
          "type": "string"
        }
      ],
      "stateMutability": "view",
      "type": "function"
    },
    {
      "inputs": [
        {
          "internalType": "uint256",
          "name": "tokenId",
          "type": "uint256"
        }
      ],
      "name": "tokenURI",
      "outputs": [
        {
          "internalType": "string",
          "name": "",
          "type": "string"
        }
      ],
      "stateMutability": "view",
      "type": "function"
    },
    {
      "inputs": [
        {
          "internalType": "contract IERC20Upgradeable",
          "name": "token",
          "type": "address"
        }
      ],
      "name": "totalReleased",
      "outputs": [
        {
          "internalType": "uint256",
          "name": "",
          "type": "uint256"
        }
      ],
      "stateMutability": "view",
      "type": "function"
    },
    {
      "inputs": [],
      "name": "totalReleased",
      "outputs": [
        {
          "internalType": "uint256",
          "name": "",
          "type": "uint256"
        }
      ],
      "stateMutability": "view",
      "type": "function"
    },
    {
      "inputs": [],
      "name": "totalShares",
      "outputs": [
        {
          "internalType": "uint256",
          "name": "",
          "type": "uint256"
        }
      ],
      "stateMutability": "view",
      "type": "function"
    },
    {
      "inputs": [
        {
          "internalType": "address",
          "name": "from",
          "type": "address"
        },
        {
          "internalType": "address",
          "name": "to",
          "type": "address"
        },
        {
          "internalType": "uint256",
          "name": "tokenId",
          "type": "uint256"
        }
      ],
      "name": "transferFrom",
      "outputs": [],
      "stateMutability": "nonpayable",
      "type": "function"
    },
    {
      "inputs": [],
      "name": "unpause",
      "outputs": [],
      "stateMutability": "nonpayable",
      "type": "function"
    },
    {
      "inputs": [
        {
          "internalType": "address",
          "name": "newImplementation",
          "type": "address"
        }
      ],
      "name": "upgradeTo",
      "outputs": [],
      "stateMutability": "nonpayable",
      "type": "function"
    },
    {
      "inputs": [
        {
          "internalType": "address",
          "name": "newImplementation",
          "type": "address"
        },
        {
          "internalType": "bytes",
          "name": "data",
          "type": "bytes"
        }
      ],
      "name": "upgradeToAndCall",
      "outputs": [],
      "stateMutability": "payable",
      "type": "function"
    },
    {
      "inputs": [
        {
          "internalType": "string",
          "name": "_word",
          "type": "string"
        }
      ],
      "name": "wordAvailable",
      "outputs": [
        {
          "internalType": "bool",
          "name": "",
          "type": "bool"
        }
      ],
      "stateMutability": "view",
      "type": "function"
    },
    {
      "stateMutability": "payable",
      "type": "receive"
    }
  ],
  "bytecode": "0x60a06040523060601b6080523480156200001857600080fd5b50600054610100900460ff168062000033575060005460ff16155b6200009b5760405162461bcd60e51b815260206004820152602e60248201527f496e697469616c697a61626c653a20636f6e747261637420697320616c72656160448201526d191e481a5b9a5d1a585b1a5e995960921b606482015260840160405180910390fd5b600054610100900460ff16158015620000be576000805461ffff19166101011790555b8015620000d1576000805461ff00191690555b5060805160601c61480162000106600039600081816110f50152818161113501528181611514015261155401526148016000f3fe60806040526004361061039b5760003560e01c806376977a3a116101dc578063b88d4fde11610102578063d5391393116100a0578063e33b7de31161006f578063e33b7de314610b5e578063e69e04b314610b74578063e985e9c514610b8b578063edf4619614610bd457600080fd5b8063d539139314610ac5578063d547741f14610ae7578063d79779b214610b07578063dd08eae014610b3e57600080fd5b8063cafa8dfe116100dc578063cafa8dfe14610a44578063cc14f2f514610a5b578063ce7c2ac214610a7b578063d0fd890d14610ab257600080fd5b8063b88d4fde146109e4578063c5e885e414610a04578063c87b56dd14610a2457600080fd5b80639852595c1161017a578063aef9455d11610149578063aef9455d1461096d578063b3428d151461098d578063b3fa9f24146109ad578063b5143715146109c457600080fd5b80639852595c146108cd578063a217fddf14610904578063a22cb46514610919578063a7abb8b71461093957600080fd5b8063845bcce1116101b6578063845bcce1146108585780638b83209b1461087857806391d148541461089857806395d89b41146108b857600080fd5b806376977a3a1461080357806377500c54146108235780638456cb591461084357600080fd5b80633f4ba83a116102c157806359fb3e601161025f5780636d3c7ec51161022e5780636d3c7ec51461078357806370868d6f146107a357806370a08231146107c35780637386ca3e146107e357600080fd5b806359fb3e60146107145780635b4b51cf1461072b5780635c975abb1461074b5780636352211e1461076357600080fd5b806343bc16121161029b57806343bc1612146106a0578063445d9787146106c157806348b75044146106e15780634f1ef2861461070157600080fd5b80633f4ba83a14610624578063406072a91461063957806342842e0e1461068057600080fd5b8063248a9ca31161033957806336568abe1161030857806336568abe146105ae5780633659cfe6146105ce5780633a98ef39146105ee5780633cad95871461060457600080fd5b8063248a9ca3146105085780632a55205a146105385780632f0f0dac146105775780632f2ff15d1461058e57600080fd5b8063081812fc11610375578063081812fc1461046e578063095ea7b3146104a657806319165587146104c857806323b872dd146104e857600080fd5b806301ffc9a7146103e9578063027e11a71461041e57806306fdde031461044c57600080fd5b366103e4577f6ef95f06320e7a25a04a175ca677b7052bdd97131872c2192525a629f51be77033604080516001600160a01b0390921682523460208301520160405180910390a1005b600080fd5b3480156103f557600080fd5b50610409610404366004613fc9565b610bf4565b60405190151581526020015b60405180910390f35b34801561042a57600080fd5b5061043e610439366004614003565b610c1f565b604051908152602001610415565b34801561045857600080fd5b50610461610c4b565b60405161041591906142e5565b34801561047a57600080fd5b5061048e610489366004613f8b565b610cdd565b6040516001600160a01b039091168152602001610415565b3480156104b257600080fd5b506104c66104c1366004613f42565b610d6a565b005b3480156104d457600080fd5b506104c66104e3366004613dc1565b610e80565b3480156104f457600080fd5b506104c6610503366004613e17565b610fb3565b34801561051457600080fd5b5061043e610523366004613f8b565b600090815260fb602052604090206001015490565b34801561054457600080fd5b5061055861055336600461419a565b610fe4565b604080516001600160a01b039093168352602083019190915201610415565b34801561058357600080fd5b5061043e6101c75481565b34801561059a57600080fd5b506104c66105a9366004613fa4565b611046565b3480156105ba57600080fd5b506104c66105c9366004613fa4565b61106c565b3480156105da57600080fd5b506104c66105e9366004613dc1565b6110ea565b3480156105fa57600080fd5b506101915461043e565b34801561061057600080fd5b506104c661061f366004614003565b6111b3565b34801561063057600080fd5b506104c66111e9565b34801561064557600080fd5b5061043e610654366004613dde565b6001600160a01b0391821660009081526101976020908152604080832093909416825291909152205490565b34801561068c57600080fd5b506104c661069b366004613e17565b6111fd565b3480156106ac57600080fd5b506101c45461048e906001600160a01b031681565b3480156106cd57600080fd5b506104c66106dc366004614038565b611218565b3480156106ed57600080fd5b506104c66106fc366004613dde565b61131c565b6104c661070f366004613ef2565b611509565b34801561072057600080fd5b5061043e6101c55481565b34801561073757600080fd5b5061043e610746366004614003565b6115bf565b34801561075757600080fd5b5060c95460ff16610409565b34801561076f57600080fd5b5061048e61077e366004613f8b565b611633565b34801561078f57600080fd5b506104c661079e366004613f8b565b6116aa565b3480156107af57600080fd5b5061043e6107be366004614003565b6116cd565b3480156107cf57600080fd5b5061043e6107de366004613dc1565b6116f9565b3480156107ef57600080fd5b506104c66107fe36600461413c565b611780565b34801561080f57600080fd5b5061043e61081e366004613ef2565b6117e5565b34801561082f57600080fd5b5061040961083e366004614003565b611883565b34801561084f57600080fd5b506104c66118b9565b34801561086457600080fd5b506104c6610873366004613f8b565b6118cd565b34801561088457600080fd5b5061048e610893366004613f8b565b6118f0565b3480156108a457600080fd5b506104096108b3366004613fa4565b611921565b3480156108c457600080fd5b5061046161194c565b3480156108d957600080fd5b5061043e6108e8366004613dc1565b6001600160a01b03166000908152610194602052604090205490565b34801561091057600080fd5b5061043e600081565b34801561092557600080fd5b506104c6610934366004613ec4565b61195b565b34801561094557600080fd5b5061043e7ff9e9e1c8035f82fd72c5438c5719fd5349deacb4207f4fcbbda606cb5a39d50981565b34801561097957600080fd5b506104c6610988366004613f8b565b611966565b34801561099957600080fd5b506104c66109a8366004613f8b565b611989565b3480156109b957600080fd5b5061043e6101c85481565b3480156109d057600080fd5b506104c66109df366004613dc1565b6119ac565b3480156109f057600080fd5b506104c66109ff366004613e58565b6119f8565b348015610a1057600080fd5b506104c6610a1f36600461413c565b611a30565b348015610a3057600080fd5b50610461610a3f366004613f8b565b611a95565b348015610a5057600080fd5b5061043e6101c95481565b348015610a6757600080fd5b506104c6610a76366004613f8b565b611aa0565b348015610a8757600080fd5b5061043e610a96366004613dc1565b6001600160a01b03166000908152610193602052604090205490565b6104c6610ac0366004613ef2565b611ab5565b348015610ad157600080fd5b5061043e60008051602061478a83398151915281565b348015610af357600080fd5b506104c6610b02366004613fa4565b611c8e565b348015610b1357600080fd5b5061043e610b22366004613dc1565b6001600160a01b03166000908152610196602052604090205490565b348015610b4a57600080fd5b5061043e610b59366004614003565b611cb4565b348015610b6a57600080fd5b506101925461043e565b348015610b8057600080fd5b5061043e6101c65481565b348015610b9757600080fd5b50610409610ba6366004613dde565b6001600160a01b039182166000908152606a6020908152604080832093909416825291909152205460ff1690565b348015610be057600080fd5b506104c6610bef366004614003565b611ce0565b60006001600160e01b0319821663152a902d60e11b1480610c195750610c1982611d16565b92915050565b60006101ca82604051610c3291906141e8565b9081526020016040518091039020600201549050919050565b606060658054610c5a90614667565b80601f0160208091040260200160405190810160405280929190818152602001828054610c8690614667565b8015610cd35780601f10610ca857610100808354040283529160200191610cd3565b820191906000526020600020905b815481529060010190602001808311610cb657829003601f168201915b5050505050905090565b6000610ce882611d3b565b610d4e5760405162461bcd60e51b815260206004820152602c60248201527f4552433732313a20617070726f76656420717565727920666f72206e6f6e657860448201526b34b9ba32b73a103a37b5b2b760a11b60648201526084015b60405180910390fd5b506000908152606960205260409020546001600160a01b031690565b6000610d7582611633565b9050806001600160a01b0316836001600160a01b03161415610de35760405162461bcd60e51b815260206004820152602160248201527f4552433732313a20617070726f76616c20746f2063757272656e74206f776e656044820152603960f91b6064820152608401610d45565b336001600160a01b0382161480610dff5750610dff8133610ba6565b610e715760405162461bcd60e51b815260206004820152603860248201527f4552433732313a20617070726f76652063616c6c6572206973206e6f74206f7760448201527f6e6572206e6f7220617070726f76656420666f7220616c6c00000000000000006064820152608401610d45565b610e7b8383611d58565b505050565b6001600160a01b03811660009081526101936020526040902054610eb65760405162461bcd60e51b8152600401610d4590614396565b6000610ec26101925490565b610ecc90476145c2565b90506000610efa8383610ef5866001600160a01b03166000908152610194602052604090205490565b611dc6565b905080610f195760405162461bcd60e51b8152600401610d4590614428565b6001600160a01b0383166000908152610194602052604081208054839290610f429084906145c2565b92505081905550806101926000828254610f5c91906145c2565b90915550610f6c90508382611e06565b604080516001600160a01b0385168152602081018390527fdf20fd1e76bc69d672e4814fafb2c449bba3a5369d8359adf9e05e6fde87b056910160405180910390a1505050565b610fbd3382611f1f565b610fd95760405162461bcd60e51b8152600401610d45906144eb565b610e7b838383612005565b600080610fff60008051602061478a83398151915233611921565b1561100f5750600090508061103f565b600060646101c9548561102291906145ee565b61102c91906145da565b6101c4546001600160a01b031693509150505b9250929050565b600082815260fb602052604090206001015461106281336121b0565b610e7b8383612214565b6001600160a01b03811633146110dc5760405162461bcd60e51b815260206004820152602f60248201527f416363657373436f6e74726f6c3a2063616e206f6e6c792072656e6f756e636560448201526e103937b632b9903337b91039b2b63360891b6064820152608401610d45565b6110e6828261229a565b5050565b306001600160a01b037f00000000000000000000000000000000000000000000000000000000000000001614156111335760405162461bcd60e51b8152600401610d459061434a565b7f00000000000000000000000000000000000000000000000000000000000000006001600160a01b0316611165612301565b6001600160a01b03161461118b5760405162461bcd60e51b8152600401610d45906143dc565b6111948161232f565b604080516000808252602082019092526111b09183919061233b565b50565b60006111bf81336121b0565b6101ca826040516111d091906141e8565b9081526020016040518091039020600101600090555050565b60006111f581336121b0565b6111b061247f565b610e7b838383604051806020016040528060008152506119f8565b600054610100900460ff1680611231575060005460ff16155b61124d5760405162461bcd60e51b8152600401610d459061449d565b600054610100900460ff1615801561126f576000805461ffff19166101011790555b6112798585612512565b611281612599565b61128961261c565b611291612599565b611299612683565b6112a383836126e1565b6101c480546001600160a01b0319163390811790915560056101c581905566b1a2bc2ec500006101c65560006101c781905560326101c8556101c9919091556112eb9161274a565b61130360008051602061478a8339815191523361274a565b8015611315576000805461ff00191690555b5050505050565b6001600160a01b038116600090815261019360205260409020546113525760405162461bcd60e51b8152600401610d4590614396565b6001600160a01b038216600090815261019660205260408120546040516370a0823160e01b81523060048201526001600160a01b038516906370a082319060240160206040518083038186803b1580156113ab57600080fd5b505afa1580156113bf573d6000803e3d6000fd5b505050506040513d601f19601f820116820180604052508101906113e39190614181565b6113ed91906145c2565b905060006114278383610ef587876001600160a01b0391821660009081526101976020908152604080832093909416825291909152205490565b9050806114465760405162461bcd60e51b8152600401610d4590614428565b6001600160a01b038085166000908152610197602090815260408083209387168352929052908120805483929061147e9084906145c2565b90915550506001600160a01b03841660009081526101966020526040812080548392906114ac9084906145c2565b909155506114bd9050848483612754565b604080516001600160a01b038581168252602082018490528616917f3be5b7a71e84ed12875d241991c70855ac5817d847039e17a9d895c1ceb0f18a910160405180910390a250505050565b306001600160a01b037f00000000000000000000000000000000000000000000000000000000000000001614156115525760405162461bcd60e51b8152600401610d459061434a565b7f00000000000000000000000000000000000000000000000000000000000000006001600160a01b0316611584612301565b6001600160a01b0316146115aa5760405162461bcd60e51b8152600401610d45906143dc565b6115b38261232f565b6110e68282600161233b565b6000806115cb836127a6565b90506101ca836040516115de91906141e8565b9081526020016040518091039020600301548110156115fe57600061162c565b6101ca8360405161160f91906141e8565b9081526020016040518091039020600301548161162c919061460d565b9392505050565b6000818152606760205260408120546001600160a01b031680610c195760405162461bcd60e51b815260206004820152602960248201527f4552433732313a206f776e657220717565727920666f72206e6f6e657869737460448201526832b73a103a37b5b2b760b91b6064820152608401610d45565b60006116b681336121b0565b6101c6548214156116c657600080fd5b506101c655565b60006101ca826040516116e091906141e8565b9081526020016040518091039020600101549050919050565b60006001600160a01b0382166117645760405162461bcd60e51b815260206004820152602a60248201527f4552433732313a2062616c616e636520717565727920666f7220746865207a65604482015269726f206164647265737360b01b6064820152608401610d45565b506001600160a01b031660009081526068602052604090205490565b600061178c81336121b0565b6101ca8360405161179d91906141e8565b9081526020016040518091039020600201548214156117bb57600080fd5b816101ca846040516117cd91906141e8565b90815260405190819003602001902060020155505050565b60006117ff60008051602061478a83398151915284611921565b1561180c57506000610c19565b6000611817836127eb565b9050600061182482612830565b90506118507ff9e9e1c8035f82fd72c5438c5719fd5349deacb4207f4fcbbda606cb5a39d50986611921565b1561187b576101c8546101c754116118705761186b82612857565b611872565b805b92505050610c19565b949350505050565b600061188e826127a6565b6101ca8360405161189f91906141e8565b908152602001604051809103902060030154109050919050565b60006118c581336121b0565b6111b061286a565b60006118d981336121b0565b6101c7548214156118e957600080fd5b506101c755565b60006101958281548110611906576119066146fd565b6000918252602090912001546001600160a01b031692915050565b600091825260fb602090815260408084206001600160a01b0393909316845291905290205460ff1690565b606060668054610c5a90614667565b6110e63383836128c2565b600061197281336121b0565b6101c55482141561198257600080fd5b506101c555565b600061199581336121b0565b6101c8548214156119a557600080fd5b506101c855565b60006119b881336121b0565b6101c4546001600160a01b03838116911614156119d457600080fd5b506101c480546001600160a01b0319166001600160a01b0392909216919091179055565b611a023383611f1f565b611a1e5760405162461bcd60e51b8152600401610d45906144eb565b611a2a84848484612991565b50505050565b6000611a3c81336121b0565b6101ca83604051611a4d91906141e8565b908152602001604051809103902060010154821415611a6b57600080fd5b816101ca84604051611a7d91906141e8565b90815260405190819003602001902060010155505050565b6060610c19826129c4565b6000611aac81336121b0565b6110e682612b26565b60c95460ff1615611ad85760405162461bcd60e51b8152600401610d4590614473565b611af060008051602061478a83398151915233611921565b611bac57611afd81611883565b611b495760405162461bcd60e51b815260206004820181905260248201527f5468697320776f7264206973206e6f206c6f6e67657220617661696c61626c656044820152606401610d45565b611b5333826117e5565b341015611bac5760405162461bcd60e51b815260206004820152602160248201527f4e6f7420656e6f756768204554482073656e743b20636865636b2070726963656044820152602160f81b6064820152608401610d45565b6000611bb86101c35490565b9050611bc96101c380546001019055565b60006101ca83604051611bdc91906141e8565b908152604051908190036020019020805490915060ff16611c1e57805460ff191660019081178255600082820181905560038301919091556002820155611c39565b6001816003016000828254611c3391906145c2565b90915550505b611c438483612b2f565b611c4d8284612b49565b7fe7619a6b73b99956e487541f2eafbf4cb611a98b8391e31858fe02ba08669f05828486604051611c809392919061453c565b60405180910390a150505050565b600082815260fb6020526040902060010154611caa81336121b0565b610e7b838361229a565b60006101ca82604051611cc791906141e8565b9081526020016040518091039020600301549050919050565b6000611cec81336121b0565b6101ca82604051611cfd91906141e8565b9081526020016040518091039020600201600090555050565b60006001600160e01b03198216637965db0b60e01b1480610c195750610c1982612bd4565b6000908152606760205260409020546001600160a01b0316151590565b600081815260696020526040902080546001600160a01b0319166001600160a01b0384169081179091558190611d8d82611633565b6001600160a01b03167f8c5be1e5ebec7d5bd14f71427d1e84f3dd0314c0f7b2291e5b200ac8c7c3b92560405160405180910390a45050565b610191546001600160a01b0384166000908152610193602052604081205490918391611df290866145ee565b611dfc91906145da565b61187b919061460d565b80471015611e565760405162461bcd60e51b815260206004820152601d60248201527f416464726573733a20696e73756666696369656e742062616c616e63650000006044820152606401610d45565b6000826001600160a01b03168260405160006040518083038185875af1925050503d8060008114611ea3576040519150601f19603f3d011682016040523d82523d6000602084013e611ea8565b606091505b5050905080610e7b5760405162461bcd60e51b815260206004820152603a60248201527f416464726573733a20756e61626c6520746f2073656e642076616c75652c207260448201527f6563697069656e74206d617920686176652072657665727465640000000000006064820152608401610d45565b6000611f2a82611d3b565b611f8b5760405162461bcd60e51b815260206004820152602c60248201527f4552433732313a206f70657261746f7220717565727920666f72206e6f6e657860448201526b34b9ba32b73a103a37b5b2b760a11b6064820152608401610d45565b6000611f9683611633565b9050806001600160a01b0316846001600160a01b03161480611fd15750836001600160a01b0316611fc684610cdd565b6001600160a01b0316145b8061187b57506001600160a01b038082166000908152606a602090815260408083209388168352929052205460ff1661187b565b826001600160a01b031661201882611633565b6001600160a01b0316146120805760405162461bcd60e51b815260206004820152602960248201527f4552433732313a207472616e73666572206f6620746f6b656e2074686174206960448201526839903737ba1037bbb760b91b6064820152608401610d45565b6001600160a01b0382166120e25760405162461bcd60e51b8152602060048201526024808201527f4552433732313a207472616e7366657220746f20746865207a65726f206164646044820152637265737360e01b6064820152608401610d45565b6120ed838383612c24565b6120f8600082611d58565b6001600160a01b038316600090815260686020526040812080546001929061212190849061460d565b90915550506001600160a01b038216600090815260686020526040812080546001929061214f9084906145c2565b909155505060008181526067602052604080822080546001600160a01b0319166001600160a01b0386811691821790925591518493918716917fddf252ad1be2c89b69c2b068fc378daa952ba7f163c4a11628f55a4df523b3ef91a4505050565b6121ba8282611921565b6110e6576121d2816001600160a01b03166014612c47565b6121dd836020612c47565b6040516020016121ee929190614233565b60408051601f198184030181529082905262461bcd60e51b8252610d45916004016142e5565b61221e8282611921565b6110e657600082815260fb602090815260408083206001600160a01b03851684529091529020805460ff191660011790556122563390565b6001600160a01b0316816001600160a01b0316837f2f8788117e7eff1d82e926ec794901d17c78024a50270940304540a733656f0d60405160405180910390a45050565b6122a48282611921565b156110e657600082815260fb602090815260408083206001600160a01b0385168085529252808320805460ff1916905551339285917ff6391f5c32d9c69d2a47ea670b442974b53935d1edc7fd64eb21e047a839171b9190a45050565b7f360894a13ba1a3210667c828492db98dca3e2076cc3735a920a3ca505d382bbc546001600160a01b031690565b60006110e681336121b0565b6000612345612301565b905061235084612de3565b60008351118061235d5750815b1561236e5761236c8484612e88565b505b7f4910fdfa16fed3260ed0e7147f7cc6da11a60208b5b9406d12a635614ffd9143805460ff1661131557805460ff191660011781556040516001600160a01b03831660248201526123ed90869060440160408051601f198184030181529190526020810180516001600160e01b0316631b2ce7f360e11b179052612e88565b50805460ff191681556123fe612301565b6001600160a01b0316826001600160a01b0316146124765760405162461bcd60e51b815260206004820152602f60248201527f45524331393637557067726164653a207570677261646520627265616b73206660448201526e75727468657220757067726164657360881b6064820152608401610d45565b61131585612f73565b60c95460ff166124c85760405162461bcd60e51b815260206004820152601460248201527314185d5cd8589b194e881b9bdd081c185d5cd95960621b6044820152606401610d45565b60c9805460ff191690557f5db9ee0a495bf2e6ff9c91a7834c1ba4fdd244a5e8aa4e537bd38aeae4b073aa335b6040516001600160a01b03909116815260200160405180910390a1565b600054610100900460ff168061252b575060005460ff16155b6125475760405162461bcd60e51b8152600401610d459061449d565b600054610100900460ff16158015612569576000805461ffff19166101011790555b612571612fb3565b612579612fb3565b612583838361301d565b8015610e7b576000805461ff0019169055505050565b600054610100900460ff16806125b2575060005460ff16155b6125ce5760405162461bcd60e51b8152600401610d459061449d565b600054610100900460ff161580156125f0576000805461ffff19166101011790555b6125f8612fb3565b612600612fb3565b612608612fb3565b80156111b0576000805461ff001916905550565b600054610100900460ff1680612635575060005460ff16155b6126515760405162461bcd60e51b8152600401610d459061449d565b600054610100900460ff16158015612673576000805461ffff19166101011790555b61267b612fb3565b6126086130b2565b600054610100900460ff168061269c575060005460ff16155b6126b85760405162461bcd60e51b8152600401610d459061449d565b600054610100900460ff161580156125f8576000805461ffff1916610101179055612600612fb3565b600054610100900460ff16806126fa575060005460ff16155b6127165760405162461bcd60e51b8152600401610d459061449d565b600054610100900460ff16158015612738576000805461ffff19166101011790555b612740612fb3565b6125838383613127565b6110e68282612214565b604080516001600160a01b038416602482015260448082018490528251808303909101815260649091019091526020810180516001600160e01b031663a9059cbb60e01b179052610e7b908490613295565b6000806101ca836040516127ba91906141e8565b908152602001604051809103902060020154116127da576101c554610c19565b6101ca82604051610c3291906141e8565b6000806101ca836040516127ff91906141e8565b9081526020016040518091039020600101541161281f576101c654610c19565b6101ca826040516116e091906141e8565b600060646101c7548361284391906145ee565b61284d91906145da565b610c19908361460d565b600060646101c8548361284391906145ee565b60c95460ff161561288d5760405162461bcd60e51b8152600401610d4590614473565b60c9805460ff191660011790557f62e78cea01bee320cd4e420270b5ea74000d11b0c9f74754ebdbfc544b05a2586124f53390565b816001600160a01b0316836001600160a01b031614156129245760405162461bcd60e51b815260206004820152601960248201527f4552433732313a20617070726f766520746f2063616c6c6572000000000000006044820152606401610d45565b6001600160a01b038381166000818152606a6020908152604080832094871680845294825291829020805460ff191686151590811790915591519182527f17307eab39ab6107e8899845ad3d59bd9653f200f220920489ca2b5937696c31910160405180910390a3505050565b61299c848484612005565b6129a884848484613367565b611a2a5760405162461bcd60e51b8152600401610d45906142f8565b60606129cf82611d3b565b612a355760405162461bcd60e51b815260206004820152603160248201527f45524337323155524953746f726167653a2055524920717565727920666f72206044820152703737b732bc34b9ba32b73a103a37b5b2b760791b6064820152608401610d45565b60008281526097602052604081208054612a4e90614667565b80601f0160208091040260200160405190810160405280929190818152602001828054612a7a90614667565b8015612ac75780601f10612a9c57610100808354040283529160200191612ac7565b820191906000526020600020905b815481529060010190602001808311612aaa57829003601f168201915b505050505090506000612ad8613474565b9050805160001415612aeb575092915050565b815115612b1d578082604051602001612b05929190614204565b60405160208183030381529060405292505050919050565b61187b84613494565b6111b08161355e565b6110e682826040518060200160405280600081525061359e565b612b5282611d3b565b612bb55760405162461bcd60e51b815260206004820152602e60248201527f45524337323155524953746f726167653a2055524920736574206f66206e6f6e60448201526d32bc34b9ba32b73a103a37b5b2b760911b6064820152608401610d45565b60008281526097602090815260409091208251610e7b92840190613c10565b60006001600160e01b031982166380ac58cd60e01b1480612c0557506001600160e01b03198216635b5e139f60e01b145b80610c1957506301ffc9a760e01b6001600160e01b0319831614610c19565b60c95460ff1615610e7b5760405162461bcd60e51b8152600401610d4590614473565b60606000612c568360026145ee565b612c619060026145c2565b67ffffffffffffffff811115612c7957612c79614713565b6040519080825280601f01601f191660200182016040528015612ca3576020820181803683370190505b509050600360fc1b81600081518110612cbe57612cbe6146fd565b60200101906001600160f81b031916908160001a905350600f60fb1b81600181518110612ced57612ced6146fd565b60200101906001600160f81b031916908160001a9053506000612d118460026145ee565b612d1c9060016145c2565b90505b6001811115612d94576f181899199a1a9b1b9c1cb0b131b232b360811b85600f1660108110612d5057612d506146fd565b1a60f81b828281518110612d6657612d666146fd565b60200101906001600160f81b031916908160001a90535060049490941c93612d8d81614650565b9050612d1f565b50831561162c5760405162461bcd60e51b815260206004820181905260248201527f537472696e67733a20686578206c656e67746820696e73756666696369656e746044820152606401610d45565b803b612e475760405162461bcd60e51b815260206004820152602d60248201527f455243313936373a206e657720696d706c656d656e746174696f6e206973206e60448201526c1bdd08184818dbdb9d1c9858dd609a1b6064820152608401610d45565b7f360894a13ba1a3210667c828492db98dca3e2076cc3735a920a3ca505d382bbc80546001600160a01b0319166001600160a01b0392909216919091179055565b6060823b612ee75760405162461bcd60e51b815260206004820152602660248201527f416464726573733a2064656c65676174652063616c6c20746f206e6f6e2d636f6044820152651b9d1c9858dd60d21b6064820152608401610d45565b600080846001600160a01b031684604051612f0291906141e8565b600060405180830381855af49150503d8060008114612f3d576040519150601f19603f3d011682016040523d82523d6000602084013e612f42565b606091505b5091509150612f6a8282604051806060016040528060278152602001614763602791396135d1565b95945050505050565b612f7c81612de3565b6040516001600160a01b038216907fbc7cd75a20ee27fd9adebab32041f755214dbc6bffa90cc0225b39da2e5c2d3b90600090a250565b600054610100900460ff1680612fcc575060005460ff16155b612fe85760405162461bcd60e51b8152600401610d459061449d565b600054610100900460ff16158015612608576000805461ffff191661010117905580156111b0576000805461ff001916905550565b600054610100900460ff1680613036575060005460ff16155b6130525760405162461bcd60e51b8152600401610d459061449d565b600054610100900460ff16158015613074576000805461ffff19166101011790555b8251613087906065906020860190613c10565b50815161309b906066906020850190613c10565b508015610e7b576000805461ff0019169055505050565b600054610100900460ff16806130cb575060005460ff16155b6130e75760405162461bcd60e51b8152600401610d459061449d565b600054610100900460ff16158015613109576000805461ffff19166101011790555b60c9805460ff1916905580156111b0576000805461ff001916905550565b600054610100900460ff1680613140575060005460ff16155b61315c5760405162461bcd60e51b8152600401610d459061449d565b600054610100900460ff1615801561317e576000805461ffff19166101011790555b81518351146131ea5760405162461bcd60e51b815260206004820152603260248201527f5061796d656e7453706c69747465723a2070617965657320616e6420736861726044820152710cae640d8cadccee8d040dad2e6dac2e8c6d60731b6064820152608401610d45565b600083511161323b5760405162461bcd60e51b815260206004820152601a60248201527f5061796d656e7453706c69747465723a206e6f207061796565730000000000006044820152606401610d45565b60005b835181101561309b5761328384828151811061325c5761325c6146fd565b6020026020010151848381518110613276576132766146fd565b602002602001015161360a565b8061328d816146a2565b91505061323e565b60006132ea826040518060400160405280602081526020017f5361666545524332303a206c6f772d6c6576656c2063616c6c206661696c6564815250856001600160a01b03166137f59092919063ffffffff16565b805190915015610e7b57808060200190518101906133089190613f6e565b610e7b5760405162461bcd60e51b815260206004820152602a60248201527f5361666545524332303a204552433230206f7065726174696f6e20646964206e6044820152691bdd081cdd58d8d9595960b21b6064820152608401610d45565b60006001600160a01b0384163b1561346957604051630a85bd0160e11b81526001600160a01b0385169063150b7a02906133ab9033908990889088906004016142a8565b602060405180830381600087803b1580156133c557600080fd5b505af19250505080156133f5575060408051601f3d908101601f191682019092526133f291810190613fe6565b60015b61344f573d808015613423576040519150601f19603f3d011682016040523d82523d6000602084013e613428565b606091505b5080516134475760405162461bcd60e51b8152600401610d45906142f8565b805181602001fd5b6001600160e01b031916630a85bd0160e11b14905061187b565b506001949350505050565b60606040518060600160405280602281526020016147aa60229139905090565b606061349f82611d3b565b6135035760405162461bcd60e51b815260206004820152602f60248201527f4552433732314d657461646174613a2055524920717565727920666f72206e6f60448201526e3732bc34b9ba32b73a103a37b5b2b760891b6064820152608401610d45565b600061350d613474565b9050600081511161352d576040518060200160405280600081525061162c565b8061353784613804565b604051602001613548929190614204565b6040516020818303038152906040529392505050565b61356781613902565b6000818152609760205260409020805461358090614667565b1590506111b05760008181526097602052604081206111b091613c94565b6135a883836139a9565b6135b56000848484613367565b610e7b5760405162461bcd60e51b8152600401610d45906142f8565b606083156135e057508161162c565b8251156135f05782518084602001fd5b8160405162461bcd60e51b8152600401610d4591906142e5565b6001600160a01b0382166136755760405162461bcd60e51b815260206004820152602c60248201527f5061796d656e7453706c69747465723a206163636f756e74206973207468652060448201526b7a65726f206164647265737360a01b6064820152608401610d45565b600081116136c55760405162461bcd60e51b815260206004820152601d60248201527f5061796d656e7453706c69747465723a207368617265732061726520300000006044820152606401610d45565b6001600160a01b03821660009081526101936020526040902054156137405760405162461bcd60e51b815260206004820152602b60248201527f5061796d656e7453706c69747465723a206163636f756e7420616c726561647960448201526a206861732073686172657360a81b6064820152608401610d45565b6101958054600181019091557f54034dca961b61bc2a3147cc0c1986762915b42723ed64155364f17a2e2967700180546001600160a01b0319166001600160a01b038416908117909155600090815261019360205260409020819055610191546137ab9082906145c2565b61019155604080516001600160a01b0384168152602081018390527f40c340f65e17194d14ddddb073d3c9f888e3cb52b5aae0c6c7706b4fbc905fac910160405180910390a15050565b606061187b8484600085613ae8565b6060816138285750506040805180820190915260018152600360fc1b602082015290565b8160005b8115613852578061383c816146a2565b915061384b9050600a836145da565b915061382c565b60008167ffffffffffffffff81111561386d5761386d614713565b6040519080825280601f01601f191660200182016040528015613897576020820181803683370190505b5090505b841561187b576138ac60018361460d565b91506138b9600a866146bd565b6138c49060306145c2565b60f81b8183815181106138d9576138d96146fd565b60200101906001600160f81b031916908160001a9053506138fb600a866145da565b945061389b565b600061390d82611633565b905061391b81600084612c24565b613926600083611d58565b6001600160a01b038116600090815260686020526040812080546001929061394f90849061460d565b909155505060008281526067602052604080822080546001600160a01b0319169055518391906001600160a01b038416907fddf252ad1be2c89b69c2b068fc378daa952ba7f163c4a11628f55a4df523b3ef908390a45050565b6001600160a01b0382166139ff5760405162461bcd60e51b815260206004820181905260248201527f4552433732313a206d696e7420746f20746865207a65726f20616464726573736044820152606401610d45565b613a0881611d3b565b15613a555760405162461bcd60e51b815260206004820152601c60248201527f4552433732313a20746f6b656e20616c7265616479206d696e746564000000006044820152606401610d45565b613a6160008383612c24565b6001600160a01b0382166000908152606860205260408120805460019290613a8a9084906145c2565b909155505060008181526067602052604080822080546001600160a01b0319166001600160a01b03861690811790915590518392907fddf252ad1be2c89b69c2b068fc378daa952ba7f163c4a11628f55a4df523b3ef908290a45050565b606082471015613b495760405162461bcd60e51b815260206004820152602660248201527f416464726573733a20696e73756666696369656e742062616c616e636520666f6044820152651c8818d85b1b60d21b6064820152608401610d45565b843b613b975760405162461bcd60e51b815260206004820152601d60248201527f416464726573733a2063616c6c20746f206e6f6e2d636f6e74726163740000006044820152606401610d45565b600080866001600160a01b03168587604051613bb391906141e8565b60006040518083038185875af1925050503d8060008114613bf0576040519150601f19603f3d011682016040523d82523d6000602084013e613bf5565b606091505b5091509150613c058282866135d1565b979650505050505050565b828054613c1c90614667565b90600052602060002090601f016020900481019282613c3e5760008555613c84565b82601f10613c5757805160ff1916838001178555613c84565b82800160010185558215613c84579182015b82811115613c84578251825591602001919060010190613c69565b50613c90929150613cca565b5090565b508054613ca090614667565b6000825580601f10613cb0575050565b601f0160209004906000526020600020908101906111b091905b5b80821115613c905760008155600101613ccb565b600082601f830112613cf057600080fd5b81356020613d05613d008361459e565b61456d565b80838252828201915082860187848660051b8901011115613d2557600080fd5b60005b85811015613d4457813584529284019290840190600101613d28565b5090979650505050505050565b600082601f830112613d6257600080fd5b813567ffffffffffffffff811115613d7c57613d7c614713565b613d8f601f8201601f191660200161456d565b818152846020838601011115613da457600080fd5b816020850160208301376000918101602001919091529392505050565b600060208284031215613dd357600080fd5b813561162c81614729565b60008060408385031215613df157600080fd5b8235613dfc81614729565b91506020830135613e0c81614729565b809150509250929050565b600080600060608486031215613e2c57600080fd5b8335613e3781614729565b92506020840135613e4781614729565b929592945050506040919091013590565b60008060008060808587031215613e6e57600080fd5b8435613e7981614729565b93506020850135613e8981614729565b925060408501359150606085013567ffffffffffffffff811115613eac57600080fd5b613eb887828801613d51565b91505092959194509250565b60008060408385031215613ed757600080fd5b8235613ee281614729565b91506020830135613e0c8161473e565b60008060408385031215613f0557600080fd5b8235613f1081614729565b9150602083013567ffffffffffffffff811115613f2c57600080fd5b613f3885828601613d51565b9150509250929050565b60008060408385031215613f5557600080fd5b8235613f6081614729565b946020939093013593505050565b600060208284031215613f8057600080fd5b815161162c8161473e565b600060208284031215613f9d57600080fd5b5035919050565b60008060408385031215613fb757600080fd5b823591506020830135613e0c81614729565b600060208284031215613fdb57600080fd5b813561162c8161474c565b600060208284031215613ff857600080fd5b815161162c8161474c565b60006020828403121561401557600080fd5b813567ffffffffffffffff81111561402c57600080fd5b61187b84828501613d51565b6000806000806080858703121561404e57600080fd5b843567ffffffffffffffff8082111561406657600080fd5b61407288838901613d51565b955060209150818701358181111561408957600080fd5b61409589828a01613d51565b9550506040870135818111156140aa57600080fd5b8701601f810189136140bb57600080fd5b80356140c9613d008261459e565b8082825285820191508584018c878560051b87010111156140e957600080fd5b600094505b8385101561411557803561410181614729565b8352600194909401939186019186016140ee565b509650505050606087013591508082111561412f57600080fd5b50613eb887828801613cdf565b6000806040838503121561414f57600080fd5b823567ffffffffffffffff81111561416657600080fd5b61417285828601613d51565b95602094909401359450505050565b60006020828403121561419357600080fd5b5051919050565b600080604083850312156141ad57600080fd5b50508035926020909101359150565b600081518084526141d4816020860160208601614624565b601f01601f19169290920160200192915050565b600082516141fa818460208701614624565b9190910192915050565b60008351614216818460208801614624565b83519083019061422a818360208801614624565b01949350505050565b7f416363657373436f6e74726f6c3a206163636f756e742000000000000000000081526000835161426b816017850160208801614624565b7001034b99036b4b9b9b4b733903937b6329607d1b601791840191820152835161429c816028840160208801614624565b01602801949350505050565b6001600160a01b03858116825284166020820152604081018390526080606082018190526000906142db908301846141bc565b9695505050505050565b60208152600061162c60208301846141bc565b60208082526032908201527f4552433732313a207472616e7366657220746f206e6f6e20455243373231526560408201527131b2b4bb32b91034b6b83632b6b2b73a32b960711b606082015260800190565b6020808252602c908201527f46756e6374696f6e206d7573742062652063616c6c6564207468726f7567682060408201526b19195b1959d85d1958d85b1b60a21b606082015260800190565b60208082526026908201527f5061796d656e7453706c69747465723a206163636f756e7420686173206e6f2060408201526573686172657360d01b606082015260800190565b6020808252602c908201527f46756e6374696f6e206d7573742062652063616c6c6564207468726f7567682060408201526b6163746976652070726f787960a01b606082015260800190565b6020808252602b908201527f5061796d656e7453706c69747465723a206163636f756e74206973206e6f742060408201526a191d59481c185e5b595b9d60aa1b606082015260800190565b60208082526010908201526f14185d5cd8589b194e881c185d5cd95960821b604082015260600190565b6020808252602e908201527f496e697469616c697a61626c653a20636f6e747261637420697320616c72656160408201526d191e481a5b9a5d1a585b1a5e995960921b606082015260800190565b60208082526031908201527f4552433732313a207472616e736665722063616c6c6572206973206e6f74206f6040820152701ddb995c881b9bdc88185c1c1c9bdd9959607a1b606082015260800190565b83815260606020820152600061455560608301856141bc565b905060018060a01b0383166040830152949350505050565b604051601f8201601f1916810167ffffffffffffffff8111828210171561459657614596614713565b604052919050565b600067ffffffffffffffff8211156145b8576145b8614713565b5060051b60200190565b600082198211156145d5576145d56146d1565b500190565b6000826145e9576145e96146e7565b500490565b6000816000190483118215151615614608576146086146d1565b500290565b60008282101561461f5761461f6146d1565b500390565b60005b8381101561463f578181015183820152602001614627565b83811115611a2a5750506000910152565b60008161465f5761465f6146d1565b506000190190565b600181811c9082168061467b57607f821691505b6020821081141561469c57634e487b7160e01b600052602260045260246000fd5b50919050565b60006000198214156146b6576146b66146d1565b5060010190565b6000826146cc576146cc6146e7565b500690565b634e487b7160e01b600052601160045260246000fd5b634e487b7160e01b600052601260045260246000fd5b634e487b7160e01b600052603260045260246000fd5b634e487b7160e01b600052604160045260246000fd5b6001600160a01b03811681146111b057600080fd5b80151581146111b057600080fd5b6001600160e01b0319811681146111b057600080fdfe416464726573733a206c6f772d6c6576656c2064656c65676174652063616c6c206661696c65649f2df0fed2c77648de5860a4cc508cd0818c85b8b8a1ab4ceeef8d981c8956a668747470733a2f2f63727970746f776f7264732e6172742f6170692f746f6b656e2fa26469706673582212203c67f512e9746c6bb9060c006b997b86a788ebae57d73c3bcc02c05afdaf697664736f6c63430008070033",
  "linkReferences": {},
  "deployedLinkReferences": {}
}