{
  "_format": "hh-sol-artifact-1",
  "contractName": "CryptoWordsV1",
  "sourceName": "contracts/CryptoWordsV1.sol",
  "abi": [
    {
      "anonymous": false,
      "inputs": [
        {
          "indexed": false,
          "internalType": "address",
          "name": "previousAdmin",
          "type": "address"
        },
        {
          "indexed": false,
          "internalType": "address",
          "name": "newAdmin",
          "type": "address"
        }
      ],
      "name": "AdminChanged",
      "type": "event"
    },
    {
      "anonymous": false,
      "inputs": [
        {
          "indexed": true,
          "internalType": "address",
          "name": "owner",
          "type": "address"
        },
        {
          "indexed": true,
          "internalType": "address",
          "name": "approved",
          "type": "address"
        },
        {
          "indexed": true,
          "internalType": "uint256",
          "name": "tokenId",
          "type": "uint256"
        }
      ],
      "name": "Approval",
      "type": "event"
    },
    {
      "anonymous": false,
      "inputs": [
        {
          "indexed": true,
          "internalType": "address",
          "name": "owner",
          "type": "address"
        },
        {
          "indexed": true,
          "internalType": "address",
          "name": "operator",
          "type": "address"
        },
        {
          "indexed": false,
          "internalType": "bool",
          "name": "approved",
          "type": "bool"
        }
      ],
      "name": "ApprovalForAll",
      "type": "event"
    },
    {
      "anonymous": false,
      "inputs": [
        {
          "indexed": true,
          "internalType": "address",
          "name": "beacon",
          "type": "address"
        }
      ],
      "name": "BeaconUpgraded",
      "type": "event"
    },
    {
      "anonymous": false,
      "inputs": [
        {
          "indexed": true,
          "internalType": "contract IERC20Upgradeable",
          "name": "token",
          "type": "address"
        },
        {
          "indexed": false,
          "internalType": "address",
          "name": "to",
          "type": "address"
        },
        {
          "indexed": false,
          "internalType": "uint256",
          "name": "amount",
          "type": "uint256"
        }
      ],
      "name": "ERC20PaymentReleased",
      "type": "event"
    },
    {
      "anonymous": false,
      "inputs": [
        {
          "indexed": false,
          "internalType": "address",
          "name": "account",
          "type": "address"
        }
      ],
      "name": "Paused",
      "type": "event"
    },
    {
      "anonymous": false,
      "inputs": [
        {
          "indexed": false,
          "internalType": "address",
          "name": "account",
          "type": "address"
        },
        {
          "indexed": false,
          "internalType": "uint256",
          "name": "shares",
          "type": "uint256"
        }
      ],
      "name": "PayeeAdded",
      "type": "event"
    },
    {
      "anonymous": false,
      "inputs": [
        {
          "indexed": false,
          "internalType": "address",
          "name": "from",
          "type": "address"
        },
        {
          "indexed": false,
          "internalType": "uint256",
          "name": "amount",
          "type": "uint256"
        }
      ],
      "name": "PaymentReceived",
      "type": "event"
    },
    {
      "anonymous": false,
      "inputs": [
        {
          "indexed": false,
          "internalType": "address",
          "name": "to",
          "type": "address"
        },
        {
          "indexed": false,
          "internalType": "uint256",
          "name": "amount",
          "type": "uint256"
        }
      ],
      "name": "PaymentReleased",
      "type": "event"
    },
    {
      "anonymous": false,
      "inputs": [
        {
          "indexed": true,
          "internalType": "bytes32",
          "name": "role",
          "type": "bytes32"
        },
        {
          "indexed": true,
          "internalType": "bytes32",
          "name": "previousAdminRole",
          "type": "bytes32"
        },
        {
          "indexed": true,
          "internalType": "bytes32",
          "name": "newAdminRole",
          "type": "bytes32"
        }
      ],
      "name": "RoleAdminChanged",
      "type": "event"
    },
    {
      "anonymous": false,
      "inputs": [
        {
          "indexed": true,
          "internalType": "bytes32",
          "name": "role",
          "type": "bytes32"
        },
        {
          "indexed": true,
          "internalType": "address",
          "name": "account",
          "type": "address"
        },
        {
          "indexed": true,
          "internalType": "address",
          "name": "sender",
          "type": "address"
        }
      ],
      "name": "RoleGranted",
      "type": "event"
    },
    {
      "anonymous": false,
      "inputs": [
        {
          "indexed": true,
          "internalType": "bytes32",
          "name": "role",
          "type": "bytes32"
        },
        {
          "indexed": true,
          "internalType": "address",
          "name": "account",
          "type": "address"
        },
        {
          "indexed": true,
          "internalType": "address",
          "name": "sender",
          "type": "address"
        }
      ],
      "name": "RoleRevoked",
      "type": "event"
    },
    {
      "anonymous": false,
      "inputs": [
        {
          "indexed": true,
          "internalType": "address",
          "name": "from",
          "type": "address"
        },
        {
          "indexed": true,
          "internalType": "address",
          "name": "to",
          "type": "address"
        },
        {
          "indexed": true,
          "internalType": "uint256",
          "name": "tokenId",
          "type": "uint256"
        }
      ],
      "name": "Transfer",
      "type": "event"
    },
    {
      "anonymous": false,
      "inputs": [
        {
          "indexed": false,
          "internalType": "address",
          "name": "account",
          "type": "address"
        }
      ],
      "name": "Unpaused",
      "type": "event"
    },
    {
      "anonymous": false,
      "inputs": [
        {
          "indexed": true,
          "internalType": "address",
          "name": "implementation",
          "type": "address"
        }
      ],
      "name": "Upgraded",
      "type": "event"
    },
    {
      "anonymous": false,
      "inputs": [
        {
          "indexed": false,
          "internalType": "uint256",
          "name": "tokenId",
          "type": "uint256"
        },
        {
          "indexed": false,
          "internalType": "string",
          "name": "word",
          "type": "string"
        },
        {
          "indexed": false,
          "internalType": "address",
          "name": "to",
          "type": "address"
        }
      ],
      "name": "WordMinted",
      "type": "event"
    },
    {
      "inputs": [],
      "name": "DEFAULT_ADMIN_ROLE",
      "outputs": [
        {
          "internalType": "bytes32",
          "name": "",
          "type": "bytes32"
        }
      ],
      "stateMutability": "view",
      "type": "function"
    },
    {
      "inputs": [],
      "name": "DISCOUNTED_ROLE",
      "outputs": [
        {
          "internalType": "bytes32",
          "name": "",
          "type": "bytes32"
        }
      ],
      "stateMutability": "view",
      "type": "function"
    },
    {
      "inputs": [],
      "name": "MINTER_ROLE",
      "outputs": [
        {
          "internalType": "bytes32",
          "name": "",
          "type": "bytes32"
        }
      ],
      "stateMutability": "view",
      "type": "function"
    },
    {
      "inputs": [
        {
          "internalType": "address",
          "name": "to",
          "type": "address"
        },
        {
          "internalType": "uint256",
          "name": "tokenId",
          "type": "uint256"
        }
      ],
      "name": "approve",
      "outputs": [],
      "stateMutability": "nonpayable",
      "type": "function"
    },
    {
      "inputs": [],
      "name": "artist",
      "outputs": [
        {
          "internalType": "address",
          "name": "",
          "type": "address"
        }
      ],
      "stateMutability": "view",
      "type": "function"
    },
    {
      "inputs": [
        {
          "internalType": "address",
          "name": "owner",
          "type": "address"
        }
      ],
      "name": "balanceOf",
      "outputs": [
        {
          "internalType": "uint256",
          "name": "",
          "type": "uint256"
        }
      ],
      "stateMutability": "view",
      "type": "function"
    },
    {
      "inputs": [
        {
          "internalType": "uint256",
          "name": "tokenId",
          "type": "uint256"
        }
      ],
      "name": "burnByTokenId",
      "outputs": [],
      "stateMutability": "nonpayable",
      "type": "function"
    },
    {
      "inputs": [],
      "name": "defaultPrice",
      "outputs": [
        {
          "internalType": "uint256",
          "name": "",
          "type": "uint256"
        }
      ],
      "stateMutability": "view",
      "type": "function"
    },
    {
      "inputs": [
        {
          "internalType": "string",
          "name": "_word",
          "type": "string"
        }
      ],
      "name": "deleteCustomPriceByWord",
      "outputs": [],
      "stateMutability": "nonpayable",
      "type": "function"
    },
    {
      "inputs": [
        {
          "internalType": "string",
          "name": "_word",
          "type": "string"
        }
      ],
      "name": "deleteMaxInstancesByWord",
      "outputs": [],
      "stateMutability": "nonpayable",
      "type": "function"
    },
    {
      "inputs": [],
      "name": "discountPercentage",
      "outputs": [
        {
          "internalType": "uint256",
          "name": "",
          "type": "uint256"
        }
      ],
      "stateMutability": "view",
      "type": "function"
    },
    {
      "inputs": [],
      "name": "discountPercentageGlobal",
      "outputs": [
        {
          "internalType": "uint256",
          "name": "",
          "type": "uint256"
        }
      ],
      "stateMutability": "view",
      "type": "function"
    },
    {
      "inputs": [
        {
          "internalType": "uint256",
          "name": "tokenId",
          "type": "uint256"
        }
      ],
      "name": "getApproved",
      "outputs": [
        {
          "internalType": "address",
          "name": "",
          "type": "address"
        }
      ],
      "stateMutability": "view",
      "type": "function"
    },
    {
      "inputs": [
        {
          "internalType": "string",
          "name": "_word",
          "type": "string"
        }
      ],
      "name": "getCustomPriceByWord",
      "outputs": [
        {
          "internalType": "uint256",
          "name": "",
          "type": "uint256"
        }
      ],
      "stateMutability": "view",
      "type": "function"
    },
    {
      "inputs": [
        {
          "internalType": "string",
          "name": "_word",
          "type": "string"
        }
      ],
      "name": "getInstancesAvailable",
      "outputs": [
        {
          "internalType": "uint256",
          "name": "",
          "type": "uint256"
        }
      ],
      "stateMutability": "view",
      "type": "function"
    },
    {
      "inputs": [
        {
          "internalType": "string",
          "name": "_word",
          "type": "string"
        }
      ],
      "name": "getMaxInstancesByWord",
      "outputs": [
        {
          "internalType": "uint256",
          "name": "",
          "type": "uint256"
        }
      ],
      "stateMutability": "view",
      "type": "function"
    },
    {
      "inputs": [
        {
          "internalType": "address",
          "name": "account",
          "type": "address"
        },
        {
          "internalType": "string",
          "name": "_word",
          "type": "string"
        }
      ],
      "name": "getPrice",
      "outputs": [
        {
          "internalType": "uint256",
          "name": "",
          "type": "uint256"
        }
      ],
      "stateMutability": "view",
      "type": "function"
    },
    {
      "inputs": [
        {
          "internalType": "bytes32",
          "name": "role",
          "type": "bytes32"
        }
      ],
      "name": "getRoleAdmin",
      "outputs": [
        {
          "internalType": "bytes32",
          "name": "",
          "type": "bytes32"
        }
      ],
      "stateMutability": "view",
      "type": "function"
    },
    {
      "inputs": [
        {
          "internalType": "string",
          "name": "_word",
          "type": "string"
        }
      ],
      "name": "getWordInstances",
      "outputs": [
        {
          "internalType": "uint256",
          "name": "",
          "type": "uint256"
        }
      ],
      "stateMutability": "view",
      "type": "function"
    },
    {
      "inputs": [
        {
          "internalType": "bytes32",
          "name": "role",
          "type": "bytes32"
        },
        {
          "internalType": "address",
          "name": "account",
          "type": "address"
        }
      ],
      "name": "grantRole",
      "outputs": [],
      "stateMutability": "nonpayable",
      "type": "function"
    },
    {
      "inputs": [
        {
          "internalType": "bytes32",
          "name": "role",
          "type": "bytes32"
        },
        {
          "internalType": "address",
          "name": "account",
          "type": "address"
        }
      ],
      "name": "hasRole",
      "outputs": [
        {
          "internalType": "bool",
          "name": "",
          "type": "bool"
        }
      ],
      "stateMutability": "view",
      "type": "function"
    },
    {
      "inputs": [
        {
          "internalType": "string",
          "name": "name",
          "type": "string"
        },
        {
          "internalType": "string",
          "name": "symbol",
          "type": "string"
        },
        {
          "internalType": "address[]",
          "name": "payees",
          "type": "address[]"
        },
        {
          "internalType": "uint256[]",
          "name": "shares",
          "type": "uint256[]"
        }
      ],
      "name": "initialize",
      "outputs": [],
      "stateMutability": "nonpayable",
      "type": "function"
    },
    {
      "inputs": [
        {
          "internalType": "address",
          "name": "owner",
          "type": "address"
        },
        {
          "internalType": "address",
          "name": "operator",
          "type": "address"
        }
      ],
      "name": "isApprovedForAll",
      "outputs": [
        {
          "internalType": "bool",
          "name": "",
          "type": "bool"
        }
      ],
      "stateMutability": "view",
      "type": "function"
    },
    {
      "inputs": [],
      "name": "maxInstances",
      "outputs": [
        {
          "internalType": "uint256",
          "name": "",
          "type": "uint256"
        }
      ],
      "stateMutability": "view",
      "type": "function"
    },
    {
      "inputs": [],
      "name": "name",
      "outputs": [
        {
          "internalType": "string",
          "name": "",
          "type": "string"
        }
      ],
      "stateMutability": "view",
      "type": "function"
    },
    {
      "inputs": [
        {
          "internalType": "uint256",
          "name": "tokenId",
          "type": "uint256"
        }
      ],
      "name": "ownerOf",
      "outputs": [
        {
          "internalType": "address",
          "name": "",
          "type": "address"
        }
      ],
      "stateMutability": "view",
      "type": "function"
    },
    {
      "inputs": [],
      "name": "pause",
      "outputs": [],
      "stateMutability": "nonpayable",
      "type": "function"
    },
    {
      "inputs": [],
      "name": "paused",
      "outputs": [
        {
          "internalType": "bool",
          "name": "",
          "type": "bool"
        }
      ],
      "stateMutability": "view",
      "type": "function"
    },
    {
      "inputs": [
        {
          "internalType": "uint256",
          "name": "index",
          "type": "uint256"
        }
      ],
      "name": "payee",
      "outputs": [
        {
          "internalType": "address",
          "name": "",
          "type": "address"
        }
      ],
      "stateMutability": "view",
      "type": "function"
    },
    {
      "inputs": [
        {
          "internalType": "address",
          "name": "to",
          "type": "address"
        },
        {
          "internalType": "string",
          "name": "_word",
          "type": "string"
        }
      ],
      "name": "purchaseWord",
      "outputs": [],
      "stateMutability": "payable",
      "type": "function"
    },
    {
      "inputs": [
        {
          "internalType": "address payable",
          "name": "account",
          "type": "address"
        }
      ],
      "name": "release",
      "outputs": [],
      "stateMutability": "nonpayable",
      "type": "function"
    },
    {
      "inputs": [
        {
          "internalType": "contract IERC20Upgradeable",
          "name": "token",
          "type": "address"
        },
        {
          "internalType": "address",
          "name": "account",
          "type": "address"
        }
      ],
      "name": "release",
      "outputs": [],
      "stateMutability": "nonpayable",
      "type": "function"
    },
    {
      "inputs": [
        {
          "internalType": "contract IERC20Upgradeable",
          "name": "token",
          "type": "address"
        },
        {
          "internalType": "address",
          "name": "account",
          "type": "address"
        }
      ],
      "name": "released",
      "outputs": [
        {
          "internalType": "uint256",
          "name": "",
          "type": "uint256"
        }
      ],
      "stateMutability": "view",
      "type": "function"
    },
    {
      "inputs": [
        {
          "internalType": "address",
          "name": "account",
          "type": "address"
        }
      ],
      "name": "released",
      "outputs": [
        {
          "internalType": "uint256",
          "name": "",
          "type": "uint256"
        }
      ],
      "stateMutability": "view",
      "type": "function"
    },
    {
      "inputs": [
        {
          "internalType": "bytes32",
          "name": "role",
          "type": "bytes32"
        },
        {
          "internalType": "address",
          "name": "account",
          "type": "address"
        }
      ],
      "name": "renounceRole",
      "outputs": [],
      "stateMutability": "nonpayable",
      "type": "function"
    },
    {
      "inputs": [
        {
          "internalType": "bytes32",
          "name": "role",
          "type": "bytes32"
        },
        {
          "internalType": "address",
          "name": "account",
          "type": "address"
        }
      ],
      "name": "revokeRole",
      "outputs": [],
      "stateMutability": "nonpayable",
      "type": "function"
    },
    {
      "inputs": [],
      "name": "royaltiesPercentage",
      "outputs": [
        {
          "internalType": "uint256",
          "name": "",
          "type": "uint256"
        }
      ],
      "stateMutability": "view",
      "type": "function"
    },
    {
      "inputs": [
        {
          "internalType": "uint256",
          "name": "_tokenId",
          "type": "uint256"
        },
        {
          "internalType": "uint256",
          "name": "_salePrice",
          "type": "uint256"
        }
      ],
      "name": "royaltyInfo",
      "outputs": [
        {
          "internalType": "address",
          "name": "receiver",
          "type": "address"
        },
        {
          "internalType": "uint256",
          "name": "royaltyAmount",
          "type": "uint256"
        }
      ],
      "stateMutability": "view",
      "type": "function"
    },
    {
      "inputs": [
        {
          "internalType": "address",
          "name": "from",
          "type": "address"
        },
        {
          "internalType": "address",
          "name": "to",
          "type": "address"
        },
        {
          "internalType": "uint256",
          "name": "tokenId",
          "type": "uint256"
        }
      ],
      "name": "safeTransferFrom",
      "outputs": [],
      "stateMutability": "nonpayable",
      "type": "function"
    },
    {
      "inputs": [
        {
          "internalType": "address",
          "name": "from",
          "type": "address"
        },
        {
          "internalType": "address",
          "name": "to",
          "type": "address"
        },
        {
          "internalType": "uint256",
          "name": "tokenId",
          "type": "uint256"
        },
        {
          "internalType": "bytes",
          "name": "_data",
          "type": "bytes"
        }
      ],
      "name": "safeTransferFrom",
      "outputs": [],
      "stateMutability": "nonpayable",
      "type": "function"
    },
    {
      "inputs": [
        {
          "internalType": "address",
          "name": "operator",
          "type": "address"
        },
        {
          "internalType": "bool",
          "name": "approved",
          "type": "bool"
        }
      ],
      "name": "setApprovalForAll",
      "outputs": [],
      "stateMutability": "nonpayable",
      "type": "function"
    },
    {
      "inputs": [
        {
          "internalType": "string",
          "name": "_word",
          "type": "string"
        },
        {
          "internalType": "uint256",
          "name": "price",
          "type": "uint256"
        }
      ],
      "name": "setCustomPriceByWord",
      "outputs": [],
      "stateMutability": "nonpayable",
      "type": "function"
    },
    {
      "inputs": [
        {
          "internalType": "uint256",
          "name": "price",
          "type": "uint256"
        }
      ],
      "name": "setDefaultPrice",
      "outputs": [],
      "stateMutability": "nonpayable",
      "type": "function"
    },
    {
      "inputs": [
        {
          "internalType": "uint256",
          "name": "percentage",
          "type": "uint256"
        }
      ],
      "name": "setDiscountPercentage",
      "outputs": [],
      "stateMutability": "nonpayable",
      "type": "function"
    },
    {
      "inputs": [
        {
          "internalType": "uint256",
          "name": "percentage",
          "type": "uint256"
        }
      ],
      "name": "setDiscountPercentageGlobal",
      "outputs": [],
      "stateMutability": "nonpayable",
      "type": "function"
    },
    {
      "inputs": [
        {
          "internalType": "uint256",
          "name": "instances",
          "type": "uint256"
        }
      ],
      "name": "setMaxInstances",
      "outputs": [],
      "stateMutability": "nonpayable",
      "type": "function"
    },
    {
      "inputs": [
        {
          "internalType": "string",
          "name": "_word",
          "type": "string"
        },
        {
          "internalType": "uint256",
          "name": "instances",
          "type": "uint256"
        }
      ],
      "name": "setMaxInstancesByWord",
      "outputs": [],
      "stateMutability": "nonpayable",
      "type": "function"
    },
    {
      "inputs": [
        {
          "internalType": "address",
          "name": "newRoyaltiesReceiver",
          "type": "address"
        }
      ],
      "name": "setRoyaltiesReceiver",
      "outputs": [],
      "stateMutability": "nonpayable",
      "type": "function"
    },
    {
      "inputs": [
        {
          "internalType": "address",
          "name": "account",
          "type": "address"
        }
      ],
      "name": "shares",
      "outputs": [
        {
          "internalType": "uint256",
          "name": "",
          "type": "uint256"
        }
      ],
      "stateMutability": "view",
      "type": "function"
    },
    {
      "inputs": [
        {
          "internalType": "bytes4",
          "name": "interfaceId",
          "type": "bytes4"
        }
      ],
      "name": "supportsInterface",
      "outputs": [
        {
          "internalType": "bool",
          "name": "",
          "type": "bool"
        }
      ],
      "stateMutability": "view",
      "type": "function"
    },
    {
      "inputs": [],
      "name": "symbol",
      "outputs": [
        {
          "internalType": "string",
          "name": "",
          "type": "string"
        }
      ],
      "stateMutability": "view",
      "type": "function"
    },
    {
      "inputs": [
        {
          "internalType": "uint256",
          "name": "tokenId",
          "type": "uint256"
        }
      ],
      "name": "tokenURI",
      "outputs": [
        {
          "internalType": "string",
          "name": "",
          "type": "string"
        }
      ],
      "stateMutability": "view",
      "type": "function"
    },
    {
      "inputs": [
        {
          "internalType": "contract IERC20Upgradeable",
          "name": "token",
          "type": "address"
        }
      ],
      "name": "totalReleased",
      "outputs": [
        {
          "internalType": "uint256",
          "name": "",
          "type": "uint256"
        }
      ],
      "stateMutability": "view",
      "type": "function"
    },
    {
      "inputs": [],
      "name": "totalReleased",
      "outputs": [
        {
          "internalType": "uint256",
          "name": "",
          "type": "uint256"
        }
      ],
      "stateMutability": "view",
      "type": "function"
    },
    {
      "inputs": [],
      "name": "totalShares",
      "outputs": [
        {
          "internalType": "uint256",
          "name": "",
          "type": "uint256"
        }
      ],
      "stateMutability": "view",
      "type": "function"
    },
    {
      "inputs": [],
      "name": "totalSupply",
      "outputs": [
        {
          "internalType": "uint256",
          "name": "",
          "type": "uint256"
        }
      ],
      "stateMutability": "view",
      "type": "function"
    },
    {
      "inputs": [
        {
          "internalType": "address",
          "name": "from",
          "type": "address"
        },
        {
          "internalType": "address",
          "name": "to",
          "type": "address"
        },
        {
          "internalType": "uint256",
          "name": "tokenId",
          "type": "uint256"
        }
      ],
      "name": "transferFrom",
      "outputs": [],
      "stateMutability": "nonpayable",
      "type": "function"
    },
    {
      "inputs": [],
      "name": "unpause",
      "outputs": [],
      "stateMutability": "nonpayable",
      "type": "function"
    },
    {
      "inputs": [
        {
          "internalType": "address",
          "name": "newImplementation",
          "type": "address"
        }
      ],
      "name": "upgradeTo",
      "outputs": [],
      "stateMutability": "nonpayable",
      "type": "function"
    },
    {
      "inputs": [
        {
          "internalType": "address",
          "name": "newImplementation",
          "type": "address"
        },
        {
          "internalType": "bytes",
          "name": "data",
          "type": "bytes"
        }
      ],
      "name": "upgradeToAndCall",
      "outputs": [],
      "stateMutability": "payable",
      "type": "function"
    },
    {
      "inputs": [
        {
          "internalType": "string",
          "name": "_word",
          "type": "string"
        }
      ],
      "name": "wordAvailable",
      "outputs": [
        {
          "internalType": "bool",
          "name": "",
          "type": "bool"
        }
      ],
      "stateMutability": "view",
      "type": "function"
    },
    {
      "stateMutability": "payable",
      "type": "receive"
    }
  ],
  "bytecode": "0x60a06040523060601b60805234801561001757600080fd5b5060805160601c61490661004b600039600081816111260152818161116601528181611623015261166301526149066000f3fe6080604052600436106103a65760003560e01c80637386ca3e116101e7578063b51437151161010d578063d5391393116100a0578063e33b7de31161006f578063e33b7de314610b7e578063e69e04b314610b94578063e985e9c514610bab578063edf4619614610bf457600080fd5b8063d539139314610ae5578063d547741f14610b07578063d79779b214610b27578063dd08eae014610b5e57600080fd5b8063cafa8dfe116100dc578063cafa8dfe14610a64578063cc14f2f514610a7b578063ce7c2ac214610a9b578063d0fd890d14610ad257600080fd5b8063b5143715146109e4578063b88d4fde14610a04578063c5e885e414610a24578063c87b56dd14610a4457600080fd5b806395d89b4111610185578063a7abb8b711610154578063a7abb8b714610959578063aef9455d1461098d578063b3428d15146109ad578063b3fa9f24146109cd57600080fd5b806395d89b41146108d85780639852595c146108ed578063a217fddf14610924578063a22cb4651461093957600080fd5b80638456cb59116101c15780638456cb5914610863578063845bcce1146108785780638b83209b1461089857806391d14854146108b857600080fd5b80637386ca3e1461080357806376977a3a1461082357806377500c541461084357600080fd5b80633cad9587116102cc5780634f1ef2861161026a5780636352211e116102395780636352211e146107835780636d3c7ec5146107a357806370868d6f146107c357806370a08231146107e357600080fd5b80634f1ef2861461072157806359fb3e60146107345780635b4b51cf1461074b5780635c975abb1461076b57600080fd5b806342842e0e116102a657806342842e0e146106a057806343bc1612146106c0578063445d9787146106e157806348b750441461070157600080fd5b80633cad9587146106245780633f4ba83a14610644578063406072a91461065957600080fd5b806323b872dd116103445780632f2ff15d116103135780632f2ff15d146105ae57806336568abe146105ce5780633659cfe6146105ee5780633a98ef391461060e57600080fd5b806323b872dd14610508578063248a9ca3146105285780632a55205a146105585780632f0f0dac1461059757600080fd5b8063081812fc11610380578063081812fc14610479578063095ea7b3146104b157806318160ddd146104d357806319165587146104e857600080fd5b806301ffc9a7146103f4578063027e11a71461042957806306fdde031461045757600080fd5b366103ef577f6ef95f06320e7a25a04a175ca677b7052bdd97131872c2192525a629f51be77033604080516001600160a01b0390921682523460208301520160405180910390a1005b600080fd5b34801561040057600080fd5b5061041461040f3660046140ce565b610c14565b60405190151581526020015b60405180910390f35b34801561043557600080fd5b50610449610444366004614108565b610c3f565b604051908152602001610420565b34801561046357600080fd5b5061046c610c6b565b60405161042091906143ea565b34801561048557600080fd5b50610499610494366004614090565b610cfd565b6040516001600160a01b039091168152602001610420565b3480156104bd57600080fd5b506104d16104cc366004614047565b610d8a565b005b3480156104df57600080fd5b50610449610ea0565b3480156104f457600080fd5b506104d1610503366004613ec6565b610eb1565b34801561051457600080fd5b506104d1610523366004613f1c565b610fe4565b34801561053457600080fd5b50610449610543366004614090565b600090815260fb602052604090206001015490565b34801561056457600080fd5b5061057861057336600461429f565b611015565b604080516001600160a01b039093168352602083019190915201610420565b3480156105a357600080fd5b506104496101c75481565b3480156105ba57600080fd5b506104d16105c93660046140a9565b611077565b3480156105da57600080fd5b506104d16105e93660046140a9565b61109d565b3480156105fa57600080fd5b506104d1610609366004613ec6565b61111b565b34801561061a57600080fd5b5061019154610449565b34801561063057600080fd5b506104d161063f366004614108565b6111e4565b34801561065057600080fd5b506104d161121a565b34801561066557600080fd5b50610449610674366004613ee3565b6001600160a01b0391821660009081526101976020908152604080832093909416825291909152205490565b3480156106ac57600080fd5b506104d16106bb366004613f1c565b61122e565b3480156106cc57600080fd5b506101c454610499906001600160a01b031681565b3480156106ed57600080fd5b506104d16106fc36600461413d565b611249565b34801561070d57600080fd5b506104d161071c366004613ee3565b61142b565b6104d161072f366004613ff7565b611618565b34801561074057600080fd5b506104496101c55481565b34801561075757600080fd5b50610449610766366004614108565b6116ce565b34801561077757600080fd5b5060c95460ff16610414565b34801561078f57600080fd5b5061049961079e366004614090565b611742565b3480156107af57600080fd5b506104d16107be366004614090565b6117b9565b3480156107cf57600080fd5b506104496107de366004614108565b6117dc565b3480156107ef57600080fd5b506104496107fe366004613ec6565b611808565b34801561080f57600080fd5b506104d161081e366004614241565b61188f565b34801561082f57600080fd5b5061044961083e366004613ff7565b6118f4565b34801561084f57600080fd5b5061041461085e366004614108565b611992565b34801561086f57600080fd5b506104d16119c8565b34801561088457600080fd5b506104d1610893366004614090565b6119dc565b3480156108a457600080fd5b506104996108b3366004614090565b6119ff565b3480156108c457600080fd5b506104146108d33660046140a9565b611a30565b3480156108e457600080fd5b5061046c611a5b565b3480156108f957600080fd5b50610449610908366004613ec6565b6001600160a01b03166000908152610194602052604090205490565b34801561093057600080fd5b50610449600081565b34801561094557600080fd5b506104d1610954366004613fc9565b611a6a565b34801561096557600080fd5b506104497ff9e9e1c8035f82fd72c5438c5719fd5349deacb4207f4fcbbda606cb5a39d50981565b34801561099957600080fd5b506104d16109a8366004614090565b611a75565b3480156109b957600080fd5b506104d16109c8366004614090565b611a98565b3480156109d957600080fd5b506104496101c85481565b3480156109f057600080fd5b506104d16109ff366004613ec6565b611abb565b348015610a1057600080fd5b506104d1610a1f366004613f5d565b611b07565b348015610a3057600080fd5b506104d1610a3f366004614241565b611b3f565b348015610a5057600080fd5b5061046c610a5f366004614090565b611ba4565b348015610a7057600080fd5b506104496101c95481565b348015610a8757600080fd5b506104d1610a96366004614090565b611baf565b348015610aa757600080fd5b50610449610ab6366004613ec6565b6001600160a01b03166000908152610193602052604090205490565b6104d1610ae0366004613ff7565b611bc4565b348015610af157600080fd5b5061044960008051602061488f83398151915281565b348015610b1357600080fd5b506104d1610b223660046140a9565b611d9d565b348015610b3357600080fd5b50610449610b42366004613ec6565b6001600160a01b03166000908152610196602052604090205490565b348015610b6a57600080fd5b50610449610b79366004614108565b611dc3565b348015610b8a57600080fd5b5061019254610449565b348015610ba057600080fd5b506104496101c65481565b348015610bb757600080fd5b50610414610bc6366004613ee3565b6001600160a01b039182166000908152606a6020908152604080832093909416825291909152205460ff1690565b348015610c0057600080fd5b506104d1610c0f366004614108565b611def565b60006001600160e01b0319821663152a902d60e11b1480610c395750610c3982611e25565b92915050565b60006101ca82604051610c5291906142ed565b9081526020016040518091039020600201549050919050565b606060658054610c7a9061476c565b80601f0160208091040260200160405190810160405280929190818152602001828054610ca69061476c565b8015610cf35780601f10610cc857610100808354040283529160200191610cf3565b820191906000526020600020905b815481529060010190602001808311610cd657829003601f168201915b5050505050905090565b6000610d0882611e4a565b610d6e5760405162461bcd60e51b815260206004820152602c60248201527f4552433732313a20617070726f76656420717565727920666f72206e6f6e657860448201526b34b9ba32b73a103a37b5b2b760a11b60648201526084015b60405180910390fd5b506000908152606960205260409020546001600160a01b031690565b6000610d9582611742565b9050806001600160a01b0316836001600160a01b03161415610e035760405162461bcd60e51b815260206004820152602160248201527f4552433732313a20617070726f76616c20746f2063757272656e74206f776e656044820152603960f91b6064820152608401610d65565b336001600160a01b0382161480610e1f5750610e1f8133610bc6565b610e915760405162461bcd60e51b815260206004820152603860248201527f4552433732313a20617070726f76652063616c6c6572206973206e6f74206f7760448201527f6e6572206e6f7220617070726f76656420666f7220616c6c00000000000000006064820152608401610d65565b610e9b8383611e67565b505050565b6000610eac6101c35490565b905090565b6001600160a01b03811660009081526101936020526040902054610ee75760405162461bcd60e51b8152600401610d659061449b565b6000610ef36101925490565b610efd90476146c7565b90506000610f2b8383610f26866001600160a01b03166000908152610194602052604090205490565b611ed5565b905080610f4a5760405162461bcd60e51b8152600401610d659061452d565b6001600160a01b0383166000908152610194602052604081208054839290610f739084906146c7565b92505081905550806101926000828254610f8d91906146c7565b90915550610f9d90508382611f15565b604080516001600160a01b0385168152602081018390527fdf20fd1e76bc69d672e4814fafb2c449bba3a5369d8359adf9e05e6fde87b056910160405180910390a1505050565b610fee338261202e565b61100a5760405162461bcd60e51b8152600401610d65906145f0565b610e9b838383612114565b60008061103060008051602061488f83398151915233611a30565b1561104057506000905080611070565b600060646101c9548561105391906146f3565b61105d91906146df565b6101c4546001600160a01b031693509150505b9250929050565b600082815260fb602052604090206001015461109381336122bf565b610e9b8383612323565b6001600160a01b038116331461110d5760405162461bcd60e51b815260206004820152602f60248201527f416363657373436f6e74726f6c3a2063616e206f6e6c792072656e6f756e636560448201526e103937b632b9903337b91039b2b63360891b6064820152608401610d65565b61111782826123a9565b5050565b306001600160a01b037f00000000000000000000000000000000000000000000000000000000000000001614156111645760405162461bcd60e51b8152600401610d659061444f565b7f00000000000000000000000000000000000000000000000000000000000000006001600160a01b0316611196612410565b6001600160a01b0316146111bc5760405162461bcd60e51b8152600401610d65906144e1565b6111c58161243e565b604080516000808252602082019092526111e19183919061244a565b50565b60006111f081336122bf565b6101ca8260405161120191906142ed565b9081526020016040518091039020600101600090555050565b600061122681336122bf565b6111e161258e565b610e9b83838360405180602001604052806000815250611b07565b600054610100900460ff1680611262575060005460ff16155b61127e5760405162461bcd60e51b8152600401610d65906145a2565b600054610100900460ff161580156112a0576000805461ffff19166101011790555b6112aa8585612621565b6112b26126a8565b6112ba61272b565b6112c26126a8565b6112ca612792565b6112d483836127f0565b6101c48054336001600160a01b0319909116811790915560056101c581905566b1a2bc2ec500006101c65560006101c781905560326101c8556101c991909155604080516080808201835260018083526020808401868152848601838152606080870189815288516a63727970746f776f72647360a81b81526101ca600b82018190528a5191829003602b01822099518a5460ff19908116911515919091178b5595518a89015593516002808b019190915591516003998a015596870189528587529386018981528689018681529187018a815289516918dc9e5c1d1bdddbdc9960b21b8152600a810194909452985192839003602a0190922095518654909316921515929092178555519284019290925590519082015591519101556113fa91612323565b61141260008051602061488f83398151915233612323565b8015611424576000805461ff00191690555b5050505050565b6001600160a01b038116600090815261019360205260409020546114615760405162461bcd60e51b8152600401610d659061449b565b6001600160a01b038216600090815261019660205260408120546040516370a0823160e01b81523060048201526001600160a01b038516906370a082319060240160206040518083038186803b1580156114ba57600080fd5b505afa1580156114ce573d6000803e3d6000fd5b505050506040513d601f19601f820116820180604052508101906114f29190614286565b6114fc91906146c7565b905060006115368383610f2687876001600160a01b0391821660009081526101976020908152604080832093909416825291909152205490565b9050806115555760405162461bcd60e51b8152600401610d659061452d565b6001600160a01b038085166000908152610197602090815260408083209387168352929052908120805483929061158d9084906146c7565b90915550506001600160a01b03841660009081526101966020526040812080548392906115bb9084906146c7565b909155506115cc9050848483612859565b604080516001600160a01b038581168252602082018490528616917f3be5b7a71e84ed12875d241991c70855ac5817d847039e17a9d895c1ceb0f18a910160405180910390a250505050565b306001600160a01b037f00000000000000000000000000000000000000000000000000000000000000001614156116615760405162461bcd60e51b8152600401610d659061444f565b7f00000000000000000000000000000000000000000000000000000000000000006001600160a01b0316611693612410565b6001600160a01b0316146116b95760405162461bcd60e51b8152600401610d65906144e1565b6116c28261243e565b6111178282600161244a565b6000806116da836128ab565b90506101ca836040516116ed91906142ed565b90815260200160405180910390206003015481101561170d57600061173b565b6101ca8360405161171e91906142ed565b9081526020016040518091039020600301548161173b9190614712565b9392505050565b6000818152606760205260408120546001600160a01b031680610c395760405162461bcd60e51b815260206004820152602960248201527f4552433732313a206f776e657220717565727920666f72206e6f6e657869737460448201526832b73a103a37b5b2b760b91b6064820152608401610d65565b60006117c581336122bf565b6101c6548214156117d557600080fd5b506101c655565b60006101ca826040516117ef91906142ed565b9081526020016040518091039020600101549050919050565b60006001600160a01b0382166118735760405162461bcd60e51b815260206004820152602a60248201527f4552433732313a2062616c616e636520717565727920666f7220746865207a65604482015269726f206164647265737360b01b6064820152608401610d65565b506001600160a01b031660009081526068602052604090205490565b600061189b81336122bf565b6101ca836040516118ac91906142ed565b9081526020016040518091039020600201548214156118ca57600080fd5b816101ca846040516118dc91906142ed565b90815260405190819003602001902060020155505050565b600061190e60008051602061488f83398151915284611a30565b1561191b57506000610c39565b6000611926836128f0565b9050600061193382612935565b905061195f7ff9e9e1c8035f82fd72c5438c5719fd5349deacb4207f4fcbbda606cb5a39d50986611a30565b1561198a576101c8546101c7541161197f5761197a8261295c565b611981565b805b92505050610c39565b949350505050565b600061199d826128ab565b6101ca836040516119ae91906142ed565b908152602001604051809103902060030154109050919050565b60006119d481336122bf565b6111e161296f565b60006119e881336122bf565b6101c7548214156119f857600080fd5b506101c755565b60006101958281548110611a1557611a15614802565b6000918252602090912001546001600160a01b031692915050565b600091825260fb602090815260408084206001600160a01b0393909316845291905290205460ff1690565b606060668054610c7a9061476c565b6111173383836129c7565b6000611a8181336122bf565b6101c554821415611a9157600080fd5b506101c555565b6000611aa481336122bf565b6101c854821415611ab457600080fd5b506101c855565b6000611ac781336122bf565b6101c4546001600160a01b0383811691161415611ae357600080fd5b506101c480546001600160a01b0319166001600160a01b0392909216919091179055565b611b11338361202e565b611b2d5760405162461bcd60e51b8152600401610d65906145f0565b611b3984848484612a96565b50505050565b6000611b4b81336122bf565b6101ca83604051611b5c91906142ed565b908152602001604051809103902060010154821415611b7a57600080fd5b816101ca84604051611b8c91906142ed565b90815260405190819003602001902060010155505050565b6060610c3982612ac9565b6000611bbb81336122bf565b61111782612c2b565b60c95460ff1615611be75760405162461bcd60e51b8152600401610d6590614578565b611bff60008051602061488f83398151915233611a30565b611cbb57611c0c81611992565b611c585760405162461bcd60e51b815260206004820181905260248201527f5468697320776f7264206973206e6f206c6f6e67657220617661696c61626c656044820152606401610d65565b611c6233826118f4565b341015611cbb5760405162461bcd60e51b815260206004820152602160248201527f4e6f7420656e6f756768204554482073656e743b20636865636b2070726963656044820152602160f81b6064820152608401610d65565b6000611cc76101c35490565b9050611cd86101c380546001019055565b60006101ca83604051611ceb91906142ed565b908152604051908190036020019020805490915060ff16611d2d57805460ff191660019081178255600082820181905560038301919091556002820155611d48565b6001816003016000828254611d4291906146c7565b90915550505b611d528483612c34565b611d5c8284612c4e565b7fe7619a6b73b99956e487541f2eafbf4cb611a98b8391e31858fe02ba08669f05828486604051611d8f93929190614641565b60405180910390a150505050565b600082815260fb6020526040902060010154611db981336122bf565b610e9b83836123a9565b60006101ca82604051611dd691906142ed565b9081526020016040518091039020600301549050919050565b6000611dfb81336122bf565b6101ca82604051611e0c91906142ed565b9081526020016040518091039020600201600090555050565b60006001600160e01b03198216637965db0b60e01b1480610c395750610c3982612cd9565b6000908152606760205260409020546001600160a01b0316151590565b600081815260696020526040902080546001600160a01b0319166001600160a01b0384169081179091558190611e9c82611742565b6001600160a01b03167f8c5be1e5ebec7d5bd14f71427d1e84f3dd0314c0f7b2291e5b200ac8c7c3b92560405160405180910390a45050565b610191546001600160a01b0384166000908152610193602052604081205490918391611f0190866146f3565b611f0b91906146df565b61198a9190614712565b80471015611f655760405162461bcd60e51b815260206004820152601d60248201527f416464726573733a20696e73756666696369656e742062616c616e63650000006044820152606401610d65565b6000826001600160a01b03168260405160006040518083038185875af1925050503d8060008114611fb2576040519150601f19603f3d011682016040523d82523d6000602084013e611fb7565b606091505b5050905080610e9b5760405162461bcd60e51b815260206004820152603a60248201527f416464726573733a20756e61626c6520746f2073656e642076616c75652c207260448201527f6563697069656e74206d617920686176652072657665727465640000000000006064820152608401610d65565b600061203982611e4a565b61209a5760405162461bcd60e51b815260206004820152602c60248201527f4552433732313a206f70657261746f7220717565727920666f72206e6f6e657860448201526b34b9ba32b73a103a37b5b2b760a11b6064820152608401610d65565b60006120a583611742565b9050806001600160a01b0316846001600160a01b031614806120e05750836001600160a01b03166120d584610cfd565b6001600160a01b0316145b8061198a57506001600160a01b038082166000908152606a602090815260408083209388168352929052205460ff1661198a565b826001600160a01b031661212782611742565b6001600160a01b03161461218f5760405162461bcd60e51b815260206004820152602960248201527f4552433732313a207472616e73666572206f6620746f6b656e2074686174206960448201526839903737ba1037bbb760b91b6064820152608401610d65565b6001600160a01b0382166121f15760405162461bcd60e51b8152602060048201526024808201527f4552433732313a207472616e7366657220746f20746865207a65726f206164646044820152637265737360e01b6064820152608401610d65565b6121fc838383612d29565b612207600082611e67565b6001600160a01b0383166000908152606860205260408120805460019290612230908490614712565b90915550506001600160a01b038216600090815260686020526040812080546001929061225e9084906146c7565b909155505060008181526067602052604080822080546001600160a01b0319166001600160a01b0386811691821790925591518493918716917fddf252ad1be2c89b69c2b068fc378daa952ba7f163c4a11628f55a4df523b3ef91a4505050565b6122c98282611a30565b611117576122e1816001600160a01b03166014612d4c565b6122ec836020612d4c565b6040516020016122fd929190614338565b60408051601f198184030181529082905262461bcd60e51b8252610d65916004016143ea565b61232d8282611a30565b61111757600082815260fb602090815260408083206001600160a01b03851684529091529020805460ff191660011790556123653390565b6001600160a01b0316816001600160a01b0316837f2f8788117e7eff1d82e926ec794901d17c78024a50270940304540a733656f0d60405160405180910390a45050565b6123b38282611a30565b1561111757600082815260fb602090815260408083206001600160a01b0385168085529252808320805460ff1916905551339285917ff6391f5c32d9c69d2a47ea670b442974b53935d1edc7fd64eb21e047a839171b9190a45050565b7f360894a13ba1a3210667c828492db98dca3e2076cc3735a920a3ca505d382bbc546001600160a01b031690565b600061111781336122bf565b6000612454612410565b905061245f84612ee8565b60008351118061246c5750815b1561247d5761247b8484612f8d565b505b7f4910fdfa16fed3260ed0e7147f7cc6da11a60208b5b9406d12a635614ffd9143805460ff1661142457805460ff191660011781556040516001600160a01b03831660248201526124fc90869060440160408051601f198184030181529190526020810180516001600160e01b0316631b2ce7f360e11b179052612f8d565b50805460ff1916815561250d612410565b6001600160a01b0316826001600160a01b0316146125855760405162461bcd60e51b815260206004820152602f60248201527f45524331393637557067726164653a207570677261646520627265616b73206660448201526e75727468657220757067726164657360881b6064820152608401610d65565b61142485613078565b60c95460ff166125d75760405162461bcd60e51b815260206004820152601460248201527314185d5cd8589b194e881b9bdd081c185d5cd95960621b6044820152606401610d65565b60c9805460ff191690557f5db9ee0a495bf2e6ff9c91a7834c1ba4fdd244a5e8aa4e537bd38aeae4b073aa335b6040516001600160a01b03909116815260200160405180910390a1565b600054610100900460ff168061263a575060005460ff16155b6126565760405162461bcd60e51b8152600401610d65906145a2565b600054610100900460ff16158015612678576000805461ffff19166101011790555b6126806130b8565b6126886130b8565b6126928383613122565b8015610e9b576000805461ff0019169055505050565b600054610100900460ff16806126c1575060005460ff16155b6126dd5760405162461bcd60e51b8152600401610d65906145a2565b600054610100900460ff161580156126ff576000805461ffff19166101011790555b6127076130b8565b61270f6130b8565b6127176130b8565b80156111e1576000805461ff001916905550565b600054610100900460ff1680612744575060005460ff16155b6127605760405162461bcd60e51b8152600401610d65906145a2565b600054610100900460ff16158015612782576000805461ffff19166101011790555b61278a6130b8565b6127176131b7565b600054610100900460ff16806127ab575060005460ff16155b6127c75760405162461bcd60e51b8152600401610d65906145a2565b600054610100900460ff16158015612707576000805461ffff191661010117905561270f6130b8565b600054610100900460ff1680612809575060005460ff16155b6128255760405162461bcd60e51b8152600401610d65906145a2565b600054610100900460ff16158015612847576000805461ffff19166101011790555b61284f6130b8565b612692838361322c565b604080516001600160a01b038416602482015260448082018490528251808303909101815260649091019091526020810180516001600160e01b031663a9059cbb60e01b179052610e9b90849061339a565b6000806101ca836040516128bf91906142ed565b908152602001604051809103902060020154116128df576101c554610c39565b6101ca82604051610c5291906142ed565b6000806101ca8360405161290491906142ed565b90815260200160405180910390206001015411612924576101c654610c39565b6101ca826040516117ef91906142ed565b600060646101c7548361294891906146f3565b61295291906146df565b610c399083614712565b600060646101c8548361294891906146f3565b60c95460ff16156129925760405162461bcd60e51b8152600401610d6590614578565b60c9805460ff191660011790557f62e78cea01bee320cd4e420270b5ea74000d11b0c9f74754ebdbfc544b05a2586126043390565b816001600160a01b0316836001600160a01b03161415612a295760405162461bcd60e51b815260206004820152601960248201527f4552433732313a20617070726f766520746f2063616c6c6572000000000000006044820152606401610d65565b6001600160a01b038381166000818152606a6020908152604080832094871680845294825291829020805460ff191686151590811790915591519182527f17307eab39ab6107e8899845ad3d59bd9653f200f220920489ca2b5937696c31910160405180910390a3505050565b612aa1848484612114565b612aad8484848461346c565b611b395760405162461bcd60e51b8152600401610d65906143fd565b6060612ad482611e4a565b612b3a5760405162461bcd60e51b815260206004820152603160248201527f45524337323155524953746f726167653a2055524920717565727920666f72206044820152703737b732bc34b9ba32b73a103a37b5b2b760791b6064820152608401610d65565b60008281526097602052604081208054612b539061476c565b80601f0160208091040260200160405190810160405280929190818152602001828054612b7f9061476c565b8015612bcc5780601f10612ba157610100808354040283529160200191612bcc565b820191906000526020600020905b815481529060010190602001808311612baf57829003601f168201915b505050505090506000612bdd613579565b9050805160001415612bf0575092915050565b815115612c22578082604051602001612c0a929190614309565b60405160208183030381529060405292505050919050565b61198a84613599565b6111e181613663565b6111178282604051806020016040528060008152506136a3565b612c5782611e4a565b612cba5760405162461bcd60e51b815260206004820152602e60248201527f45524337323155524953746f726167653a2055524920736574206f66206e6f6e60448201526d32bc34b9ba32b73a103a37b5b2b760911b6064820152608401610d65565b60008281526097602090815260409091208251610e9b92840190613d15565b60006001600160e01b031982166380ac58cd60e01b1480612d0a57506001600160e01b03198216635b5e139f60e01b145b80610c3957506301ffc9a760e01b6001600160e01b0319831614610c39565b60c95460ff1615610e9b5760405162461bcd60e51b8152600401610d6590614578565b60606000612d5b8360026146f3565b612d669060026146c7565b67ffffffffffffffff811115612d7e57612d7e614818565b6040519080825280601f01601f191660200182016040528015612da8576020820181803683370190505b509050600360fc1b81600081518110612dc357612dc3614802565b60200101906001600160f81b031916908160001a905350600f60fb1b81600181518110612df257612df2614802565b60200101906001600160f81b031916908160001a9053506000612e168460026146f3565b612e219060016146c7565b90505b6001811115612e99576f181899199a1a9b1b9c1cb0b131b232b360811b85600f1660108110612e5557612e55614802565b1a60f81b828281518110612e6b57612e6b614802565b60200101906001600160f81b031916908160001a90535060049490941c93612e9281614755565b9050612e24565b50831561173b5760405162461bcd60e51b815260206004820181905260248201527f537472696e67733a20686578206c656e67746820696e73756666696369656e746044820152606401610d65565b803b612f4c5760405162461bcd60e51b815260206004820152602d60248201527f455243313936373a206e657720696d706c656d656e746174696f6e206973206e60448201526c1bdd08184818dbdb9d1c9858dd609a1b6064820152608401610d65565b7f360894a13ba1a3210667c828492db98dca3e2076cc3735a920a3ca505d382bbc80546001600160a01b0319166001600160a01b0392909216919091179055565b6060823b612fec5760405162461bcd60e51b815260206004820152602660248201527f416464726573733a2064656c65676174652063616c6c20746f206e6f6e2d636f6044820152651b9d1c9858dd60d21b6064820152608401610d65565b600080846001600160a01b03168460405161300791906142ed565b600060405180830381855af49150503d8060008114613042576040519150601f19603f3d011682016040523d82523d6000602084013e613047565b606091505b509150915061306f8282604051806060016040528060278152602001614868602791396136d6565b95945050505050565b61308181612ee8565b6040516001600160a01b038216907fbc7cd75a20ee27fd9adebab32041f755214dbc6bffa90cc0225b39da2e5c2d3b90600090a250565b600054610100900460ff16806130d1575060005460ff16155b6130ed5760405162461bcd60e51b8152600401610d65906145a2565b600054610100900460ff16158015612717576000805461ffff191661010117905580156111e1576000805461ff001916905550565b600054610100900460ff168061313b575060005460ff16155b6131575760405162461bcd60e51b8152600401610d65906145a2565b600054610100900460ff16158015613179576000805461ffff19166101011790555b825161318c906065906020860190613d15565b5081516131a0906066906020850190613d15565b508015610e9b576000805461ff0019169055505050565b600054610100900460ff16806131d0575060005460ff16155b6131ec5760405162461bcd60e51b8152600401610d65906145a2565b600054610100900460ff1615801561320e576000805461ffff19166101011790555b60c9805460ff1916905580156111e1576000805461ff001916905550565b600054610100900460ff1680613245575060005460ff16155b6132615760405162461bcd60e51b8152600401610d65906145a2565b600054610100900460ff16158015613283576000805461ffff19166101011790555b81518351146132ef5760405162461bcd60e51b815260206004820152603260248201527f5061796d656e7453706c69747465723a2070617965657320616e6420736861726044820152710cae640d8cadccee8d040dad2e6dac2e8c6d60731b6064820152608401610d65565b60008351116133405760405162461bcd60e51b815260206004820152601a60248201527f5061796d656e7453706c69747465723a206e6f207061796565730000000000006044820152606401610d65565b60005b83518110156131a05761338884828151811061336157613361614802565b602002602001015184838151811061337b5761337b614802565b602002602001015161370f565b80613392816147a7565b915050613343565b60006133ef826040518060400160405280602081526020017f5361666545524332303a206c6f772d6c6576656c2063616c6c206661696c6564815250856001600160a01b03166138fa9092919063ffffffff16565b805190915015610e9b578080602001905181019061340d9190614073565b610e9b5760405162461bcd60e51b815260206004820152602a60248201527f5361666545524332303a204552433230206f7065726174696f6e20646964206e6044820152691bdd081cdd58d8d9595960b21b6064820152608401610d65565b60006001600160a01b0384163b1561356e57604051630a85bd0160e11b81526001600160a01b0385169063150b7a02906134b09033908990889088906004016143ad565b602060405180830381600087803b1580156134ca57600080fd5b505af19250505080156134fa575060408051601f3d908101601f191682019092526134f7918101906140eb565b60015b613554573d808015613528576040519150601f19603f3d011682016040523d82523d6000602084013e61352d565b606091505b50805161354c5760405162461bcd60e51b8152600401610d65906143fd565b805181602001fd5b6001600160e01b031916630a85bd0160e11b14905061198a565b506001949350505050565b60606040518060600160405280602281526020016148af60229139905090565b60606135a482611e4a565b6136085760405162461bcd60e51b815260206004820152602f60248201527f4552433732314d657461646174613a2055524920717565727920666f72206e6f60448201526e3732bc34b9ba32b73a103a37b5b2b760891b6064820152608401610d65565b6000613612613579565b90506000815111613632576040518060200160405280600081525061173b565b8061363c84613909565b60405160200161364d929190614309565b6040516020818303038152906040529392505050565b61366c81613a07565b600081815260976020526040902080546136859061476c565b1590506111e15760008181526097602052604081206111e191613d99565b6136ad8383613aae565b6136ba600084848461346c565b610e9b5760405162461bcd60e51b8152600401610d65906143fd565b606083156136e557508161173b565b8251156136f55782518084602001fd5b8160405162461bcd60e51b8152600401610d6591906143ea565b6001600160a01b03821661377a5760405162461bcd60e51b815260206004820152602c60248201527f5061796d656e7453706c69747465723a206163636f756e74206973207468652060448201526b7a65726f206164647265737360a01b6064820152608401610d65565b600081116137ca5760405162461bcd60e51b815260206004820152601d60248201527f5061796d656e7453706c69747465723a207368617265732061726520300000006044820152606401610d65565b6001600160a01b03821660009081526101936020526040902054156138455760405162461bcd60e51b815260206004820152602b60248201527f5061796d656e7453706c69747465723a206163636f756e7420616c726561647960448201526a206861732073686172657360a81b6064820152608401610d65565b6101958054600181019091557f54034dca961b61bc2a3147cc0c1986762915b42723ed64155364f17a2e2967700180546001600160a01b0319166001600160a01b038416908117909155600090815261019360205260409020819055610191546138b09082906146c7565b61019155604080516001600160a01b0384168152602081018390527f40c340f65e17194d14ddddb073d3c9f888e3cb52b5aae0c6c7706b4fbc905fac910160405180910390a15050565b606061198a8484600085613bed565b60608161392d5750506040805180820190915260018152600360fc1b602082015290565b8160005b81156139575780613941816147a7565b91506139509050600a836146df565b9150613931565b60008167ffffffffffffffff81111561397257613972614818565b6040519080825280601f01601f19166020018201604052801561399c576020820181803683370190505b5090505b841561198a576139b1600183614712565b91506139be600a866147c2565b6139c99060306146c7565b60f81b8183815181106139de576139de614802565b60200101906001600160f81b031916908160001a905350613a00600a866146df565b94506139a0565b6000613a1282611742565b9050613a2081600084612d29565b613a2b600083611e67565b6001600160a01b0381166000908152606860205260408120805460019290613a54908490614712565b909155505060008281526067602052604080822080546001600160a01b0319169055518391906001600160a01b038416907fddf252ad1be2c89b69c2b068fc378daa952ba7f163c4a11628f55a4df523b3ef908390a45050565b6001600160a01b038216613b045760405162461bcd60e51b815260206004820181905260248201527f4552433732313a206d696e7420746f20746865207a65726f20616464726573736044820152606401610d65565b613b0d81611e4a565b15613b5a5760405162461bcd60e51b815260206004820152601c60248201527f4552433732313a20746f6b656e20616c7265616479206d696e746564000000006044820152606401610d65565b613b6660008383612d29565b6001600160a01b0382166000908152606860205260408120805460019290613b8f9084906146c7565b909155505060008181526067602052604080822080546001600160a01b0319166001600160a01b03861690811790915590518392907fddf252ad1be2c89b69c2b068fc378daa952ba7f163c4a11628f55a4df523b3ef908290a45050565b606082471015613c4e5760405162461bcd60e51b815260206004820152602660248201527f416464726573733a20696e73756666696369656e742062616c616e636520666f6044820152651c8818d85b1b60d21b6064820152608401610d65565b843b613c9c5760405162461bcd60e51b815260206004820152601d60248201527f416464726573733a2063616c6c20746f206e6f6e2d636f6e74726163740000006044820152606401610d65565b600080866001600160a01b03168587604051613cb891906142ed565b60006040518083038185875af1925050503d8060008114613cf5576040519150601f19603f3d011682016040523d82523d6000602084013e613cfa565b606091505b5091509150613d0a8282866136d6565b979650505050505050565b828054613d219061476c565b90600052602060002090601f016020900481019282613d435760008555613d89565b82601f10613d5c57805160ff1916838001178555613d89565b82800160010185558215613d89579182015b82811115613d89578251825591602001919060010190613d6e565b50613d95929150613dcf565b5090565b508054613da59061476c565b6000825580601f10613db5575050565b601f0160209004906000526020600020908101906111e191905b5b80821115613d955760008155600101613dd0565b600082601f830112613df557600080fd5b81356020613e0a613e05836146a3565b614672565b80838252828201915082860187848660051b8901011115613e2a57600080fd5b60005b85811015613e4957813584529284019290840190600101613e2d565b5090979650505050505050565b600082601f830112613e6757600080fd5b813567ffffffffffffffff811115613e8157613e81614818565b613e94601f8201601f1916602001614672565b818152846020838601011115613ea957600080fd5b816020850160208301376000918101602001919091529392505050565b600060208284031215613ed857600080fd5b813561173b8161482e565b60008060408385031215613ef657600080fd5b8235613f018161482e565b91506020830135613f118161482e565b809150509250929050565b600080600060608486031215613f3157600080fd5b8335613f3c8161482e565b92506020840135613f4c8161482e565b929592945050506040919091013590565b60008060008060808587031215613f7357600080fd5b8435613f7e8161482e565b93506020850135613f8e8161482e565b925060408501359150606085013567ffffffffffffffff811115613fb157600080fd5b613fbd87828801613e56565b91505092959194509250565b60008060408385031215613fdc57600080fd5b8235613fe78161482e565b91506020830135613f1181614843565b6000806040838503121561400a57600080fd5b82356140158161482e565b9150602083013567ffffffffffffffff81111561403157600080fd5b61403d85828601613e56565b9150509250929050565b6000806040838503121561405a57600080fd5b82356140658161482e565b946020939093013593505050565b60006020828403121561408557600080fd5b815161173b81614843565b6000602082840312156140a257600080fd5b5035919050565b600080604083850312156140bc57600080fd5b823591506020830135613f118161482e565b6000602082840312156140e057600080fd5b813561173b81614851565b6000602082840312156140fd57600080fd5b815161173b81614851565b60006020828403121561411a57600080fd5b813567ffffffffffffffff81111561413157600080fd5b61198a84828501613e56565b6000806000806080858703121561415357600080fd5b843567ffffffffffffffff8082111561416b57600080fd5b61417788838901613e56565b955060209150818701358181111561418e57600080fd5b61419a89828a01613e56565b9550506040870135818111156141af57600080fd5b8701601f810189136141c057600080fd5b80356141ce613e05826146a3565b8082825285820191508584018c878560051b87010111156141ee57600080fd5b600094505b8385101561421a5780356142068161482e565b8352600194909401939186019186016141f3565b509650505050606087013591508082111561423457600080fd5b50613fbd87828801613de4565b6000806040838503121561425457600080fd5b823567ffffffffffffffff81111561426b57600080fd5b61427785828601613e56565b95602094909401359450505050565b60006020828403121561429857600080fd5b5051919050565b600080604083850312156142b257600080fd5b50508035926020909101359150565b600081518084526142d9816020860160208601614729565b601f01601f19169290920160200192915050565b600082516142ff818460208701614729565b9190910192915050565b6000835161431b818460208801614729565b83519083019061432f818360208801614729565b01949350505050565b7f416363657373436f6e74726f6c3a206163636f756e7420000000000000000000815260008351614370816017850160208801614729565b7001034b99036b4b9b9b4b733903937b6329607d1b60179184019182015283516143a1816028840160208801614729565b01602801949350505050565b6001600160a01b03858116825284166020820152604081018390526080606082018190526000906143e0908301846142c1565b9695505050505050565b60208152600061173b60208301846142c1565b60208082526032908201527f4552433732313a207472616e7366657220746f206e6f6e20455243373231526560408201527131b2b4bb32b91034b6b83632b6b2b73a32b960711b606082015260800190565b6020808252602c908201527f46756e6374696f6e206d7573742062652063616c6c6564207468726f7567682060408201526b19195b1959d85d1958d85b1b60a21b606082015260800190565b60208082526026908201527f5061796d656e7453706c69747465723a206163636f756e7420686173206e6f2060408201526573686172657360d01b606082015260800190565b6020808252602c908201527f46756e6374696f6e206d7573742062652063616c6c6564207468726f7567682060408201526b6163746976652070726f787960a01b606082015260800190565b6020808252602b908201527f5061796d656e7453706c69747465723a206163636f756e74206973206e6f742060408201526a191d59481c185e5b595b9d60aa1b606082015260800190565b60208082526010908201526f14185d5cd8589b194e881c185d5cd95960821b604082015260600190565b6020808252602e908201527f496e697469616c697a61626c653a20636f6e747261637420697320616c72656160408201526d191e481a5b9a5d1a585b1a5e995960921b606082015260800190565b60208082526031908201527f4552433732313a207472616e736665722063616c6c6572206973206e6f74206f6040820152701ddb995c881b9bdc88185c1c1c9bdd9959607a1b606082015260800190565b83815260606020820152600061465a60608301856142c1565b905060018060a01b0383166040830152949350505050565b604051601f8201601f1916810167ffffffffffffffff8111828210171561469b5761469b614818565b604052919050565b600067ffffffffffffffff8211156146bd576146bd614818565b5060051b60200190565b600082198211156146da576146da6147d6565b500190565b6000826146ee576146ee6147ec565b500490565b600081600019048311821515161561470d5761470d6147d6565b500290565b600082821015614724576147246147d6565b500390565b60005b8381101561474457818101518382015260200161472c565b83811115611b395750506000910152565b600081614764576147646147d6565b506000190190565b600181811c9082168061478057607f821691505b602082108114156147a157634e487b7160e01b600052602260045260246000fd5b50919050565b60006000198214156147bb576147bb6147d6565b5060010190565b6000826147d1576147d16147ec565b500690565b634e487b7160e01b600052601160045260246000fd5b634e487b7160e01b600052601260045260246000fd5b634e487b7160e01b600052603260045260246000fd5b634e487b7160e01b600052604160045260246000fd5b6001600160a01b03811681146111e157600080fd5b80151581146111e157600080fd5b6001600160e01b0319811681146111e157600080fdfe416464726573733a206c6f772d6c6576656c2064656c65676174652063616c6c206661696c65649f2df0fed2c77648de5860a4cc508cd0818c85b8b8a1ab4ceeef8d981c8956a668747470733a2f2f63727970746f776f7264732e6172742f6170692f746f6b656e2fa2646970667358221220012576d3a6b588774f4fd09d2542a7b058df190db1e427b2ac8f44238704d51a64736f6c63430008070033",
  "linkReferences": {},
  "deployedLinkReferences": {}
}