{
  "_format": "hh-sol-artifact-1",
  "contractName": "CryptoWordsV1",
  "sourceName": "contracts/CryptoWordsV1.sol",
  "abi": [
    {
      "inputs": [],
      "stateMutability": "nonpayable",
      "type": "constructor"
    },
    {
      "anonymous": false,
      "inputs": [
        {
          "indexed": true,
          "internalType": "address",
          "name": "owner",
          "type": "address"
        },
        {
          "indexed": true,
          "internalType": "address",
          "name": "approved",
          "type": "address"
        },
        {
          "indexed": true,
          "internalType": "uint256",
          "name": "tokenId",
          "type": "uint256"
        }
      ],
      "name": "Approval",
      "type": "event"
    },
    {
      "anonymous": false,
      "inputs": [
        {
          "indexed": true,
          "internalType": "address",
          "name": "owner",
          "type": "address"
        },
        {
          "indexed": true,
          "internalType": "address",
          "name": "operator",
          "type": "address"
        },
        {
          "indexed": false,
          "internalType": "bool",
          "name": "approved",
          "type": "bool"
        }
      ],
      "name": "ApprovalForAll",
      "type": "event"
    },
    {
      "anonymous": false,
      "inputs": [
        {
          "indexed": false,
          "internalType": "address",
          "name": "account",
          "type": "address"
        }
      ],
      "name": "Paused",
      "type": "event"
    },
    {
      "anonymous": false,
      "inputs": [
        {
          "indexed": false,
          "internalType": "address",
          "name": "account",
          "type": "address"
        },
        {
          "indexed": false,
          "internalType": "uint256",
          "name": "shares",
          "type": "uint256"
        }
      ],
      "name": "PayeeAdded",
      "type": "event"
    },
    {
      "anonymous": false,
      "inputs": [
        {
          "indexed": false,
          "internalType": "address",
          "name": "from",
          "type": "address"
        },
        {
          "indexed": false,
          "internalType": "uint256",
          "name": "amount",
          "type": "uint256"
        }
      ],
      "name": "PaymentReceived",
      "type": "event"
    },
    {
      "anonymous": false,
      "inputs": [
        {
          "indexed": false,
          "internalType": "address",
          "name": "to",
          "type": "address"
        },
        {
          "indexed": false,
          "internalType": "uint256",
          "name": "amount",
          "type": "uint256"
        }
      ],
      "name": "PaymentReleased",
      "type": "event"
    },
    {
      "anonymous": false,
      "inputs": [
        {
          "indexed": true,
          "internalType": "bytes32",
          "name": "role",
          "type": "bytes32"
        },
        {
          "indexed": true,
          "internalType": "bytes32",
          "name": "previousAdminRole",
          "type": "bytes32"
        },
        {
          "indexed": true,
          "internalType": "bytes32",
          "name": "newAdminRole",
          "type": "bytes32"
        }
      ],
      "name": "RoleAdminChanged",
      "type": "event"
    },
    {
      "anonymous": false,
      "inputs": [
        {
          "indexed": true,
          "internalType": "bytes32",
          "name": "role",
          "type": "bytes32"
        },
        {
          "indexed": true,
          "internalType": "address",
          "name": "account",
          "type": "address"
        },
        {
          "indexed": true,
          "internalType": "address",
          "name": "sender",
          "type": "address"
        }
      ],
      "name": "RoleGranted",
      "type": "event"
    },
    {
      "anonymous": false,
      "inputs": [
        {
          "indexed": true,
          "internalType": "bytes32",
          "name": "role",
          "type": "bytes32"
        },
        {
          "indexed": true,
          "internalType": "address",
          "name": "account",
          "type": "address"
        },
        {
          "indexed": true,
          "internalType": "address",
          "name": "sender",
          "type": "address"
        }
      ],
      "name": "RoleRevoked",
      "type": "event"
    },
    {
      "anonymous": false,
      "inputs": [
        {
          "indexed": true,
          "internalType": "address",
          "name": "from",
          "type": "address"
        },
        {
          "indexed": true,
          "internalType": "address",
          "name": "to",
          "type": "address"
        },
        {
          "indexed": true,
          "internalType": "uint256",
          "name": "tokenId",
          "type": "uint256"
        }
      ],
      "name": "Transfer",
      "type": "event"
    },
    {
      "anonymous": false,
      "inputs": [
        {
          "indexed": false,
          "internalType": "address",
          "name": "account",
          "type": "address"
        }
      ],
      "name": "Unpaused",
      "type": "event"
    },
    {
      "anonymous": false,
      "inputs": [
        {
          "indexed": false,
          "internalType": "uint256",
          "name": "tokenId",
          "type": "uint256"
        },
        {
          "indexed": false,
          "internalType": "string",
          "name": "word",
          "type": "string"
        },
        {
          "indexed": false,
          "internalType": "address",
          "name": "to",
          "type": "address"
        }
      ],
      "name": "WordMinted",
      "type": "event"
    },
    {
      "inputs": [],
      "name": "DEFAULT_ADMIN_ROLE",
      "outputs": [
        {
          "internalType": "bytes32",
          "name": "",
          "type": "bytes32"
        }
      ],
      "stateMutability": "view",
      "type": "function"
    },
    {
      "inputs": [],
      "name": "DISCOUNTED_ROLE",
      "outputs": [
        {
          "internalType": "bytes32",
          "name": "",
          "type": "bytes32"
        }
      ],
      "stateMutability": "view",
      "type": "function"
    },
    {
      "inputs": [],
      "name": "MINTER_ROLE",
      "outputs": [
        {
          "internalType": "bytes32",
          "name": "",
          "type": "bytes32"
        }
      ],
      "stateMutability": "view",
      "type": "function"
    },
    {
      "inputs": [],
      "name": "PAUSER_ROLE",
      "outputs": [
        {
          "internalType": "bytes32",
          "name": "",
          "type": "bytes32"
        }
      ],
      "stateMutability": "view",
      "type": "function"
    },
    {
      "inputs": [],
      "name": "ROYALTY_FREE_ROLE",
      "outputs": [
        {
          "internalType": "bytes32",
          "name": "",
          "type": "bytes32"
        }
      ],
      "stateMutability": "view",
      "type": "function"
    },
    {
      "inputs": [
        {
          "internalType": "address",
          "name": "to",
          "type": "address"
        },
        {
          "internalType": "uint256",
          "name": "tokenId",
          "type": "uint256"
        }
      ],
      "name": "approve",
      "outputs": [],
      "stateMutability": "nonpayable",
      "type": "function"
    },
    {
      "inputs": [],
      "name": "artist",
      "outputs": [
        {
          "internalType": "address",
          "name": "",
          "type": "address"
        }
      ],
      "stateMutability": "view",
      "type": "function"
    },
    {
      "inputs": [
        {
          "internalType": "address",
          "name": "owner",
          "type": "address"
        }
      ],
      "name": "balanceOf",
      "outputs": [
        {
          "internalType": "uint256",
          "name": "",
          "type": "uint256"
        }
      ],
      "stateMutability": "view",
      "type": "function"
    },
    {
      "inputs": [
        {
          "internalType": "uint256",
          "name": "tokenId",
          "type": "uint256"
        }
      ],
      "name": "burn",
      "outputs": [],
      "stateMutability": "nonpayable",
      "type": "function"
    },
    {
      "inputs": [
        {
          "internalType": "string",
          "name": "word",
          "type": "string"
        }
      ],
      "name": "burnByWord",
      "outputs": [],
      "stateMutability": "nonpayable",
      "type": "function"
    },
    {
      "inputs": [],
      "name": "defaultPrice",
      "outputs": [
        {
          "internalType": "uint256",
          "name": "",
          "type": "uint256"
        }
      ],
      "stateMutability": "view",
      "type": "function"
    },
    {
      "inputs": [],
      "name": "discountPercentage",
      "outputs": [
        {
          "internalType": "uint256",
          "name": "",
          "type": "uint256"
        }
      ],
      "stateMutability": "view",
      "type": "function"
    },
    {
      "inputs": [
        {
          "internalType": "uint256",
          "name": "tokenId",
          "type": "uint256"
        }
      ],
      "name": "getApproved",
      "outputs": [
        {
          "internalType": "address",
          "name": "",
          "type": "address"
        }
      ],
      "stateMutability": "view",
      "type": "function"
    },
    {
      "inputs": [
        {
          "internalType": "string",
          "name": "word",
          "type": "string"
        }
      ],
      "name": "getCustomPriceByWord",
      "outputs": [
        {
          "internalType": "uint256",
          "name": "",
          "type": "uint256"
        }
      ],
      "stateMutability": "view",
      "type": "function"
    },
    {
      "inputs": [
        {
          "internalType": "string",
          "name": "word",
          "type": "string"
        }
      ],
      "name": "getIdByWord",
      "outputs": [
        {
          "internalType": "uint256",
          "name": "",
          "type": "uint256"
        }
      ],
      "stateMutability": "view",
      "type": "function"
    },
    {
      "inputs": [
        {
          "internalType": "address",
          "name": "account",
          "type": "address"
        },
        {
          "internalType": "string",
          "name": "word",
          "type": "string"
        }
      ],
      "name": "getPrice",
      "outputs": [
        {
          "internalType": "uint256",
          "name": "",
          "type": "uint256"
        }
      ],
      "stateMutability": "view",
      "type": "function"
    },
    {
      "inputs": [
        {
          "internalType": "uint256",
          "name": "_limit",
          "type": "uint256"
        }
      ],
      "name": "getRecentTokenIds",
      "outputs": [
        {
          "internalType": "uint256[]",
          "name": "",
          "type": "uint256[]"
        }
      ],
      "stateMutability": "view",
      "type": "function"
    },
    {
      "inputs": [
        {
          "internalType": "uint256",
          "name": "_limit",
          "type": "uint256"
        }
      ],
      "name": "getRecentWords",
      "outputs": [
        {
          "internalType": "string[]",
          "name": "",
          "type": "string[]"
        }
      ],
      "stateMutability": "view",
      "type": "function"
    },
    {
      "inputs": [
        {
          "internalType": "bytes32",
          "name": "role",
          "type": "bytes32"
        }
      ],
      "name": "getRoleAdmin",
      "outputs": [
        {
          "internalType": "bytes32",
          "name": "",
          "type": "bytes32"
        }
      ],
      "stateMutability": "view",
      "type": "function"
    },
    {
      "inputs": [
        {
          "internalType": "bytes32",
          "name": "role",
          "type": "bytes32"
        },
        {
          "internalType": "uint256",
          "name": "index",
          "type": "uint256"
        }
      ],
      "name": "getRoleMember",
      "outputs": [
        {
          "internalType": "address",
          "name": "",
          "type": "address"
        }
      ],
      "stateMutability": "view",
      "type": "function"
    },
    {
      "inputs": [
        {
          "internalType": "bytes32",
          "name": "role",
          "type": "bytes32"
        }
      ],
      "name": "getRoleMemberCount",
      "outputs": [
        {
          "internalType": "uint256",
          "name": "",
          "type": "uint256"
        }
      ],
      "stateMutability": "view",
      "type": "function"
    },
    {
      "inputs": [
        {
          "internalType": "address",
          "name": "_owner",
          "type": "address"
        }
      ],
      "name": "getTokenIdsByOwner",
      "outputs": [
        {
          "internalType": "uint256[]",
          "name": "",
          "type": "uint256[]"
        }
      ],
      "stateMutability": "view",
      "type": "function"
    },
    {
      "inputs": [
        {
          "internalType": "address",
          "name": "_owner",
          "type": "address"
        }
      ],
      "name": "getWordsByOwner",
      "outputs": [
        {
          "internalType": "string[]",
          "name": "",
          "type": "string[]"
        }
      ],
      "stateMutability": "view",
      "type": "function"
    },
    {
      "inputs": [
        {
          "internalType": "bytes32",
          "name": "role",
          "type": "bytes32"
        },
        {
          "internalType": "address",
          "name": "account",
          "type": "address"
        }
      ],
      "name": "grantRole",
      "outputs": [],
      "stateMutability": "nonpayable",
      "type": "function"
    },
    {
      "inputs": [
        {
          "internalType": "bytes32",
          "name": "role",
          "type": "bytes32"
        },
        {
          "internalType": "address",
          "name": "account",
          "type": "address"
        }
      ],
      "name": "hasRole",
      "outputs": [
        {
          "internalType": "bool",
          "name": "",
          "type": "bool"
        }
      ],
      "stateMutability": "view",
      "type": "function"
    },
    {
      "inputs": [
        {
          "internalType": "string",
          "name": "name",
          "type": "string"
        },
        {
          "internalType": "string",
          "name": "symbol",
          "type": "string"
        },
        {
          "internalType": "address[]",
          "name": "payees",
          "type": "address[]"
        },
        {
          "internalType": "uint256[]",
          "name": "shares",
          "type": "uint256[]"
        }
      ],
      "name": "initialize",
      "outputs": [],
      "stateMutability": "payable",
      "type": "function"
    },
    {
      "inputs": [
        {
          "internalType": "address",
          "name": "owner",
          "type": "address"
        },
        {
          "internalType": "address",
          "name": "operator",
          "type": "address"
        }
      ],
      "name": "isApprovedForAll",
      "outputs": [
        {
          "internalType": "bool",
          "name": "",
          "type": "bool"
        }
      ],
      "stateMutability": "view",
      "type": "function"
    },
    {
      "inputs": [],
      "name": "name",
      "outputs": [
        {
          "internalType": "string",
          "name": "",
          "type": "string"
        }
      ],
      "stateMutability": "view",
      "type": "function"
    },
    {
      "inputs": [
        {
          "internalType": "uint256",
          "name": "tokenId",
          "type": "uint256"
        }
      ],
      "name": "ownerOf",
      "outputs": [
        {
          "internalType": "address",
          "name": "",
          "type": "address"
        }
      ],
      "stateMutability": "view",
      "type": "function"
    },
    {
      "inputs": [],
      "name": "pause",
      "outputs": [],
      "stateMutability": "nonpayable",
      "type": "function"
    },
    {
      "inputs": [],
      "name": "paused",
      "outputs": [
        {
          "internalType": "bool",
          "name": "",
          "type": "bool"
        }
      ],
      "stateMutability": "view",
      "type": "function"
    },
    {
      "inputs": [
        {
          "internalType": "uint256",
          "name": "index",
          "type": "uint256"
        }
      ],
      "name": "payee",
      "outputs": [
        {
          "internalType": "address",
          "name": "",
          "type": "address"
        }
      ],
      "stateMutability": "view",
      "type": "function"
    },
    {
      "inputs": [
        {
          "internalType": "address",
          "name": "to",
          "type": "address"
        },
        {
          "internalType": "string",
          "name": "word",
          "type": "string"
        }
      ],
      "name": "purchaseWord",
      "outputs": [],
      "stateMutability": "payable",
      "type": "function"
    },
    {
      "inputs": [
        {
          "internalType": "address payable",
          "name": "account",
          "type": "address"
        }
      ],
      "name": "release",
      "outputs": [],
      "stateMutability": "nonpayable",
      "type": "function"
    },
    {
      "inputs": [
        {
          "internalType": "address",
          "name": "account",
          "type": "address"
        }
      ],
      "name": "released",
      "outputs": [
        {
          "internalType": "uint256",
          "name": "",
          "type": "uint256"
        }
      ],
      "stateMutability": "view",
      "type": "function"
    },
    {
      "inputs": [
        {
          "internalType": "bytes32",
          "name": "role",
          "type": "bytes32"
        },
        {
          "internalType": "address",
          "name": "account",
          "type": "address"
        }
      ],
      "name": "renounceRole",
      "outputs": [],
      "stateMutability": "nonpayable",
      "type": "function"
    },
    {
      "inputs": [
        {
          "internalType": "bytes32",
          "name": "role",
          "type": "bytes32"
        },
        {
          "internalType": "address",
          "name": "account",
          "type": "address"
        }
      ],
      "name": "revokeRole",
      "outputs": [],
      "stateMutability": "nonpayable",
      "type": "function"
    },
    {
      "inputs": [],
      "name": "royaltiesPercentage",
      "outputs": [
        {
          "internalType": "uint256",
          "name": "",
          "type": "uint256"
        }
      ],
      "stateMutability": "view",
      "type": "function"
    },
    {
      "inputs": [],
      "name": "royaltiesReceiver",
      "outputs": [
        {
          "internalType": "address",
          "name": "",
          "type": "address"
        }
      ],
      "stateMutability": "view",
      "type": "function"
    },
    {
      "inputs": [
        {
          "internalType": "uint256",
          "name": "_tokenId",
          "type": "uint256"
        },
        {
          "internalType": "uint256",
          "name": "_salePrice",
          "type": "uint256"
        }
      ],
      "name": "royaltyInfo",
      "outputs": [
        {
          "internalType": "address",
          "name": "receiver",
          "type": "address"
        },
        {
          "internalType": "uint256",
          "name": "royaltyAmount",
          "type": "uint256"
        }
      ],
      "stateMutability": "view",
      "type": "function"
    },
    {
      "inputs": [
        {
          "internalType": "address",
          "name": "from",
          "type": "address"
        },
        {
          "internalType": "address",
          "name": "to",
          "type": "address"
        },
        {
          "internalType": "uint256",
          "name": "tokenId",
          "type": "uint256"
        }
      ],
      "name": "safeTransferFrom",
      "outputs": [],
      "stateMutability": "nonpayable",
      "type": "function"
    },
    {
      "inputs": [
        {
          "internalType": "address",
          "name": "from",
          "type": "address"
        },
        {
          "internalType": "address",
          "name": "to",
          "type": "address"
        },
        {
          "internalType": "uint256",
          "name": "tokenId",
          "type": "uint256"
        },
        {
          "internalType": "bytes",
          "name": "_data",
          "type": "bytes"
        }
      ],
      "name": "safeTransferFrom",
      "outputs": [],
      "stateMutability": "nonpayable",
      "type": "function"
    },
    {
      "inputs": [
        {
          "internalType": "address",
          "name": "operator",
          "type": "address"
        },
        {
          "internalType": "bool",
          "name": "approved",
          "type": "bool"
        }
      ],
      "name": "setApprovalForAll",
      "outputs": [],
      "stateMutability": "nonpayable",
      "type": "function"
    },
    {
      "inputs": [
        {
          "internalType": "uint256",
          "name": "price",
          "type": "uint256"
        },
        {
          "internalType": "string",
          "name": "word",
          "type": "string"
        }
      ],
      "name": "setCustomPriceByWord",
      "outputs": [],
      "stateMutability": "nonpayable",
      "type": "function"
    },
    {
      "inputs": [
        {
          "internalType": "uint256",
          "name": "price",
          "type": "uint256"
        }
      ],
      "name": "setDefaultPrice",
      "outputs": [],
      "stateMutability": "nonpayable",
      "type": "function"
    },
    {
      "inputs": [
        {
          "internalType": "uint256",
          "name": "percentage",
          "type": "uint256"
        }
      ],
      "name": "setDiscountPercentage",
      "outputs": [],
      "stateMutability": "nonpayable",
      "type": "function"
    },
    {
      "inputs": [
        {
          "internalType": "address",
          "name": "newRoyaltiesReceiver",
          "type": "address"
        }
      ],
      "name": "setRoyaltiesReceiver",
      "outputs": [],
      "stateMutability": "nonpayable",
      "type": "function"
    },
    {
      "inputs": [
        {
          "internalType": "address",
          "name": "account",
          "type": "address"
        }
      ],
      "name": "shares",
      "outputs": [
        {
          "internalType": "uint256",
          "name": "",
          "type": "uint256"
        }
      ],
      "stateMutability": "view",
      "type": "function"
    },
    {
      "inputs": [
        {
          "internalType": "bytes4",
          "name": "interfaceId",
          "type": "bytes4"
        }
      ],
      "name": "supportsInterface",
      "outputs": [
        {
          "internalType": "bool",
          "name": "",
          "type": "bool"
        }
      ],
      "stateMutability": "view",
      "type": "function"
    },
    {
      "inputs": [],
      "name": "symbol",
      "outputs": [
        {
          "internalType": "string",
          "name": "",
          "type": "string"
        }
      ],
      "stateMutability": "view",
      "type": "function"
    },
    {
      "inputs": [
        {
          "internalType": "uint256",
          "name": "index",
          "type": "uint256"
        }
      ],
      "name": "tokenByIndex",
      "outputs": [
        {
          "internalType": "uint256",
          "name": "",
          "type": "uint256"
        }
      ],
      "stateMutability": "view",
      "type": "function"
    },
    {
      "inputs": [
        {
          "internalType": "address",
          "name": "owner",
          "type": "address"
        },
        {
          "internalType": "uint256",
          "name": "index",
          "type": "uint256"
        }
      ],
      "name": "tokenOfOwnerByIndex",
      "outputs": [
        {
          "internalType": "uint256",
          "name": "",
          "type": "uint256"
        }
      ],
      "stateMutability": "view",
      "type": "function"
    },
    {
      "inputs": [
        {
          "internalType": "uint256",
          "name": "tokenId",
          "type": "uint256"
        }
      ],
      "name": "tokenURI",
      "outputs": [
        {
          "internalType": "string",
          "name": "",
          "type": "string"
        }
      ],
      "stateMutability": "view",
      "type": "function"
    },
    {
      "inputs": [],
      "name": "totalReleased",
      "outputs": [
        {
          "internalType": "uint256",
          "name": "",
          "type": "uint256"
        }
      ],
      "stateMutability": "view",
      "type": "function"
    },
    {
      "inputs": [],
      "name": "totalShares",
      "outputs": [
        {
          "internalType": "uint256",
          "name": "",
          "type": "uint256"
        }
      ],
      "stateMutability": "view",
      "type": "function"
    },
    {
      "inputs": [],
      "name": "totalSupply",
      "outputs": [
        {
          "internalType": "uint256",
          "name": "",
          "type": "uint256"
        }
      ],
      "stateMutability": "view",
      "type": "function"
    },
    {
      "inputs": [
        {
          "internalType": "address",
          "name": "from",
          "type": "address"
        },
        {
          "internalType": "address",
          "name": "to",
          "type": "address"
        },
        {
          "internalType": "uint256",
          "name": "tokenId",
          "type": "uint256"
        }
      ],
      "name": "transferFrom",
      "outputs": [],
      "stateMutability": "nonpayable",
      "type": "function"
    },
    {
      "inputs": [],
      "name": "unpause",
      "outputs": [],
      "stateMutability": "nonpayable",
      "type": "function"
    },
    {
      "inputs": [
        {
          "internalType": "string",
          "name": "word",
          "type": "string"
        }
      ],
      "name": "wordExists",
      "outputs": [
        {
          "internalType": "bool",
          "name": "",
          "type": "bool"
        }
      ],
      "stateMutability": "view",
      "type": "function"
    },
    {
      "stateMutability": "payable",
      "type": "receive"
    }
  ],
  "bytecode": "0x60806040523480156200001157600080fd5b50600054610100900460ff16806200002c575060005460ff16155b620000945760405162461bcd60e51b815260206004820152602e60248201527f496e697469616c697a61626c653a20636f6e747261637420697320616c72656160448201526d191e481a5b9a5d1a585b1a5e995960921b606482015260840160405180910390fd5b600054610100900460ff16158015620000b7576000805461ffff19166101011790555b8015620000ca576000805461ff00191690555b506148bb80620000db6000396000f3fe6080604052600436106103905760003560e01c80638456cb59116101dc578063b514371511610102578063d0fd890d116100a0578063e63ab1e91161006f578063e63ab1e914610ada578063e69e04b314610af1578063e985e9c514610b08578063ece7669e14610b5157600080fd5b8063d0fd890d14610a7a578063d539139314610a8d578063d547741f14610aa4578063e33b7de314610ac457600080fd5b8063c87b56dd116100dc578063c87b56dd146109ec578063ca15c87314610a0c578063cafa8dfe14610a2c578063ce7c2ac214610a4357600080fd5b8063b51437151461098c578063b88d4fde146109ac578063c32107f6146109cc57600080fd5b80639838b0241161017a578063a3a51bd511610149578063a3a51bd51461091d578063a7abb8b71461093e578063b3428d1514610955578063b3fa9f241461097557600080fd5b80639838b024146108915780639852595c146108b1578063a217fddf146108e8578063a22cb465146108fd57600080fd5b80638b83209b116101b65780638b83209b1461081c5780639010d07c1461083c57806391d148541461085c57806395d89b411461087c57600080fd5b80638456cb59146107c757806387ded6c6146107dc5780638ae1b3e2146107fc57600080fd5b80633f4ba83a116102c15780636352211e1161025f57806370a082311161022e57806370a082311461074357806373f36e581461076357806376977a3a1461077a5780637b63c0fc1461079a57600080fd5b80636352211e146106b65780636970bb0a146106d65780636d3c7ec51461070357806370868d6f1461072357600080fd5b806343bc16121161029b57806343bc161214610649578063445d97871461066a5780634f6ccce71461067d5780635c975abb1461069d57600080fd5b80633f4ba83a146105f457806342842e0e1461060957806342966c681461062957600080fd5b806323b872dd1161032e5780632f2ff15d116103085780632f2ff15d1461057e5780632f745c591461059e57806336568abe146105be5780633a98ef39146105de57600080fd5b806323b872dd146104ee578063248a9ca31461050e5780632a55205a1461053f57600080fd5b8063095ea7b31161036a578063095ea7b31461046d5780630e28a9e71461048f57806318160ddd146104af57806319165587146104ce57600080fd5b806301ffc9a7146103de57806306fdde0314610413578063081812fc1461043557600080fd5b366103d9577f6ef95f06320e7a25a04a175ca677b7052bdd97131872c2192525a629f51be77033604080516001600160a01b0390921682523460208301520160405180910390a1005b600080fd5b3480156103ea57600080fd5b506103fe6103f93660046141da565b610b71565b60405190151581526020015b60405180910390f35b34801561041f57600080fd5b50610428610b9c565b60405161040a919061453b565b34801561044157600080fd5b5061045561045036600461417d565b610c2e565b6040516001600160a01b03909116815260200161040a565b34801561047957600080fd5b5061048d610488366004614152565b610cbb565b005b34801561049b57600080fd5b5061048d6104aa366004614212565b610dd1565b3480156104bb57600080fd5b506099545b60405190815260200161040a565b3480156104da57600080fd5b5061048d6104e9366004613fc4565b610e0a565b3480156104fa57600080fd5b5061048d610509366004614018565b610fe5565b34801561051a57600080fd5b506104c061052936600461417d565b600090815261015f602052604090206001015490565b34801561054b57600080fd5b5061055f61055a3660046141b9565b611017565b604080516001600160a01b03909316835260208301919091520161040a565b34801561058a57600080fd5b5061048d610599366004614195565b611083565b3480156105aa57600080fd5b506104c06105b9366004614152565b6110a6565b3480156105ca57600080fd5b5061048d6105d9366004614195565b61113c565b3480156105ea57600080fd5b506101c3546104c0565b34801561060057600080fd5b5061048d61115f565b34801561061557600080fd5b5061048d610624366004614018565b611178565b34801561063557600080fd5b5061048d61064436600461417d565b611193565b34801561065557600080fd5b506101f654610455906001600160a01b031681565b61048d610678366004614244565b61120a565b34801561068957600080fd5b506104c061069836600461417d565b6113c2565b3480156106a957600080fd5b5061012d5460ff166103fe565b3480156106c257600080fd5b506104556106d136600461417d565b611463565b3480156106e257600080fd5b506106f66106f1366004613fc4565b6114da565b60405161040a91906144f7565b34801561070f57600080fd5b5061048d61071e36600461417d565b611599565b34801561072f57600080fd5b506104c061073e366004614212565b6115bc565b34801561074f57600080fd5b506104c061075e366004613fc4565b6115f2565b34801561076f57600080fd5b506104c06101fe5481565b34801561078657600080fd5b506104c0610795366004614105565b611679565b3480156107a657600080fd5b506107ba6107b5366004613fc4565b6116cf565b60405161040a9190614496565b3480156107d357600080fd5b5061048d611853565b3480156107e857600080fd5b506107ba6107f736600461417d565b611869565b34801561080857600080fd5b5061048d61081736600461433f565b6119e5565b34801561082857600080fd5b5061045561083736600461417d565b611a44565b34801561084857600080fd5b506104556108573660046141b9565b611a83565b34801561086857600080fd5b506103fe610877366004614195565b611a9c565b34801561088857600080fd5b50610428611ac8565b34801561089d57600080fd5b506104c06108ac366004614212565b611ad7565b3480156108bd57600080fd5b506104c06108cc366004613fc4565b6001600160a01b031660009081526101c6602052604090205490565b3480156108f457600080fd5b506104c0600081565b34801561090957600080fd5b5061048d6109183660046140d4565b611af5565b34801561092957600080fd5b506101f954610455906001600160a01b031681565b34801561094a57600080fd5b506104c06101fd5481565b34801561096157600080fd5b5061048d61097036600461417d565b611bba565b34801561098157600080fd5b506104c06101f85481565b34801561099857600080fd5b5061048d6109a7366004613fc4565b611bdd565b3480156109b857600080fd5b5061048d6109c7366004614058565b611c29565b3480156109d857600080fd5b506103fe6109e7366004614212565b611c61565b3480156109f857600080fd5b50610428610a0736600461417d565b611c8d565b348015610a1857600080fd5b506104c0610a2736600461417d565b611c98565b348015610a3857600080fd5b506104c06101fa5481565b348015610a4f57600080fd5b506104c0610a5e366004613fc4565b6001600160a01b031660009081526101c5602052604090205490565b61048d610a88366004614105565b611cb0565b348015610a9957600080fd5b506104c06101fc5481565b348015610ab057600080fd5b5061048d610abf366004614195565b611e8b565b348015610ad057600080fd5b506101c4546104c0565b348015610ae657600080fd5b506104c06101fb5481565b348015610afd57600080fd5b506104c06101f75481565b348015610b1457600080fd5b506103fe610b23366004613fe0565b6001600160a01b039182166000908152606a6020908152604080832093909416825291909152205460ff1690565b348015610b5d57600080fd5b506106f6610b6c36600461417d565b611e95565b60006001600160e01b0319821663152a902d60e11b1480610b965750610b9682611f7d565b92915050565b606060658054610bab90614792565b80601f0160208091040260200160405190810160405280929190818152602001828054610bd790614792565b8015610c245780601f10610bf957610100808354040283529160200191610c24565b820191906000526020600020905b815481529060010190602001808311610c0757829003601f168201915b5050505050905090565b6000610c3982611fa2565b610c9f5760405162461bcd60e51b815260206004820152602c60248201527f4552433732313a20617070726f76656420717565727920666f72206e6f6e657860448201526b34b9ba32b73a103a37b5b2b760a11b60648201526084015b60405180910390fd5b506000908152606960205260409020546001600160a01b031690565b6000610cc682611463565b9050806001600160a01b0316836001600160a01b03161415610d345760405162461bcd60e51b815260206004820152602160248201527f4552433732313a20617070726f76616c20746f2063757272656e74206f776e656044820152603960f91b6064820152608401610c96565b336001600160a01b0382161480610d505750610d508133610b23565b610dc25760405162461bcd60e51b815260206004820152603860248201527f4552433732313a20617070726f76652063616c6c6572206973206e6f74206f7760448201527f6e6572206e6f7220617070726f76656420666f7220616c6c00000000000000006064820152608401610c96565b610dcc8383611fbf565b505050565b6000610ddd813361202d565b60006101ff83604051610df09190614399565b9081526020016040518091039020549050610dcc81612095565b6001600160a01b03811660009081526101c56020526040902054610e7f5760405162461bcd60e51b815260206004820152602660248201527f5061796d656e7453706c69747465723a206163636f756e7420686173206e6f2060448201526573686172657360d01b6064820152608401610c96565b60006101c45447610e9091906146ed565b6001600160a01b03831660009081526101c660209081526040808320546101c3546101c5909352908320549394509192610eca9085614719565b610ed49190614705565b610ede9190614738565b905080610f415760405162461bcd60e51b815260206004820152602b60248201527f5061796d656e7453706c69747465723a206163636f756e74206973206e6f742060448201526a191d59481c185e5b595b9d60aa1b6064820152608401610c96565b6001600160a01b03831660009081526101c66020526040902054610f669082906146ed565b6001600160a01b03841660009081526101c660205260409020556101c454610f8f9082906146ed565b6101c455610f9d838261216b565b604080516001600160a01b0385168152602081018390527fdf20fd1e76bc69d672e4814fafb2c449bba3a5369d8359adf9e05e6fde87b05691015b60405180910390a1505050565b610ff0335b82612284565b61100c5760405162461bcd60e51b8152600401610c9690614618565b610dcc83838361236e565b6000806110286101fc546108773390565b8061103c575061103c6101fe546108773390565b1561104c5750600090508061107c565b600060646101fa548561105f9190614719565b6110699190614705565b6101f9546001600160a01b031693509150505b9250929050565b61108d8282612519565b600082815261019160205260409020610dcc9082612540565b60006110b1836115f2565b82106111135760405162461bcd60e51b815260206004820152602b60248201527f455243373231456e756d657261626c653a206f776e657220696e646578206f7560448201526a74206f6620626f756e647360a81b6064820152608401610c96565b506001600160a01b03919091166000908152609760209081526040808320938352929052205490565b6111468282612555565b600082815261019160205260409020610dcc90826125cf565b6101fb5461116d813361202d565b6111756125e4565b50565b610dcc83838360405180602001604052806000815250611c29565b61119c33610fea565b6112015760405162461bcd60e51b815260206004820152603060248201527f4552433732314275726e61626c653a2063616c6c6572206973206e6f74206f7760448201526f1b995c881b9bdc88185c1c1c9bdd995960821b6064820152608401610c96565b61117581612095565b600054610100900460ff1680611223575060005460ff16155b61123f5760405162461bcd60e51b8152600401610c96906145ca565b600054610100900460ff16158015611261576000805461ffff19166101011790555b61126b8585612679565b611273612700565b61127b612700565b611283612700565b61128b612783565b6112936127ea565b61129d8383612849565b6101f68054336001600160a01b031991821681179092556702c68af0bb1400006101f7556113886101f8556101f980549091168217905560086101fa557f65d7a28e3265b37a6474929f336521b332c1681b933f6cb9f3376673440d862a6101fb557f9f2df0fed2c77648de5860a4cc508cd0818c85b8b8a1ab4ceeef8d981c8956a66101fc557ff9e9e1c8035f82fd72c5438c5719fd5349deacb4207f4fcbbda606cb5a39d5096101fd557f29434eb5e8812e221f75c8938ee14034fc1cbbc820ce3ab1dd76fa5eb480c48d6101fe5561137f906000906128b2565b6128b2565b61138d6101fb5461137a3390565b61139b6101fc5461137a3390565b6113a96101fe5461137a3390565b80156113bb576000805461ff00191690555b5050505050565b60006113cd60995490565b82106114305760405162461bcd60e51b815260206004820152602c60248201527f455243373231456e756d657261626c653a20676c6f62616c20696e646578206f60448201526b7574206f6620626f756e647360a01b6064820152608401610c96565b6099828154811061145157634e487b7160e01b600052603260045260246000fd5b90600052602060002001549050919050565b6000818152606760205260408120546001600160a01b031680610b965760405162461bcd60e51b815260206004820152602960248201527f4552433732313a206f776e657220717565727920666f72206e6f6e657869737460448201526832b73a103a37b5b2b760b91b6064820152608401610c96565b606060006114e7836115f2565b6001600160401b0381111561150c57634e487b7160e01b600052604160045260246000fd5b604051908082528060200260200182016040528015611535578160200160208202803683370190505b50905060005b611544846115f2565b8110156115925761155584826110a6565b82828151811061157557634e487b7160e01b600052603260045260246000fd5b60209081029190910101528061158a816147c7565b91505061153b565b5092915050565b60006115a5813361202d565b6101f7548214156115b557600080fd5b506101f755565b6000806115c9813361202d565b610202836040516115da9190614399565b90815260200160405180910390205491505b50919050565b60006001600160a01b03821661165d5760405162461bcd60e51b815260206004820152602a60248201527f4552433732313a2062616c616e636520717565727920666f7220746865207a65604482015269726f206164647265737360b01b6064820152608401610c96565b506001600160a01b031660009081526068602052604090205490565b60006116886101fc5484611a9c565b1561169557506000610b96565b6116a26101fd5484611a9c565b156116bf576116b86116b3836128bc565b612915565b9050610b96565b6116c8826128bc565b9392505050565b606060006116dc836114da565b9050600081516001600160401b0381111561170757634e487b7160e01b600052604160045260246000fd5b60405190808252806020026020018201604052801561173a57816020015b60608152602001906001900390816117255790505b50905060005b825181101561184b57610200600084838151811061176e57634e487b7160e01b600052603260045260246000fd5b60200260200101518152602001908152602001600020805461178f90614792565b80601f01602080910402602001604051908101604052809291908181526020018280546117bb90614792565b80156118085780601f106117dd57610100808354040283529160200191611808565b820191906000526020600020905b8154815290600101906020018083116117eb57829003601f168201915b505050505082828151811061182d57634e487b7160e01b600052603260045260246000fd5b60200260200101819052508080611843906147c7565b915050611740565b509392505050565b6101fb54611861813361202d565b611175612933565b6060600061187683611e95565b9050600081516001600160401b038111156118a157634e487b7160e01b600052604160045260246000fd5b6040519080825280602002602001820160405280156118d457816020015b60608152602001906001900390816118bf5790505b50905060005b825181101561184b57610200600084838151811061190857634e487b7160e01b600052603260045260246000fd5b60200260200101518152602001908152602001600020805461192990614792565b80601f016020809104026020016040519081016040528092919081815260200182805461195590614792565b80156119a25780601f10611977576101008083540402835291602001916119a2565b820191906000526020600020905b81548152906001019060200180831161198557829003601f168201915b50505050508282815181106119c757634e487b7160e01b600052603260045260246000fd5b602002602001018190525080806119dd906147c7565b9150506118da565b60006119f1813361202d565b61020282604051611a029190614399565b908152602001604051809103902054831415611a1d57600080fd5b8261020283604051611a2f9190614399565b90815260405190819003602001902055505050565b60006101c78281548110611a6857634e487b7160e01b600052603260045260246000fd5b6000918252602090912001546001600160a01b031692915050565b6000828152610191602052604081206116c8908361298d565b600091825261015f602090815260408084206001600160a01b0393909316845291905290205460ff1690565b606060668054610bab90614792565b600080611ae4813361202d565b6101ff836040516115da9190614399565b6001600160a01b038216331415611b4e5760405162461bcd60e51b815260206004820152601960248201527f4552433732313a20617070726f766520746f2063616c6c6572000000000000006044820152606401610c96565b336000818152606a602090815260408083206001600160a01b03871680855290835292819020805460ff191686151590811790915590519081529192917f17307eab39ab6107e8899845ad3d59bd9653f200f220920489ca2b5937696c31910160405180910390a35050565b6000611bc6813361202d565b6101f854821415611bd657600080fd5b506101f855565b6000611be9813361202d565b6101f9546001600160a01b0383811691161415611c0557600080fd5b506101f980546001600160a01b0319166001600160a01b0392909216919091179055565b611c333383612284565b611c4f5760405162461bcd60e51b8152600401610c9690614618565b611c5b84848484612999565b50505050565b600061020182604051611c749190614399565b9081526040519081900360200190205460ff1692915050565b6060610b96826129cc565b600081815261019160205260408120610b9690612b2e565b61012d5460ff1615611cd45760405162461bcd60e51b8152600401610c96906145a0565b611ce26101fc546108773390565b611db05761020181604051611cf79190614399565b9081526040519081900360200190205460ff1615611d4d5760405162461bcd60e51b8152602060048201526013602482015272576f726420616c72656164792065786973747360681b6044820152606401610c96565b611d573382611679565b341015611db05760405162461bcd60e51b815260206004820152602160248201527f4e6f7420656e6f756768204554482073656e743b20636865636b2070726963656044820152602160f81b6064820152608401610c96565b6000611dbc6101f55490565b9050611dcd6101f580546001019055565b806101ff83604051611ddf9190614399565b90815260408051602092819003830190209290925560008381526102008252919091208351611e1092850190613e10565b50600161020183604051611e249190614399565b908152604051908190036020019020805491151560ff19909216919091179055611e4e8382612b38565b611e588183612b52565b7fe7619a6b73b99956e487541f2eafbf4cb611a98b8391e31858fe02ba08669f05818385604051610fd893929190614669565b6111468282612bdd565b60606000611ea260995490565b6001600160401b03811115611ec757634e487b7160e01b600052604160045260246000fd5b604051908082528060200260200182016040528015611ef0578160200160208202803683370190505b509050600083611eff60995490565b10611f1d5783611f0e60995490565b611f189190614738565b611f20565b60005b9050805b609954811015611f7457611f37816113c2565b838281518110611f5757634e487b7160e01b600052603260045260246000fd5b602090810291909101015280611f6c816147c7565b915050611f24565b50909392505050565b60006001600160e01b03198216635a05180f60e01b1480610b965750610b9682612c04565b6000908152606760205260409020546001600160a01b0316151590565b600081815260696020526040902080546001600160a01b0319166001600160a01b0384169081179091558190611ff482611463565b6001600160a01b03167f8c5be1e5ebec7d5bd14f71427d1e84f3dd0314c0f7b2291e5b200ac8c7c3b92560405160405180910390a45050565b6120378282611a9c565b6120915761204f816001600160a01b03166014612c29565b61205a836020612c29565b60405160200161206b9291906143e4565b60408051601f198184030181529082905262461bcd60e51b8252610c969160040161453b565b5050565b60008181526102006020526040812080546120af90614792565b80601f01602080910402602001604051908101604052809291908181526020018280546120db90614792565b80156121285780601f106120fd57610100808354040283529160200191612128565b820191906000526020600020905b81548152906001019060200180831161210b57829003601f168201915b505050505090506000610201826040516121429190614399565b908152604051908190036020019020805491151560ff1990921691909117905561209182612e0a565b804710156121bb5760405162461bcd60e51b815260206004820152601d60248201527f416464726573733a20696e73756666696369656e742062616c616e63650000006044820152606401610c96565b6000826001600160a01b03168260405160006040518083038185875af1925050503d8060008114612208576040519150601f19603f3d011682016040523d82523d6000602084013e61220d565b606091505b5050905080610dcc5760405162461bcd60e51b815260206004820152603a60248201527f416464726573733a20756e61626c6520746f2073656e642076616c75652c207260448201527f6563697069656e74206d617920686176652072657665727465640000000000006064820152608401610c96565b600061228f82611fa2565b6122f05760405162461bcd60e51b815260206004820152602c60248201527f4552433732313a206f70657261746f7220717565727920666f72206e6f6e657860448201526b34b9ba32b73a103a37b5b2b760a11b6064820152608401610c96565b60006122fb83611463565b9050806001600160a01b0316846001600160a01b031614806123365750836001600160a01b031661232b84610c2e565b6001600160a01b0316145b8061236657506001600160a01b038082166000908152606a602090815260408083209388168352929052205460ff165b949350505050565b826001600160a01b031661238182611463565b6001600160a01b0316146123e95760405162461bcd60e51b815260206004820152602960248201527f4552433732313a207472616e73666572206f6620746f6b656e2074686174206960448201526839903737ba1037bbb760b91b6064820152608401610c96565b6001600160a01b03821661244b5760405162461bcd60e51b8152602060048201526024808201527f4552433732313a207472616e7366657220746f20746865207a65726f206164646044820152637265737360e01b6064820152608401610c96565b612456838383612e4a565b612461600082611fbf565b6001600160a01b038316600090815260686020526040812080546001929061248a908490614738565b90915550506001600160a01b03821660009081526068602052604081208054600192906124b89084906146ed565b909155505060008181526067602052604080822080546001600160a01b0319166001600160a01b0386811691821790925591518493918716917fddf252ad1be2c89b69c2b068fc378daa952ba7f163c4a11628f55a4df523b3ef91a4505050565b600082815261015f6020526040902060010154612536813361202d565b610dcc8383612e79565b60006116c8836001600160a01b038416612f00565b6001600160a01b03811633146125c55760405162461bcd60e51b815260206004820152602f60248201527f416363657373436f6e74726f6c3a2063616e206f6e6c792072656e6f756e636560448201526e103937b632b9903337b91039b2b63360891b6064820152608401610c96565b6120918282612f4f565b60006116c8836001600160a01b038416612fb7565b61012d5460ff1661262e5760405162461bcd60e51b815260206004820152601460248201527314185d5cd8589b194e881b9bdd081c185d5cd95960621b6044820152606401610c96565b61012d805460ff191690557f5db9ee0a495bf2e6ff9c91a7834c1ba4fdd244a5e8aa4e537bd38aeae4b073aa335b6040516001600160a01b03909116815260200160405180910390a1565b600054610100900460ff1680612692575060005460ff16155b6126ae5760405162461bcd60e51b8152600401610c96906145ca565b600054610100900460ff161580156126d0576000805461ffff19166101011790555b6126d86130d4565b6126e06130d4565b6126ea838361313e565b8015610dcc576000805461ff0019169055505050565b600054610100900460ff1680612719575060005460ff16155b6127355760405162461bcd60e51b8152600401610c96906145ca565b600054610100900460ff16158015612757576000805461ffff19166101011790555b61275f6130d4565b6127676130d4565b61276f6130d4565b8015611175576000805461ff001916905550565b600054610100900460ff168061279c575060005460ff16155b6127b85760405162461bcd60e51b8152600401610c96906145ca565b600054610100900460ff161580156127da576000805461ffff19166101011790555b6127e26130d4565b61276f6131d3565b600054610100900460ff1680612803575060005460ff16155b61281f5760405162461bcd60e51b8152600401610c96906145ca565b600054610100900460ff16158015612841576000805461ffff19166101011790555b6127576130d4565b600054610100900460ff1680612862575060005460ff16155b61287e5760405162461bcd60e51b8152600401610c96906145ca565b600054610100900460ff161580156128a0576000805461ffff19166101011790555b6128a86130d4565b6126ea8383613249565b61108d82826133d3565b600080610202836040516128d09190614399565b908152602001604051809103902054111561290c57610202826040516128f69190614399565b9081526020016040518091039020549050919050565b50506101f75490565b60006127106101f854836129299190614719565b610b969190614705565b61012d5460ff16156129575760405162461bcd60e51b8152600401610c96906145a0565b61012d805460ff191660011790557f62e78cea01bee320cd4e420270b5ea74000d11b0c9f74754ebdbfc544b05a25861265c3390565b60006116c883836133dd565b6129a484848461236e565b6129b084848484613415565b611c5b5760405162461bcd60e51b8152600401610c969061454e565b60606129d782611fa2565b612a3d5760405162461bcd60e51b815260206004820152603160248201527f45524337323155524953746f726167653a2055524920717565727920666f72206044820152703737b732bc34b9ba32b73a103a37b5b2b760791b6064820152608401610c96565b600082815260c9602052604081208054612a5690614792565b80601f0160208091040260200160405190810160405280929190818152602001828054612a8290614792565b8015612acf5780601f10612aa457610100808354040283529160200191612acf565b820191906000526020600020905b815481529060010190602001808311612ab257829003601f168201915b505050505090506000612ae0613522565b9050805160001415612af3575092915050565b815115612b25578082604051602001612b0d9291906143b5565b60405160208183030381529060405292505050919050565b61236684613542565b6000610b96825490565b61209182826040518060200160405280600081525061360c565b612b5b82611fa2565b612bbe5760405162461bcd60e51b815260206004820152602e60248201527f45524337323155524953746f726167653a2055524920736574206f66206e6f6e60448201526d32bc34b9ba32b73a103a37b5b2b760911b6064820152608401610c96565b600082815260c9602090815260409091208251610dcc92840190613e10565b600082815261015f6020526040902060010154612bfa813361202d565b610dcc8383612f4f565b60006001600160e01b03198216637965db0b60e01b1480610b965750610b968261363f565b60606000612c38836002614719565b612c439060026146ed565b6001600160401b03811115612c6857634e487b7160e01b600052604160045260246000fd5b6040519080825280601f01601f191660200182016040528015612c92576020820181803683370190505b509050600360fc1b81600081518110612cbb57634e487b7160e01b600052603260045260246000fd5b60200101906001600160f81b031916908160001a905350600f60fb1b81600181518110612cf857634e487b7160e01b600052603260045260246000fd5b60200101906001600160f81b031916908160001a9053506000612d1c846002614719565b612d279060016146ed565b90505b6001811115612dbb576f181899199a1a9b1b9c1cb0b131b232b360811b85600f1660108110612d6957634e487b7160e01b600052603260045260246000fd5b1a60f81b828281518110612d8d57634e487b7160e01b600052603260045260246000fd5b60200101906001600160f81b031916908160001a90535060049490941c93612db48161477b565b9050612d2a565b5083156116c85760405162461bcd60e51b815260206004820181905260248201527f537472696e67733a20686578206c656e67746820696e73756666696369656e746044820152606401610c96565b612e1381613664565b600081815260c9602052604090208054612e2c90614792565b15905061117557600081815260c96020526040812061117591613e94565b61012d5460ff1615612e6e5760405162461bcd60e51b8152600401610c96906145a0565b610dcc83838361370b565b612e838282611a9c565b61209157600082815261015f602090815260408083206001600160a01b03851684529091529020805460ff19166001179055612ebc3390565b6001600160a01b0316816001600160a01b0316837f2f8788117e7eff1d82e926ec794901d17c78024a50270940304540a733656f0d60405160405180910390a45050565b6000818152600183016020526040812054612f4757508154600181810184556000848152602080822090930184905584548482528286019093526040902091909155610b96565b506000610b96565b612f598282611a9c565b1561209157600082815261015f602090815260408083206001600160a01b0385168085529252808320805460ff1916905551339285917ff6391f5c32d9c69d2a47ea670b442974b53935d1edc7fd64eb21e047a839171b9190a45050565b600081815260018301602052604081205480156130ca576000612fdb600183614738565b8554909150600090612fef90600190614738565b905081811461307057600086600001828154811061301d57634e487b7160e01b600052603260045260246000fd5b906000526020600020015490508087600001848154811061304e57634e487b7160e01b600052603260045260246000fd5b6000918252602080832090910192909255918252600188019052604090208390555b855486908061308f57634e487b7160e01b600052603160045260246000fd5b600190038181906000526020600020016000905590558560010160008681526020019081526020016000206000905560019350505050610b96565b6000915050610b96565b600054610100900460ff16806130ed575060005460ff16155b6131095760405162461bcd60e51b8152600401610c96906145ca565b600054610100900460ff1615801561276f576000805461ffff19166101011790558015611175576000805461ff001916905550565b600054610100900460ff1680613157575060005460ff16155b6131735760405162461bcd60e51b8152600401610c96906145ca565b600054610100900460ff16158015613195576000805461ffff19166101011790555b82516131a8906065906020860190613e10565b5081516131bc906066906020850190613e10565b508015610dcc576000805461ff0019169055505050565b600054610100900460ff16806131ec575060005460ff16155b6132085760405162461bcd60e51b8152600401610c96906145ca565b600054610100900460ff1615801561322a576000805461ffff19166101011790555b61012d805460ff191690558015611175576000805461ff001916905550565b600054610100900460ff1680613262575060005460ff16155b61327e5760405162461bcd60e51b8152600401610c96906145ca565b600054610100900460ff161580156132a0576000805461ffff19166101011790555b815183511461330c5760405162461bcd60e51b815260206004820152603260248201527f5061796d656e7453706c69747465723a2070617965657320616e6420736861726044820152710cae640d8cadccee8d040dad2e6dac2e8c6d60731b6064820152608401610c96565b600083511161335d5760405162461bcd60e51b815260206004820152601a60248201527f5061796d656e7453706c69747465723a206e6f207061796565730000000000006044820152606401610c96565b60005b83518110156131bc576133c184828151811061338c57634e487b7160e01b600052603260045260246000fd5b60200260200101518483815181106133b457634e487b7160e01b600052603260045260246000fd5b60200260200101516137c3565b806133cb816147c7565b915050613360565b6120918282612e79565b600082600001828154811061340257634e487b7160e01b600052603260045260246000fd5b9060005260206000200154905092915050565b60006001600160a01b0384163b1561351757604051630a85bd0160e11b81526001600160a01b0385169063150b7a0290613459903390899088908890600401614459565b602060405180830381600087803b15801561347357600080fd5b505af19250505080156134a3575060408051601f3d908101601f191682019092526134a0918101906141f6565b60015b6134fd573d8080156134d1576040519150601f19603f3d011682016040523d82523d6000602084013e6134d6565b606091505b5080516134f55760405162461bcd60e51b8152600401610c969061454e565b805181602001fd5b6001600160e01b031916630a85bd0160e11b149050612366565b506001949350505050565b606060405180606001604052806022815260200161486460229139905090565b606061354d82611fa2565b6135b15760405162461bcd60e51b815260206004820152602f60248201527f4552433732314d657461646174613a2055524920717565727920666f72206e6f60448201526e3732bc34b9ba32b73a103a37b5b2b760891b6064820152608401610c96565b60006135bb613522565b905060008151116135db57604051806020016040528060008152506116c8565b806135e5846139ae565b6040516020016135f69291906143b5565b6040516020818303038152906040529392505050565b6136168383613ac7565b6136236000848484613415565b610dcc5760405162461bcd60e51b8152600401610c969061454e565b60006001600160e01b0319821663780e9d6360e01b1480610b965750610b9682613c06565b600061366f82611463565b905061367d81600084612e4a565b613688600083611fbf565b6001600160a01b03811660009081526068602052604081208054600192906136b1908490614738565b909155505060008281526067602052604080822080546001600160a01b0319169055518391906001600160a01b038416907fddf252ad1be2c89b69c2b068fc378daa952ba7f163c4a11628f55a4df523b3ef908390a45050565b6001600160a01b0383166137665761376181609980546000838152609a60205260408120829055600182018355919091527f72a152ddfb8e864297c917af52ea6c1c68aead0fee1a62673fcc7e0c94979d000155565b613789565b816001600160a01b0316836001600160a01b031614613789576137898382613c56565b6001600160a01b0382166137a057610dcc81613cf3565b826001600160a01b0316826001600160a01b031614610dcc57610dcc8282613dcc565b6001600160a01b03821661382e5760405162461bcd60e51b815260206004820152602c60248201527f5061796d656e7453706c69747465723a206163636f756e74206973207468652060448201526b7a65726f206164647265737360a01b6064820152608401610c96565b6000811161387e5760405162461bcd60e51b815260206004820152601d60248201527f5061796d656e7453706c69747465723a207368617265732061726520300000006044820152606401610c96565b6001600160a01b03821660009081526101c56020526040902054156138f95760405162461bcd60e51b815260206004820152602b60248201527f5061796d656e7453706c69747465723a206163636f756e7420616c726561647960448201526a206861732073686172657360a81b6064820152608401610c96565b6101c78054600181019091557fff6df30967a6a678f565c59a19e91e5c0dbb20cfe9f9bf26d7da6dea0fffa24c0180546001600160a01b0319166001600160a01b03841690811790915560009081526101c5602052604090208190556101c3546139649082906146ed565b6101c355604080516001600160a01b0384168152602081018390527f40c340f65e17194d14ddddb073d3c9f888e3cb52b5aae0c6c7706b4fbc905fac910160405180910390a15050565b6060816139d25750506040805180820190915260018152600360fc1b602082015290565b8160005b81156139fc57806139e6816147c7565b91506139f59050600a83614705565b91506139d6565b6000816001600160401b03811115613a2457634e487b7160e01b600052604160045260246000fd5b6040519080825280601f01601f191660200182016040528015613a4e576020820181803683370190505b5090505b841561236657613a63600183614738565b9150613a70600a866147e2565b613a7b9060306146ed565b60f81b818381518110613a9e57634e487b7160e01b600052603260045260246000fd5b60200101906001600160f81b031916908160001a905350613ac0600a86614705565b9450613a52565b6001600160a01b038216613b1d5760405162461bcd60e51b815260206004820181905260248201527f4552433732313a206d696e7420746f20746865207a65726f20616464726573736044820152606401610c96565b613b2681611fa2565b15613b735760405162461bcd60e51b815260206004820152601c60248201527f4552433732313a20746f6b656e20616c7265616479206d696e746564000000006044820152606401610c96565b613b7f60008383612e4a565b6001600160a01b0382166000908152606860205260408120805460019290613ba89084906146ed565b909155505060008181526067602052604080822080546001600160a01b0319166001600160a01b03861690811790915590518392907fddf252ad1be2c89b69c2b068fc378daa952ba7f163c4a11628f55a4df523b3ef908290a45050565b60006001600160e01b031982166380ac58cd60e01b1480613c3757506001600160e01b03198216635b5e139f60e01b145b80610b9657506301ffc9a760e01b6001600160e01b0319831614610b96565b60006001613c63846115f2565b613c6d9190614738565b600083815260986020526040902054909150808214613cc0576001600160a01b03841660009081526097602090815260408083208584528252808320548484528184208190558352609890915290208190555b5060009182526098602090815260408084208490556001600160a01b039094168352609781528383209183525290812055565b609954600090613d0590600190614738565b6000838152609a602052604081205460998054939450909284908110613d3b57634e487b7160e01b600052603260045260246000fd5b906000526020600020015490508060998381548110613d6a57634e487b7160e01b600052603260045260246000fd5b6000918252602080832090910192909255828152609a90915260408082208490558582528120556099805480613db057634e487b7160e01b600052603160045260246000fd5b6001900381819060005260206000200160009055905550505050565b6000613dd7836115f2565b6001600160a01b039093166000908152609760209081526040808320868452825280832085905593825260989052919091209190915550565b828054613e1c90614792565b90600052602060002090601f016020900481019282613e3e5760008555613e84565b82601f10613e5757805160ff1916838001178555613e84565b82800160010185558215613e84579182015b82811115613e84578251825591602001919060010190613e69565b50613e90929150613eca565b5090565b508054613ea090614792565b6000825580601f10613eb0575050565b601f01602090049060005260206000209081019061117591905b5b80821115613e905760008155600101613ecb565b60006001600160401b03831115613ef857613ef8614822565b613f0b601f8401601f191660200161469a565b9050828152838383011115613f1f57600080fd5b828260208301376000602084830101529392505050565b600082601f830112613f46578081fd5b81356020613f5b613f56836146ca565b61469a565b80838252828201915082860187848660051b8901011115613f7a578586fd5b855b85811015613f9857813584529284019290840190600101613f7c565b5090979650505050505050565b600082601f830112613fb5578081fd5b6116c883833560208501613edf565b600060208284031215613fd5578081fd5b81356116c881614838565b60008060408385031215613ff2578081fd5b8235613ffd81614838565b9150602083013561400d81614838565b809150509250929050565b60008060006060848603121561402c578081fd5b833561403781614838565b9250602084013561404781614838565b929592945050506040919091013590565b6000806000806080858703121561406d578081fd5b843561407881614838565b9350602085013561408881614838565b92506040850135915060608501356001600160401b038111156140a9578182fd5b8501601f810187136140b9578182fd5b6140c887823560208401613edf565b91505092959194509250565b600080604083850312156140e6578182fd5b82356140f181614838565b91506020830135801515811461400d578182fd5b60008060408385031215614117578182fd5b823561412281614838565b915060208301356001600160401b0381111561413c578182fd5b61414885828601613fa5565b9150509250929050565b60008060408385031215614164578182fd5b823561416f81614838565b946020939093013593505050565b60006020828403121561418e578081fd5b5035919050565b600080604083850312156141a7578182fd5b82359150602083013561400d81614838565b600080604083850312156141cb578182fd5b50508035926020909101359150565b6000602082840312156141eb578081fd5b81356116c88161484d565b600060208284031215614207578081fd5b81516116c88161484d565b600060208284031215614223578081fd5b81356001600160401b03811115614238578182fd5b61236684828501613fa5565b60008060008060808587031215614259578182fd5b84356001600160401b038082111561426f578384fd5b61427b88838901613fa5565b9550602091508187013581811115614291578485fd5b61429d89828a01613fa5565b9550506040870135818111156142b1578485fd5b8701601f810189136142c1578485fd5b80356142cf613f56826146ca565b8082825285820191508584018c878560051b87010111156142ee578889fd5b8894505b8385101561431957803561430581614838565b8352600194909401939186019186016142f2565b5096505050506060870135915080821115614332578283fd5b506140c887828801613f36565b60008060408385031215614351578182fd5b8235915060208301356001600160401b0381111561413c578182fd5b6000815180845261438581602086016020860161474f565b601f01601f19169290920160200192915050565b600082516143ab81846020870161474f565b9190910192915050565b600083516143c781846020880161474f565b8351908301906143db81836020880161474f565b01949350505050565b7f416363657373436f6e74726f6c3a206163636f756e742000000000000000000081526000835161441c81601785016020880161474f565b7001034b99036b4b9b9b4b733903937b6329607d1b601791840191820152835161444d81602884016020880161474f565b01602801949350505050565b6001600160a01b038581168252841660208201526040810183905260806060820181905260009061448c9083018461436d565b9695505050505050565b6000602080830181845280855180835260408601915060408160051b8701019250838701855b828110156144ea57603f198886030184526144d885835161436d565b945092850192908501906001016144bc565b5092979650505050505050565b6020808252825182820181905260009190848201906040850190845b8181101561452f57835183529284019291840191600101614513565b50909695505050505050565b6020815260006116c8602083018461436d565b60208082526032908201527f4552433732313a207472616e7366657220746f206e6f6e20455243373231526560408201527131b2b4bb32b91034b6b83632b6b2b73a32b960711b606082015260800190565b60208082526010908201526f14185d5cd8589b194e881c185d5cd95960821b604082015260600190565b6020808252602e908201527f496e697469616c697a61626c653a20636f6e747261637420697320616c72656160408201526d191e481a5b9a5d1a585b1a5e995960921b606082015260800190565b60208082526031908201527f4552433732313a207472616e736665722063616c6c6572206973206e6f74206f6040820152701ddb995c881b9bdc88185c1c1c9bdd9959607a1b606082015260800190565b838152606060208201526000614682606083018561436d565b905060018060a01b0383166040830152949350505050565b604051601f8201601f191681016001600160401b03811182821017156146c2576146c2614822565b604052919050565b60006001600160401b038211156146e3576146e3614822565b5060051b60200190565b60008219821115614700576147006147f6565b500190565b6000826147145761471461480c565b500490565b6000816000190483118215151615614733576147336147f6565b500290565b60008282101561474a5761474a6147f6565b500390565b60005b8381101561476a578181015183820152602001614752565b83811115611c5b5750506000910152565b60008161478a5761478a6147f6565b506000190190565b600181811c908216806147a657607f821691505b602082108114156115ec57634e487b7160e01b600052602260045260246000fd5b60006000198214156147db576147db6147f6565b5060010190565b6000826147f1576147f161480c565b500690565b634e487b7160e01b600052601160045260246000fd5b634e487b7160e01b600052601260045260246000fd5b634e487b7160e01b600052604160045260246000fd5b6001600160a01b038116811461117557600080fd5b6001600160e01b03198116811461117557600080fdfe68747470733a2f2f63727970746f776f7264732e6172742f6170692f746f6b656e2fa26469706673582212202f150eb0d6f6f86c76e3ec4c01f756bf50a459607ffa8c1521a8c3c2eebd2d4064736f6c63430008040033",
  "linkReferences": {},
  "deployedLinkReferences": {}
}