{
  "_format": "hh-sol-artifact-1",
  "contractName": "CryptoWordsV1",
  "sourceName": "contracts/CryptoWordsV1.sol",
  "abi": [
    {
      "inputs": [],
      "stateMutability": "nonpayable",
      "type": "constructor"
    },
    {
      "anonymous": false,
      "inputs": [
        {
          "indexed": true,
          "internalType": "address",
          "name": "owner",
          "type": "address"
        },
        {
          "indexed": true,
          "internalType": "address",
          "name": "approved",
          "type": "address"
        },
        {
          "indexed": true,
          "internalType": "uint256",
          "name": "tokenId",
          "type": "uint256"
        }
      ],
      "name": "Approval",
      "type": "event"
    },
    {
      "anonymous": false,
      "inputs": [
        {
          "indexed": true,
          "internalType": "address",
          "name": "owner",
          "type": "address"
        },
        {
          "indexed": true,
          "internalType": "address",
          "name": "operator",
          "type": "address"
        },
        {
          "indexed": false,
          "internalType": "bool",
          "name": "approved",
          "type": "bool"
        }
      ],
      "name": "ApprovalForAll",
      "type": "event"
    },
    {
      "anonymous": false,
      "inputs": [
        {
          "indexed": false,
          "internalType": "uint256",
          "name": "discount",
          "type": "uint256"
        }
      ],
      "name": "DiscountGlobalSet",
      "type": "event"
    },
    {
      "anonymous": false,
      "inputs": [
        {
          "indexed": false,
          "internalType": "uint256",
          "name": "discount",
          "type": "uint256"
        }
      ],
      "name": "DiscountSet",
      "type": "event"
    },
    {
      "anonymous": false,
      "inputs": [
        {
          "indexed": false,
          "internalType": "uint256",
          "name": "instances",
          "type": "uint256"
        }
      ],
      "name": "MaxInstancesSet",
      "type": "event"
    },
    {
      "anonymous": false,
      "inputs": [
        {
          "indexed": false,
          "internalType": "address",
          "name": "account",
          "type": "address"
        }
      ],
      "name": "Paused",
      "type": "event"
    },
    {
      "anonymous": false,
      "inputs": [
        {
          "indexed": false,
          "internalType": "address",
          "name": "account",
          "type": "address"
        },
        {
          "indexed": false,
          "internalType": "uint256",
          "name": "shares",
          "type": "uint256"
        }
      ],
      "name": "PayeeAdded",
      "type": "event"
    },
    {
      "anonymous": false,
      "inputs": [
        {
          "indexed": false,
          "internalType": "address",
          "name": "from",
          "type": "address"
        },
        {
          "indexed": false,
          "internalType": "uint256",
          "name": "amount",
          "type": "uint256"
        }
      ],
      "name": "PaymentReceived",
      "type": "event"
    },
    {
      "anonymous": false,
      "inputs": [
        {
          "indexed": false,
          "internalType": "address",
          "name": "to",
          "type": "address"
        },
        {
          "indexed": false,
          "internalType": "uint256",
          "name": "amount",
          "type": "uint256"
        }
      ],
      "name": "PaymentReleased",
      "type": "event"
    },
    {
      "anonymous": false,
      "inputs": [
        {
          "indexed": false,
          "internalType": "uint256",
          "name": "price",
          "type": "uint256"
        }
      ],
      "name": "PriceSet",
      "type": "event"
    },
    {
      "anonymous": false,
      "inputs": [
        {
          "indexed": true,
          "internalType": "bytes32",
          "name": "role",
          "type": "bytes32"
        },
        {
          "indexed": true,
          "internalType": "bytes32",
          "name": "previousAdminRole",
          "type": "bytes32"
        },
        {
          "indexed": true,
          "internalType": "bytes32",
          "name": "newAdminRole",
          "type": "bytes32"
        }
      ],
      "name": "RoleAdminChanged",
      "type": "event"
    },
    {
      "anonymous": false,
      "inputs": [
        {
          "indexed": true,
          "internalType": "bytes32",
          "name": "role",
          "type": "bytes32"
        },
        {
          "indexed": true,
          "internalType": "address",
          "name": "account",
          "type": "address"
        },
        {
          "indexed": true,
          "internalType": "address",
          "name": "sender",
          "type": "address"
        }
      ],
      "name": "RoleGranted",
      "type": "event"
    },
    {
      "anonymous": false,
      "inputs": [
        {
          "indexed": true,
          "internalType": "bytes32",
          "name": "role",
          "type": "bytes32"
        },
        {
          "indexed": true,
          "internalType": "address",
          "name": "account",
          "type": "address"
        },
        {
          "indexed": true,
          "internalType": "address",
          "name": "sender",
          "type": "address"
        }
      ],
      "name": "RoleRevoked",
      "type": "event"
    },
    {
      "anonymous": false,
      "inputs": [
        {
          "indexed": true,
          "internalType": "address",
          "name": "from",
          "type": "address"
        },
        {
          "indexed": true,
          "internalType": "address",
          "name": "to",
          "type": "address"
        },
        {
          "indexed": true,
          "internalType": "uint256",
          "name": "tokenId",
          "type": "uint256"
        }
      ],
      "name": "Transfer",
      "type": "event"
    },
    {
      "anonymous": false,
      "inputs": [
        {
          "indexed": false,
          "internalType": "address",
          "name": "account",
          "type": "address"
        }
      ],
      "name": "Unpaused",
      "type": "event"
    },
    {
      "anonymous": false,
      "inputs": [
        {
          "indexed": false,
          "internalType": "uint256",
          "name": "tokenId",
          "type": "uint256"
        },
        {
          "indexed": false,
          "internalType": "string",
          "name": "word",
          "type": "string"
        },
        {
          "indexed": false,
          "internalType": "address",
          "name": "to",
          "type": "address"
        }
      ],
      "name": "WordMinted",
      "type": "event"
    },
    {
      "inputs": [],
      "name": "DEFAULT_ADMIN_ROLE",
      "outputs": [
        {
          "internalType": "bytes32",
          "name": "",
          "type": "bytes32"
        }
      ],
      "stateMutability": "view",
      "type": "function"
    },
    {
      "inputs": [],
      "name": "DISCOUNTED_ROLE",
      "outputs": [
        {
          "internalType": "bytes32",
          "name": "",
          "type": "bytes32"
        }
      ],
      "stateMutability": "view",
      "type": "function"
    },
    {
      "inputs": [],
      "name": "MINTER_ROLE",
      "outputs": [
        {
          "internalType": "bytes32",
          "name": "",
          "type": "bytes32"
        }
      ],
      "stateMutability": "view",
      "type": "function"
    },
    {
      "inputs": [],
      "name": "PAUSER_ROLE",
      "outputs": [
        {
          "internalType": "bytes32",
          "name": "",
          "type": "bytes32"
        }
      ],
      "stateMutability": "view",
      "type": "function"
    },
    {
      "inputs": [],
      "name": "ROYALTY_FREE_ROLE",
      "outputs": [
        {
          "internalType": "bytes32",
          "name": "",
          "type": "bytes32"
        }
      ],
      "stateMutability": "view",
      "type": "function"
    },
    {
      "inputs": [
        {
          "internalType": "address",
          "name": "to",
          "type": "address"
        },
        {
          "internalType": "uint256",
          "name": "tokenId",
          "type": "uint256"
        }
      ],
      "name": "approve",
      "outputs": [],
      "stateMutability": "nonpayable",
      "type": "function"
    },
    {
      "inputs": [],
      "name": "artist",
      "outputs": [
        {
          "internalType": "address",
          "name": "",
          "type": "address"
        }
      ],
      "stateMutability": "view",
      "type": "function"
    },
    {
      "inputs": [
        {
          "internalType": "address",
          "name": "owner",
          "type": "address"
        }
      ],
      "name": "balanceOf",
      "outputs": [
        {
          "internalType": "uint256",
          "name": "",
          "type": "uint256"
        }
      ],
      "stateMutability": "view",
      "type": "function"
    },
    {
      "inputs": [
        {
          "internalType": "uint256",
          "name": "tokenId",
          "type": "uint256"
        }
      ],
      "name": "burn",
      "outputs": [],
      "stateMutability": "nonpayable",
      "type": "function"
    },
    {
      "inputs": [
        {
          "internalType": "uint256",
          "name": "tokenId",
          "type": "uint256"
        }
      ],
      "name": "burnByTokenId",
      "outputs": [],
      "stateMutability": "nonpayable",
      "type": "function"
    },
    {
      "inputs": [],
      "name": "defaultPrice",
      "outputs": [
        {
          "internalType": "uint256",
          "name": "",
          "type": "uint256"
        }
      ],
      "stateMutability": "view",
      "type": "function"
    },
    {
      "inputs": [],
      "name": "discountPercentage",
      "outputs": [
        {
          "internalType": "uint256",
          "name": "",
          "type": "uint256"
        }
      ],
      "stateMutability": "view",
      "type": "function"
    },
    {
      "inputs": [],
      "name": "discountPercentageGlobal",
      "outputs": [
        {
          "internalType": "uint256",
          "name": "",
          "type": "uint256"
        }
      ],
      "stateMutability": "view",
      "type": "function"
    },
    {
      "inputs": [
        {
          "internalType": "uint256",
          "name": "tokenId",
          "type": "uint256"
        }
      ],
      "name": "getApproved",
      "outputs": [
        {
          "internalType": "address",
          "name": "",
          "type": "address"
        }
      ],
      "stateMutability": "view",
      "type": "function"
    },
    {
      "inputs": [
        {
          "internalType": "string",
          "name": "word",
          "type": "string"
        }
      ],
      "name": "getCustomPriceByWord",
      "outputs": [
        {
          "internalType": "uint256",
          "name": "",
          "type": "uint256"
        }
      ],
      "stateMutability": "view",
      "type": "function"
    },
    {
      "inputs": [
        {
          "internalType": "string",
          "name": "word",
          "type": "string"
        }
      ],
      "name": "getMaxInstancesByWord",
      "outputs": [
        {
          "internalType": "uint256",
          "name": "",
          "type": "uint256"
        }
      ],
      "stateMutability": "view",
      "type": "function"
    },
    {
      "inputs": [
        {
          "internalType": "address",
          "name": "account",
          "type": "address"
        },
        {
          "internalType": "string",
          "name": "word",
          "type": "string"
        }
      ],
      "name": "getPrice",
      "outputs": [
        {
          "internalType": "uint256",
          "name": "",
          "type": "uint256"
        }
      ],
      "stateMutability": "view",
      "type": "function"
    },
    {
      "inputs": [
        {
          "internalType": "uint256",
          "name": "_limit",
          "type": "uint256"
        }
      ],
      "name": "getRecentTokenIds",
      "outputs": [
        {
          "internalType": "uint256[]",
          "name": "",
          "type": "uint256[]"
        }
      ],
      "stateMutability": "view",
      "type": "function"
    },
    {
      "inputs": [
        {
          "internalType": "uint256",
          "name": "_limit",
          "type": "uint256"
        }
      ],
      "name": "getRecentWords",
      "outputs": [
        {
          "internalType": "string[]",
          "name": "",
          "type": "string[]"
        }
      ],
      "stateMutability": "view",
      "type": "function"
    },
    {
      "inputs": [
        {
          "internalType": "bytes32",
          "name": "role",
          "type": "bytes32"
        }
      ],
      "name": "getRoleAdmin",
      "outputs": [
        {
          "internalType": "bytes32",
          "name": "",
          "type": "bytes32"
        }
      ],
      "stateMutability": "view",
      "type": "function"
    },
    {
      "inputs": [
        {
          "internalType": "bytes32",
          "name": "role",
          "type": "bytes32"
        },
        {
          "internalType": "uint256",
          "name": "index",
          "type": "uint256"
        }
      ],
      "name": "getRoleMember",
      "outputs": [
        {
          "internalType": "address",
          "name": "",
          "type": "address"
        }
      ],
      "stateMutability": "view",
      "type": "function"
    },
    {
      "inputs": [
        {
          "internalType": "bytes32",
          "name": "role",
          "type": "bytes32"
        }
      ],
      "name": "getRoleMemberCount",
      "outputs": [
        {
          "internalType": "uint256",
          "name": "",
          "type": "uint256"
        }
      ],
      "stateMutability": "view",
      "type": "function"
    },
    {
      "inputs": [
        {
          "internalType": "address",
          "name": "_owner",
          "type": "address"
        }
      ],
      "name": "getTokenIdsByOwner",
      "outputs": [
        {
          "internalType": "uint256[]",
          "name": "",
          "type": "uint256[]"
        }
      ],
      "stateMutability": "view",
      "type": "function"
    },
    {
      "inputs": [
        {
          "internalType": "string",
          "name": "word",
          "type": "string"
        }
      ],
      "name": "getWordInstances",
      "outputs": [
        {
          "internalType": "uint256",
          "name": "",
          "type": "uint256"
        }
      ],
      "stateMutability": "view",
      "type": "function"
    },
    {
      "inputs": [
        {
          "internalType": "address",
          "name": "_owner",
          "type": "address"
        }
      ],
      "name": "getWordsByOwner",
      "outputs": [
        {
          "internalType": "string[]",
          "name": "",
          "type": "string[]"
        }
      ],
      "stateMutability": "view",
      "type": "function"
    },
    {
      "inputs": [
        {
          "internalType": "bytes32",
          "name": "role",
          "type": "bytes32"
        },
        {
          "internalType": "address",
          "name": "account",
          "type": "address"
        }
      ],
      "name": "grantRole",
      "outputs": [],
      "stateMutability": "nonpayable",
      "type": "function"
    },
    {
      "inputs": [
        {
          "internalType": "bytes32",
          "name": "role",
          "type": "bytes32"
        },
        {
          "internalType": "address",
          "name": "account",
          "type": "address"
        }
      ],
      "name": "hasRole",
      "outputs": [
        {
          "internalType": "bool",
          "name": "",
          "type": "bool"
        }
      ],
      "stateMutability": "view",
      "type": "function"
    },
    {
      "inputs": [
        {
          "internalType": "string",
          "name": "name",
          "type": "string"
        },
        {
          "internalType": "string",
          "name": "symbol",
          "type": "string"
        },
        {
          "internalType": "address[]",
          "name": "payees",
          "type": "address[]"
        },
        {
          "internalType": "uint256[]",
          "name": "shares",
          "type": "uint256[]"
        }
      ],
      "name": "initialize",
      "outputs": [],
      "stateMutability": "payable",
      "type": "function"
    },
    {
      "inputs": [
        {
          "internalType": "address",
          "name": "owner",
          "type": "address"
        },
        {
          "internalType": "address",
          "name": "operator",
          "type": "address"
        }
      ],
      "name": "isApprovedForAll",
      "outputs": [
        {
          "internalType": "bool",
          "name": "",
          "type": "bool"
        }
      ],
      "stateMutability": "view",
      "type": "function"
    },
    {
      "inputs": [],
      "name": "maxInstances",
      "outputs": [
        {
          "internalType": "uint256",
          "name": "",
          "type": "uint256"
        }
      ],
      "stateMutability": "view",
      "type": "function"
    },
    {
      "inputs": [],
      "name": "name",
      "outputs": [
        {
          "internalType": "string",
          "name": "",
          "type": "string"
        }
      ],
      "stateMutability": "view",
      "type": "function"
    },
    {
      "inputs": [
        {
          "internalType": "uint256",
          "name": "tokenId",
          "type": "uint256"
        }
      ],
      "name": "ownerOf",
      "outputs": [
        {
          "internalType": "address",
          "name": "",
          "type": "address"
        }
      ],
      "stateMutability": "view",
      "type": "function"
    },
    {
      "inputs": [],
      "name": "pause",
      "outputs": [],
      "stateMutability": "nonpayable",
      "type": "function"
    },
    {
      "inputs": [],
      "name": "paused",
      "outputs": [
        {
          "internalType": "bool",
          "name": "",
          "type": "bool"
        }
      ],
      "stateMutability": "view",
      "type": "function"
    },
    {
      "inputs": [
        {
          "internalType": "uint256",
          "name": "index",
          "type": "uint256"
        }
      ],
      "name": "payee",
      "outputs": [
        {
          "internalType": "address",
          "name": "",
          "type": "address"
        }
      ],
      "stateMutability": "view",
      "type": "function"
    },
    {
      "inputs": [
        {
          "internalType": "address",
          "name": "to",
          "type": "address"
        },
        {
          "internalType": "string",
          "name": "word",
          "type": "string"
        }
      ],
      "name": "purchaseWord",
      "outputs": [],
      "stateMutability": "payable",
      "type": "function"
    },
    {
      "inputs": [
        {
          "internalType": "address payable",
          "name": "account",
          "type": "address"
        }
      ],
      "name": "release",
      "outputs": [],
      "stateMutability": "nonpayable",
      "type": "function"
    },
    {
      "inputs": [
        {
          "internalType": "address",
          "name": "account",
          "type": "address"
        }
      ],
      "name": "released",
      "outputs": [
        {
          "internalType": "uint256",
          "name": "",
          "type": "uint256"
        }
      ],
      "stateMutability": "view",
      "type": "function"
    },
    {
      "inputs": [
        {
          "internalType": "bytes32",
          "name": "role",
          "type": "bytes32"
        },
        {
          "internalType": "address",
          "name": "account",
          "type": "address"
        }
      ],
      "name": "renounceRole",
      "outputs": [],
      "stateMutability": "nonpayable",
      "type": "function"
    },
    {
      "inputs": [
        {
          "internalType": "bytes32",
          "name": "role",
          "type": "bytes32"
        },
        {
          "internalType": "address",
          "name": "account",
          "type": "address"
        }
      ],
      "name": "revokeRole",
      "outputs": [],
      "stateMutability": "nonpayable",
      "type": "function"
    },
    {
      "inputs": [],
      "name": "royaltiesPercentage",
      "outputs": [
        {
          "internalType": "uint256",
          "name": "",
          "type": "uint256"
        }
      ],
      "stateMutability": "view",
      "type": "function"
    },
    {
      "inputs": [],
      "name": "royaltiesReceiver",
      "outputs": [
        {
          "internalType": "address",
          "name": "",
          "type": "address"
        }
      ],
      "stateMutability": "view",
      "type": "function"
    },
    {
      "inputs": [
        {
          "internalType": "uint256",
          "name": "_tokenId",
          "type": "uint256"
        },
        {
          "internalType": "uint256",
          "name": "_salePrice",
          "type": "uint256"
        }
      ],
      "name": "royaltyInfo",
      "outputs": [
        {
          "internalType": "address",
          "name": "receiver",
          "type": "address"
        },
        {
          "internalType": "uint256",
          "name": "royaltyAmount",
          "type": "uint256"
        }
      ],
      "stateMutability": "view",
      "type": "function"
    },
    {
      "inputs": [
        {
          "internalType": "address",
          "name": "from",
          "type": "address"
        },
        {
          "internalType": "address",
          "name": "to",
          "type": "address"
        },
        {
          "internalType": "uint256",
          "name": "tokenId",
          "type": "uint256"
        }
      ],
      "name": "safeTransferFrom",
      "outputs": [],
      "stateMutability": "nonpayable",
      "type": "function"
    },
    {
      "inputs": [
        {
          "internalType": "address",
          "name": "from",
          "type": "address"
        },
        {
          "internalType": "address",
          "name": "to",
          "type": "address"
        },
        {
          "internalType": "uint256",
          "name": "tokenId",
          "type": "uint256"
        },
        {
          "internalType": "bytes",
          "name": "_data",
          "type": "bytes"
        }
      ],
      "name": "safeTransferFrom",
      "outputs": [],
      "stateMutability": "nonpayable",
      "type": "function"
    },
    {
      "inputs": [
        {
          "internalType": "address",
          "name": "operator",
          "type": "address"
        },
        {
          "internalType": "bool",
          "name": "approved",
          "type": "bool"
        }
      ],
      "name": "setApprovalForAll",
      "outputs": [],
      "stateMutability": "nonpayable",
      "type": "function"
    },
    {
      "inputs": [
        {
          "internalType": "uint256",
          "name": "price",
          "type": "uint256"
        },
        {
          "internalType": "string",
          "name": "word",
          "type": "string"
        }
      ],
      "name": "setCustomPriceByWord",
      "outputs": [],
      "stateMutability": "nonpayable",
      "type": "function"
    },
    {
      "inputs": [
        {
          "internalType": "uint256",
          "name": "price",
          "type": "uint256"
        }
      ],
      "name": "setDefaultPrice",
      "outputs": [],
      "stateMutability": "nonpayable",
      "type": "function"
    },
    {
      "inputs": [
        {
          "internalType": "uint256",
          "name": "percentage",
          "type": "uint256"
        }
      ],
      "name": "setDiscountPercentage",
      "outputs": [],
      "stateMutability": "nonpayable",
      "type": "function"
    },
    {
      "inputs": [
        {
          "internalType": "uint256",
          "name": "percentage",
          "type": "uint256"
        }
      ],
      "name": "setDiscountPercentageGlobal",
      "outputs": [],
      "stateMutability": "nonpayable",
      "type": "function"
    },
    {
      "inputs": [
        {
          "internalType": "uint256",
          "name": "instances",
          "type": "uint256"
        }
      ],
      "name": "setMaxInstances",
      "outputs": [],
      "stateMutability": "nonpayable",
      "type": "function"
    },
    {
      "inputs": [
        {
          "internalType": "string",
          "name": "word",
          "type": "string"
        },
        {
          "internalType": "uint256",
          "name": "instances",
          "type": "uint256"
        }
      ],
      "name": "setMaxInstancesByWord",
      "outputs": [],
      "stateMutability": "nonpayable",
      "type": "function"
    },
    {
      "inputs": [
        {
          "internalType": "address",
          "name": "newRoyaltiesReceiver",
          "type": "address"
        }
      ],
      "name": "setRoyaltiesReceiver",
      "outputs": [],
      "stateMutability": "nonpayable",
      "type": "function"
    },
    {
      "inputs": [
        {
          "internalType": "address",
          "name": "account",
          "type": "address"
        }
      ],
      "name": "shares",
      "outputs": [
        {
          "internalType": "uint256",
          "name": "",
          "type": "uint256"
        }
      ],
      "stateMutability": "view",
      "type": "function"
    },
    {
      "inputs": [
        {
          "internalType": "bytes4",
          "name": "interfaceId",
          "type": "bytes4"
        }
      ],
      "name": "supportsInterface",
      "outputs": [
        {
          "internalType": "bool",
          "name": "",
          "type": "bool"
        }
      ],
      "stateMutability": "view",
      "type": "function"
    },
    {
      "inputs": [],
      "name": "symbol",
      "outputs": [
        {
          "internalType": "string",
          "name": "",
          "type": "string"
        }
      ],
      "stateMutability": "view",
      "type": "function"
    },
    {
      "inputs": [
        {
          "internalType": "uint256",
          "name": "index",
          "type": "uint256"
        }
      ],
      "name": "tokenByIndex",
      "outputs": [
        {
          "internalType": "uint256",
          "name": "",
          "type": "uint256"
        }
      ],
      "stateMutability": "view",
      "type": "function"
    },
    {
      "inputs": [
        {
          "internalType": "address",
          "name": "owner",
          "type": "address"
        },
        {
          "internalType": "uint256",
          "name": "index",
          "type": "uint256"
        }
      ],
      "name": "tokenOfOwnerByIndex",
      "outputs": [
        {
          "internalType": "uint256",
          "name": "",
          "type": "uint256"
        }
      ],
      "stateMutability": "view",
      "type": "function"
    },
    {
      "inputs": [
        {
          "internalType": "uint256",
          "name": "tokenId",
          "type": "uint256"
        }
      ],
      "name": "tokenURI",
      "outputs": [
        {
          "internalType": "string",
          "name": "",
          "type": "string"
        }
      ],
      "stateMutability": "view",
      "type": "function"
    },
    {
      "inputs": [],
      "name": "totalReleased",
      "outputs": [
        {
          "internalType": "uint256",
          "name": "",
          "type": "uint256"
        }
      ],
      "stateMutability": "view",
      "type": "function"
    },
    {
      "inputs": [],
      "name": "totalShares",
      "outputs": [
        {
          "internalType": "uint256",
          "name": "",
          "type": "uint256"
        }
      ],
      "stateMutability": "view",
      "type": "function"
    },
    {
      "inputs": [],
      "name": "totalSupply",
      "outputs": [
        {
          "internalType": "uint256",
          "name": "",
          "type": "uint256"
        }
      ],
      "stateMutability": "view",
      "type": "function"
    },
    {
      "inputs": [
        {
          "internalType": "address",
          "name": "from",
          "type": "address"
        },
        {
          "internalType": "address",
          "name": "to",
          "type": "address"
        },
        {
          "internalType": "uint256",
          "name": "tokenId",
          "type": "uint256"
        }
      ],
      "name": "transferFrom",
      "outputs": [],
      "stateMutability": "nonpayable",
      "type": "function"
    },
    {
      "inputs": [],
      "name": "unpause",
      "outputs": [],
      "stateMutability": "nonpayable",
      "type": "function"
    },
    {
      "inputs": [
        {
          "internalType": "string",
          "name": "word",
          "type": "string"
        }
      ],
      "name": "wordAvailable",
      "outputs": [
        {
          "internalType": "bool",
          "name": "",
          "type": "bool"
        }
      ],
      "stateMutability": "view",
      "type": "function"
    },
    {
      "stateMutability": "payable",
      "type": "receive"
    }
  ],
  "bytecode": "0x60806040523480156200001157600080fd5b50600054610100900460ff16806200002c575060005460ff16155b620000945760405162461bcd60e51b815260206004820152602e60248201527f496e697469616c697a61626c653a20636f6e747261637420697320616c72656160448201526d191e481a5b9a5d1a585b1a5e995960921b606482015260840160405180910390fd5b600054610100900460ff16158015620000b7576000805461ffff19166101011790555b8015620000ca576000805461ff00191690555b50614c2180620000db6000396000f3fe6080604052600436106103d25760003560e01c80637b63c0fc116101fd578063b3fa9f2411610118578063d0fd890d116100ab578063e33b7de31161007a578063e33b7de314610bb8578063e63ab1e914610bce578063e69e04b314610be5578063e985e9c514610bfc578063ece7669e14610c4557600080fd5b8063d0fd890d14610b4e578063d539139314610b61578063d547741f14610b78578063dd08eae014610b9857600080fd5b8063ca15c873116100e7578063ca15c87314610ac0578063cafa8dfe14610ae0578063cc14f2f514610af7578063ce7c2ac214610b1757600080fd5b8063b3fa9f2414610a49578063b514371514610a60578063b88d4fde14610a80578063c87b56dd14610aa057600080fd5b806395d89b4111610190578063a3a51bd51161015f578063a3a51bd5146109d1578063a7abb8b7146109f2578063aef9455d14610a09578063b3428d1514610a2957600080fd5b806395d89b41146109505780639852595c14610965578063a217fddf1461099c578063a22cb465146109b157600080fd5b80638ae1b3e2116101cc5780638ae1b3e2146108d05780638b83209b146108f05780639010d07c1461091057806391d148541461093057600080fd5b80637b63c0fc1461084e5780638456cb591461087b578063845bcce11461089057806387ded6c6146108b057600080fd5b806342842e0e116102ed5780636970bb0a116102805780637386ca3e1161024f5780637386ca3e146107d757806373f36e58146107f757806376977a3a1461080e57806377500c541461082e57600080fd5b80636970bb0a1461074a5780636d3c7ec51461077757806370868d6f1461079757806370a08231146107b757600080fd5b80634f6ccce7116102bc5780634f6ccce7146106da57806359fb3e60146106fa5780635c975abb146107115780636352211e1461072a57600080fd5b806342842e0e1461066657806342966c681461068657806343bc1612146106a6578063445d9787146106c757600080fd5b8063248a9ca3116103655780632f745c59116103345780632f745c59146105fb57806336568abe1461061b5780633a98ef391461063b5780633f4ba83a1461065157600080fd5b8063248a9ca3146105545780632a55205a146105855780632f0f0dac146105c45780632f2ff15d146105db57600080fd5b8063095ea7b3116103a1578063095ea7b3146104dd57806318160ddd146104ff578063191655871461051457806323b872dd1461053457600080fd5b806301ffc9a714610420578063027e11a71461045557806306fdde0314610483578063081812fc146104a557600080fd5b3661041b577f6ef95f06320e7a25a04a175ca677b7052bdd97131872c2192525a629f51be77033604080516001600160a01b0390921682523460208301520160405180910390a1005b600080fd5b34801561042c57600080fd5b5061044061043b3660046144fe565b610c65565b60405190151581526020015b60405180910390f35b34801561046157600080fd5b50610475610470366004614536565b610c90565b60405190815260200161044c565b34801561048f57600080fd5b50610498610cc6565b60405161044c91906148a1565b3480156104b157600080fd5b506104c56104c03660046144a1565b610d58565b6040516001600160a01b03909116815260200161044c565b3480156104e957600080fd5b506104fd6104f8366004614476565b610de5565b005b34801561050b57600080fd5b50609954610475565b34801561052057600080fd5b506104fd61052f3660046142e8565b610efb565b34801561054057600080fd5b506104fd61054f36600461433c565b6110d6565b34801561056057600080fd5b5061047561056f3660046144a1565b600090815261015f602052604090206001015490565b34801561059157600080fd5b506105a56105a03660046144dd565b611108565b604080516001600160a01b03909316835260208301919091520161044c565b3480156105d057600080fd5b506104756101f95481565b3480156105e757600080fd5b506104fd6105f63660046144b9565b611174565b34801561060757600080fd5b50610475610616366004614476565b611197565b34801561062757600080fd5b506104fd6106363660046144b9565b61122d565b34801561064757600080fd5b506101c354610475565b34801561065d57600080fd5b506104fd611250565b34801561067257600080fd5b506104fd61068136600461433c565b611269565b34801561069257600080fd5b506104fd6106a13660046144a1565b611284565b3480156106b257600080fd5b506101f6546104c5906001600160a01b031681565b6104fd6106d5366004614568565b6112fb565b3480156106e657600080fd5b506104756106f53660046144a1565b6114bf565b34801561070657600080fd5b506104756101f75481565b34801561071d57600080fd5b5061012d5460ff16610440565b34801561073657600080fd5b506104c56107453660046144a1565b611560565b34801561075657600080fd5b5061076a6107653660046142e8565b6115d7565b60405161044c919061485d565b34801561078357600080fd5b506104fd6107923660046144a1565b611696565b3480156107a357600080fd5b506104756107b2366004614536565b6116f0565b3480156107c357600080fd5b506104756107d23660046142e8565b61170e565b3480156107e357600080fd5b506104fd6107f2366004614663565b611795565b34801561080357600080fd5b506104756102005481565b34801561081a57600080fd5b50610475610829366004614429565b6117f4565b34801561083a57600080fd5b50610440610849366004614536565b611870565b34801561085a57600080fd5b5061086e6108693660046142e8565b6118a3565b60405161044c91906147fc565b34801561088757600080fd5b506104fd611a27565b34801561089c57600080fd5b506104fd6108ab3660046144a1565b611a3d565b3480156108bc57600080fd5b5061086e6108cb3660046144a1565b611a8f565b3480156108dc57600080fd5b506104fd6108eb3660046146a5565b611c0b565b3480156108fc57600080fd5b506104c561090b3660046144a1565b611c94565b34801561091c57600080fd5b506104c561092b3660046144dd565b611cd3565b34801561093c57600080fd5b5061044061094b3660046144b9565b611cec565b34801561095c57600080fd5b50610498611d18565b34801561097157600080fd5b506104756109803660046142e8565b6001600160a01b031660009081526101c6602052604090205490565b3480156109a857600080fd5b50610475600081565b3480156109bd57600080fd5b506104fd6109cc3660046143f8565b611d27565b3480156109dd57600080fd5b506101fb546104c5906001600160a01b031681565b3480156109fe57600080fd5b506104756101ff5481565b348015610a1557600080fd5b506104fd610a243660046144a1565b611dec565b348015610a3557600080fd5b506104fd610a443660046144a1565b611e3e565b348015610a5557600080fd5b506104756101fa5481565b348015610a6c57600080fd5b506104fd610a7b3660046142e8565b611e90565b348015610a8c57600080fd5b506104fd610a9b36600461437c565b611edc565b348015610aac57600080fd5b50610498610abb3660046144a1565b611f14565b348015610acc57600080fd5b50610475610adb3660046144a1565b611f1f565b348015610aec57600080fd5b506104756101fc5481565b348015610b0357600080fd5b506104fd610b123660046144a1565b611f37565b348015610b2357600080fd5b50610475610b323660046142e8565b6001600160a01b031660009081526101c5602052604090205490565b6104fd610b5c366004614429565b611f50565b348015610b6d57600080fd5b506104756101fe5481565b348015610b8457600080fd5b506104fd610b933660046144b9565b612126565b348015610ba457600080fd5b50610475610bb3366004614536565b612130565b348015610bc457600080fd5b506101c454610475565b348015610bda57600080fd5b506104756101fd5481565b348015610bf157600080fd5b506104756101f85481565b348015610c0857600080fd5b50610440610c17366004614304565b6001600160a01b039182166000908152606a6020908152604080832093909416825291909152205460ff1690565b348015610c5157600080fd5b5061076a610c603660046144a1565b612159565b60006001600160e01b0319821663152a902d60e11b1480610c8a5750610c8a82612247565b92915050565b600080610c9d813361226c565b61020383604051610cae91906146ff565b90815260200160405180910390205491505b50919050565b606060658054610cd590614af8565b80601f0160208091040260200160405190810160405280929190818152602001828054610d0190614af8565b8015610d4e5780601f10610d2357610100808354040283529160200191610d4e565b820191906000526020600020905b815481529060010190602001808311610d3157829003601f168201915b5050505050905090565b6000610d63826122d0565b610dc95760405162461bcd60e51b815260206004820152602c60248201527f4552433732313a20617070726f76656420717565727920666f72206e6f6e657860448201526b34b9ba32b73a103a37b5b2b760a11b60648201526084015b60405180910390fd5b506000908152606960205260409020546001600160a01b031690565b6000610df082611560565b9050806001600160a01b0316836001600160a01b03161415610e5e5760405162461bcd60e51b815260206004820152602160248201527f4552433732313a20617070726f76616c20746f2063757272656e74206f776e656044820152603960f91b6064820152608401610dc0565b336001600160a01b0382161480610e7a5750610e7a8133610c17565b610eec5760405162461bcd60e51b815260206004820152603860248201527f4552433732313a20617070726f76652063616c6c6572206973206e6f74206f7760448201527f6e6572206e6f7220617070726f76656420666f7220616c6c00000000000000006064820152608401610dc0565b610ef683836122ed565b505050565b6001600160a01b03811660009081526101c56020526040902054610f705760405162461bcd60e51b815260206004820152602660248201527f5061796d656e7453706c69747465723a206163636f756e7420686173206e6f2060448201526573686172657360d01b6064820152608401610dc0565b60006101c45447610f819190614a53565b6001600160a01b03831660009081526101c660209081526040808320546101c3546101c5909352908320549394509192610fbb9085614a7f565b610fc59190614a6b565b610fcf9190614a9e565b9050806110325760405162461bcd60e51b815260206004820152602b60248201527f5061796d656e7453706c69747465723a206163636f756e74206973206e6f742060448201526a191d59481c185e5b595b9d60aa1b6064820152608401610dc0565b6001600160a01b03831660009081526101c66020526040902054611057908290614a53565b6001600160a01b03841660009081526101c660205260409020556101c454611080908290614a53565b6101c45561108e838261235b565b604080516001600160a01b0385168152602081018390527fdf20fd1e76bc69d672e4814fafb2c449bba3a5369d8359adf9e05e6fde87b05691015b60405180910390a1505050565b6110e1335b82612474565b6110fd5760405162461bcd60e51b8152600401610dc09061497e565b610ef683838361255e565b6000806111196101fe5461094b3390565b8061112d575061112d6102005461094b3390565b1561113d5750600090508061116d565b600060646101fc54856111509190614a7f565b61115a9190614a6b565b6101fb546001600160a01b031693509150505b9250929050565b61117e8282612709565b600082815261019160205260409020610ef69082612730565b60006111a28361170e565b82106112045760405162461bcd60e51b815260206004820152602b60248201527f455243373231456e756d657261626c653a206f776e657220696e646578206f7560448201526a74206f6620626f756e647360a81b6064820152608401610dc0565b506001600160a01b03919091166000908152609760209081526040808320938352929052205490565b6112378282612745565b600082815261019160205260409020610ef690826127bf565b6101fd5461125e813361226c565b6112666127d4565b50565b610ef683838360405180602001604052806000815250611edc565b61128d336110db565b6112f25760405162461bcd60e51b815260206004820152603060248201527f4552433732314275726e61626c653a2063616c6c6572206973206e6f74206f7760448201526f1b995c881b9bdc88185c1c1c9bdd995960821b6064820152608401610dc0565b61126681612869565b600054610100900460ff1680611314575060005460ff16155b6113305760405162461bcd60e51b8152600401610dc090614930565b600054610100900460ff16158015611352576000805461ffff19166101011790555b61135c8585612959565b6113646129e0565b61136c6129e0565b6113746129e0565b61137c612a63565b611384612aca565b61138e8383612b29565b6101f68054336001600160a01b0319918216811790925560056101f7556702c68af0bb1400006101f85560006101f98190556113886101fa556101fb8054909216831790915560086101fc557f65d7a28e3265b37a6474929f336521b332c1681b933f6cb9f3376673440d862a6101fd557f9f2df0fed2c77648de5860a4cc508cd0818c85b8b8a1ab4ceeef8d981c8956a66101fe557ff9e9e1c8035f82fd72c5438c5719fd5349deacb4207f4fcbbda606cb5a39d5096101ff557f29434eb5e8812e221f75c8938ee14034fc1cbbc820ce3ab1dd76fa5eb480c48d6102005561147c91612b92565b612b92565b61148a6101fd546114773390565b6114986101fe546114773390565b6114a6610200546114773390565b80156114b8576000805461ff00191690555b5050505050565b60006114ca60995490565b821061152d5760405162461bcd60e51b815260206004820152602c60248201527f455243373231456e756d657261626c653a20676c6f62616c20696e646578206f60448201526b7574206f6620626f756e647360a01b6064820152608401610dc0565b6099828154811061154e57634e487b7160e01b600052603260045260246000fd5b90600052602060002001549050919050565b6000818152606760205260408120546001600160a01b031680610c8a5760405162461bcd60e51b815260206004820152602960248201527f4552433732313a206f776e657220717565727920666f72206e6f6e657869737460448201526832b73a103a37b5b2b760b91b6064820152608401610dc0565b606060006115e48361170e565b6001600160401b0381111561160957634e487b7160e01b600052604160045260246000fd5b604051908082528060200260200182016040528015611632578160200160208202803683370190505b50905060005b6116418461170e565b81101561168f576116528482611197565b82828151811061167257634e487b7160e01b600052603260045260246000fd5b60209081029190910101528061168781614b2d565b915050611638565b5092915050565b60006116a2813361226c565b6101f8548214156116b257600080fd5b6101f88290556040518281527f6bfd5e75539a9d2626425a2e2922675256b219fe546d63dad56011759b9a2f66906020015b60405180910390a15050565b6000806116fd813361226c565b61020483604051610cae91906146ff565b60006001600160a01b0382166117795760405162461bcd60e51b815260206004820152602a60248201527f4552433732313a2062616c616e636520717565727920666f7220746865207a65604482015269726f206164647265737360b01b6064820152608401610dc0565b506001600160a01b031660009081526068602052604090205490565b60006117a1813361226c565b610203836040516117b291906146ff565b9081526020016040518091039020548214156117cd57600080fd5b81610203846040516117df91906146ff565b90815260405190819003602001902055505050565b60006118036101fe5484611cec565b1561181057506000610c8a565b61181d6101ff5484611cec565b1561185d576101fa546101f954116118455761184061183b83612b9c565b612bdf565b611856565b61185661185183612b9c565b612c07565b9050610c8a565b61186961185183612b9c565b9392505050565b600061187b82612c1b565b6102028360405161188c91906146ff565b908152602001604051809103902054109050919050565b606060006118b0836115d7565b9050600081516001600160401b038111156118db57634e487b7160e01b600052604160045260246000fd5b60405190808252806020026020018201604052801561190e57816020015b60608152602001906001900390816118f95790505b50905060005b8251811015611a1f57610201600084838151811061194257634e487b7160e01b600052603260045260246000fd5b60200260200101518152602001908152602001600020805461196390614af8565b80601f016020809104026020016040519081016040528092919081815260200182805461198f90614af8565b80156119dc5780601f106119b1576101008083540402835291602001916119dc565b820191906000526020600020905b8154815290600101906020018083116119bf57829003601f168201915b5050505050828281518110611a0157634e487b7160e01b600052603260045260246000fd5b60200260200101819052508080611a1790614b2d565b915050611914565b509392505050565b6101fd54611a35813361226c565b611266612c5e565b6000611a49813361226c565b6101f954821415611a5957600080fd5b6101f98290556040518281527fc1ff72bca032e30387f94c0af05dd3033d0de460a2b682abb2f2890036bf607a906020016116e4565b60606000611a9c83612159565b9050600081516001600160401b03811115611ac757634e487b7160e01b600052604160045260246000fd5b604051908082528060200260200182016040528015611afa57816020015b6060815260200190600190039081611ae55790505b50905060005b8251811015611a1f576102016000848381518110611b2e57634e487b7160e01b600052603260045260246000fd5b602002602001015181526020019081526020016000208054611b4f90614af8565b80601f0160208091040260200160405190810160405280929190818152602001828054611b7b90614af8565b8015611bc85780601f10611b9d57610100808354040283529160200191611bc8565b820191906000526020600020905b815481529060010190602001808311611bab57829003601f168201915b5050505050828281518110611bed57634e487b7160e01b600052603260045260246000fd5b60200260200101819052508080611c0390614b2d565b915050611b00565b6000611c17813361226c565b61020482604051611c2891906146ff565b908152602001604051809103902054831415611c4357600080fd5b8261020483604051611c5591906146ff565b90815260405160209181900382018120929092558482527f6bfd5e75539a9d2626425a2e2922675256b219fe546d63dad56011759b9a2f6691016110c9565b60006101c78281548110611cb857634e487b7160e01b600052603260045260246000fd5b6000918252602090912001546001600160a01b031692915050565b6000828152610191602052604081206118699083612cb8565b600091825261015f602090815260408084206001600160a01b0393909316845291905290205460ff1690565b606060668054610cd590614af8565b6001600160a01b038216331415611d805760405162461bcd60e51b815260206004820152601960248201527f4552433732313a20617070726f766520746f2063616c6c6572000000000000006044820152606401610dc0565b336000818152606a602090815260408083206001600160a01b03871680855290835292819020805460ff191686151590811790915590519081529192917f17307eab39ab6107e8899845ad3d59bd9653f200f220920489ca2b5937696c31910160405180910390a35050565b6000611df8813361226c565b6101f754821415611e0857600080fd5b6101f78290556040518281527f3a8598e300de634f047e360175c9c4dcde54652bf186edfff52b3bd41a833bf8906020016116e4565b6000611e4a813361226c565b6101fa54821415611e5a57600080fd5b6101fa8290556040518281527f1b69574255c79758c64d1a097acfd0300110698292feae84be7ab7e574f195d2906020016116e4565b6000611e9c813361226c565b6101fb546001600160a01b0383811691161415611eb857600080fd5b506101fb80546001600160a01b0319166001600160a01b0392909216919091179055565b611ee63383612474565b611f025760405162461bcd60e51b8152600401610dc09061497e565b611f0e84848484612cc4565b50505050565b6060610c8a82612cf7565b600081815261019160205260408120610c8a90612e59565b6000611f43813361226c565b611f4c82612869565b5050565b61012d5460ff1615611f745760405162461bcd60e51b8152600401610dc090614906565b611f826101fe5461094b3390565b61203e57611f8f81611870565b611fdb5760405162461bcd60e51b815260206004820181905260248201527f5468697320776f7264206973206e6f206c6f6e67657220617661696c61626c656044820152606401610dc0565b611fe533826117f4565b34101561203e5760405162461bcd60e51b815260206004820152602160248201527f4e6f7420656e6f756768204554482073656e743b20636865636b2070726963656044820152602160f81b6064820152608401610dc0565b600061204a6101f55490565b905061205b6101f580546001019055565b60006102028360405161206e91906146ff565b90815260200160405180910390205460016120899190614a53565b60008381526102016020908152604090912085519293506120ae929091860190614134565b5080610202846040516120c191906146ff565b908152604051908190036020019020556120db8483612e63565b6120e58284612e7d565b7fe7619a6b73b99956e487541f2eafbf4cb611a98b8391e31858fe02ba08669f05828486604051612118939291906149cf565b60405180910390a150505050565b6112378282612f08565b60006102028260405161214391906146ff565b9081526020016040518091039020549050919050565b6060600061216660995490565b9050600083821115612178578361217a565b815b90506000816001600160401b038111156121a457634e487b7160e01b600052604160045260246000fd5b6040519080825280602002602001820160405280156121cd578160200160208202803683370190505b50905060006121dc8385614a9e565b905060005b8381101561223c576121f2826114bf565b83828151811061221257634e487b7160e01b600052603260045260246000fd5b6020908102919091010152612228600183614a53565b91508061223481614b2d565b9150506121e1565b509095945050505050565b60006001600160e01b03198216635a05180f60e01b1480610c8a5750610c8a82612f2f565b6122768282611cec565b611f4c5761228e816001600160a01b03166014612f54565b612299836020612f54565b6040516020016122aa92919061474a565b60408051601f198184030181529082905262461bcd60e51b8252610dc0916004016148a1565b6000908152606760205260409020546001600160a01b0316151590565b600081815260696020526040902080546001600160a01b0319166001600160a01b038416908117909155819061232282611560565b6001600160a01b03167f8c5be1e5ebec7d5bd14f71427d1e84f3dd0314c0f7b2291e5b200ac8c7c3b92560405160405180910390a45050565b804710156123ab5760405162461bcd60e51b815260206004820152601d60248201527f416464726573733a20696e73756666696369656e742062616c616e63650000006044820152606401610dc0565b6000826001600160a01b03168260405160006040518083038185875af1925050503d80600081146123f8576040519150601f19603f3d011682016040523d82523d6000602084013e6123fd565b606091505b5050905080610ef65760405162461bcd60e51b815260206004820152603a60248201527f416464726573733a20756e61626c6520746f2073656e642076616c75652c207260448201527f6563697069656e74206d617920686176652072657665727465640000000000006064820152608401610dc0565b600061247f826122d0565b6124e05760405162461bcd60e51b815260206004820152602c60248201527f4552433732313a206f70657261746f7220717565727920666f72206e6f6e657860448201526b34b9ba32b73a103a37b5b2b760a11b6064820152608401610dc0565b60006124eb83611560565b9050806001600160a01b0316846001600160a01b031614806125265750836001600160a01b031661251b84610d58565b6001600160a01b0316145b8061255657506001600160a01b038082166000908152606a602090815260408083209388168352929052205460ff165b949350505050565b826001600160a01b031661257182611560565b6001600160a01b0316146125d95760405162461bcd60e51b815260206004820152602960248201527f4552433732313a207472616e73666572206f6620746f6b656e2074686174206960448201526839903737ba1037bbb760b91b6064820152608401610dc0565b6001600160a01b03821661263b5760405162461bcd60e51b8152602060048201526024808201527f4552433732313a207472616e7366657220746f20746865207a65726f206164646044820152637265737360e01b6064820152608401610dc0565b612646838383613135565b6126516000826122ed565b6001600160a01b038316600090815260686020526040812080546001929061267a908490614a9e565b90915550506001600160a01b03821660009081526068602052604081208054600192906126a8908490614a53565b909155505060008181526067602052604080822080546001600160a01b0319166001600160a01b0386811691821790925591518493918716917fddf252ad1be2c89b69c2b068fc378daa952ba7f163c4a11628f55a4df523b3ef91a4505050565b600082815261015f6020526040902060010154612726813361226c565b610ef68383613164565b6000611869836001600160a01b0384166131eb565b6001600160a01b03811633146127b55760405162461bcd60e51b815260206004820152602f60248201527f416363657373436f6e74726f6c3a2063616e206f6e6c792072656e6f756e636560448201526e103937b632b9903337b91039b2b63360891b6064820152608401610dc0565b611f4c828261323a565b6000611869836001600160a01b0384166132a2565b61012d5460ff1661281e5760405162461bcd60e51b815260206004820152601460248201527314185d5cd8589b194e881b9bdd081c185d5cd95960621b6044820152606401610dc0565b61012d805460ff191690557f5db9ee0a495bf2e6ff9c91a7834c1ba4fdd244a5e8aa4e537bd38aeae4b073aa335b6040516001600160a01b03909116815260200160405180910390a1565b600081815261020160205260408120805461288390614af8565b80601f01602080910402602001604051908101604052809291908181526020018280546128af90614af8565b80156128fc5780601f106128d1576101008083540402835291602001916128fc565b820191906000526020600020905b8154815290600101906020018083116128df57829003601f168201915b5050505050905060016102028260405161291691906146ff565b90815260200160405180910390205461292f9190614a9e565b6102028260405161294091906146ff565b90815260405190819003602001902055611f4c826133bf565b600054610100900460ff1680612972575060005460ff16155b61298e5760405162461bcd60e51b8152600401610dc090614930565b600054610100900460ff161580156129b0576000805461ffff19166101011790555b6129b86133ff565b6129c06133ff565b6129ca8383613469565b8015610ef6576000805461ff0019169055505050565b600054610100900460ff16806129f9575060005460ff16155b612a155760405162461bcd60e51b8152600401610dc090614930565b600054610100900460ff16158015612a37576000805461ffff19166101011790555b612a3f6133ff565b612a476133ff565b612a4f6133ff565b8015611266576000805461ff001916905550565b600054610100900460ff1680612a7c575060005460ff16155b612a985760405162461bcd60e51b8152600401610dc090614930565b600054610100900460ff16158015612aba576000805461ffff19166101011790555b612ac26133ff565b612a4f6134fe565b600054610100900460ff1680612ae3575060005460ff16155b612aff5760405162461bcd60e51b8152600401610dc090614930565b600054610100900460ff16158015612b21576000805461ffff19166101011790555b612a376133ff565b600054610100900460ff1680612b42575060005460ff16155b612b5e5760405162461bcd60e51b8152600401610dc090614930565b600054610100900460ff16158015612b80576000805461ffff19166101011790555b612b886133ff565b6129ca8383613574565b61117e82826136fe565b60008061020483604051612bb091906146ff565b9081526020016040518091039020541115612bd6576102048260405161214391906146ff565b50506101f85490565b60006127106101fa5483612bf39190614a7f565b612bfd9190614a6b565b610c8a9083614a9e565b60006127106101f95483612bf39190614a7f565b60008061020383604051612c2f91906146ff565b9081526020016040518091039020541115612c55576102038260405161214391906146ff565b50506101f75490565b61012d5460ff1615612c825760405162461bcd60e51b8152600401610dc090614906565b61012d805460ff191660011790557f62e78cea01bee320cd4e420270b5ea74000d11b0c9f74754ebdbfc544b05a25861284c3390565b60006118698383613708565b612ccf84848461255e565b612cdb84848484613740565b611f0e5760405162461bcd60e51b8152600401610dc0906148b4565b6060612d02826122d0565b612d685760405162461bcd60e51b815260206004820152603160248201527f45524337323155524953746f726167653a2055524920717565727920666f72206044820152703737b732bc34b9ba32b73a103a37b5b2b760791b6064820152608401610dc0565b600082815260c9602052604081208054612d8190614af8565b80601f0160208091040260200160405190810160405280929190818152602001828054612dad90614af8565b8015612dfa5780601f10612dcf57610100808354040283529160200191612dfa565b820191906000526020600020905b815481529060010190602001808311612ddd57829003601f168201915b505050505090506000612e0b61384d565b9050805160001415612e1e575092915050565b815115612e50578082604051602001612e3892919061471b565b60405160208183030381529060405292505050919050565b6125568461386d565b6000610c8a825490565b611f4c828260405180602001604052806000815250613937565b612e86826122d0565b612ee95760405162461bcd60e51b815260206004820152602e60248201527f45524337323155524953746f726167653a2055524920736574206f66206e6f6e60448201526d32bc34b9ba32b73a103a37b5b2b760911b6064820152608401610dc0565b600082815260c9602090815260409091208251610ef692840190614134565b600082815261015f6020526040902060010154612f25813361226c565b610ef6838361323a565b60006001600160e01b03198216637965db0b60e01b1480610c8a5750610c8a8261396a565b60606000612f63836002614a7f565b612f6e906002614a53565b6001600160401b03811115612f9357634e487b7160e01b600052604160045260246000fd5b6040519080825280601f01601f191660200182016040528015612fbd576020820181803683370190505b509050600360fc1b81600081518110612fe657634e487b7160e01b600052603260045260246000fd5b60200101906001600160f81b031916908160001a905350600f60fb1b8160018151811061302357634e487b7160e01b600052603260045260246000fd5b60200101906001600160f81b031916908160001a9053506000613047846002614a7f565b613052906001614a53565b90505b60018111156130e6576f181899199a1a9b1b9c1cb0b131b232b360811b85600f166010811061309457634e487b7160e01b600052603260045260246000fd5b1a60f81b8282815181106130b857634e487b7160e01b600052603260045260246000fd5b60200101906001600160f81b031916908160001a90535060049490941c936130df81614ae1565b9050613055565b5083156118695760405162461bcd60e51b815260206004820181905260248201527f537472696e67733a20686578206c656e67746820696e73756666696369656e746044820152606401610dc0565b61012d5460ff16156131595760405162461bcd60e51b8152600401610dc090614906565b610ef683838361398f565b61316e8282611cec565b611f4c57600082815261015f602090815260408083206001600160a01b03851684529091529020805460ff191660011790556131a73390565b6001600160a01b0316816001600160a01b0316837f2f8788117e7eff1d82e926ec794901d17c78024a50270940304540a733656f0d60405160405180910390a45050565b600081815260018301602052604081205461323257508154600181810184556000848152602080822090930184905584548482528286019093526040902091909155610c8a565b506000610c8a565b6132448282611cec565b15611f4c57600082815261015f602090815260408083206001600160a01b0385168085529252808320805460ff1916905551339285917ff6391f5c32d9c69d2a47ea670b442974b53935d1edc7fd64eb21e047a839171b9190a45050565b600081815260018301602052604081205480156133b55760006132c6600183614a9e565b85549091506000906132da90600190614a9e565b905081811461335b57600086600001828154811061330857634e487b7160e01b600052603260045260246000fd5b906000526020600020015490508087600001848154811061333957634e487b7160e01b600052603260045260246000fd5b6000918252602080832090910192909255918252600188019052604090208390555b855486908061337a57634e487b7160e01b600052603160045260246000fd5b600190038181906000526020600020016000905590558560010160008681526020019081526020016000206000905560019350505050610c8a565b6000915050610c8a565b6133c881613a47565b600081815260c96020526040902080546133e190614af8565b15905061126657600081815260c960205260408120611266916141b8565b600054610100900460ff1680613418575060005460ff16155b6134345760405162461bcd60e51b8152600401610dc090614930565b600054610100900460ff16158015612a4f576000805461ffff19166101011790558015611266576000805461ff001916905550565b600054610100900460ff1680613482575060005460ff16155b61349e5760405162461bcd60e51b8152600401610dc090614930565b600054610100900460ff161580156134c0576000805461ffff19166101011790555b82516134d3906065906020860190614134565b5081516134e7906066906020850190614134565b508015610ef6576000805461ff0019169055505050565b600054610100900460ff1680613517575060005460ff16155b6135335760405162461bcd60e51b8152600401610dc090614930565b600054610100900460ff16158015613555576000805461ffff19166101011790555b61012d805460ff191690558015611266576000805461ff001916905550565b600054610100900460ff168061358d575060005460ff16155b6135a95760405162461bcd60e51b8152600401610dc090614930565b600054610100900460ff161580156135cb576000805461ffff19166101011790555b81518351146136375760405162461bcd60e51b815260206004820152603260248201527f5061796d656e7453706c69747465723a2070617965657320616e6420736861726044820152710cae640d8cadccee8d040dad2e6dac2e8c6d60731b6064820152608401610dc0565b60008351116136885760405162461bcd60e51b815260206004820152601a60248201527f5061796d656e7453706c69747465723a206e6f207061796565730000000000006044820152606401610dc0565b60005b83518110156134e7576136ec8482815181106136b757634e487b7160e01b600052603260045260246000fd5b60200260200101518483815181106136df57634e487b7160e01b600052603260045260246000fd5b6020026020010151613aee565b806136f681614b2d565b91505061368b565b611f4c8282613164565b600082600001828154811061372d57634e487b7160e01b600052603260045260246000fd5b9060005260206000200154905092915050565b60006001600160a01b0384163b1561384257604051630a85bd0160e11b81526001600160a01b0385169063150b7a02906137849033908990889088906004016147bf565b602060405180830381600087803b15801561379e57600080fd5b505af19250505080156137ce575060408051601f3d908101601f191682019092526137cb9181019061451a565b60015b613828573d8080156137fc576040519150601f19603f3d011682016040523d82523d6000602084013e613801565b606091505b5080516138205760405162461bcd60e51b8152600401610dc0906148b4565b805181602001fd5b6001600160e01b031916630a85bd0160e11b149050612556565b506001949350505050565b6060604051806060016040528060228152602001614bca60229139905090565b6060613878826122d0565b6138dc5760405162461bcd60e51b815260206004820152602f60248201527f4552433732314d657461646174613a2055524920717565727920666f72206e6f60448201526e3732bc34b9ba32b73a103a37b5b2b760891b6064820152608401610dc0565b60006138e661384d565b905060008151116139065760405180602001604052806000815250611869565b8061391084613cd2565b60405160200161392192919061471b565b6040516020818303038152906040529392505050565b6139418383613deb565b61394e6000848484613740565b610ef65760405162461bcd60e51b8152600401610dc0906148b4565b60006001600160e01b0319821663780e9d6360e01b1480610c8a5750610c8a82613f2a565b6001600160a01b0383166139ea576139e581609980546000838152609a60205260408120829055600182018355919091527f72a152ddfb8e864297c917af52ea6c1c68aead0fee1a62673fcc7e0c94979d000155565b613a0d565b816001600160a01b0316836001600160a01b031614613a0d57613a0d8382613f7a565b6001600160a01b038216613a2457610ef681614017565b826001600160a01b0316826001600160a01b031614610ef657610ef682826140f0565b6000613a5282611560565b9050613a6081600084613135565b613a6b6000836122ed565b6001600160a01b0381166000908152606860205260408120805460019290613a94908490614a9e565b909155505060008281526067602052604080822080546001600160a01b0319169055518391906001600160a01b038416907fddf252ad1be2c89b69c2b068fc378daa952ba7f163c4a11628f55a4df523b3ef908390a45050565b6001600160a01b038216613b595760405162461bcd60e51b815260206004820152602c60248201527f5061796d656e7453706c69747465723a206163636f756e74206973207468652060448201526b7a65726f206164647265737360a01b6064820152608401610dc0565b60008111613ba95760405162461bcd60e51b815260206004820152601d60248201527f5061796d656e7453706c69747465723a207368617265732061726520300000006044820152606401610dc0565b6001600160a01b03821660009081526101c5602052604090205415613c245760405162461bcd60e51b815260206004820152602b60248201527f5061796d656e7453706c69747465723a206163636f756e7420616c726561647960448201526a206861732073686172657360a81b6064820152608401610dc0565b6101c78054600181019091557fff6df30967a6a678f565c59a19e91e5c0dbb20cfe9f9bf26d7da6dea0fffa24c0180546001600160a01b0319166001600160a01b03841690811790915560009081526101c5602052604090208190556101c354613c8f908290614a53565b6101c355604080516001600160a01b0384168152602081018390527f40c340f65e17194d14ddddb073d3c9f888e3cb52b5aae0c6c7706b4fbc905fac91016116e4565b606081613cf65750506040805180820190915260018152600360fc1b602082015290565b8160005b8115613d205780613d0a81614b2d565b9150613d199050600a83614a6b565b9150613cfa565b6000816001600160401b03811115613d4857634e487b7160e01b600052604160045260246000fd5b6040519080825280601f01601f191660200182016040528015613d72576020820181803683370190505b5090505b841561255657613d87600183614a9e565b9150613d94600a86614b48565b613d9f906030614a53565b60f81b818381518110613dc257634e487b7160e01b600052603260045260246000fd5b60200101906001600160f81b031916908160001a905350613de4600a86614a6b565b9450613d76565b6001600160a01b038216613e415760405162461bcd60e51b815260206004820181905260248201527f4552433732313a206d696e7420746f20746865207a65726f20616464726573736044820152606401610dc0565b613e4a816122d0565b15613e975760405162461bcd60e51b815260206004820152601c60248201527f4552433732313a20746f6b656e20616c7265616479206d696e746564000000006044820152606401610dc0565b613ea360008383613135565b6001600160a01b0382166000908152606860205260408120805460019290613ecc908490614a53565b909155505060008181526067602052604080822080546001600160a01b0319166001600160a01b03861690811790915590518392907fddf252ad1be2c89b69c2b068fc378daa952ba7f163c4a11628f55a4df523b3ef908290a45050565b60006001600160e01b031982166380ac58cd60e01b1480613f5b57506001600160e01b03198216635b5e139f60e01b145b80610c8a57506301ffc9a760e01b6001600160e01b0319831614610c8a565b60006001613f878461170e565b613f919190614a9e565b600083815260986020526040902054909150808214613fe4576001600160a01b03841660009081526097602090815260408083208584528252808320548484528184208190558352609890915290208190555b5060009182526098602090815260408084208490556001600160a01b039094168352609781528383209183525290812055565b60995460009061402990600190614a9e565b6000838152609a60205260408120546099805493945090928490811061405f57634e487b7160e01b600052603260045260246000fd5b90600052602060002001549050806099838154811061408e57634e487b7160e01b600052603260045260246000fd5b6000918252602080832090910192909255828152609a909152604080822084905585825281205560998054806140d457634e487b7160e01b600052603160045260246000fd5b6001900381819060005260206000200160009055905550505050565b60006140fb8361170e565b6001600160a01b039093166000908152609760209081526040808320868452825280832085905593825260989052919091209190915550565b82805461414090614af8565b90600052602060002090601f01602090048101928261416257600085556141a8565b82601f1061417b57805160ff19168380011785556141a8565b828001600101855582156141a8579182015b828111156141a857825182559160200191906001019061418d565b506141b49291506141ee565b5090565b5080546141c490614af8565b6000825580601f106141d4575050565b601f01602090049060005260206000209081019061126691905b5b808211156141b457600081556001016141ef565b60006001600160401b0383111561421c5761421c614b88565b61422f601f8401601f1916602001614a00565b905082815283838301111561424357600080fd5b828260208301376000602084830101529392505050565b600082601f83011261426a578081fd5b8135602061427f61427a83614a30565b614a00565b80838252828201915082860187848660051b890101111561429e578586fd5b855b858110156142bc578135845292840192908401906001016142a0565b5090979650505050505050565b600082601f8301126142d9578081fd5b61186983833560208501614203565b6000602082840312156142f9578081fd5b813561186981614b9e565b60008060408385031215614316578081fd5b823561432181614b9e565b9150602083013561433181614b9e565b809150509250929050565b600080600060608486031215614350578081fd5b833561435b81614b9e565b9250602084013561436b81614b9e565b929592945050506040919091013590565b60008060008060808587031215614391578081fd5b843561439c81614b9e565b935060208501356143ac81614b9e565b92506040850135915060608501356001600160401b038111156143cd578182fd5b8501601f810187136143dd578182fd5b6143ec87823560208401614203565b91505092959194509250565b6000806040838503121561440a578182fd5b823561441581614b9e565b915060208301358015158114614331578182fd5b6000806040838503121561443b578182fd5b823561444681614b9e565b915060208301356001600160401b03811115614460578182fd5b61446c858286016142c9565b9150509250929050565b60008060408385031215614488578182fd5b823561449381614b9e565b946020939093013593505050565b6000602082840312156144b2578081fd5b5035919050565b600080604083850312156144cb578182fd5b82359150602083013561433181614b9e565b600080604083850312156144ef578182fd5b50508035926020909101359150565b60006020828403121561450f578081fd5b813561186981614bb3565b60006020828403121561452b578081fd5b815161186981614bb3565b600060208284031215614547578081fd5b81356001600160401b0381111561455c578182fd5b612556848285016142c9565b6000806000806080858703121561457d578182fd5b84356001600160401b0380821115614593578384fd5b61459f888389016142c9565b95506020915081870135818111156145b5578485fd5b6145c189828a016142c9565b9550506040870135818111156145d5578485fd5b8701601f810189136145e5578485fd5b80356145f361427a82614a30565b8082825285820191508584018c878560051b8701011115614612578889fd5b8894505b8385101561463d57803561462981614b9e565b835260019490940193918601918601614616565b5096505050506060870135915080821115614656578283fd5b506143ec8782880161425a565b60008060408385031215614675578182fd5b82356001600160401b0381111561468a578283fd5b614696858286016142c9565b95602094909401359450505050565b600080604083850312156146b7578182fd5b8235915060208301356001600160401b03811115614460578182fd5b600081518084526146eb816020860160208601614ab5565b601f01601f19169290920160200192915050565b60008251614711818460208701614ab5565b9190910192915050565b6000835161472d818460208801614ab5565b835190830190614741818360208801614ab5565b01949350505050565b7f416363657373436f6e74726f6c3a206163636f756e7420000000000000000000815260008351614782816017850160208801614ab5565b7001034b99036b4b9b9b4b733903937b6329607d1b60179184019182015283516147b3816028840160208801614ab5565b01602801949350505050565b6001600160a01b03858116825284166020820152604081018390526080606082018190526000906147f2908301846146d3565b9695505050505050565b6000602080830181845280855180835260408601915060408160051b8701019250838701855b8281101561485057603f1988860301845261483e8583516146d3565b94509285019290850190600101614822565b5092979650505050505050565b6020808252825182820181905260009190848201906040850190845b8181101561489557835183529284019291840191600101614879565b50909695505050505050565b60208152600061186960208301846146d3565b60208082526032908201527f4552433732313a207472616e7366657220746f206e6f6e20455243373231526560408201527131b2b4bb32b91034b6b83632b6b2b73a32b960711b606082015260800190565b60208082526010908201526f14185d5cd8589b194e881c185d5cd95960821b604082015260600190565b6020808252602e908201527f496e697469616c697a61626c653a20636f6e747261637420697320616c72656160408201526d191e481a5b9a5d1a585b1a5e995960921b606082015260800190565b60208082526031908201527f4552433732313a207472616e736665722063616c6c6572206973206e6f74206f6040820152701ddb995c881b9bdc88185c1c1c9bdd9959607a1b606082015260800190565b8381526060602082015260006149e860608301856146d3565b905060018060a01b0383166040830152949350505050565b604051601f8201601f191681016001600160401b0381118282101715614a2857614a28614b88565b604052919050565b60006001600160401b03821115614a4957614a49614b88565b5060051b60200190565b60008219821115614a6657614a66614b5c565b500190565b600082614a7a57614a7a614b72565b500490565b6000816000190483118215151615614a9957614a99614b5c565b500290565b600082821015614ab057614ab0614b5c565b500390565b60005b83811015614ad0578181015183820152602001614ab8565b83811115611f0e5750506000910152565b600081614af057614af0614b5c565b506000190190565b600181811c90821680614b0c57607f821691505b60208210811415610cc057634e487b7160e01b600052602260045260246000fd5b6000600019821415614b4157614b41614b5c565b5060010190565b600082614b5757614b57614b72565b500690565b634e487b7160e01b600052601160045260246000fd5b634e487b7160e01b600052601260045260246000fd5b634e487b7160e01b600052604160045260246000fd5b6001600160a01b038116811461126657600080fd5b6001600160e01b03198116811461126657600080fdfe68747470733a2f2f63727970746f776f7264732e6172742f6170692f746f6b656e2fa264697066735822122062798618ff43973ee63cac66a79a8237530d636bb91e4e1e72073f4b1b848ffd64736f6c63430008040033",
  "linkReferences": {},
  "deployedLinkReferences": {}
}