{
  "_format": "hh-sol-artifact-1",
  "contractName": "CryptoWordsV1",
  "sourceName": "contracts/CryptoWordsV1.sol",
  "abi": [
    {
      "inputs": [],
      "stateMutability": "nonpayable",
      "type": "constructor"
    },
    {
      "anonymous": false,
      "inputs": [
        {
          "indexed": true,
          "internalType": "address",
          "name": "owner",
          "type": "address"
        },
        {
          "indexed": true,
          "internalType": "address",
          "name": "approved",
          "type": "address"
        },
        {
          "indexed": true,
          "internalType": "uint256",
          "name": "tokenId",
          "type": "uint256"
        }
      ],
      "name": "Approval",
      "type": "event"
    },
    {
      "anonymous": false,
      "inputs": [
        {
          "indexed": true,
          "internalType": "address",
          "name": "owner",
          "type": "address"
        },
        {
          "indexed": true,
          "internalType": "address",
          "name": "operator",
          "type": "address"
        },
        {
          "indexed": false,
          "internalType": "bool",
          "name": "approved",
          "type": "bool"
        }
      ],
      "name": "ApprovalForAll",
      "type": "event"
    },
    {
      "anonymous": false,
      "inputs": [
        {
          "indexed": false,
          "internalType": "uint256",
          "name": "discount",
          "type": "uint256"
        }
      ],
      "name": "DiscountSet",
      "type": "event"
    },
    {
      "anonymous": false,
      "inputs": [
        {
          "indexed": false,
          "internalType": "address",
          "name": "account",
          "type": "address"
        }
      ],
      "name": "Paused",
      "type": "event"
    },
    {
      "anonymous": false,
      "inputs": [
        {
          "indexed": false,
          "internalType": "address",
          "name": "account",
          "type": "address"
        },
        {
          "indexed": false,
          "internalType": "uint256",
          "name": "shares",
          "type": "uint256"
        }
      ],
      "name": "PayeeAdded",
      "type": "event"
    },
    {
      "anonymous": false,
      "inputs": [
        {
          "indexed": false,
          "internalType": "address",
          "name": "from",
          "type": "address"
        },
        {
          "indexed": false,
          "internalType": "uint256",
          "name": "amount",
          "type": "uint256"
        }
      ],
      "name": "PaymentReceived",
      "type": "event"
    },
    {
      "anonymous": false,
      "inputs": [
        {
          "indexed": false,
          "internalType": "address",
          "name": "to",
          "type": "address"
        },
        {
          "indexed": false,
          "internalType": "uint256",
          "name": "amount",
          "type": "uint256"
        }
      ],
      "name": "PaymentReleased",
      "type": "event"
    },
    {
      "anonymous": false,
      "inputs": [
        {
          "indexed": false,
          "internalType": "uint256",
          "name": "price",
          "type": "uint256"
        }
      ],
      "name": "PriceSet",
      "type": "event"
    },
    {
      "anonymous": false,
      "inputs": [
        {
          "indexed": true,
          "internalType": "bytes32",
          "name": "role",
          "type": "bytes32"
        },
        {
          "indexed": true,
          "internalType": "bytes32",
          "name": "previousAdminRole",
          "type": "bytes32"
        },
        {
          "indexed": true,
          "internalType": "bytes32",
          "name": "newAdminRole",
          "type": "bytes32"
        }
      ],
      "name": "RoleAdminChanged",
      "type": "event"
    },
    {
      "anonymous": false,
      "inputs": [
        {
          "indexed": true,
          "internalType": "bytes32",
          "name": "role",
          "type": "bytes32"
        },
        {
          "indexed": true,
          "internalType": "address",
          "name": "account",
          "type": "address"
        },
        {
          "indexed": true,
          "internalType": "address",
          "name": "sender",
          "type": "address"
        }
      ],
      "name": "RoleGranted",
      "type": "event"
    },
    {
      "anonymous": false,
      "inputs": [
        {
          "indexed": true,
          "internalType": "bytes32",
          "name": "role",
          "type": "bytes32"
        },
        {
          "indexed": true,
          "internalType": "address",
          "name": "account",
          "type": "address"
        },
        {
          "indexed": true,
          "internalType": "address",
          "name": "sender",
          "type": "address"
        }
      ],
      "name": "RoleRevoked",
      "type": "event"
    },
    {
      "anonymous": false,
      "inputs": [
        {
          "indexed": true,
          "internalType": "address",
          "name": "from",
          "type": "address"
        },
        {
          "indexed": true,
          "internalType": "address",
          "name": "to",
          "type": "address"
        },
        {
          "indexed": true,
          "internalType": "uint256",
          "name": "tokenId",
          "type": "uint256"
        }
      ],
      "name": "Transfer",
      "type": "event"
    },
    {
      "anonymous": false,
      "inputs": [
        {
          "indexed": false,
          "internalType": "address",
          "name": "account",
          "type": "address"
        }
      ],
      "name": "Unpaused",
      "type": "event"
    },
    {
      "anonymous": false,
      "inputs": [
        {
          "indexed": false,
          "internalType": "uint256",
          "name": "tokenId",
          "type": "uint256"
        },
        {
          "indexed": false,
          "internalType": "string",
          "name": "word",
          "type": "string"
        },
        {
          "indexed": false,
          "internalType": "address",
          "name": "to",
          "type": "address"
        }
      ],
      "name": "WordMinted",
      "type": "event"
    },
    {
      "inputs": [],
      "name": "DEFAULT_ADMIN_ROLE",
      "outputs": [
        {
          "internalType": "bytes32",
          "name": "",
          "type": "bytes32"
        }
      ],
      "stateMutability": "view",
      "type": "function"
    },
    {
      "inputs": [],
      "name": "DISCOUNTED_ROLE",
      "outputs": [
        {
          "internalType": "bytes32",
          "name": "",
          "type": "bytes32"
        }
      ],
      "stateMutability": "view",
      "type": "function"
    },
    {
      "inputs": [],
      "name": "MINTER_ROLE",
      "outputs": [
        {
          "internalType": "bytes32",
          "name": "",
          "type": "bytes32"
        }
      ],
      "stateMutability": "view",
      "type": "function"
    },
    {
      "inputs": [],
      "name": "PAUSER_ROLE",
      "outputs": [
        {
          "internalType": "bytes32",
          "name": "",
          "type": "bytes32"
        }
      ],
      "stateMutability": "view",
      "type": "function"
    },
    {
      "inputs": [],
      "name": "ROYALTY_FREE_ROLE",
      "outputs": [
        {
          "internalType": "bytes32",
          "name": "",
          "type": "bytes32"
        }
      ],
      "stateMutability": "view",
      "type": "function"
    },
    {
      "inputs": [
        {
          "internalType": "address",
          "name": "to",
          "type": "address"
        },
        {
          "internalType": "uint256",
          "name": "tokenId",
          "type": "uint256"
        }
      ],
      "name": "approve",
      "outputs": [],
      "stateMutability": "nonpayable",
      "type": "function"
    },
    {
      "inputs": [],
      "name": "artist",
      "outputs": [
        {
          "internalType": "address",
          "name": "",
          "type": "address"
        }
      ],
      "stateMutability": "view",
      "type": "function"
    },
    {
      "inputs": [
        {
          "internalType": "address",
          "name": "owner",
          "type": "address"
        }
      ],
      "name": "balanceOf",
      "outputs": [
        {
          "internalType": "uint256",
          "name": "",
          "type": "uint256"
        }
      ],
      "stateMutability": "view",
      "type": "function"
    },
    {
      "inputs": [
        {
          "internalType": "uint256",
          "name": "tokenId",
          "type": "uint256"
        }
      ],
      "name": "burn",
      "outputs": [],
      "stateMutability": "nonpayable",
      "type": "function"
    },
    {
      "inputs": [
        {
          "internalType": "string",
          "name": "word",
          "type": "string"
        }
      ],
      "name": "burnByWord",
      "outputs": [],
      "stateMutability": "nonpayable",
      "type": "function"
    },
    {
      "inputs": [],
      "name": "defaultPrice",
      "outputs": [
        {
          "internalType": "uint256",
          "name": "",
          "type": "uint256"
        }
      ],
      "stateMutability": "view",
      "type": "function"
    },
    {
      "inputs": [],
      "name": "discountPercentage",
      "outputs": [
        {
          "internalType": "uint256",
          "name": "",
          "type": "uint256"
        }
      ],
      "stateMutability": "view",
      "type": "function"
    },
    {
      "inputs": [
        {
          "internalType": "uint256",
          "name": "tokenId",
          "type": "uint256"
        }
      ],
      "name": "getApproved",
      "outputs": [
        {
          "internalType": "address",
          "name": "",
          "type": "address"
        }
      ],
      "stateMutability": "view",
      "type": "function"
    },
    {
      "inputs": [
        {
          "internalType": "string",
          "name": "word",
          "type": "string"
        }
      ],
      "name": "getCustomPriceByWord",
      "outputs": [
        {
          "internalType": "uint256",
          "name": "",
          "type": "uint256"
        }
      ],
      "stateMutability": "view",
      "type": "function"
    },
    {
      "inputs": [
        {
          "internalType": "string",
          "name": "word",
          "type": "string"
        }
      ],
      "name": "getIdByWord",
      "outputs": [
        {
          "internalType": "uint256",
          "name": "",
          "type": "uint256"
        }
      ],
      "stateMutability": "view",
      "type": "function"
    },
    {
      "inputs": [
        {
          "internalType": "address",
          "name": "account",
          "type": "address"
        },
        {
          "internalType": "string",
          "name": "word",
          "type": "string"
        }
      ],
      "name": "getPrice",
      "outputs": [
        {
          "internalType": "uint256",
          "name": "",
          "type": "uint256"
        }
      ],
      "stateMutability": "view",
      "type": "function"
    },
    {
      "inputs": [
        {
          "internalType": "uint256",
          "name": "_limit",
          "type": "uint256"
        }
      ],
      "name": "getRecentTokenIds",
      "outputs": [
        {
          "internalType": "uint256[]",
          "name": "",
          "type": "uint256[]"
        }
      ],
      "stateMutability": "view",
      "type": "function"
    },
    {
      "inputs": [
        {
          "internalType": "uint256",
          "name": "_limit",
          "type": "uint256"
        }
      ],
      "name": "getRecentWords",
      "outputs": [
        {
          "internalType": "string[]",
          "name": "",
          "type": "string[]"
        }
      ],
      "stateMutability": "view",
      "type": "function"
    },
    {
      "inputs": [
        {
          "internalType": "bytes32",
          "name": "role",
          "type": "bytes32"
        }
      ],
      "name": "getRoleAdmin",
      "outputs": [
        {
          "internalType": "bytes32",
          "name": "",
          "type": "bytes32"
        }
      ],
      "stateMutability": "view",
      "type": "function"
    },
    {
      "inputs": [
        {
          "internalType": "bytes32",
          "name": "role",
          "type": "bytes32"
        },
        {
          "internalType": "uint256",
          "name": "index",
          "type": "uint256"
        }
      ],
      "name": "getRoleMember",
      "outputs": [
        {
          "internalType": "address",
          "name": "",
          "type": "address"
        }
      ],
      "stateMutability": "view",
      "type": "function"
    },
    {
      "inputs": [
        {
          "internalType": "bytes32",
          "name": "role",
          "type": "bytes32"
        }
      ],
      "name": "getRoleMemberCount",
      "outputs": [
        {
          "internalType": "uint256",
          "name": "",
          "type": "uint256"
        }
      ],
      "stateMutability": "view",
      "type": "function"
    },
    {
      "inputs": [
        {
          "internalType": "address",
          "name": "_owner",
          "type": "address"
        }
      ],
      "name": "getTokenIdsByOwner",
      "outputs": [
        {
          "internalType": "uint256[]",
          "name": "",
          "type": "uint256[]"
        }
      ],
      "stateMutability": "view",
      "type": "function"
    },
    {
      "inputs": [
        {
          "internalType": "address",
          "name": "_owner",
          "type": "address"
        }
      ],
      "name": "getWordsByOwner",
      "outputs": [
        {
          "internalType": "string[]",
          "name": "",
          "type": "string[]"
        }
      ],
      "stateMutability": "view",
      "type": "function"
    },
    {
      "inputs": [
        {
          "internalType": "bytes32",
          "name": "role",
          "type": "bytes32"
        },
        {
          "internalType": "address",
          "name": "account",
          "type": "address"
        }
      ],
      "name": "grantRole",
      "outputs": [],
      "stateMutability": "nonpayable",
      "type": "function"
    },
    {
      "inputs": [
        {
          "internalType": "bytes32",
          "name": "role",
          "type": "bytes32"
        },
        {
          "internalType": "address",
          "name": "account",
          "type": "address"
        }
      ],
      "name": "hasRole",
      "outputs": [
        {
          "internalType": "bool",
          "name": "",
          "type": "bool"
        }
      ],
      "stateMutability": "view",
      "type": "function"
    },
    {
      "inputs": [
        {
          "internalType": "string",
          "name": "name",
          "type": "string"
        },
        {
          "internalType": "string",
          "name": "symbol",
          "type": "string"
        },
        {
          "internalType": "address[]",
          "name": "payees",
          "type": "address[]"
        },
        {
          "internalType": "uint256[]",
          "name": "shares",
          "type": "uint256[]"
        }
      ],
      "name": "initialize",
      "outputs": [],
      "stateMutability": "payable",
      "type": "function"
    },
    {
      "inputs": [
        {
          "internalType": "address",
          "name": "owner",
          "type": "address"
        },
        {
          "internalType": "address",
          "name": "operator",
          "type": "address"
        }
      ],
      "name": "isApprovedForAll",
      "outputs": [
        {
          "internalType": "bool",
          "name": "",
          "type": "bool"
        }
      ],
      "stateMutability": "view",
      "type": "function"
    },
    {
      "inputs": [],
      "name": "name",
      "outputs": [
        {
          "internalType": "string",
          "name": "",
          "type": "string"
        }
      ],
      "stateMutability": "view",
      "type": "function"
    },
    {
      "inputs": [
        {
          "internalType": "uint256",
          "name": "tokenId",
          "type": "uint256"
        }
      ],
      "name": "ownerOf",
      "outputs": [
        {
          "internalType": "address",
          "name": "",
          "type": "address"
        }
      ],
      "stateMutability": "view",
      "type": "function"
    },
    {
      "inputs": [],
      "name": "pause",
      "outputs": [],
      "stateMutability": "nonpayable",
      "type": "function"
    },
    {
      "inputs": [],
      "name": "paused",
      "outputs": [
        {
          "internalType": "bool",
          "name": "",
          "type": "bool"
        }
      ],
      "stateMutability": "view",
      "type": "function"
    },
    {
      "inputs": [
        {
          "internalType": "uint256",
          "name": "index",
          "type": "uint256"
        }
      ],
      "name": "payee",
      "outputs": [
        {
          "internalType": "address",
          "name": "",
          "type": "address"
        }
      ],
      "stateMutability": "view",
      "type": "function"
    },
    {
      "inputs": [
        {
          "internalType": "address",
          "name": "to",
          "type": "address"
        },
        {
          "internalType": "string",
          "name": "word",
          "type": "string"
        }
      ],
      "name": "purchaseWord",
      "outputs": [],
      "stateMutability": "payable",
      "type": "function"
    },
    {
      "inputs": [
        {
          "internalType": "address payable",
          "name": "account",
          "type": "address"
        }
      ],
      "name": "release",
      "outputs": [],
      "stateMutability": "nonpayable",
      "type": "function"
    },
    {
      "inputs": [
        {
          "internalType": "address",
          "name": "account",
          "type": "address"
        }
      ],
      "name": "released",
      "outputs": [
        {
          "internalType": "uint256",
          "name": "",
          "type": "uint256"
        }
      ],
      "stateMutability": "view",
      "type": "function"
    },
    {
      "inputs": [
        {
          "internalType": "bytes32",
          "name": "role",
          "type": "bytes32"
        },
        {
          "internalType": "address",
          "name": "account",
          "type": "address"
        }
      ],
      "name": "renounceRole",
      "outputs": [],
      "stateMutability": "nonpayable",
      "type": "function"
    },
    {
      "inputs": [
        {
          "internalType": "bytes32",
          "name": "role",
          "type": "bytes32"
        },
        {
          "internalType": "address",
          "name": "account",
          "type": "address"
        }
      ],
      "name": "revokeRole",
      "outputs": [],
      "stateMutability": "nonpayable",
      "type": "function"
    },
    {
      "inputs": [],
      "name": "royaltiesPercentage",
      "outputs": [
        {
          "internalType": "uint256",
          "name": "",
          "type": "uint256"
        }
      ],
      "stateMutability": "view",
      "type": "function"
    },
    {
      "inputs": [],
      "name": "royaltiesReceiver",
      "outputs": [
        {
          "internalType": "address",
          "name": "",
          "type": "address"
        }
      ],
      "stateMutability": "view",
      "type": "function"
    },
    {
      "inputs": [
        {
          "internalType": "uint256",
          "name": "_tokenId",
          "type": "uint256"
        },
        {
          "internalType": "uint256",
          "name": "_salePrice",
          "type": "uint256"
        }
      ],
      "name": "royaltyInfo",
      "outputs": [
        {
          "internalType": "address",
          "name": "receiver",
          "type": "address"
        },
        {
          "internalType": "uint256",
          "name": "royaltyAmount",
          "type": "uint256"
        }
      ],
      "stateMutability": "view",
      "type": "function"
    },
    {
      "inputs": [
        {
          "internalType": "address",
          "name": "from",
          "type": "address"
        },
        {
          "internalType": "address",
          "name": "to",
          "type": "address"
        },
        {
          "internalType": "uint256",
          "name": "tokenId",
          "type": "uint256"
        }
      ],
      "name": "safeTransferFrom",
      "outputs": [],
      "stateMutability": "nonpayable",
      "type": "function"
    },
    {
      "inputs": [
        {
          "internalType": "address",
          "name": "from",
          "type": "address"
        },
        {
          "internalType": "address",
          "name": "to",
          "type": "address"
        },
        {
          "internalType": "uint256",
          "name": "tokenId",
          "type": "uint256"
        },
        {
          "internalType": "bytes",
          "name": "_data",
          "type": "bytes"
        }
      ],
      "name": "safeTransferFrom",
      "outputs": [],
      "stateMutability": "nonpayable",
      "type": "function"
    },
    {
      "inputs": [
        {
          "internalType": "address",
          "name": "operator",
          "type": "address"
        },
        {
          "internalType": "bool",
          "name": "approved",
          "type": "bool"
        }
      ],
      "name": "setApprovalForAll",
      "outputs": [],
      "stateMutability": "nonpayable",
      "type": "function"
    },
    {
      "inputs": [
        {
          "internalType": "uint256",
          "name": "price",
          "type": "uint256"
        },
        {
          "internalType": "string",
          "name": "word",
          "type": "string"
        }
      ],
      "name": "setCustomPriceByWord",
      "outputs": [],
      "stateMutability": "nonpayable",
      "type": "function"
    },
    {
      "inputs": [
        {
          "internalType": "uint256",
          "name": "price",
          "type": "uint256"
        }
      ],
      "name": "setDefaultPrice",
      "outputs": [],
      "stateMutability": "nonpayable",
      "type": "function"
    },
    {
      "inputs": [
        {
          "internalType": "uint256",
          "name": "percentage",
          "type": "uint256"
        }
      ],
      "name": "setDiscountPercentage",
      "outputs": [],
      "stateMutability": "nonpayable",
      "type": "function"
    },
    {
      "inputs": [
        {
          "internalType": "address",
          "name": "newRoyaltiesReceiver",
          "type": "address"
        }
      ],
      "name": "setRoyaltiesReceiver",
      "outputs": [],
      "stateMutability": "nonpayable",
      "type": "function"
    },
    {
      "inputs": [
        {
          "internalType": "address",
          "name": "account",
          "type": "address"
        }
      ],
      "name": "shares",
      "outputs": [
        {
          "internalType": "uint256",
          "name": "",
          "type": "uint256"
        }
      ],
      "stateMutability": "view",
      "type": "function"
    },
    {
      "inputs": [
        {
          "internalType": "bytes4",
          "name": "interfaceId",
          "type": "bytes4"
        }
      ],
      "name": "supportsInterface",
      "outputs": [
        {
          "internalType": "bool",
          "name": "",
          "type": "bool"
        }
      ],
      "stateMutability": "view",
      "type": "function"
    },
    {
      "inputs": [],
      "name": "symbol",
      "outputs": [
        {
          "internalType": "string",
          "name": "",
          "type": "string"
        }
      ],
      "stateMutability": "view",
      "type": "function"
    },
    {
      "inputs": [
        {
          "internalType": "uint256",
          "name": "index",
          "type": "uint256"
        }
      ],
      "name": "tokenByIndex",
      "outputs": [
        {
          "internalType": "uint256",
          "name": "",
          "type": "uint256"
        }
      ],
      "stateMutability": "view",
      "type": "function"
    },
    {
      "inputs": [
        {
          "internalType": "address",
          "name": "owner",
          "type": "address"
        },
        {
          "internalType": "uint256",
          "name": "index",
          "type": "uint256"
        }
      ],
      "name": "tokenOfOwnerByIndex",
      "outputs": [
        {
          "internalType": "uint256",
          "name": "",
          "type": "uint256"
        }
      ],
      "stateMutability": "view",
      "type": "function"
    },
    {
      "inputs": [
        {
          "internalType": "uint256",
          "name": "tokenId",
          "type": "uint256"
        }
      ],
      "name": "tokenURI",
      "outputs": [
        {
          "internalType": "string",
          "name": "",
          "type": "string"
        }
      ],
      "stateMutability": "view",
      "type": "function"
    },
    {
      "inputs": [],
      "name": "totalReleased",
      "outputs": [
        {
          "internalType": "uint256",
          "name": "",
          "type": "uint256"
        }
      ],
      "stateMutability": "view",
      "type": "function"
    },
    {
      "inputs": [],
      "name": "totalShares",
      "outputs": [
        {
          "internalType": "uint256",
          "name": "",
          "type": "uint256"
        }
      ],
      "stateMutability": "view",
      "type": "function"
    },
    {
      "inputs": [],
      "name": "totalSupply",
      "outputs": [
        {
          "internalType": "uint256",
          "name": "",
          "type": "uint256"
        }
      ],
      "stateMutability": "view",
      "type": "function"
    },
    {
      "inputs": [
        {
          "internalType": "address",
          "name": "from",
          "type": "address"
        },
        {
          "internalType": "address",
          "name": "to",
          "type": "address"
        },
        {
          "internalType": "uint256",
          "name": "tokenId",
          "type": "uint256"
        }
      ],
      "name": "transferFrom",
      "outputs": [],
      "stateMutability": "nonpayable",
      "type": "function"
    },
    {
      "inputs": [],
      "name": "unpause",
      "outputs": [],
      "stateMutability": "nonpayable",
      "type": "function"
    },
    {
      "inputs": [
        {
          "internalType": "string",
          "name": "word",
          "type": "string"
        }
      ],
      "name": "wordExists",
      "outputs": [
        {
          "internalType": "bool",
          "name": "",
          "type": "bool"
        }
      ],
      "stateMutability": "view",
      "type": "function"
    },
    {
      "stateMutability": "payable",
      "type": "receive"
    }
  ],
  "bytecode": "0x60806040523480156200001157600080fd5b50600054610100900460ff16806200002c575060005460ff16155b620000945760405162461bcd60e51b815260206004820152602e60248201527f496e697469616c697a61626c653a20636f6e747261637420697320616c72656160448201526d191e481a5b9a5d1a585b1a5e995960921b606482015260840160405180910390fd5b600054610100900460ff16158015620000b7576000805461ffff19166101011790555b8015620000ca576000805461ff00191690555b5061495480620000db6000396000f3fe6080604052600436106103905760003560e01c80638456cb59116101dc578063b514371511610102578063d0fd890d116100a0578063e63ab1e91161006f578063e63ab1e914610ada578063e69e04b314610af1578063e985e9c514610b08578063ece7669e14610b5157600080fd5b8063d0fd890d14610a7a578063d539139314610a8d578063d547741f14610aa4578063e33b7de314610ac457600080fd5b8063c87b56dd116100dc578063c87b56dd146109ec578063ca15c87314610a0c578063cafa8dfe14610a2c578063ce7c2ac214610a4357600080fd5b8063b51437151461098c578063b88d4fde146109ac578063c32107f6146109cc57600080fd5b80639838b0241161017a578063a3a51bd511610149578063a3a51bd51461091d578063a7abb8b71461093e578063b3428d1514610955578063b3fa9f241461097557600080fd5b80639838b024146108915780639852595c146108b1578063a217fddf146108e8578063a22cb465146108fd57600080fd5b80638b83209b116101b65780638b83209b1461081c5780639010d07c1461083c57806391d148541461085c57806395d89b411461087c57600080fd5b80638456cb59146107c757806387ded6c6146107dc5780638ae1b3e2146107fc57600080fd5b80633f4ba83a116102c15780636352211e1161025f57806370a082311161022e57806370a082311461074357806373f36e581461076357806376977a3a1461077a5780637b63c0fc1461079a57600080fd5b80636352211e146106b65780636970bb0a146106d65780636d3c7ec51461070357806370868d6f1461072357600080fd5b806343bc16121161029b57806343bc161214610649578063445d97871461066a5780634f6ccce71461067d5780635c975abb1461069d57600080fd5b80633f4ba83a146105f457806342842e0e1461060957806342966c681461062957600080fd5b806323b872dd1161032e5780632f2ff15d116103085780632f2ff15d1461057e5780632f745c591461059e57806336568abe146105be5780633a98ef39146105de57600080fd5b806323b872dd146104ee578063248a9ca31461050e5780632a55205a1461053f57600080fd5b8063095ea7b31161036a578063095ea7b31461046d5780630e28a9e71461048f57806318160ddd146104af57806319165587146104ce57600080fd5b806301ffc9a7146103de57806306fdde0314610413578063081812fc1461043557600080fd5b366103d9577f6ef95f06320e7a25a04a175ca677b7052bdd97131872c2192525a629f51be77033604080516001600160a01b0390921682523460208301520160405180910390a1005b600080fd5b3480156103ea57600080fd5b506103fe6103f9366004614273565b610b71565b60405190151581526020015b60405180910390f35b34801561041f57600080fd5b50610428610b9c565b60405161040a91906145d4565b34801561044157600080fd5b50610455610450366004614216565b610c2e565b6040516001600160a01b03909116815260200161040a565b34801561047957600080fd5b5061048d6104883660046141eb565b610cbb565b005b34801561049b57600080fd5b5061048d6104aa3660046142ab565b610dd1565b3480156104bb57600080fd5b506099545b60405190815260200161040a565b3480156104da57600080fd5b5061048d6104e936600461405d565b610e0a565b3480156104fa57600080fd5b5061048d6105093660046140b1565b610fe5565b34801561051a57600080fd5b506104c0610529366004614216565b600090815261015f602052604090206001015490565b34801561054b57600080fd5b5061055f61055a366004614252565b611017565b604080516001600160a01b03909316835260208301919091520161040a565b34801561058a57600080fd5b5061048d61059936600461422e565b611083565b3480156105aa57600080fd5b506104c06105b93660046141eb565b6110a6565b3480156105ca57600080fd5b5061048d6105d936600461422e565b61113c565b3480156105ea57600080fd5b506101c3546104c0565b34801561060057600080fd5b5061048d61115f565b34801561061557600080fd5b5061048d6106243660046140b1565b611178565b34801561063557600080fd5b5061048d610644366004614216565b611193565b34801561065557600080fd5b506101f654610455906001600160a01b031681565b61048d6106783660046142dd565b61120a565b34801561068957600080fd5b506104c0610698366004614216565b6113c2565b3480156106a957600080fd5b5061012d5460ff166103fe565b3480156106c257600080fd5b506104556106d1366004614216565b611463565b3480156106e257600080fd5b506106f66106f136600461405d565b6114da565b60405161040a9190614590565b34801561070f57600080fd5b5061048d61071e366004614216565b611599565b34801561072f57600080fd5b506104c061073e3660046142ab565b6115f3565b34801561074f57600080fd5b506104c061075e36600461405d565b611629565b34801561076f57600080fd5b506104c06101fe5481565b34801561078657600080fd5b506104c061079536600461419e565b6116b0565b3480156107a657600080fd5b506107ba6107b536600461405d565b611706565b60405161040a919061452f565b3480156107d357600080fd5b5061048d61188a565b3480156107e857600080fd5b506107ba6107f7366004614216565b6118a0565b34801561080857600080fd5b5061048d6108173660046143d8565b611a1c565b34801561082857600080fd5b50610455610837366004614216565b611aa5565b34801561084857600080fd5b50610455610857366004614252565b611ae4565b34801561086857600080fd5b506103fe61087736600461422e565b611afd565b34801561088857600080fd5b50610428611b29565b34801561089d57600080fd5b506104c06108ac3660046142ab565b611b38565b3480156108bd57600080fd5b506104c06108cc36600461405d565b6001600160a01b031660009081526101c6602052604090205490565b3480156108f457600080fd5b506104c0600081565b34801561090957600080fd5b5061048d61091836600461416d565b611b56565b34801561092957600080fd5b506101f954610455906001600160a01b031681565b34801561094a57600080fd5b506104c06101fd5481565b34801561096157600080fd5b5061048d610970366004614216565b611c1b565b34801561098157600080fd5b506104c06101f85481565b34801561099857600080fd5b5061048d6109a736600461405d565b611c6d565b3480156109b857600080fd5b5061048d6109c73660046140f1565b611cb9565b3480156109d857600080fd5b506103fe6109e73660046142ab565b611cf1565b3480156109f857600080fd5b50610428610a07366004614216565b611d1d565b348015610a1857600080fd5b506104c0610a27366004614216565b611d28565b348015610a3857600080fd5b506104c06101fa5481565b348015610a4f57600080fd5b506104c0610a5e36600461405d565b6001600160a01b031660009081526101c5602052604090205490565b61048d610a8836600461419e565b611d40565b348015610a9957600080fd5b506104c06101fc5481565b348015610ab057600080fd5b5061048d610abf36600461422e565b611f1b565b348015610ad057600080fd5b506101c4546104c0565b348015610ae657600080fd5b506104c06101fb5481565b348015610afd57600080fd5b506104c06101f75481565b348015610b1457600080fd5b506103fe610b23366004614079565b6001600160a01b039182166000908152606a6020908152604080832093909416825291909152205460ff1690565b348015610b5d57600080fd5b506106f6610b6c366004614216565b611f25565b60006001600160e01b0319821663152a902d60e11b1480610b965750610b9682612013565b92915050565b606060658054610bab9061482b565b80601f0160208091040260200160405190810160405280929190818152602001828054610bd79061482b565b8015610c245780601f10610bf957610100808354040283529160200191610c24565b820191906000526020600020905b815481529060010190602001808311610c0757829003601f168201915b5050505050905090565b6000610c3982612038565b610c9f5760405162461bcd60e51b815260206004820152602c60248201527f4552433732313a20617070726f76656420717565727920666f72206e6f6e657860448201526b34b9ba32b73a103a37b5b2b760a11b60648201526084015b60405180910390fd5b506000908152606960205260409020546001600160a01b031690565b6000610cc682611463565b9050806001600160a01b0316836001600160a01b03161415610d345760405162461bcd60e51b815260206004820152602160248201527f4552433732313a20617070726f76616c20746f2063757272656e74206f776e656044820152603960f91b6064820152608401610c96565b336001600160a01b0382161480610d505750610d508133610b23565b610dc25760405162461bcd60e51b815260206004820152603860248201527f4552433732313a20617070726f76652063616c6c6572206973206e6f74206f7760448201527f6e6572206e6f7220617070726f76656420666f7220616c6c00000000000000006064820152608401610c96565b610dcc8383612055565b505050565b6000610ddd81336120c3565b60006101ff83604051610df09190614432565b9081526020016040518091039020549050610dcc8161212b565b6001600160a01b03811660009081526101c56020526040902054610e7f5760405162461bcd60e51b815260206004820152602660248201527f5061796d656e7453706c69747465723a206163636f756e7420686173206e6f2060448201526573686172657360d01b6064820152608401610c96565b60006101c45447610e909190614786565b6001600160a01b03831660009081526101c660209081526040808320546101c3546101c5909352908320549394509192610eca90856147b2565b610ed4919061479e565b610ede91906147d1565b905080610f415760405162461bcd60e51b815260206004820152602b60248201527f5061796d656e7453706c69747465723a206163636f756e74206973206e6f742060448201526a191d59481c185e5b595b9d60aa1b6064820152608401610c96565b6001600160a01b03831660009081526101c66020526040902054610f66908290614786565b6001600160a01b03841660009081526101c660205260409020556101c454610f8f908290614786565b6101c455610f9d8382612201565b604080516001600160a01b0385168152602081018390527fdf20fd1e76bc69d672e4814fafb2c449bba3a5369d8359adf9e05e6fde87b05691015b60405180910390a1505050565b610ff0335b8261231a565b61100c5760405162461bcd60e51b8152600401610c96906146b1565b610dcc838383612404565b6000806110286101fc546108773390565b8061103c575061103c6101fe546108773390565b1561104c5750600090508061107c565b600060646101fa548561105f91906147b2565b611069919061479e565b6101f9546001600160a01b031693509150505b9250929050565b61108d82826125af565b600082815261019160205260409020610dcc90826125d6565b60006110b183611629565b82106111135760405162461bcd60e51b815260206004820152602b60248201527f455243373231456e756d657261626c653a206f776e657220696e646578206f7560448201526a74206f6620626f756e647360a81b6064820152608401610c96565b506001600160a01b03919091166000908152609760209081526040808320938352929052205490565b61114682826125eb565b600082815261019160205260409020610dcc9082612665565b6101fb5461116d81336120c3565b61117561267a565b50565b610dcc83838360405180602001604052806000815250611cb9565b61119c33610fea565b6112015760405162461bcd60e51b815260206004820152603060248201527f4552433732314275726e61626c653a2063616c6c6572206973206e6f74206f7760448201526f1b995c881b9bdc88185c1c1c9bdd995960821b6064820152608401610c96565b6111758161212b565b600054610100900460ff1680611223575060005460ff16155b61123f5760405162461bcd60e51b8152600401610c9690614663565b600054610100900460ff16158015611261576000805461ffff19166101011790555b61126b858561270f565b611273612796565b61127b612796565b611283612796565b61128b612819565b611293612880565b61129d83836128df565b6101f68054336001600160a01b031991821681179092556702c68af0bb1400006101f7556113886101f8556101f980549091168217905560086101fa557f65d7a28e3265b37a6474929f336521b332c1681b933f6cb9f3376673440d862a6101fb557f9f2df0fed2c77648de5860a4cc508cd0818c85b8b8a1ab4ceeef8d981c8956a66101fc557ff9e9e1c8035f82fd72c5438c5719fd5349deacb4207f4fcbbda606cb5a39d5096101fd557f29434eb5e8812e221f75c8938ee14034fc1cbbc820ce3ab1dd76fa5eb480c48d6101fe5561137f90600090612948565b612948565b61138d6101fb5461137a3390565b61139b6101fc5461137a3390565b6113a96101fe5461137a3390565b80156113bb576000805461ff00191690555b5050505050565b60006113cd60995490565b82106114305760405162461bcd60e51b815260206004820152602c60248201527f455243373231456e756d657261626c653a20676c6f62616c20696e646578206f60448201526b7574206f6620626f756e647360a01b6064820152608401610c96565b6099828154811061145157634e487b7160e01b600052603260045260246000fd5b90600052602060002001549050919050565b6000818152606760205260408120546001600160a01b031680610b965760405162461bcd60e51b815260206004820152602960248201527f4552433732313a206f776e657220717565727920666f72206e6f6e657869737460448201526832b73a103a37b5b2b760b91b6064820152608401610c96565b606060006114e783611629565b6001600160401b0381111561150c57634e487b7160e01b600052604160045260246000fd5b604051908082528060200260200182016040528015611535578160200160208202803683370190505b50905060005b61154484611629565b8110156115925761155584826110a6565b82828151811061157557634e487b7160e01b600052603260045260246000fd5b60209081029190910101528061158a81614860565b91505061153b565b5092915050565b60006115a581336120c3565b6101f7548214156115b557600080fd5b6101f78290556040518281527f6bfd5e75539a9d2626425a2e2922675256b219fe546d63dad56011759b9a2f66906020015b60405180910390a15050565b60008061160081336120c3565b610202836040516116119190614432565b90815260200160405180910390205491505b50919050565b60006001600160a01b0382166116945760405162461bcd60e51b815260206004820152602a60248201527f4552433732313a2062616c616e636520717565727920666f7220746865207a65604482015269726f206164647265737360b01b6064820152608401610c96565b506001600160a01b031660009081526068602052604090205490565b60006116bf6101fc5484611afd565b156116cc57506000610b96565b6116d96101fd5484611afd565b156116f6576116ef6116ea83612952565b6129ab565b9050610b96565b6116ff82612952565b9392505050565b60606000611713836114da565b9050600081516001600160401b0381111561173e57634e487b7160e01b600052604160045260246000fd5b60405190808252806020026020018201604052801561177157816020015b606081526020019060019003908161175c5790505b50905060005b82518110156118825761020060008483815181106117a557634e487b7160e01b600052603260045260246000fd5b6020026020010151815260200190815260200160002080546117c69061482b565b80601f01602080910402602001604051908101604052809291908181526020018280546117f29061482b565b801561183f5780601f106118145761010080835404028352916020019161183f565b820191906000526020600020905b81548152906001019060200180831161182257829003601f168201915b505050505082828151811061186457634e487b7160e01b600052603260045260246000fd5b6020026020010181905250808061187a90614860565b915050611777565b509392505050565b6101fb5461189881336120c3565b6111756129d3565b606060006118ad83611f25565b9050600081516001600160401b038111156118d857634e487b7160e01b600052604160045260246000fd5b60405190808252806020026020018201604052801561190b57816020015b60608152602001906001900390816118f65790505b50905060005b825181101561188257610200600084838151811061193f57634e487b7160e01b600052603260045260246000fd5b6020026020010151815260200190815260200160002080546119609061482b565b80601f016020809104026020016040519081016040528092919081815260200182805461198c9061482b565b80156119d95780601f106119ae576101008083540402835291602001916119d9565b820191906000526020600020905b8154815290600101906020018083116119bc57829003601f168201915b50505050508282815181106119fe57634e487b7160e01b600052603260045260246000fd5b60200260200101819052508080611a1490614860565b915050611911565b6000611a2881336120c3565b61020282604051611a399190614432565b908152602001604051809103902054831415611a5457600080fd5b8261020283604051611a669190614432565b90815260405160209181900382018120929092558482527f6bfd5e75539a9d2626425a2e2922675256b219fe546d63dad56011759b9a2f669101610fd8565b60006101c78281548110611ac957634e487b7160e01b600052603260045260246000fd5b6000918252602090912001546001600160a01b031692915050565b6000828152610191602052604081206116ff9083612a2d565b600091825261015f602090815260408084206001600160a01b0393909316845291905290205460ff1690565b606060668054610bab9061482b565b600080611b4581336120c3565b6101ff836040516116119190614432565b6001600160a01b038216331415611baf5760405162461bcd60e51b815260206004820152601960248201527f4552433732313a20617070726f766520746f2063616c6c6572000000000000006044820152606401610c96565b336000818152606a602090815260408083206001600160a01b03871680855290835292819020805460ff191686151590811790915590519081529192917f17307eab39ab6107e8899845ad3d59bd9653f200f220920489ca2b5937696c31910160405180910390a35050565b6000611c2781336120c3565b6101f854821415611c3757600080fd5b6101f88290556040518281527f1b69574255c79758c64d1a097acfd0300110698292feae84be7ab7e574f195d2906020016115e7565b6000611c7981336120c3565b6101f9546001600160a01b0383811691161415611c9557600080fd5b506101f980546001600160a01b0319166001600160a01b0392909216919091179055565b611cc3338361231a565b611cdf5760405162461bcd60e51b8152600401610c96906146b1565b611ceb84848484612a39565b50505050565b600061020182604051611d049190614432565b9081526040519081900360200190205460ff1692915050565b6060610b9682612a6c565b600081815261019160205260408120610b9690612bce565b61012d5460ff1615611d645760405162461bcd60e51b8152600401610c9690614639565b611d726101fc546108773390565b611e405761020181604051611d879190614432565b9081526040519081900360200190205460ff1615611ddd5760405162461bcd60e51b8152602060048201526013602482015272576f726420616c72656164792065786973747360681b6044820152606401610c96565b611de733826116b0565b341015611e405760405162461bcd60e51b815260206004820152602160248201527f4e6f7420656e6f756768204554482073656e743b20636865636b2070726963656044820152602160f81b6064820152608401610c96565b6000611e4c6101f55490565b9050611e5d6101f580546001019055565b806101ff83604051611e6f9190614432565b90815260408051602092819003830190209290925560008381526102008252919091208351611ea092850190613ea9565b50600161020183604051611eb49190614432565b908152604051908190036020019020805491151560ff19909216919091179055611ede8382612bd8565b611ee88183612bf2565b7fe7619a6b73b99956e487541f2eafbf4cb611a98b8391e31858fe02ba08669f05818385604051610fd893929190614702565b6111468282612c7d565b60606000611f3260995490565b9050600083821115611f445783611f46565b815b90506000816001600160401b03811115611f7057634e487b7160e01b600052604160045260246000fd5b604051908082528060200260200182016040528015611f99578160200160208202803683370190505b5090506000611fa883856147d1565b905060005b8381101561200857611fbe826113c2565b838281518110611fde57634e487b7160e01b600052603260045260246000fd5b6020908102919091010152611ff4600183614786565b91508061200081614860565b915050611fad565b509095945050505050565b60006001600160e01b03198216635a05180f60e01b1480610b965750610b9682612ca4565b6000908152606760205260409020546001600160a01b0316151590565b600081815260696020526040902080546001600160a01b0319166001600160a01b038416908117909155819061208a82611463565b6001600160a01b03167f8c5be1e5ebec7d5bd14f71427d1e84f3dd0314c0f7b2291e5b200ac8c7c3b92560405160405180910390a45050565b6120cd8282611afd565b612127576120e5816001600160a01b03166014612cc9565b6120f0836020612cc9565b60405160200161210192919061447d565b60408051601f198184030181529082905262461bcd60e51b8252610c96916004016145d4565b5050565b60008181526102006020526040812080546121459061482b565b80601f01602080910402602001604051908101604052809291908181526020018280546121719061482b565b80156121be5780601f10612193576101008083540402835291602001916121be565b820191906000526020600020905b8154815290600101906020018083116121a157829003601f168201915b505050505090506000610201826040516121d89190614432565b908152604051908190036020019020805491151560ff1990921691909117905561212782612eaa565b804710156122515760405162461bcd60e51b815260206004820152601d60248201527f416464726573733a20696e73756666696369656e742062616c616e63650000006044820152606401610c96565b6000826001600160a01b03168260405160006040518083038185875af1925050503d806000811461229e576040519150601f19603f3d011682016040523d82523d6000602084013e6122a3565b606091505b5050905080610dcc5760405162461bcd60e51b815260206004820152603a60248201527f416464726573733a20756e61626c6520746f2073656e642076616c75652c207260448201527f6563697069656e74206d617920686176652072657665727465640000000000006064820152608401610c96565b600061232582612038565b6123865760405162461bcd60e51b815260206004820152602c60248201527f4552433732313a206f70657261746f7220717565727920666f72206e6f6e657860448201526b34b9ba32b73a103a37b5b2b760a11b6064820152608401610c96565b600061239183611463565b9050806001600160a01b0316846001600160a01b031614806123cc5750836001600160a01b03166123c184610c2e565b6001600160a01b0316145b806123fc57506001600160a01b038082166000908152606a602090815260408083209388168352929052205460ff165b949350505050565b826001600160a01b031661241782611463565b6001600160a01b03161461247f5760405162461bcd60e51b815260206004820152602960248201527f4552433732313a207472616e73666572206f6620746f6b656e2074686174206960448201526839903737ba1037bbb760b91b6064820152608401610c96565b6001600160a01b0382166124e15760405162461bcd60e51b8152602060048201526024808201527f4552433732313a207472616e7366657220746f20746865207a65726f206164646044820152637265737360e01b6064820152608401610c96565b6124ec838383612eea565b6124f7600082612055565b6001600160a01b03831660009081526068602052604081208054600192906125209084906147d1565b90915550506001600160a01b038216600090815260686020526040812080546001929061254e908490614786565b909155505060008181526067602052604080822080546001600160a01b0319166001600160a01b0386811691821790925591518493918716917fddf252ad1be2c89b69c2b068fc378daa952ba7f163c4a11628f55a4df523b3ef91a4505050565b600082815261015f60205260409020600101546125cc81336120c3565b610dcc8383612f19565b60006116ff836001600160a01b038416612fa0565b6001600160a01b038116331461265b5760405162461bcd60e51b815260206004820152602f60248201527f416363657373436f6e74726f6c3a2063616e206f6e6c792072656e6f756e636560448201526e103937b632b9903337b91039b2b63360891b6064820152608401610c96565b6121278282612fef565b60006116ff836001600160a01b038416613057565b61012d5460ff166126c45760405162461bcd60e51b815260206004820152601460248201527314185d5cd8589b194e881b9bdd081c185d5cd95960621b6044820152606401610c96565b61012d805460ff191690557f5db9ee0a495bf2e6ff9c91a7834c1ba4fdd244a5e8aa4e537bd38aeae4b073aa335b6040516001600160a01b03909116815260200160405180910390a1565b600054610100900460ff1680612728575060005460ff16155b6127445760405162461bcd60e51b8152600401610c9690614663565b600054610100900460ff16158015612766576000805461ffff19166101011790555b61276e613174565b612776613174565b61278083836131de565b8015610dcc576000805461ff0019169055505050565b600054610100900460ff16806127af575060005460ff16155b6127cb5760405162461bcd60e51b8152600401610c9690614663565b600054610100900460ff161580156127ed576000805461ffff19166101011790555b6127f5613174565b6127fd613174565b612805613174565b8015611175576000805461ff001916905550565b600054610100900460ff1680612832575060005460ff16155b61284e5760405162461bcd60e51b8152600401610c9690614663565b600054610100900460ff16158015612870576000805461ffff19166101011790555b612878613174565b612805613273565b600054610100900460ff1680612899575060005460ff16155b6128b55760405162461bcd60e51b8152600401610c9690614663565b600054610100900460ff161580156128d7576000805461ffff19166101011790555b6127ed613174565b600054610100900460ff16806128f8575060005460ff16155b6129145760405162461bcd60e51b8152600401610c9690614663565b600054610100900460ff16158015612936576000805461ffff19166101011790555b61293e613174565b61278083836132e9565b61108d8282613473565b600080610202836040516129669190614432565b90815260200160405180910390205411156129a2576102028260405161298c9190614432565b9081526020016040518091039020549050919050565b50506101f75490565b60006127106101f854836129bf91906147b2565b6129c9919061479e565b610b9690836147d1565b61012d5460ff16156129f75760405162461bcd60e51b8152600401610c9690614639565b61012d805460ff191660011790557f62e78cea01bee320cd4e420270b5ea74000d11b0c9f74754ebdbfc544b05a2586126f23390565b60006116ff838361347d565b612a44848484612404565b612a50848484846134b5565b611ceb5760405162461bcd60e51b8152600401610c96906145e7565b6060612a7782612038565b612add5760405162461bcd60e51b815260206004820152603160248201527f45524337323155524953746f726167653a2055524920717565727920666f72206044820152703737b732bc34b9ba32b73a103a37b5b2b760791b6064820152608401610c96565b600082815260c9602052604081208054612af69061482b565b80601f0160208091040260200160405190810160405280929190818152602001828054612b229061482b565b8015612b6f5780601f10612b4457610100808354040283529160200191612b6f565b820191906000526020600020905b815481529060010190602001808311612b5257829003601f168201915b505050505090506000612b806135c2565b9050805160001415612b93575092915050565b815115612bc5578082604051602001612bad92919061444e565b60405160208183030381529060405292505050919050565b6123fc846135e2565b6000610b96825490565b6121278282604051806020016040528060008152506136ac565b612bfb82612038565b612c5e5760405162461bcd60e51b815260206004820152602e60248201527f45524337323155524953746f726167653a2055524920736574206f66206e6f6e60448201526d32bc34b9ba32b73a103a37b5b2b760911b6064820152608401610c96565b600082815260c9602090815260409091208251610dcc92840190613ea9565b600082815261015f6020526040902060010154612c9a81336120c3565b610dcc8383612fef565b60006001600160e01b03198216637965db0b60e01b1480610b965750610b96826136df565b60606000612cd88360026147b2565b612ce3906002614786565b6001600160401b03811115612d0857634e487b7160e01b600052604160045260246000fd5b6040519080825280601f01601f191660200182016040528015612d32576020820181803683370190505b509050600360fc1b81600081518110612d5b57634e487b7160e01b600052603260045260246000fd5b60200101906001600160f81b031916908160001a905350600f60fb1b81600181518110612d9857634e487b7160e01b600052603260045260246000fd5b60200101906001600160f81b031916908160001a9053506000612dbc8460026147b2565b612dc7906001614786565b90505b6001811115612e5b576f181899199a1a9b1b9c1cb0b131b232b360811b85600f1660108110612e0957634e487b7160e01b600052603260045260246000fd5b1a60f81b828281518110612e2d57634e487b7160e01b600052603260045260246000fd5b60200101906001600160f81b031916908160001a90535060049490941c93612e5481614814565b9050612dca565b5083156116ff5760405162461bcd60e51b815260206004820181905260248201527f537472696e67733a20686578206c656e67746820696e73756666696369656e746044820152606401610c96565b612eb381613704565b600081815260c9602052604090208054612ecc9061482b565b15905061117557600081815260c96020526040812061117591613f2d565b61012d5460ff1615612f0e5760405162461bcd60e51b8152600401610c9690614639565b610dcc8383836137ab565b612f238282611afd565b61212757600082815261015f602090815260408083206001600160a01b03851684529091529020805460ff19166001179055612f5c3390565b6001600160a01b0316816001600160a01b0316837f2f8788117e7eff1d82e926ec794901d17c78024a50270940304540a733656f0d60405160405180910390a45050565b6000818152600183016020526040812054612fe757508154600181810184556000848152602080822090930184905584548482528286019093526040902091909155610b96565b506000610b96565b612ff98282611afd565b1561212757600082815261015f602090815260408083206001600160a01b0385168085529252808320805460ff1916905551339285917ff6391f5c32d9c69d2a47ea670b442974b53935d1edc7fd64eb21e047a839171b9190a45050565b6000818152600183016020526040812054801561316a57600061307b6001836147d1565b855490915060009061308f906001906147d1565b90508181146131105760008660000182815481106130bd57634e487b7160e01b600052603260045260246000fd5b90600052602060002001549050808760000184815481106130ee57634e487b7160e01b600052603260045260246000fd5b6000918252602080832090910192909255918252600188019052604090208390555b855486908061312f57634e487b7160e01b600052603160045260246000fd5b600190038181906000526020600020016000905590558560010160008681526020019081526020016000206000905560019350505050610b96565b6000915050610b96565b600054610100900460ff168061318d575060005460ff16155b6131a95760405162461bcd60e51b8152600401610c9690614663565b600054610100900460ff16158015612805576000805461ffff19166101011790558015611175576000805461ff001916905550565b600054610100900460ff16806131f7575060005460ff16155b6132135760405162461bcd60e51b8152600401610c9690614663565b600054610100900460ff16158015613235576000805461ffff19166101011790555b8251613248906065906020860190613ea9565b50815161325c906066906020850190613ea9565b508015610dcc576000805461ff0019169055505050565b600054610100900460ff168061328c575060005460ff16155b6132a85760405162461bcd60e51b8152600401610c9690614663565b600054610100900460ff161580156132ca576000805461ffff19166101011790555b61012d805460ff191690558015611175576000805461ff001916905550565b600054610100900460ff1680613302575060005460ff16155b61331e5760405162461bcd60e51b8152600401610c9690614663565b600054610100900460ff16158015613340576000805461ffff19166101011790555b81518351146133ac5760405162461bcd60e51b815260206004820152603260248201527f5061796d656e7453706c69747465723a2070617965657320616e6420736861726044820152710cae640d8cadccee8d040dad2e6dac2e8c6d60731b6064820152608401610c96565b60008351116133fd5760405162461bcd60e51b815260206004820152601a60248201527f5061796d656e7453706c69747465723a206e6f207061796565730000000000006044820152606401610c96565b60005b835181101561325c5761346184828151811061342c57634e487b7160e01b600052603260045260246000fd5b602002602001015184838151811061345457634e487b7160e01b600052603260045260246000fd5b6020026020010151613863565b8061346b81614860565b915050613400565b6121278282612f19565b60008260000182815481106134a257634e487b7160e01b600052603260045260246000fd5b9060005260206000200154905092915050565b60006001600160a01b0384163b156135b757604051630a85bd0160e11b81526001600160a01b0385169063150b7a02906134f99033908990889088906004016144f2565b602060405180830381600087803b15801561351357600080fd5b505af1925050508015613543575060408051601f3d908101601f191682019092526135409181019061428f565b60015b61359d573d808015613571576040519150601f19603f3d011682016040523d82523d6000602084013e613576565b606091505b5080516135955760405162461bcd60e51b8152600401610c96906145e7565b805181602001fd5b6001600160e01b031916630a85bd0160e11b1490506123fc565b506001949350505050565b60606040518060600160405280602281526020016148fd60229139905090565b60606135ed82612038565b6136515760405162461bcd60e51b815260206004820152602f60248201527f4552433732314d657461646174613a2055524920717565727920666f72206e6f60448201526e3732bc34b9ba32b73a103a37b5b2b760891b6064820152608401610c96565b600061365b6135c2565b9050600081511161367b57604051806020016040528060008152506116ff565b8061368584613a47565b60405160200161369692919061444e565b6040516020818303038152906040529392505050565b6136b68383613b60565b6136c360008484846134b5565b610dcc5760405162461bcd60e51b8152600401610c96906145e7565b60006001600160e01b0319821663780e9d6360e01b1480610b965750610b9682613c9f565b600061370f82611463565b905061371d81600084612eea565b613728600083612055565b6001600160a01b03811660009081526068602052604081208054600192906137519084906147d1565b909155505060008281526067602052604080822080546001600160a01b0319169055518391906001600160a01b038416907fddf252ad1be2c89b69c2b068fc378daa952ba7f163c4a11628f55a4df523b3ef908390a45050565b6001600160a01b0383166138065761380181609980546000838152609a60205260408120829055600182018355919091527f72a152ddfb8e864297c917af52ea6c1c68aead0fee1a62673fcc7e0c94979d000155565b613829565b816001600160a01b0316836001600160a01b031614613829576138298382613cef565b6001600160a01b03821661384057610dcc81613d8c565b826001600160a01b0316826001600160a01b031614610dcc57610dcc8282613e65565b6001600160a01b0382166138ce5760405162461bcd60e51b815260206004820152602c60248201527f5061796d656e7453706c69747465723a206163636f756e74206973207468652060448201526b7a65726f206164647265737360a01b6064820152608401610c96565b6000811161391e5760405162461bcd60e51b815260206004820152601d60248201527f5061796d656e7453706c69747465723a207368617265732061726520300000006044820152606401610c96565b6001600160a01b03821660009081526101c56020526040902054156139995760405162461bcd60e51b815260206004820152602b60248201527f5061796d656e7453706c69747465723a206163636f756e7420616c726561647960448201526a206861732073686172657360a81b6064820152608401610c96565b6101c78054600181019091557fff6df30967a6a678f565c59a19e91e5c0dbb20cfe9f9bf26d7da6dea0fffa24c0180546001600160a01b0319166001600160a01b03841690811790915560009081526101c5602052604090208190556101c354613a04908290614786565b6101c355604080516001600160a01b0384168152602081018390527f40c340f65e17194d14ddddb073d3c9f888e3cb52b5aae0c6c7706b4fbc905fac91016115e7565b606081613a6b5750506040805180820190915260018152600360fc1b602082015290565b8160005b8115613a955780613a7f81614860565b9150613a8e9050600a8361479e565b9150613a6f565b6000816001600160401b03811115613abd57634e487b7160e01b600052604160045260246000fd5b6040519080825280601f01601f191660200182016040528015613ae7576020820181803683370190505b5090505b84156123fc57613afc6001836147d1565b9150613b09600a8661487b565b613b14906030614786565b60f81b818381518110613b3757634e487b7160e01b600052603260045260246000fd5b60200101906001600160f81b031916908160001a905350613b59600a8661479e565b9450613aeb565b6001600160a01b038216613bb65760405162461bcd60e51b815260206004820181905260248201527f4552433732313a206d696e7420746f20746865207a65726f20616464726573736044820152606401610c96565b613bbf81612038565b15613c0c5760405162461bcd60e51b815260206004820152601c60248201527f4552433732313a20746f6b656e20616c7265616479206d696e746564000000006044820152606401610c96565b613c1860008383612eea565b6001600160a01b0382166000908152606860205260408120805460019290613c41908490614786565b909155505060008181526067602052604080822080546001600160a01b0319166001600160a01b03861690811790915590518392907fddf252ad1be2c89b69c2b068fc378daa952ba7f163c4a11628f55a4df523b3ef908290a45050565b60006001600160e01b031982166380ac58cd60e01b1480613cd057506001600160e01b03198216635b5e139f60e01b145b80610b9657506301ffc9a760e01b6001600160e01b0319831614610b96565b60006001613cfc84611629565b613d0691906147d1565b600083815260986020526040902054909150808214613d59576001600160a01b03841660009081526097602090815260408083208584528252808320548484528184208190558352609890915290208190555b5060009182526098602090815260408084208490556001600160a01b039094168352609781528383209183525290812055565b609954600090613d9e906001906147d1565b6000838152609a602052604081205460998054939450909284908110613dd457634e487b7160e01b600052603260045260246000fd5b906000526020600020015490508060998381548110613e0357634e487b7160e01b600052603260045260246000fd5b6000918252602080832090910192909255828152609a90915260408082208490558582528120556099805480613e4957634e487b7160e01b600052603160045260246000fd5b6001900381819060005260206000200160009055905550505050565b6000613e7083611629565b6001600160a01b039093166000908152609760209081526040808320868452825280832085905593825260989052919091209190915550565b828054613eb59061482b565b90600052602060002090601f016020900481019282613ed75760008555613f1d565b82601f10613ef057805160ff1916838001178555613f1d565b82800160010185558215613f1d579182015b82811115613f1d578251825591602001919060010190613f02565b50613f29929150613f63565b5090565b508054613f399061482b565b6000825580601f10613f49575050565b601f01602090049060005260206000209081019061117591905b5b80821115613f295760008155600101613f64565b60006001600160401b03831115613f9157613f916148bb565b613fa4601f8401601f1916602001614733565b9050828152838383011115613fb857600080fd5b828260208301376000602084830101529392505050565b600082601f830112613fdf578081fd5b81356020613ff4613fef83614763565b614733565b80838252828201915082860187848660051b8901011115614013578586fd5b855b8581101561403157813584529284019290840190600101614015565b5090979650505050505050565b600082601f83011261404e578081fd5b6116ff83833560208501613f78565b60006020828403121561406e578081fd5b81356116ff816148d1565b6000806040838503121561408b578081fd5b8235614096816148d1565b915060208301356140a6816148d1565b809150509250929050565b6000806000606084860312156140c5578081fd5b83356140d0816148d1565b925060208401356140e0816148d1565b929592945050506040919091013590565b60008060008060808587031215614106578081fd5b8435614111816148d1565b93506020850135614121816148d1565b92506040850135915060608501356001600160401b03811115614142578182fd5b8501601f81018713614152578182fd5b61416187823560208401613f78565b91505092959194509250565b6000806040838503121561417f578182fd5b823561418a816148d1565b9150602083013580151581146140a6578182fd5b600080604083850312156141b0578182fd5b82356141bb816148d1565b915060208301356001600160401b038111156141d5578182fd5b6141e18582860161403e565b9150509250929050565b600080604083850312156141fd578182fd5b8235614208816148d1565b946020939093013593505050565b600060208284031215614227578081fd5b5035919050565b60008060408385031215614240578182fd5b8235915060208301356140a6816148d1565b60008060408385031215614264578182fd5b50508035926020909101359150565b600060208284031215614284578081fd5b81356116ff816148e6565b6000602082840312156142a0578081fd5b81516116ff816148e6565b6000602082840312156142bc578081fd5b81356001600160401b038111156142d1578182fd5b6123fc8482850161403e565b600080600080608085870312156142f2578182fd5b84356001600160401b0380821115614308578384fd5b6143148883890161403e565b955060209150818701358181111561432a578485fd5b61433689828a0161403e565b95505060408701358181111561434a578485fd5b8701601f8101891361435a578485fd5b8035614368613fef82614763565b8082825285820191508584018c878560051b8701011115614387578889fd5b8894505b838510156143b257803561439e816148d1565b83526001949094019391860191860161438b565b50965050505060608701359150808211156143cb578283fd5b5061416187828801613fcf565b600080604083850312156143ea578182fd5b8235915060208301356001600160401b038111156141d5578182fd5b6000815180845261441e8160208601602086016147e8565b601f01601f19169290920160200192915050565b600082516144448184602087016147e8565b9190910192915050565b600083516144608184602088016147e8565b8351908301906144748183602088016147e8565b01949350505050565b7f416363657373436f6e74726f6c3a206163636f756e74200000000000000000008152600083516144b58160178501602088016147e8565b7001034b99036b4b9b9b4b733903937b6329607d1b60179184019182015283516144e68160288401602088016147e8565b01602801949350505050565b6001600160a01b038581168252841660208201526040810183905260806060820181905260009061452590830184614406565b9695505050505050565b6000602080830181845280855180835260408601915060408160051b8701019250838701855b8281101561458357603f19888603018452614571858351614406565b94509285019290850190600101614555565b5092979650505050505050565b6020808252825182820181905260009190848201906040850190845b818110156145c8578351835292840192918401916001016145ac565b50909695505050505050565b6020815260006116ff6020830184614406565b60208082526032908201527f4552433732313a207472616e7366657220746f206e6f6e20455243373231526560408201527131b2b4bb32b91034b6b83632b6b2b73a32b960711b606082015260800190565b60208082526010908201526f14185d5cd8589b194e881c185d5cd95960821b604082015260600190565b6020808252602e908201527f496e697469616c697a61626c653a20636f6e747261637420697320616c72656160408201526d191e481a5b9a5d1a585b1a5e995960921b606082015260800190565b60208082526031908201527f4552433732313a207472616e736665722063616c6c6572206973206e6f74206f6040820152701ddb995c881b9bdc88185c1c1c9bdd9959607a1b606082015260800190565b83815260606020820152600061471b6060830185614406565b905060018060a01b0383166040830152949350505050565b604051601f8201601f191681016001600160401b038111828210171561475b5761475b6148bb565b604052919050565b60006001600160401b0382111561477c5761477c6148bb565b5060051b60200190565b600082198211156147995761479961488f565b500190565b6000826147ad576147ad6148a5565b500490565b60008160001904831182151516156147cc576147cc61488f565b500290565b6000828210156147e3576147e361488f565b500390565b60005b838110156148035781810151838201526020016147eb565b83811115611ceb5750506000910152565b6000816148235761482361488f565b506000190190565b600181811c9082168061483f57607f821691505b6020821081141561162357634e487b7160e01b600052602260045260246000fd5b60006000198214156148745761487461488f565b5060010190565b60008261488a5761488a6148a5565b500690565b634e487b7160e01b600052601160045260246000fd5b634e487b7160e01b600052601260045260246000fd5b634e487b7160e01b600052604160045260246000fd5b6001600160a01b038116811461117557600080fd5b6001600160e01b03198116811461117557600080fdfe68747470733a2f2f63727970746f776f7264732e6172742f6170692f746f6b656e2fa26469706673582212201fad8b71dff8f2938ebcb1cbbd045a356cf4af34cafebd9a352c5a6aba9fa1fe64736f6c63430008040033",
  "linkReferences": {},
  "deployedLinkReferences": {}
}