{
  "_format": "hh-sol-artifact-1",
  "contractName": "CryptoWordsV1",
  "sourceName": "contracts/CryptoWordsV1.sol",
  "abi": [
    {
      "inputs": [],
      "stateMutability": "nonpayable",
      "type": "constructor"
    },
    {
      "anonymous": false,
      "inputs": [
        {
          "indexed": false,
          "internalType": "address",
          "name": "previousAdmin",
          "type": "address"
        },
        {
          "indexed": false,
          "internalType": "address",
          "name": "newAdmin",
          "type": "address"
        }
      ],
      "name": "AdminChanged",
      "type": "event"
    },
    {
      "anonymous": false,
      "inputs": [
        {
          "indexed": true,
          "internalType": "address",
          "name": "owner",
          "type": "address"
        },
        {
          "indexed": true,
          "internalType": "address",
          "name": "approved",
          "type": "address"
        },
        {
          "indexed": true,
          "internalType": "uint256",
          "name": "tokenId",
          "type": "uint256"
        }
      ],
      "name": "Approval",
      "type": "event"
    },
    {
      "anonymous": false,
      "inputs": [
        {
          "indexed": true,
          "internalType": "address",
          "name": "owner",
          "type": "address"
        },
        {
          "indexed": true,
          "internalType": "address",
          "name": "operator",
          "type": "address"
        },
        {
          "indexed": false,
          "internalType": "bool",
          "name": "approved",
          "type": "bool"
        }
      ],
      "name": "ApprovalForAll",
      "type": "event"
    },
    {
      "anonymous": false,
      "inputs": [
        {
          "indexed": true,
          "internalType": "address",
          "name": "beacon",
          "type": "address"
        }
      ],
      "name": "BeaconUpgraded",
      "type": "event"
    },
    {
      "anonymous": false,
      "inputs": [
        {
          "indexed": true,
          "internalType": "contract IERC20Upgradeable",
          "name": "token",
          "type": "address"
        },
        {
          "indexed": false,
          "internalType": "address",
          "name": "to",
          "type": "address"
        },
        {
          "indexed": false,
          "internalType": "uint256",
          "name": "amount",
          "type": "uint256"
        }
      ],
      "name": "ERC20PaymentReleased",
      "type": "event"
    },
    {
      "anonymous": false,
      "inputs": [
        {
          "indexed": false,
          "internalType": "address",
          "name": "account",
          "type": "address"
        }
      ],
      "name": "Paused",
      "type": "event"
    },
    {
      "anonymous": false,
      "inputs": [
        {
          "indexed": false,
          "internalType": "address",
          "name": "account",
          "type": "address"
        },
        {
          "indexed": false,
          "internalType": "uint256",
          "name": "shares",
          "type": "uint256"
        }
      ],
      "name": "PayeeAdded",
      "type": "event"
    },
    {
      "anonymous": false,
      "inputs": [
        {
          "indexed": false,
          "internalType": "address",
          "name": "from",
          "type": "address"
        },
        {
          "indexed": false,
          "internalType": "uint256",
          "name": "amount",
          "type": "uint256"
        }
      ],
      "name": "PaymentReceived",
      "type": "event"
    },
    {
      "anonymous": false,
      "inputs": [
        {
          "indexed": false,
          "internalType": "address",
          "name": "to",
          "type": "address"
        },
        {
          "indexed": false,
          "internalType": "uint256",
          "name": "amount",
          "type": "uint256"
        }
      ],
      "name": "PaymentReleased",
      "type": "event"
    },
    {
      "anonymous": false,
      "inputs": [
        {
          "indexed": true,
          "internalType": "bytes32",
          "name": "role",
          "type": "bytes32"
        },
        {
          "indexed": true,
          "internalType": "bytes32",
          "name": "previousAdminRole",
          "type": "bytes32"
        },
        {
          "indexed": true,
          "internalType": "bytes32",
          "name": "newAdminRole",
          "type": "bytes32"
        }
      ],
      "name": "RoleAdminChanged",
      "type": "event"
    },
    {
      "anonymous": false,
      "inputs": [
        {
          "indexed": true,
          "internalType": "bytes32",
          "name": "role",
          "type": "bytes32"
        },
        {
          "indexed": true,
          "internalType": "address",
          "name": "account",
          "type": "address"
        },
        {
          "indexed": true,
          "internalType": "address",
          "name": "sender",
          "type": "address"
        }
      ],
      "name": "RoleGranted",
      "type": "event"
    },
    {
      "anonymous": false,
      "inputs": [
        {
          "indexed": true,
          "internalType": "bytes32",
          "name": "role",
          "type": "bytes32"
        },
        {
          "indexed": true,
          "internalType": "address",
          "name": "account",
          "type": "address"
        },
        {
          "indexed": true,
          "internalType": "address",
          "name": "sender",
          "type": "address"
        }
      ],
      "name": "RoleRevoked",
      "type": "event"
    },
    {
      "anonymous": false,
      "inputs": [
        {
          "indexed": true,
          "internalType": "address",
          "name": "from",
          "type": "address"
        },
        {
          "indexed": true,
          "internalType": "address",
          "name": "to",
          "type": "address"
        },
        {
          "indexed": true,
          "internalType": "uint256",
          "name": "tokenId",
          "type": "uint256"
        }
      ],
      "name": "Transfer",
      "type": "event"
    },
    {
      "anonymous": false,
      "inputs": [
        {
          "indexed": false,
          "internalType": "address",
          "name": "account",
          "type": "address"
        }
      ],
      "name": "Unpaused",
      "type": "event"
    },
    {
      "anonymous": false,
      "inputs": [
        {
          "indexed": true,
          "internalType": "address",
          "name": "implementation",
          "type": "address"
        }
      ],
      "name": "Upgraded",
      "type": "event"
    },
    {
      "anonymous": false,
      "inputs": [
        {
          "indexed": false,
          "internalType": "uint256",
          "name": "tokenId",
          "type": "uint256"
        },
        {
          "indexed": false,
          "internalType": "string",
          "name": "word",
          "type": "string"
        },
        {
          "indexed": false,
          "internalType": "address",
          "name": "to",
          "type": "address"
        }
      ],
      "name": "WordMinted",
      "type": "event"
    },
    {
      "inputs": [],
      "name": "DEFAULT_ADMIN_ROLE",
      "outputs": [
        {
          "internalType": "bytes32",
          "name": "",
          "type": "bytes32"
        }
      ],
      "stateMutability": "view",
      "type": "function"
    },
    {
      "inputs": [],
      "name": "DISCOUNTED_ROLE",
      "outputs": [
        {
          "internalType": "bytes32",
          "name": "",
          "type": "bytes32"
        }
      ],
      "stateMutability": "view",
      "type": "function"
    },
    {
      "inputs": [],
      "name": "MINTER_ROLE",
      "outputs": [
        {
          "internalType": "bytes32",
          "name": "",
          "type": "bytes32"
        }
      ],
      "stateMutability": "view",
      "type": "function"
    },
    {
      "inputs": [
        {
          "internalType": "address",
          "name": "to",
          "type": "address"
        },
        {
          "internalType": "uint256",
          "name": "tokenId",
          "type": "uint256"
        }
      ],
      "name": "approve",
      "outputs": [],
      "stateMutability": "nonpayable",
      "type": "function"
    },
    {
      "inputs": [],
      "name": "artist",
      "outputs": [
        {
          "internalType": "address",
          "name": "",
          "type": "address"
        }
      ],
      "stateMutability": "view",
      "type": "function"
    },
    {
      "inputs": [
        {
          "internalType": "address",
          "name": "owner",
          "type": "address"
        }
      ],
      "name": "balanceOf",
      "outputs": [
        {
          "internalType": "uint256",
          "name": "",
          "type": "uint256"
        }
      ],
      "stateMutability": "view",
      "type": "function"
    },
    {
      "inputs": [
        {
          "internalType": "uint256",
          "name": "tokenId",
          "type": "uint256"
        }
      ],
      "name": "burnByTokenId",
      "outputs": [],
      "stateMutability": "nonpayable",
      "type": "function"
    },
    {
      "inputs": [],
      "name": "defaultPrice",
      "outputs": [
        {
          "internalType": "uint256",
          "name": "",
          "type": "uint256"
        }
      ],
      "stateMutability": "view",
      "type": "function"
    },
    {
      "inputs": [
        {
          "internalType": "string",
          "name": "_word",
          "type": "string"
        }
      ],
      "name": "deleteCustomPriceByWord",
      "outputs": [],
      "stateMutability": "nonpayable",
      "type": "function"
    },
    {
      "inputs": [
        {
          "internalType": "string",
          "name": "_word",
          "type": "string"
        }
      ],
      "name": "deleteMaxInstancesByWord",
      "outputs": [],
      "stateMutability": "nonpayable",
      "type": "function"
    },
    {
      "inputs": [],
      "name": "discountPercentage",
      "outputs": [
        {
          "internalType": "uint256",
          "name": "",
          "type": "uint256"
        }
      ],
      "stateMutability": "view",
      "type": "function"
    },
    {
      "inputs": [],
      "name": "discountPercentageGlobal",
      "outputs": [
        {
          "internalType": "uint256",
          "name": "",
          "type": "uint256"
        }
      ],
      "stateMutability": "view",
      "type": "function"
    },
    {
      "inputs": [
        {
          "internalType": "uint256",
          "name": "tokenId",
          "type": "uint256"
        }
      ],
      "name": "getApproved",
      "outputs": [
        {
          "internalType": "address",
          "name": "",
          "type": "address"
        }
      ],
      "stateMutability": "view",
      "type": "function"
    },
    {
      "inputs": [
        {
          "internalType": "string",
          "name": "_word",
          "type": "string"
        }
      ],
      "name": "getCustomPriceByWord",
      "outputs": [
        {
          "internalType": "uint256",
          "name": "",
          "type": "uint256"
        }
      ],
      "stateMutability": "view",
      "type": "function"
    },
    {
      "inputs": [
        {
          "internalType": "string",
          "name": "_word",
          "type": "string"
        }
      ],
      "name": "getInstancesAvailable",
      "outputs": [
        {
          "internalType": "uint256",
          "name": "",
          "type": "uint256"
        }
      ],
      "stateMutability": "view",
      "type": "function"
    },
    {
      "inputs": [
        {
          "internalType": "string",
          "name": "_word",
          "type": "string"
        }
      ],
      "name": "getMaxInstancesByWord",
      "outputs": [
        {
          "internalType": "uint256",
          "name": "",
          "type": "uint256"
        }
      ],
      "stateMutability": "view",
      "type": "function"
    },
    {
      "inputs": [
        {
          "internalType": "address",
          "name": "account",
          "type": "address"
        },
        {
          "internalType": "string",
          "name": "_word",
          "type": "string"
        }
      ],
      "name": "getPrice",
      "outputs": [
        {
          "internalType": "uint256",
          "name": "",
          "type": "uint256"
        }
      ],
      "stateMutability": "view",
      "type": "function"
    },
    {
      "inputs": [
        {
          "internalType": "uint256",
          "name": "_limit",
          "type": "uint256"
        }
      ],
      "name": "getRecentTokenIds",
      "outputs": [
        {
          "internalType": "uint256[]",
          "name": "",
          "type": "uint256[]"
        }
      ],
      "stateMutability": "view",
      "type": "function"
    },
    {
      "inputs": [
        {
          "internalType": "uint256",
          "name": "_limit",
          "type": "uint256"
        }
      ],
      "name": "getRecentWords",
      "outputs": [
        {
          "internalType": "string[]",
          "name": "",
          "type": "string[]"
        }
      ],
      "stateMutability": "view",
      "type": "function"
    },
    {
      "inputs": [
        {
          "internalType": "bytes32",
          "name": "role",
          "type": "bytes32"
        }
      ],
      "name": "getRoleAdmin",
      "outputs": [
        {
          "internalType": "bytes32",
          "name": "",
          "type": "bytes32"
        }
      ],
      "stateMutability": "view",
      "type": "function"
    },
    {
      "inputs": [
        {
          "internalType": "address",
          "name": "_owner",
          "type": "address"
        }
      ],
      "name": "getTokenIdsByOwner",
      "outputs": [
        {
          "internalType": "uint256[]",
          "name": "",
          "type": "uint256[]"
        }
      ],
      "stateMutability": "view",
      "type": "function"
    },
    {
      "inputs": [
        {
          "internalType": "string",
          "name": "_word",
          "type": "string"
        }
      ],
      "name": "getWordInstances",
      "outputs": [
        {
          "internalType": "uint256",
          "name": "",
          "type": "uint256"
        }
      ],
      "stateMutability": "view",
      "type": "function"
    },
    {
      "inputs": [
        {
          "internalType": "string",
          "name": "_word",
          "type": "string"
        }
      ],
      "name": "getWordPrice",
      "outputs": [
        {
          "internalType": "uint256",
          "name": "",
          "type": "uint256"
        }
      ],
      "stateMutability": "view",
      "type": "function"
    },
    {
      "inputs": [
        {
          "internalType": "address",
          "name": "_owner",
          "type": "address"
        }
      ],
      "name": "getWordsByOwner",
      "outputs": [
        {
          "internalType": "string[]",
          "name": "",
          "type": "string[]"
        }
      ],
      "stateMutability": "view",
      "type": "function"
    },
    {
      "inputs": [
        {
          "internalType": "address[]",
          "name": "_to",
          "type": "address[]"
        },
        {
          "internalType": "string[]",
          "name": "_words",
          "type": "string[]"
        }
      ],
      "name": "giftWord",
      "outputs": [],
      "stateMutability": "nonpayable",
      "type": "function"
    },
    {
      "inputs": [
        {
          "internalType": "bytes32",
          "name": "role",
          "type": "bytes32"
        },
        {
          "internalType": "address",
          "name": "account",
          "type": "address"
        }
      ],
      "name": "grantRole",
      "outputs": [],
      "stateMutability": "nonpayable",
      "type": "function"
    },
    {
      "inputs": [
        {
          "internalType": "bytes32",
          "name": "role",
          "type": "bytes32"
        },
        {
          "internalType": "address",
          "name": "account",
          "type": "address"
        }
      ],
      "name": "hasRole",
      "outputs": [
        {
          "internalType": "bool",
          "name": "",
          "type": "bool"
        }
      ],
      "stateMutability": "view",
      "type": "function"
    },
    {
      "inputs": [
        {
          "internalType": "string",
          "name": "name",
          "type": "string"
        },
        {
          "internalType": "string",
          "name": "symbol",
          "type": "string"
        },
        {
          "internalType": "address[]",
          "name": "payees",
          "type": "address[]"
        },
        {
          "internalType": "uint256[]",
          "name": "shares",
          "type": "uint256[]"
        }
      ],
      "name": "initialize",
      "outputs": [],
      "stateMutability": "nonpayable",
      "type": "function"
    },
    {
      "inputs": [
        {
          "internalType": "address",
          "name": "owner",
          "type": "address"
        },
        {
          "internalType": "address",
          "name": "operator",
          "type": "address"
        }
      ],
      "name": "isApprovedForAll",
      "outputs": [
        {
          "internalType": "bool",
          "name": "",
          "type": "bool"
        }
      ],
      "stateMutability": "view",
      "type": "function"
    },
    {
      "inputs": [],
      "name": "maxInstances",
      "outputs": [
        {
          "internalType": "uint256",
          "name": "",
          "type": "uint256"
        }
      ],
      "stateMutability": "view",
      "type": "function"
    },
    {
      "inputs": [],
      "name": "name",
      "outputs": [
        {
          "internalType": "string",
          "name": "",
          "type": "string"
        }
      ],
      "stateMutability": "view",
      "type": "function"
    },
    {
      "inputs": [
        {
          "internalType": "uint256",
          "name": "tokenId",
          "type": "uint256"
        }
      ],
      "name": "ownerOf",
      "outputs": [
        {
          "internalType": "address",
          "name": "",
          "type": "address"
        }
      ],
      "stateMutability": "view",
      "type": "function"
    },
    {
      "inputs": [],
      "name": "pause",
      "outputs": [],
      "stateMutability": "nonpayable",
      "type": "function"
    },
    {
      "inputs": [],
      "name": "paused",
      "outputs": [
        {
          "internalType": "bool",
          "name": "",
          "type": "bool"
        }
      ],
      "stateMutability": "view",
      "type": "function"
    },
    {
      "inputs": [
        {
          "internalType": "uint256",
          "name": "index",
          "type": "uint256"
        }
      ],
      "name": "payee",
      "outputs": [
        {
          "internalType": "address",
          "name": "",
          "type": "address"
        }
      ],
      "stateMutability": "view",
      "type": "function"
    },
    {
      "inputs": [
        {
          "internalType": "address",
          "name": "_to",
          "type": "address"
        },
        {
          "internalType": "string",
          "name": "_word",
          "type": "string"
        }
      ],
      "name": "purchaseWord",
      "outputs": [],
      "stateMutability": "payable",
      "type": "function"
    },
    {
      "inputs": [
        {
          "internalType": "address payable",
          "name": "account",
          "type": "address"
        }
      ],
      "name": "release",
      "outputs": [],
      "stateMutability": "nonpayable",
      "type": "function"
    },
    {
      "inputs": [
        {
          "internalType": "contract IERC20Upgradeable",
          "name": "token",
          "type": "address"
        },
        {
          "internalType": "address",
          "name": "account",
          "type": "address"
        }
      ],
      "name": "release",
      "outputs": [],
      "stateMutability": "nonpayable",
      "type": "function"
    },
    {
      "inputs": [
        {
          "internalType": "contract IERC20Upgradeable",
          "name": "token",
          "type": "address"
        },
        {
          "internalType": "address",
          "name": "account",
          "type": "address"
        }
      ],
      "name": "released",
      "outputs": [
        {
          "internalType": "uint256",
          "name": "",
          "type": "uint256"
        }
      ],
      "stateMutability": "view",
      "type": "function"
    },
    {
      "inputs": [
        {
          "internalType": "address",
          "name": "account",
          "type": "address"
        }
      ],
      "name": "released",
      "outputs": [
        {
          "internalType": "uint256",
          "name": "",
          "type": "uint256"
        }
      ],
      "stateMutability": "view",
      "type": "function"
    },
    {
      "inputs": [
        {
          "internalType": "bytes32",
          "name": "role",
          "type": "bytes32"
        },
        {
          "internalType": "address",
          "name": "account",
          "type": "address"
        }
      ],
      "name": "renounceRole",
      "outputs": [],
      "stateMutability": "nonpayable",
      "type": "function"
    },
    {
      "inputs": [
        {
          "internalType": "bytes32",
          "name": "role",
          "type": "bytes32"
        },
        {
          "internalType": "address",
          "name": "account",
          "type": "address"
        }
      ],
      "name": "revokeRole",
      "outputs": [],
      "stateMutability": "nonpayable",
      "type": "function"
    },
    {
      "inputs": [],
      "name": "royaltiesPercentage",
      "outputs": [
        {
          "internalType": "uint256",
          "name": "",
          "type": "uint256"
        }
      ],
      "stateMutability": "view",
      "type": "function"
    },
    {
      "inputs": [
        {
          "internalType": "uint256",
          "name": "_tokenId",
          "type": "uint256"
        },
        {
          "internalType": "uint256",
          "name": "_salePrice",
          "type": "uint256"
        }
      ],
      "name": "royaltyInfo",
      "outputs": [
        {
          "internalType": "address",
          "name": "receiver",
          "type": "address"
        },
        {
          "internalType": "uint256",
          "name": "royaltyAmount",
          "type": "uint256"
        }
      ],
      "stateMutability": "view",
      "type": "function"
    },
    {
      "inputs": [
        {
          "internalType": "address",
          "name": "from",
          "type": "address"
        },
        {
          "internalType": "address",
          "name": "to",
          "type": "address"
        },
        {
          "internalType": "uint256",
          "name": "tokenId",
          "type": "uint256"
        }
      ],
      "name": "safeTransferFrom",
      "outputs": [],
      "stateMutability": "nonpayable",
      "type": "function"
    },
    {
      "inputs": [
        {
          "internalType": "address",
          "name": "from",
          "type": "address"
        },
        {
          "internalType": "address",
          "name": "to",
          "type": "address"
        },
        {
          "internalType": "uint256",
          "name": "tokenId",
          "type": "uint256"
        },
        {
          "internalType": "bytes",
          "name": "_data",
          "type": "bytes"
        }
      ],
      "name": "safeTransferFrom",
      "outputs": [],
      "stateMutability": "nonpayable",
      "type": "function"
    },
    {
      "inputs": [
        {
          "internalType": "address",
          "name": "operator",
          "type": "address"
        },
        {
          "internalType": "bool",
          "name": "approved",
          "type": "bool"
        }
      ],
      "name": "setApprovalForAll",
      "outputs": [],
      "stateMutability": "nonpayable",
      "type": "function"
    },
    {
      "inputs": [
        {
          "internalType": "string",
          "name": "_word",
          "type": "string"
        },
        {
          "internalType": "uint256",
          "name": "price",
          "type": "uint256"
        }
      ],
      "name": "setCustomPriceByWord",
      "outputs": [],
      "stateMutability": "nonpayable",
      "type": "function"
    },
    {
      "inputs": [
        {
          "internalType": "uint256",
          "name": "price",
          "type": "uint256"
        }
      ],
      "name": "setDefaultPrice",
      "outputs": [],
      "stateMutability": "nonpayable",
      "type": "function"
    },
    {
      "inputs": [
        {
          "internalType": "uint256",
          "name": "percentage",
          "type": "uint256"
        }
      ],
      "name": "setDiscountPercentage",
      "outputs": [],
      "stateMutability": "nonpayable",
      "type": "function"
    },
    {
      "inputs": [
        {
          "internalType": "uint256",
          "name": "percentage",
          "type": "uint256"
        }
      ],
      "name": "setDiscountPercentageGlobal",
      "outputs": [],
      "stateMutability": "nonpayable",
      "type": "function"
    },
    {
      "inputs": [
        {
          "internalType": "uint256",
          "name": "instances",
          "type": "uint256"
        }
      ],
      "name": "setMaxInstances",
      "outputs": [],
      "stateMutability": "nonpayable",
      "type": "function"
    },
    {
      "inputs": [
        {
          "internalType": "string",
          "name": "_word",
          "type": "string"
        },
        {
          "internalType": "uint256",
          "name": "instances",
          "type": "uint256"
        }
      ],
      "name": "setMaxInstancesByWord",
      "outputs": [],
      "stateMutability": "nonpayable",
      "type": "function"
    },
    {
      "inputs": [
        {
          "internalType": "address",
          "name": "newRoyaltiesReceiver",
          "type": "address"
        }
      ],
      "name": "setRoyaltiesReceiver",
      "outputs": [],
      "stateMutability": "nonpayable",
      "type": "function"
    },
    {
      "inputs": [
        {
          "internalType": "address",
          "name": "account",
          "type": "address"
        }
      ],
      "name": "shares",
      "outputs": [
        {
          "internalType": "uint256",
          "name": "",
          "type": "uint256"
        }
      ],
      "stateMutability": "view",
      "type": "function"
    },
    {
      "inputs": [
        {
          "internalType": "bytes4",
          "name": "interfaceId",
          "type": "bytes4"
        }
      ],
      "name": "supportsInterface",
      "outputs": [
        {
          "internalType": "bool",
          "name": "",
          "type": "bool"
        }
      ],
      "stateMutability": "view",
      "type": "function"
    },
    {
      "inputs": [],
      "name": "symbol",
      "outputs": [
        {
          "internalType": "string",
          "name": "",
          "type": "string"
        }
      ],
      "stateMutability": "view",
      "type": "function"
    },
    {
      "inputs": [
        {
          "internalType": "uint256",
          "name": "index",
          "type": "uint256"
        }
      ],
      "name": "tokenByIndex",
      "outputs": [
        {
          "internalType": "uint256",
          "name": "",
          "type": "uint256"
        }
      ],
      "stateMutability": "view",
      "type": "function"
    },
    {
      "inputs": [
        {
          "internalType": "address",
          "name": "owner",
          "type": "address"
        },
        {
          "internalType": "uint256",
          "name": "index",
          "type": "uint256"
        }
      ],
      "name": "tokenOfOwnerByIndex",
      "outputs": [
        {
          "internalType": "uint256",
          "name": "",
          "type": "uint256"
        }
      ],
      "stateMutability": "view",
      "type": "function"
    },
    {
      "inputs": [
        {
          "internalType": "uint256",
          "name": "tokenId",
          "type": "uint256"
        }
      ],
      "name": "tokenURI",
      "outputs": [
        {
          "internalType": "string",
          "name": "",
          "type": "string"
        }
      ],
      "stateMutability": "view",
      "type": "function"
    },
    {
      "inputs": [
        {
          "internalType": "contract IERC20Upgradeable",
          "name": "token",
          "type": "address"
        }
      ],
      "name": "totalReleased",
      "outputs": [
        {
          "internalType": "uint256",
          "name": "",
          "type": "uint256"
        }
      ],
      "stateMutability": "view",
      "type": "function"
    },
    {
      "inputs": [],
      "name": "totalReleased",
      "outputs": [
        {
          "internalType": "uint256",
          "name": "",
          "type": "uint256"
        }
      ],
      "stateMutability": "view",
      "type": "function"
    },
    {
      "inputs": [],
      "name": "totalShares",
      "outputs": [
        {
          "internalType": "uint256",
          "name": "",
          "type": "uint256"
        }
      ],
      "stateMutability": "view",
      "type": "function"
    },
    {
      "inputs": [],
      "name": "totalSupply",
      "outputs": [
        {
          "internalType": "uint256",
          "name": "",
          "type": "uint256"
        }
      ],
      "stateMutability": "view",
      "type": "function"
    },
    {
      "inputs": [
        {
          "internalType": "address",
          "name": "from",
          "type": "address"
        },
        {
          "internalType": "address",
          "name": "to",
          "type": "address"
        },
        {
          "internalType": "uint256",
          "name": "tokenId",
          "type": "uint256"
        }
      ],
      "name": "transferFrom",
      "outputs": [],
      "stateMutability": "nonpayable",
      "type": "function"
    },
    {
      "inputs": [],
      "name": "unpause",
      "outputs": [],
      "stateMutability": "nonpayable",
      "type": "function"
    },
    {
      "inputs": [
        {
          "internalType": "address",
          "name": "newImplementation",
          "type": "address"
        }
      ],
      "name": "upgradeTo",
      "outputs": [],
      "stateMutability": "nonpayable",
      "type": "function"
    },
    {
      "inputs": [
        {
          "internalType": "address",
          "name": "newImplementation",
          "type": "address"
        },
        {
          "internalType": "bytes",
          "name": "data",
          "type": "bytes"
        }
      ],
      "name": "upgradeToAndCall",
      "outputs": [],
      "stateMutability": "payable",
      "type": "function"
    },
    {
      "inputs": [
        {
          "internalType": "string",
          "name": "_word",
          "type": "string"
        }
      ],
      "name": "wordAvailable",
      "outputs": [
        {
          "internalType": "bool",
          "name": "",
          "type": "bool"
        }
      ],
      "stateMutability": "view",
      "type": "function"
    },
    {
      "stateMutability": "payable",
      "type": "receive"
    }
  ],
  "bytecode": "0x60a06040523060601b6080523480156200001857600080fd5b50600054610100900460ff168062000033575060005460ff16155b6200009b5760405162461bcd60e51b815260206004820152602e60248201527f496e697469616c697a61626c653a20636f6e747261637420697320616c72656160448201526d191e481a5b9a5d1a585b1a5e995960921b606482015260840160405180910390fd5b600054610100900460ff16158015620000be576000805461ffff19166101011790555b8015620000d1576000805461ff00191690555b5060805160601c61552062000106600039600081816113f501528181611435015281816118fa015261193a01526155206000f3fe6080604052600436106103fe5760003560e01c80637386ca3e11610213578063b514371511610123578063d547741f116100ab578063e69e04b31161007a578063e69e04b314610cc7578063e76fb803146108a9578063e985e9c514610cde578063ece7669e14610d27578063edf4619614610d4757600080fd5b8063d547741f14610c3a578063d79779b214610c5a578063dd08eae014610c91578063e33b7de314610cb157600080fd5b8063cafa8dfe116100f2578063cafa8dfe14610b97578063cc14f2f514610bae578063ce7c2ac214610bce578063d0fd890d14610c05578063d539139314610c1857600080fd5b8063b514371514610b17578063b88d4fde14610b37578063c5e885e414610b57578063c87b56dd14610b7757600080fd5b806391d14854116101a6578063a22cb46511610175578063a22cb46514610a6c578063a7abb8b714610a8c578063aef9455d14610ac0578063b3428d1514610ae0578063b3fa9f2414610b0057600080fd5b806391d14854146109eb57806395d89b4114610a0b5780639852595c14610a20578063a217fddf14610a5757600080fd5b80638456cb59116101e25780638456cb5914610976578063845bcce11461098b57806387ded6c6146109ab5780638b83209b146109cb57600080fd5b80637386ca3e146108e957806376977a3a1461090957806377500c54146109295780637b63c0fc1461094957600080fd5b80633cad95871161030e5780634f6ccce7116102a15780636352211e116102705780636352211e1461083c5780636970bb0a1461085c5780636d3c7ec51461088957806370868d6f146108a957806370a08231146108c957600080fd5b80634f6ccce7146107cd57806359fb3e60146107ed5780635b4b51cf146108045780635c975abb1461082457600080fd5b806343bc1612116102dd57806343bc161214610759578063445d97871461077a57806348b750441461079a5780634f1ef286146107ba57600080fd5b80633cad9587146106bd5780633f4ba83a146106dd578063406072a9146106f257806342842e0e1461073957600080fd5b806323b872dd116103915780632f2ff15d116103605780632f2ff15d146106275780632f745c591461064757806336568abe146106675780633659cfe6146106875780633a98ef39146106a757600080fd5b806323b872dd14610580578063248a9ca3146105a05780632a55205a146105d15780632f0f0dac1461061057600080fd5b8063095ea7b3116103cd578063095ea7b3146105095780631287809e1461052b57806318160ddd1461054b578063191655871461056057600080fd5b806301ffc9a71461044c578063027e11a71461048157806306fdde03146104af578063081812fc146104d157600080fd5b36610447577f6ef95f06320e7a25a04a175ca677b7052bdd97131872c2192525a629f51be77033604080516001600160a01b0390921682523460208301520160405180910390a1005b600080fd5b34801561045857600080fd5b5061046c610467366004614c2e565b610d67565b60405190151581526020015b60405180910390f35b34801561048d57600080fd5b506104a161049c366004614c68565b610d92565b604051908152602001610478565b3480156104bb57600080fd5b506104c4610dbe565b6040516104789190614ff0565b3480156104dd57600080fd5b506104f16104ec366004614bf0565b610e50565b6040516001600160a01b039091168152602001610478565b34801561051557600080fd5b50610529610524366004614acd565b610edd565b005b34801561053757600080fd5b50610529610546366004614af9565b610ff3565b34801561055757600080fd5b506099546104a1565b34801561056c57600080fd5b5061052961057b36600461494e565b6110e9565b34801561058c57600080fd5b5061052961059b3660046149a4565b61121c565b3480156105ac57600080fd5b506104a16105bb366004614bf0565b600090815261012d602052604090206001015490565b3480156105dd57600080fd5b506105f16105ec366004614dff565b61124d565b604080516001600160a01b039093168352602083019190915201610478565b34801561061c57600080fd5b506104a16101f95481565b34801561063357600080fd5b50610529610642366004614c09565b6112af565b34801561065357600080fd5b506104a1610662366004614acd565b6112d6565b34801561067357600080fd5b50610529610682366004614c09565b61136c565b34801561069357600080fd5b506105296106a236600461494e565b6113ea565b3480156106b357600080fd5b506101c3546104a1565b3480156106c957600080fd5b506105296106d8366004614c68565b6114b3565b3480156106e957600080fd5b506105296114e9565b3480156106fe57600080fd5b506104a161070d36600461496b565b6001600160a01b0391821660009081526101c96020908152604080832093909416825291909152205490565b34801561074557600080fd5b506105296107543660046149a4565b6114fd565b34801561076557600080fd5b506101f6546104f1906001600160a01b031681565b34801561078657600080fd5b50610529610795366004614c9c565b611518565b3480156107a657600080fd5b506105296107b536600461496b565b611702565b6105296107c8366004614a7e565b6118ef565b3480156107d957600080fd5b506104a16107e8366004614bf0565b6119a5565b3480156107f957600080fd5b506104a16101f75481565b34801561081057600080fd5b506104a161081f366004614c68565b611a38565b34801561083057600080fd5b5060fb5460ff1661046c565b34801561084857600080fd5b506104f1610857366004614bf0565b611aac565b34801561086857600080fd5b5061087c61087736600461494e565b611b23565b6040516104789190614fac565b34801561089557600080fd5b506105296108a4366004614bf0565b611bc6565b3480156108b557600080fd5b506104a16108c4366004614c68565b611be9565b3480156108d557600080fd5b506104a16108e436600461494e565b611c15565b3480156108f557600080fd5b50610529610904366004614da2565b611c9c565b34801561091557600080fd5b506104a1610924366004614a7e565b611d01565b34801561093557600080fd5b5061046c610944366004614c68565b611d9f565b34801561095557600080fd5b5061096961096436600461494e565b611dd5565b6040516104789190614f4a565b34801561098257600080fd5b50610529611f2f565b34801561099757600080fd5b506105296109a6366004614bf0565b611f43565b3480156109b757600080fd5b506109696109c6366004614bf0565b611f66565b3480156109d757600080fd5b506104f16109e6366004614bf0565b6120b8565b3480156109f757600080fd5b5061046c610a06366004614c09565b6120e9565b348015610a1757600080fd5b506104c4612115565b348015610a2c57600080fd5b506104a1610a3b36600461494e565b6001600160a01b031660009081526101c6602052604090205490565b348015610a6357600080fd5b506104a1600081565b348015610a7857600080fd5b50610529610a87366004614a50565b612124565b348015610a9857600080fd5b506104a17ff9e9e1c8035f82fd72c5438c5719fd5349deacb4207f4fcbbda606cb5a39d50981565b348015610acc57600080fd5b50610529610adb366004614bf0565b61212f565b348015610aec57600080fd5b50610529610afb366004614bf0565b612152565b348015610b0c57600080fd5b506104a16101fa5481565b348015610b2357600080fd5b50610529610b3236600461494e565b612175565b348015610b4357600080fd5b50610529610b523660046149e5565b6121c1565b348015610b6357600080fd5b50610529610b72366004614da2565b6121f3565b348015610b8357600080fd5b506104c4610b92366004614bf0565b612258565b348015610ba357600080fd5b506104a16101fb5481565b348015610bba57600080fd5b50610529610bc9366004614bf0565b612263565b348015610bda57600080fd5b506104a1610be936600461494e565b6001600160a01b031660009081526101c5602052604090205490565b610529610c13366004614a7e565b612278565b348015610c2457600080fd5b506104a16000805160206154a983398151915281565b348015610c4657600080fd5b50610529610c55366004614c09565b6123b2565b348015610c6657600080fd5b506104a1610c7536600461494e565b6001600160a01b031660009081526101c8602052604090205490565b348015610c9d57600080fd5b506104a1610cac366004614c68565b6123d9565b348015610cbd57600080fd5b506101c4546104a1565b348015610cd357600080fd5b506104a16101f85481565b348015610cea57600080fd5b5061046c610cf936600461496b565b6001600160a01b039182166000908152606a6020908152604080832093909416825291909152205460ff1690565b348015610d3357600080fd5b5061087c610d42366004614bf0565b612405565b348015610d5357600080fd5b50610529610d62366004614c68565b6124d7565b60006001600160e01b0319821663152a902d60e11b1480610d8c5750610d8c8261250d565b92915050565b60006101fc82604051610da59190614e4d565b9081526020016040518091039020600201549050919050565b606060658054610dcd90615370565b80601f0160208091040260200160405190810160405280929190818152602001828054610df990615370565b8015610e465780601f10610e1b57610100808354040283529160200191610e46565b820191906000526020600020905b815481529060010190602001808311610e2957829003601f168201915b5050505050905090565b6000610e5b82612532565b610ec15760405162461bcd60e51b815260206004820152602c60248201527f4552433732313a20617070726f76656420717565727920666f72206e6f6e657860448201526b34b9ba32b73a103a37b5b2b760a11b60648201526084015b60405180910390fd5b506000908152606960205260409020546001600160a01b031690565b6000610ee882611aac565b9050806001600160a01b0316836001600160a01b03161415610f565760405162461bcd60e51b815260206004820152602160248201527f4552433732313a20617070726f76616c20746f2063757272656e74206f776e656044820152603960f91b6064820152608401610eb8565b336001600160a01b0382161480610f725750610f728133610cf9565b610fe45760405162461bcd60e51b815260206004820152603860248201527f4552433732313a20617070726f76652063616c6c6572206973206e6f74206f7760448201527f6e6572206e6f7220617070726f76656420666f7220616c6c00000000000000006064820152608401610eb8565b610fee838361254f565b505050565b60fb5460ff16156110165760405162461bcd60e51b8152600401610eb89061517e565b6000805160206154a983398151915261102f81336125bd565b60005b83518110156110e357600061106e6000805160206154a98339815191528684815181106110615761106161541c565b60200260200101516120e9565b158015611091575061108f6000801b8684815181106110615761106161541c565b155b90506110d08583815181106110a8576110a861541c565b60200260200101518584815181106110c2576110c261541c565b602002602001015183612621565b50806110db816153ab565b915050611032565b50505050565b6001600160a01b03811660009081526101c5602052604090205461111f5760405162461bcd60e51b8152600401610eb8906150a1565b600061112b6101c45490565b61113590476152cb565b90506000611163838361115e866001600160a01b031660009081526101c6602052604090205490565b612741565b9050806111825760405162461bcd60e51b8152600401610eb890615133565b6001600160a01b03831660009081526101c66020526040812080548392906111ab9084906152cb565b92505081905550806101c460008282546111c591906152cb565b909155506111d590508382612781565b604080516001600160a01b0385168152602081018390527fdf20fd1e76bc69d672e4814fafb2c449bba3a5369d8359adf9e05e6fde87b056910160405180910390a1505050565b611226338261289a565b6112425760405162461bcd60e51b8152600401610eb8906151f6565b610fee838383612980565b6000806112686000805160206154a9833981519152336120e9565b15611278575060009050806112a8565b600060646101fb548561128b91906152f7565b61129591906152e3565b6101f6546001600160a01b031693509150505b9250929050565b600082815261012d60205260409020600101546112cc81336125bd565b610fee8383612b2b565b60006112e183611c15565b82106113435760405162461bcd60e51b815260206004820152602b60248201527f455243373231456e756d657261626c653a206f776e657220696e646578206f7560448201526a74206f6620626f756e647360a81b6064820152608401610eb8565b506001600160a01b03919091166000908152609760209081526040808320938352929052205490565b6001600160a01b03811633146113dc5760405162461bcd60e51b815260206004820152602f60248201527f416363657373436f6e74726f6c3a2063616e206f6e6c792072656e6f756e636560448201526e103937b632b9903337b91039b2b63360891b6064820152608401610eb8565b6113e68282612bb2565b5050565b306001600160a01b037f00000000000000000000000000000000000000000000000000000000000000001614156114335760405162461bcd60e51b8152600401610eb890615055565b7f00000000000000000000000000000000000000000000000000000000000000006001600160a01b0316611465612c1a565b6001600160a01b03161461148b5760405162461bcd60e51b8152600401610eb8906150e7565b61149481612c48565b604080516000808252602082019092526114b091839190612c54565b50565b60006114bf81336125bd565b6101fc826040516114d09190614e4d565b9081526020016040518091039020600101600090555050565b60006114f581336125bd565b6114b0612d98565b610fee838383604051806020016040528060008152506121c1565b600054610100900460ff1680611531575060005460ff16155b61154d5760405162461bcd60e51b8152600401610eb8906151a8565b600054610100900460ff1615801561156f576000805461ffff19166101011790555b6115798585612e2b565b611581612eb2565b611589612eb2565b611591612f35565b611599612eb2565b6115a1612f9c565b6115ab8383612ffa565b6101f68054336001600160a01b0319909116811790915560056101f781905566b1a2bc2ec500006101f85560006101f981905560326101fa556101fb91909155604080516080808201835260018083526020808401868152848601838152606080870185815288516a63727970746f776f72647360a81b81526101fc600b82018190528a5191829003602b01822099518a5460ff19908116911515919091178b5595518a89015593516002808b019190915591516003998a0155968701895285875293860189815286890186815291870186815289516918dc9e5c1d1bdddbdc9960b21b8152600a810194909452985192839003602a0190922095518654909316921515929092178555519284019290925590519082015591519101556116d191612b2b565b6116e96000805160206154a983398151915233612b2b565b80156116fb576000805461ff00191690555b5050505050565b6001600160a01b03811660009081526101c560205260409020546117385760405162461bcd60e51b8152600401610eb8906150a1565b6001600160a01b03821660009081526101c860205260408120546040516370a0823160e01b81523060048201526001600160a01b038516906370a082319060240160206040518083038186803b15801561179157600080fd5b505afa1580156117a5573d6000803e3d6000fd5b505050506040513d601f19601f820116820180604052508101906117c99190614de6565b6117d391906152cb565b9050600061180d838361115e87876001600160a01b0391821660009081526101c96020908152604080832093909416825291909152205490565b90508061182c5760405162461bcd60e51b8152600401610eb890615133565b6001600160a01b0380851660009081526101c960209081526040808320938716835292905290812080548392906118649084906152cb565b90915550506001600160a01b03841660009081526101c86020526040812080548392906118929084906152cb565b909155506118a39050848483613063565b604080516001600160a01b038581168252602082018490528616917f3be5b7a71e84ed12875d241991c70855ac5817d847039e17a9d895c1ceb0f18a910160405180910390a250505050565b306001600160a01b037f00000000000000000000000000000000000000000000000000000000000000001614156119385760405162461bcd60e51b8152600401610eb890615055565b7f00000000000000000000000000000000000000000000000000000000000000006001600160a01b031661196a612c1a565b6001600160a01b0316146119905760405162461bcd60e51b8152600401610eb8906150e7565b61199982612c48565b6113e682826001612c54565b60006119b060995490565b8210611a135760405162461bcd60e51b815260206004820152602c60248201527f455243373231456e756d657261626c653a20676c6f62616c20696e646578206f60448201526b7574206f6620626f756e647360a01b6064820152608401610eb8565b60998281548110611a2657611a2661541c565b90600052602060002001549050919050565b600080611a44836130b5565b90506101fc83604051611a579190614e4d565b908152602001604051809103902060030154811015611a77576000611aa5565b6101fc83604051611a889190614e4d565b90815260200160405180910390206003015481611aa59190615316565b9392505050565b6000818152606760205260408120546001600160a01b031680610d8c5760405162461bcd60e51b815260206004820152602960248201527f4552433732313a206f776e657220717565727920666f72206e6f6e657869737460448201526832b73a103a37b5b2b760b91b6064820152608401610eb8565b60606000611b3083611c15565b6001600160401b03811115611b4757611b47615432565b604051908082528060200260200182016040528015611b70578160200160208202803683370190505b50905060005b611b7f84611c15565b811015611bbf57611b9084826112d6565b828281518110611ba257611ba261541c565b602090810291909101015280611bb7816153ab565b915050611b76565b5092915050565b6000611bd281336125bd565b6101f854821415611be257600080fd5b506101f855565b60006101fc82604051611bfc9190614e4d565b9081526020016040518091039020600101549050919050565b60006001600160a01b038216611c805760405162461bcd60e51b815260206004820152602a60248201527f4552433732313a2062616c616e636520717565727920666f7220746865207a65604482015269726f206164647265737360b01b6064820152608401610eb8565b506001600160a01b031660009081526068602052604090205490565b6000611ca881336125bd565b6101fc83604051611cb99190614e4d565b908152602001604051809103902060020154821415611cd757600080fd5b816101fc84604051611ce99190614e4d565b90815260405190819003602001902060020155505050565b6000611d1b6000805160206154a9833981519152846120e9565b15611d2857506000610d8c565b6000611d33836130fa565b90506000611d408261313f565b9050611d6c7ff9e9e1c8035f82fd72c5438c5719fd5349deacb4207f4fcbbda606cb5a39d509866120e9565b15611d97576101fa546101f95411611d8c57611d8782613166565b611d8e565b805b92505050610d8c565b949350505050565b6000611daa826130b5565b6101fc83604051611dbb9190614e4d565b908152602001604051809103902060030154109050919050565b60606000611de283611b23565b9050600081516001600160401b03811115611dff57611dff615432565b604051908082528060200260200182016040528015611e3257816020015b6060815260200190600190039081611e1d5790505b50905060005b8251811015611f27576101fd6000848381518110611e5857611e5861541c565b602002602001015181526020019081526020016000208054611e7990615370565b80601f0160208091040260200160405190810160405280929190818152602001828054611ea590615370565b8015611ef25780601f10611ec757610100808354040283529160200191611ef2565b820191906000526020600020905b815481529060010190602001808311611ed557829003601f168201915b5050505050828281518110611f0957611f0961541c565b60200260200101819052508080611f1f906153ab565b915050611e38565b509392505050565b6000611f3b81336125bd565b6114b0613179565b6000611f4f81336125bd565b6101f954821415611f5f57600080fd5b506101f955565b60606000611f7383612405565b9050600081516001600160401b03811115611f9057611f90615432565b604051908082528060200260200182016040528015611fc357816020015b6060815260200190600190039081611fae5790505b50905060005b8251811015611f27576101fd6000848381518110611fe957611fe961541c565b60200260200101518152602001908152602001600020805461200a90615370565b80601f016020809104026020016040519081016040528092919081815260200182805461203690615370565b80156120835780601f1061205857610100808354040283529160200191612083565b820191906000526020600020905b81548152906001019060200180831161206657829003601f168201915b505050505082828151811061209a5761209a61541c565b602002602001018190525080806120b0906153ab565b915050611fc9565b60006101c782815481106120ce576120ce61541c565b6000918252602090912001546001600160a01b031692915050565b600091825261012d602090815260408084206001600160a01b0393909316845291905290205460ff1690565b606060668054610dcd90615370565b6113e63383836131d1565b600061213b81336125bd565b6101f75482141561214b57600080fd5b506101f755565b600061215e81336125bd565b6101fa5482141561216e57600080fd5b506101fa55565b600061218181336125bd565b6101f6546001600160a01b038381169116141561219d57600080fd5b506101f680546001600160a01b0319166001600160a01b0392909216919091179055565b6121cb338361289a565b6121e75760405162461bcd60e51b8152600401610eb8906151f6565b6110e3848484846132a0565b60006121ff81336125bd565b6101fc836040516122109190614e4d565b90815260200160405180910390206001015482141561222e57600080fd5b816101fc846040516122409190614e4d565b90815260405190819003602001902060010155505050565b6060610d8c826132d3565b600061226f81336125bd565b6113e682613435565b60fb5460ff161561229b5760405162461bcd60e51b8152600401610eb89061517e565b6122b36000805160206154a9833981519152336120e9565b612376576122c081611d9f565b61230c5760405162461bcd60e51b815260206004820181905260248201527f5468697320776f7264206973206e6f206c6f6e67657220617661696c61626c656044820152606401610eb8565b6123163382611d01565b3410156123765760405162461bcd60e51b815260206004820152602860248201527f596f7520646964206e6f742070617920656e6f7567682c20636865636b207468604482015267652070726963652160c01b6064820152608401610eb8565b60006123906000805160206154a9833981519152846120e9565b1580156123a557506123a36000846120e9565b155b9050610fee838383612621565b600082815261012d60205260409020600101546123cf81336125bd565b610fee8383612bb2565b60006101fc826040516123ec9190614e4d565b9081526020016040518091039020600301549050919050565b6060600061241260995490565b90506000838211156124245783612426565b815b90506000816001600160401b0381111561244257612442615432565b60405190808252806020026020018201604052801561246b578160200160208202803683370190505b509050600061247a8385615316565b905060005b838110156124cc57612490826119a5565b8382815181106124a2576124a261541c565b60209081029190910101526124b86001836152cb565b9150806124c4816153ab565b91505061247f565b509095945050505050565b60006124e381336125bd565b6101fc826040516124f49190614e4d565b9081526020016040518091039020600201600090555050565b60006001600160e01b03198216637965db0b60e01b1480610d8c5750610d8c8261343e565b6000908152606760205260409020546001600160a01b0316151590565b600081815260696020526040902080546001600160a01b0319166001600160a01b038416908117909155819061258482611aac565b6001600160a01b03167f8c5be1e5ebec7d5bd14f71427d1e84f3dd0314c0f7b2291e5b200ac8c7c3b92560405160405180910390a45050565b6125c782826120e9565b6113e6576125df816001600160a01b03166014613463565b6125ea836020613463565b6040516020016125fb929190614e98565b60408051601f198184030181529082905262461bcd60e51b8252610eb891600401614ff0565b600061262d6101f55490565b905061263e6101f580546001019055565b60006101fc846040516126519190614e4d565b908152604051908190036020019020805490915060ff166126a357805460ff191660019081178255600090820155821561268c57600161268f565b60005b60ff166003820155600060028201556126ca565b82156126be5760038101546126b99060016152cb565b6126c4565b80600301545b60038201555b60008281526101fd6020908152604090912085516126ea92870190614795565b506126f585836135fe565b6126ff8285613618565b7fe7619a6b73b99956e487541f2eafbf4cb611a98b8391e31858fe02ba08669f0582858760405161273293929190615247565b60405180910390a15050505050565b6101c3546001600160a01b03841660009081526101c560205260408120549091839161276d90866152f7565b61277791906152e3565b611d979190615316565b804710156127d15760405162461bcd60e51b815260206004820152601d60248201527f416464726573733a20696e73756666696369656e742062616c616e63650000006044820152606401610eb8565b6000826001600160a01b03168260405160006040518083038185875af1925050503d806000811461281e576040519150601f19603f3d011682016040523d82523d6000602084013e612823565b606091505b5050905080610fee5760405162461bcd60e51b815260206004820152603a60248201527f416464726573733a20756e61626c6520746f2073656e642076616c75652c207260448201527f6563697069656e74206d617920686176652072657665727465640000000000006064820152608401610eb8565b60006128a582612532565b6129065760405162461bcd60e51b815260206004820152602c60248201527f4552433732313a206f70657261746f7220717565727920666f72206e6f6e657860448201526b34b9ba32b73a103a37b5b2b760a11b6064820152608401610eb8565b600061291183611aac565b9050806001600160a01b0316846001600160a01b0316148061294c5750836001600160a01b031661294184610e50565b6001600160a01b0316145b80611d9757506001600160a01b038082166000908152606a602090815260408083209388168352929052205460ff16611d97565b826001600160a01b031661299382611aac565b6001600160a01b0316146129fb5760405162461bcd60e51b815260206004820152602960248201527f4552433732313a207472616e73666572206f6620746f6b656e2074686174206960448201526839903737ba1037bbb760b91b6064820152608401610eb8565b6001600160a01b038216612a5d5760405162461bcd60e51b8152602060048201526024808201527f4552433732313a207472616e7366657220746f20746865207a65726f206164646044820152637265737360e01b6064820152608401610eb8565b612a688383836136a3565b612a7360008261254f565b6001600160a01b0383166000908152606860205260408120805460019290612a9c908490615316565b90915550506001600160a01b0382166000908152606860205260408120805460019290612aca9084906152cb565b909155505060008181526067602052604080822080546001600160a01b0319166001600160a01b0386811691821790925591518493918716917fddf252ad1be2c89b69c2b068fc378daa952ba7f163c4a11628f55a4df523b3ef91a4505050565b612b3582826120e9565b6113e657600082815261012d602090815260408083206001600160a01b03851684529091529020805460ff19166001179055612b6e3390565b6001600160a01b0316816001600160a01b0316837f2f8788117e7eff1d82e926ec794901d17c78024a50270940304540a733656f0d60405160405180910390a45050565b612bbc82826120e9565b156113e657600082815261012d602090815260408083206001600160a01b0385168085529252808320805460ff1916905551339285917ff6391f5c32d9c69d2a47ea670b442974b53935d1edc7fd64eb21e047a839171b9190a45050565b7f360894a13ba1a3210667c828492db98dca3e2076cc3735a920a3ca505d382bbc546001600160a01b031690565b60006113e681336125bd565b6000612c5e612c1a565b9050612c69846136d1565b600083511180612c765750815b15612c8757612c858484613776565b505b7f4910fdfa16fed3260ed0e7147f7cc6da11a60208b5b9406d12a635614ffd9143805460ff166116fb57805460ff191660011781556040516001600160a01b0383166024820152612d0690869060440160408051601f198184030181529190526020810180516001600160e01b0316631b2ce7f360e11b179052613776565b50805460ff19168155612d17612c1a565b6001600160a01b0316826001600160a01b031614612d8f5760405162461bcd60e51b815260206004820152602f60248201527f45524331393637557067726164653a207570677261646520627265616b73206660448201526e75727468657220757067726164657360881b6064820152608401610eb8565b6116fb85613861565b60fb5460ff16612de15760405162461bcd60e51b815260206004820152601460248201527314185d5cd8589b194e881b9bdd081c185d5cd95960621b6044820152606401610eb8565b60fb805460ff191690557f5db9ee0a495bf2e6ff9c91a7834c1ba4fdd244a5e8aa4e537bd38aeae4b073aa335b6040516001600160a01b03909116815260200160405180910390a1565b600054610100900460ff1680612e44575060005460ff16155b612e605760405162461bcd60e51b8152600401610eb8906151a8565b600054610100900460ff16158015612e82576000805461ffff19166101011790555b612e8a6138a1565b612e926138a1565b612e9c838361390b565b8015610fee576000805461ff0019169055505050565b600054610100900460ff1680612ecb575060005460ff16155b612ee75760405162461bcd60e51b8152600401610eb8906151a8565b600054610100900460ff16158015612f09576000805461ffff19166101011790555b612f116138a1565b612f196138a1565b612f216138a1565b80156114b0576000805461ff001916905550565b600054610100900460ff1680612f4e575060005460ff16155b612f6a5760405162461bcd60e51b8152600401610eb8906151a8565b600054610100900460ff16158015612f8c576000805461ffff19166101011790555b612f946138a1565b612f216139a0565b600054610100900460ff1680612fb5575060005460ff16155b612fd15760405162461bcd60e51b8152600401610eb8906151a8565b600054610100900460ff16158015612f11576000805461ffff1916610101179055612f196138a1565b600054610100900460ff1680613013575060005460ff16155b61302f5760405162461bcd60e51b8152600401610eb8906151a8565b600054610100900460ff16158015613051576000805461ffff19166101011790555b6130596138a1565b612e9c8383613a15565b604080516001600160a01b038416602482015260448082018490528251808303909101815260649091019091526020810180516001600160e01b031663a9059cbb60e01b179052610fee908490613b83565b6000806101fc836040516130c99190614e4d565b908152602001604051809103902060020154116130e9576101f754610d8c565b6101fc82604051610da59190614e4d565b6000806101fc8360405161310e9190614e4d565b9081526020016040518091039020600101541161312e576101f854610d8c565b6101fc82604051611bfc9190614e4d565b600060646101f9548361315291906152f7565b61315c91906152e3565b610d8c9083615316565b600060646101fa548361315291906152f7565b60fb5460ff161561319c5760405162461bcd60e51b8152600401610eb89061517e565b60fb805460ff191660011790557f62e78cea01bee320cd4e420270b5ea74000d11b0c9f74754ebdbfc544b05a258612e0e3390565b816001600160a01b0316836001600160a01b031614156132335760405162461bcd60e51b815260206004820152601960248201527f4552433732313a20617070726f766520746f2063616c6c6572000000000000006044820152606401610eb8565b6001600160a01b038381166000818152606a6020908152604080832094871680845294825291829020805460ff191686151590811790915591519182527f17307eab39ab6107e8899845ad3d59bd9653f200f220920489ca2b5937696c31910160405180910390a3505050565b6132ab848484612980565b6132b784848484613c55565b6110e35760405162461bcd60e51b8152600401610eb890615003565b60606132de82612532565b6133445760405162461bcd60e51b815260206004820152603160248201527f45524337323155524953746f726167653a2055524920717565727920666f72206044820152703737b732bc34b9ba32b73a103a37b5b2b760791b6064820152608401610eb8565b600082815260c960205260408120805461335d90615370565b80601f016020809104026020016040519081016040528092919081815260200182805461338990615370565b80156133d65780601f106133ab576101008083540402835291602001916133d6565b820191906000526020600020905b8154815290600101906020018083116133b957829003601f168201915b5050505050905060006133e7613d62565b90508051600014156133fa575092915050565b81511561342c578082604051602001613414929190614e69565b60405160208183030381529060405292505050919050565b611d9784613d82565b6114b081613e4c565b60006001600160e01b0319821663780e9d6360e01b1480610d8c5750610d8c82613e8c565b606060006134728360026152f7565b61347d9060026152cb565b6001600160401b0381111561349457613494615432565b6040519080825280601f01601f1916602001820160405280156134be576020820181803683370190505b509050600360fc1b816000815181106134d9576134d961541c565b60200101906001600160f81b031916908160001a905350600f60fb1b816001815181106135085761350861541c565b60200101906001600160f81b031916908160001a905350600061352c8460026152f7565b6135379060016152cb565b90505b60018111156135af576f181899199a1a9b1b9c1cb0b131b232b360811b85600f166010811061356b5761356b61541c565b1a60f81b8282815181106135815761358161541c565b60200101906001600160f81b031916908160001a90535060049490941c936135a881615359565b905061353a565b508315611aa55760405162461bcd60e51b815260206004820181905260248201527f537472696e67733a20686578206c656e67746820696e73756666696369656e746044820152606401610eb8565b6113e6828260405180602001604052806000815250613edc565b61362182612532565b6136845760405162461bcd60e51b815260206004820152602e60248201527f45524337323155524953746f726167653a2055524920736574206f66206e6f6e60448201526d32bc34b9ba32b73a103a37b5b2b760911b6064820152608401610eb8565b600082815260c9602090815260409091208251610fee92840190614795565b60fb5460ff16156136c65760405162461bcd60e51b8152600401610eb89061517e565b610fee838383613f0f565b803b6137355760405162461bcd60e51b815260206004820152602d60248201527f455243313936373a206e657720696d706c656d656e746174696f6e206973206e60448201526c1bdd08184818dbdb9d1c9858dd609a1b6064820152608401610eb8565b7f360894a13ba1a3210667c828492db98dca3e2076cc3735a920a3ca505d382bbc80546001600160a01b0319166001600160a01b0392909216919091179055565b6060823b6137d55760405162461bcd60e51b815260206004820152602660248201527f416464726573733a2064656c65676174652063616c6c20746f206e6f6e2d636f6044820152651b9d1c9858dd60d21b6064820152608401610eb8565b600080846001600160a01b0316846040516137f09190614e4d565b600060405180830381855af49150503d806000811461382b576040519150601f19603f3d011682016040523d82523d6000602084013e613830565b606091505b5091509150613858828260405180606001604052806027815260200161548260279139613fc7565b95945050505050565b61386a816136d1565b6040516001600160a01b038216907fbc7cd75a20ee27fd9adebab32041f755214dbc6bffa90cc0225b39da2e5c2d3b90600090a250565b600054610100900460ff16806138ba575060005460ff16155b6138d65760405162461bcd60e51b8152600401610eb8906151a8565b600054610100900460ff16158015612f21576000805461ffff191661010117905580156114b0576000805461ff001916905550565b600054610100900460ff1680613924575060005460ff16155b6139405760405162461bcd60e51b8152600401610eb8906151a8565b600054610100900460ff16158015613962576000805461ffff19166101011790555b8251613975906065906020860190614795565b508151613989906066906020850190614795565b508015610fee576000805461ff0019169055505050565b600054610100900460ff16806139b9575060005460ff16155b6139d55760405162461bcd60e51b8152600401610eb8906151a8565b600054610100900460ff161580156139f7576000805461ffff19166101011790555b60fb805460ff1916905580156114b0576000805461ff001916905550565b600054610100900460ff1680613a2e575060005460ff16155b613a4a5760405162461bcd60e51b8152600401610eb8906151a8565b600054610100900460ff16158015613a6c576000805461ffff19166101011790555b8151835114613ad85760405162461bcd60e51b815260206004820152603260248201527f5061796d656e7453706c69747465723a2070617965657320616e6420736861726044820152710cae640d8cadccee8d040dad2e6dac2e8c6d60731b6064820152608401610eb8565b6000835111613b295760405162461bcd60e51b815260206004820152601a60248201527f5061796d656e7453706c69747465723a206e6f207061796565730000000000006044820152606401610eb8565b60005b835181101561398957613b71848281518110613b4a57613b4a61541c565b6020026020010151848381518110613b6457613b6461541c565b6020026020010151614000565b80613b7b816153ab565b915050613b2c565b6000613bd8826040518060400160405280602081526020017f5361666545524332303a206c6f772d6c6576656c2063616c6c206661696c6564815250856001600160a01b03166141eb9092919063ffffffff16565b805190915015610fee5780806020019051810190613bf69190614bd3565b610fee5760405162461bcd60e51b815260206004820152602a60248201527f5361666545524332303a204552433230206f7065726174696f6e20646964206e6044820152691bdd081cdd58d8d9595960b21b6064820152608401610eb8565b60006001600160a01b0384163b15613d5757604051630a85bd0160e11b81526001600160a01b0385169063150b7a0290613c99903390899088908890600401614f0d565b602060405180830381600087803b158015613cb357600080fd5b505af1925050508015613ce3575060408051601f3d908101601f19168201909252613ce091810190614c4b565b60015b613d3d573d808015613d11576040519150601f19603f3d011682016040523d82523d6000602084013e613d16565b606091505b508051613d355760405162461bcd60e51b8152600401610eb890615003565b805181602001fd5b6001600160e01b031916630a85bd0160e11b149050611d97565b506001949350505050565b60606040518060600160405280602281526020016154c960229139905090565b6060613d8d82612532565b613df15760405162461bcd60e51b815260206004820152602f60248201527f4552433732314d657461646174613a2055524920717565727920666f72206e6f60448201526e3732bc34b9ba32b73a103a37b5b2b760891b6064820152608401610eb8565b6000613dfb613d62565b90506000815111613e1b5760405180602001604052806000815250611aa5565b80613e25846141fa565b604051602001613e36929190614e69565b6040516020818303038152906040529392505050565b613e55816142f7565b600081815260c9602052604090208054613e6e90615370565b1590506114b057600081815260c9602052604081206114b091614819565b60006001600160e01b031982166380ac58cd60e01b1480613ebd57506001600160e01b03198216635b5e139f60e01b145b80610d8c57506301ffc9a760e01b6001600160e01b0319831614610d8c565b613ee6838361439e565b613ef36000848484613c55565b610fee5760405162461bcd60e51b8152600401610eb890615003565b6001600160a01b038316613f6a57613f6581609980546000838152609a60205260408120829055600182018355919091527f72a152ddfb8e864297c917af52ea6c1c68aead0fee1a62673fcc7e0c94979d000155565b613f8d565b816001600160a01b0316836001600160a01b031614613f8d57613f8d83826144dd565b6001600160a01b038216613fa457610fee8161457a565b826001600160a01b0316826001600160a01b031614610fee57610fee8282614629565b60608315613fd6575081611aa5565b825115613fe65782518084602001fd5b8160405162461bcd60e51b8152600401610eb89190614ff0565b6001600160a01b03821661406b5760405162461bcd60e51b815260206004820152602c60248201527f5061796d656e7453706c69747465723a206163636f756e74206973207468652060448201526b7a65726f206164647265737360a01b6064820152608401610eb8565b600081116140bb5760405162461bcd60e51b815260206004820152601d60248201527f5061796d656e7453706c69747465723a207368617265732061726520300000006044820152606401610eb8565b6001600160a01b03821660009081526101c56020526040902054156141365760405162461bcd60e51b815260206004820152602b60248201527f5061796d656e7453706c69747465723a206163636f756e7420616c726561647960448201526a206861732073686172657360a81b6064820152608401610eb8565b6101c78054600181019091557fff6df30967a6a678f565c59a19e91e5c0dbb20cfe9f9bf26d7da6dea0fffa24c0180546001600160a01b0319166001600160a01b03841690811790915560009081526101c5602052604090208190556101c3546141a19082906152cb565b6101c355604080516001600160a01b0384168152602081018390527f40c340f65e17194d14ddddb073d3c9f888e3cb52b5aae0c6c7706b4fbc905fac910160405180910390a15050565b6060611d97848460008561466d565b60608161421e5750506040805180820190915260018152600360fc1b602082015290565b8160005b81156142485780614232816153ab565b91506142419050600a836152e3565b9150614222565b6000816001600160401b0381111561426257614262615432565b6040519080825280601f01601f19166020018201604052801561428c576020820181803683370190505b5090505b8415611d97576142a1600183615316565b91506142ae600a866153c6565b6142b99060306152cb565b60f81b8183815181106142ce576142ce61541c565b60200101906001600160f81b031916908160001a9053506142f0600a866152e3565b9450614290565b600061430282611aac565b9050614310816000846136a3565b61431b60008361254f565b6001600160a01b0381166000908152606860205260408120805460019290614344908490615316565b909155505060008281526067602052604080822080546001600160a01b0319169055518391906001600160a01b038416907fddf252ad1be2c89b69c2b068fc378daa952ba7f163c4a11628f55a4df523b3ef908390a45050565b6001600160a01b0382166143f45760405162461bcd60e51b815260206004820181905260248201527f4552433732313a206d696e7420746f20746865207a65726f20616464726573736044820152606401610eb8565b6143fd81612532565b1561444a5760405162461bcd60e51b815260206004820152601c60248201527f4552433732313a20746f6b656e20616c7265616479206d696e746564000000006044820152606401610eb8565b614456600083836136a3565b6001600160a01b038216600090815260686020526040812080546001929061447f9084906152cb565b909155505060008181526067602052604080822080546001600160a01b0319166001600160a01b03861690811790915590518392907fddf252ad1be2c89b69c2b068fc378daa952ba7f163c4a11628f55a4df523b3ef908290a45050565b600060016144ea84611c15565b6144f49190615316565b600083815260986020526040902054909150808214614547576001600160a01b03841660009081526097602090815260408083208584528252808320548484528184208190558352609890915290208190555b5060009182526098602090815260408084208490556001600160a01b039094168352609781528383209183525290812055565b60995460009061458c90600190615316565b6000838152609a6020526040812054609980549394509092849081106145b4576145b461541c565b9060005260206000200154905080609983815481106145d5576145d561541c565b6000918252602080832090910192909255828152609a9091526040808220849055858252812055609980548061460d5761460d615406565b6001900381819060005260206000200160009055905550505050565b600061463483611c15565b6001600160a01b039093166000908152609760209081526040808320868452825280832085905593825260989052919091209190915550565b6060824710156146ce5760405162461bcd60e51b815260206004820152602660248201527f416464726573733a20696e73756666696369656e742062616c616e636520666f6044820152651c8818d85b1b60d21b6064820152608401610eb8565b843b61471c5760405162461bcd60e51b815260206004820152601d60248201527f416464726573733a2063616c6c20746f206e6f6e2d636f6e74726163740000006044820152606401610eb8565b600080866001600160a01b031685876040516147389190614e4d565b60006040518083038185875af1925050503d8060008114614775576040519150601f19603f3d011682016040523d82523d6000602084013e61477a565b606091505b509150915061478a828286613fc7565b979650505050505050565b8280546147a190615370565b90600052602060002090601f0160209004810192826147c35760008555614809565b82601f106147dc57805160ff1916838001178555614809565b82800160010185558215614809579182015b828111156148095782518255916020019190600101906147ee565b5061481592915061484f565b5090565b50805461482590615370565b6000825580601f10614835575050565b601f0160209004906000526020600020908101906114b091905b5b808211156148155760008155600101614850565b600082601f83011261487557600080fd5b8135602061488a614885836152a8565b615278565b80838252828201915082860187848660051b89010111156148aa57600080fd5b60005b858110156148d25781356148c081615448565b845292840192908401906001016148ad565b5090979650505050505050565b600082601f8301126148f057600080fd5b81356001600160401b0381111561490957614909615432565b61491c601f8201601f1916602001615278565b81815284602083860101111561493157600080fd5b816020850160208301376000918101602001919091529392505050565b60006020828403121561496057600080fd5b8135611aa581615448565b6000806040838503121561497e57600080fd5b823561498981615448565b9150602083013561499981615448565b809150509250929050565b6000806000606084860312156149b957600080fd5b83356149c481615448565b925060208401356149d481615448565b929592945050506040919091013590565b600080600080608085870312156149fb57600080fd5b8435614a0681615448565b93506020850135614a1681615448565b92506040850135915060608501356001600160401b03811115614a3857600080fd5b614a44878288016148df565b91505092959194509250565b60008060408385031215614a6357600080fd5b8235614a6e81615448565b915060208301356149998161545d565b60008060408385031215614a9157600080fd5b8235614a9c81615448565b915060208301356001600160401b03811115614ab757600080fd5b614ac3858286016148df565b9150509250929050565b60008060408385031215614ae057600080fd5b8235614aeb81615448565b946020939093013593505050565b60008060408385031215614b0c57600080fd5b82356001600160401b0380821115614b2357600080fd5b614b2f86838701614864565b9350602091508185013581811115614b4657600080fd5b8501601f81018713614b5757600080fd5b8035614b65614885826152a8565b8082825285820191508584018a878560051b8701011115614b8557600080fd5b6000805b85811015614bc057823588811115614b9f578283fd5b614bad8e8b838b01016148df565b8652509388019391880191600101614b89565b5050508096505050505050509250929050565b600060208284031215614be557600080fd5b8151611aa58161545d565b600060208284031215614c0257600080fd5b5035919050565b60008060408385031215614c1c57600080fd5b82359150602083013561499981615448565b600060208284031215614c4057600080fd5b8135611aa58161546b565b600060208284031215614c5d57600080fd5b8151611aa58161546b565b600060208284031215614c7a57600080fd5b81356001600160401b03811115614c9057600080fd5b611d97848285016148df565b60008060008060808587031215614cb257600080fd5b84356001600160401b0380821115614cc957600080fd5b614cd5888389016148df565b9550602091508187013581811115614cec57600080fd5b614cf889828a016148df565b955050604087013581811115614d0d57600080fd5b614d1989828a01614864565b945050606087013581811115614d2e57600080fd5b87019050601f81018813614d4157600080fd5b8035614d4f614885826152a8565b8082825284820191508484018b868560051b8701011115614d6f57600080fd5b600094505b83851015614d92578035835260019490940193918501918501614d74565b50979a9699509497505050505050565b60008060408385031215614db557600080fd5b82356001600160401b03811115614dcb57600080fd5b614dd7858286016148df565b95602094909401359450505050565b600060208284031215614df857600080fd5b5051919050565b60008060408385031215614e1257600080fd5b50508035926020909101359150565b60008151808452614e3981602086016020860161532d565b601f01601f19169290920160200192915050565b60008251614e5f81846020870161532d565b9190910192915050565b60008351614e7b81846020880161532d565b835190830190614e8f81836020880161532d565b01949350505050565b7f416363657373436f6e74726f6c3a206163636f756e7420000000000000000000815260008351614ed081601785016020880161532d565b7001034b99036b4b9b9b4b733903937b6329607d1b6017918401918201528351614f0181602884016020880161532d565b01602801949350505050565b6001600160a01b0385811682528416602082015260408101839052608060608201819052600090614f4090830184614e21565b9695505050505050565b6000602080830181845280855180835260408601915060408160051b870101925083870160005b82811015614f9f57603f19888603018452614f8d858351614e21565b94509285019290850190600101614f71565b5092979650505050505050565b6020808252825182820181905260009190848201906040850190845b81811015614fe457835183529284019291840191600101614fc8565b50909695505050505050565b602081526000611aa56020830184614e21565b60208082526032908201527f4552433732313a207472616e7366657220746f206e6f6e20455243373231526560408201527131b2b4bb32b91034b6b83632b6b2b73a32b960711b606082015260800190565b6020808252602c908201527f46756e6374696f6e206d7573742062652063616c6c6564207468726f7567682060408201526b19195b1959d85d1958d85b1b60a21b606082015260800190565b60208082526026908201527f5061796d656e7453706c69747465723a206163636f756e7420686173206e6f2060408201526573686172657360d01b606082015260800190565b6020808252602c908201527f46756e6374696f6e206d7573742062652063616c6c6564207468726f7567682060408201526b6163746976652070726f787960a01b606082015260800190565b6020808252602b908201527f5061796d656e7453706c69747465723a206163636f756e74206973206e6f742060408201526a191d59481c185e5b595b9d60aa1b606082015260800190565b60208082526010908201526f14185d5cd8589b194e881c185d5cd95960821b604082015260600190565b6020808252602e908201527f496e697469616c697a61626c653a20636f6e747261637420697320616c72656160408201526d191e481a5b9a5d1a585b1a5e995960921b606082015260800190565b60208082526031908201527f4552433732313a207472616e736665722063616c6c6572206973206e6f74206f6040820152701ddb995c881b9bdc88185c1c1c9bdd9959607a1b606082015260800190565b8381526060602082015260006152606060830185614e21565b905060018060a01b0383166040830152949350505050565b604051601f8201601f191681016001600160401b03811182821017156152a0576152a0615432565b604052919050565b60006001600160401b038211156152c1576152c1615432565b5060051b60200190565b600082198211156152de576152de6153da565b500190565b6000826152f2576152f26153f0565b500490565b6000816000190483118215151615615311576153116153da565b500290565b600082821015615328576153286153da565b500390565b60005b83811015615348578181015183820152602001615330565b838111156110e35750506000910152565b600081615368576153686153da565b506000190190565b600181811c9082168061538457607f821691505b602082108114156153a557634e487b7160e01b600052602260045260246000fd5b50919050565b60006000198214156153bf576153bf6153da565b5060010190565b6000826153d5576153d56153f0565b500690565b634e487b7160e01b600052601160045260246000fd5b634e487b7160e01b600052601260045260246000fd5b634e487b7160e01b600052603160045260246000fd5b634e487b7160e01b600052603260045260246000fd5b634e487b7160e01b600052604160045260246000fd5b6001600160a01b03811681146114b057600080fd5b80151581146114b057600080fd5b6001600160e01b0319811681146114b057600080fdfe416464726573733a206c6f772d6c6576656c2064656c65676174652063616c6c206661696c65649f2df0fed2c77648de5860a4cc508cd0818c85b8b8a1ab4ceeef8d981c8956a668747470733a2f2f63727970746f776f7264732e6172742f6170692f746f6b656e2fa2646970667358221220701b69e098fdebbcbae8e3633e095935e1a785eb722fa45183088194774cf83f64736f6c63430008070033",
  "linkReferences": {},
  "deployedLinkReferences": {}
}