{
  "_format": "hh-sol-artifact-1",
  "contractName": "CryptoWordsV1",
  "sourceName": "contracts/CryptoWordsV1.sol",
  "abi": [
    {
      "anonymous": false,
      "inputs": [
        {
          "indexed": false,
          "internalType": "address",
          "name": "previousAdmin",
          "type": "address"
        },
        {
          "indexed": false,
          "internalType": "address",
          "name": "newAdmin",
          "type": "address"
        }
      ],
      "name": "AdminChanged",
      "type": "event"
    },
    {
      "anonymous": false,
      "inputs": [
        {
          "indexed": true,
          "internalType": "address",
          "name": "owner",
          "type": "address"
        },
        {
          "indexed": true,
          "internalType": "address",
          "name": "approved",
          "type": "address"
        },
        {
          "indexed": true,
          "internalType": "uint256",
          "name": "tokenId",
          "type": "uint256"
        }
      ],
      "name": "Approval",
      "type": "event"
    },
    {
      "anonymous": false,
      "inputs": [
        {
          "indexed": true,
          "internalType": "address",
          "name": "owner",
          "type": "address"
        },
        {
          "indexed": true,
          "internalType": "address",
          "name": "operator",
          "type": "address"
        },
        {
          "indexed": false,
          "internalType": "bool",
          "name": "approved",
          "type": "bool"
        }
      ],
      "name": "ApprovalForAll",
      "type": "event"
    },
    {
      "anonymous": false,
      "inputs": [
        {
          "indexed": true,
          "internalType": "address",
          "name": "beacon",
          "type": "address"
        }
      ],
      "name": "BeaconUpgraded",
      "type": "event"
    },
    {
      "anonymous": false,
      "inputs": [
        {
          "indexed": true,
          "internalType": "contract IERC20Upgradeable",
          "name": "token",
          "type": "address"
        },
        {
          "indexed": false,
          "internalType": "address",
          "name": "to",
          "type": "address"
        },
        {
          "indexed": false,
          "internalType": "uint256",
          "name": "amount",
          "type": "uint256"
        }
      ],
      "name": "ERC20PaymentReleased",
      "type": "event"
    },
    {
      "anonymous": false,
      "inputs": [
        {
          "indexed": false,
          "internalType": "address",
          "name": "account",
          "type": "address"
        }
      ],
      "name": "Paused",
      "type": "event"
    },
    {
      "anonymous": false,
      "inputs": [
        {
          "indexed": false,
          "internalType": "address",
          "name": "account",
          "type": "address"
        },
        {
          "indexed": false,
          "internalType": "uint256",
          "name": "shares",
          "type": "uint256"
        }
      ],
      "name": "PayeeAdded",
      "type": "event"
    },
    {
      "anonymous": false,
      "inputs": [
        {
          "indexed": false,
          "internalType": "address",
          "name": "from",
          "type": "address"
        },
        {
          "indexed": false,
          "internalType": "uint256",
          "name": "amount",
          "type": "uint256"
        }
      ],
      "name": "PaymentReceived",
      "type": "event"
    },
    {
      "anonymous": false,
      "inputs": [
        {
          "indexed": false,
          "internalType": "address",
          "name": "to",
          "type": "address"
        },
        {
          "indexed": false,
          "internalType": "uint256",
          "name": "amount",
          "type": "uint256"
        }
      ],
      "name": "PaymentReleased",
      "type": "event"
    },
    {
      "anonymous": false,
      "inputs": [
        {
          "indexed": true,
          "internalType": "bytes32",
          "name": "role",
          "type": "bytes32"
        },
        {
          "indexed": true,
          "internalType": "bytes32",
          "name": "previousAdminRole",
          "type": "bytes32"
        },
        {
          "indexed": true,
          "internalType": "bytes32",
          "name": "newAdminRole",
          "type": "bytes32"
        }
      ],
      "name": "RoleAdminChanged",
      "type": "event"
    },
    {
      "anonymous": false,
      "inputs": [
        {
          "indexed": true,
          "internalType": "bytes32",
          "name": "role",
          "type": "bytes32"
        },
        {
          "indexed": true,
          "internalType": "address",
          "name": "account",
          "type": "address"
        },
        {
          "indexed": true,
          "internalType": "address",
          "name": "sender",
          "type": "address"
        }
      ],
      "name": "RoleGranted",
      "type": "event"
    },
    {
      "anonymous": false,
      "inputs": [
        {
          "indexed": true,
          "internalType": "bytes32",
          "name": "role",
          "type": "bytes32"
        },
        {
          "indexed": true,
          "internalType": "address",
          "name": "account",
          "type": "address"
        },
        {
          "indexed": true,
          "internalType": "address",
          "name": "sender",
          "type": "address"
        }
      ],
      "name": "RoleRevoked",
      "type": "event"
    },
    {
      "anonymous": false,
      "inputs": [
        {
          "indexed": true,
          "internalType": "address",
          "name": "from",
          "type": "address"
        },
        {
          "indexed": true,
          "internalType": "address",
          "name": "to",
          "type": "address"
        },
        {
          "indexed": true,
          "internalType": "uint256",
          "name": "tokenId",
          "type": "uint256"
        }
      ],
      "name": "Transfer",
      "type": "event"
    },
    {
      "anonymous": false,
      "inputs": [
        {
          "indexed": false,
          "internalType": "address",
          "name": "account",
          "type": "address"
        }
      ],
      "name": "Unpaused",
      "type": "event"
    },
    {
      "anonymous": false,
      "inputs": [
        {
          "indexed": true,
          "internalType": "address",
          "name": "implementation",
          "type": "address"
        }
      ],
      "name": "Upgraded",
      "type": "event"
    },
    {
      "anonymous": false,
      "inputs": [
        {
          "indexed": false,
          "internalType": "uint256",
          "name": "tokenId",
          "type": "uint256"
        },
        {
          "indexed": false,
          "internalType": "string",
          "name": "word",
          "type": "string"
        },
        {
          "indexed": false,
          "internalType": "address",
          "name": "to",
          "type": "address"
        }
      ],
      "name": "WordMinted",
      "type": "event"
    },
    {
      "inputs": [],
      "name": "DEFAULT_ADMIN_ROLE",
      "outputs": [
        {
          "internalType": "bytes32",
          "name": "",
          "type": "bytes32"
        }
      ],
      "stateMutability": "view",
      "type": "function"
    },
    {
      "inputs": [],
      "name": "DISCOUNTED_ROLE",
      "outputs": [
        {
          "internalType": "bytes32",
          "name": "",
          "type": "bytes32"
        }
      ],
      "stateMutability": "view",
      "type": "function"
    },
    {
      "inputs": [],
      "name": "MINTER_ROLE",
      "outputs": [
        {
          "internalType": "bytes32",
          "name": "",
          "type": "bytes32"
        }
      ],
      "stateMutability": "view",
      "type": "function"
    },
    {
      "inputs": [
        {
          "internalType": "address",
          "name": "to",
          "type": "address"
        },
        {
          "internalType": "uint256",
          "name": "tokenId",
          "type": "uint256"
        }
      ],
      "name": "approve",
      "outputs": [],
      "stateMutability": "nonpayable",
      "type": "function"
    },
    {
      "inputs": [],
      "name": "artist",
      "outputs": [
        {
          "internalType": "address",
          "name": "",
          "type": "address"
        }
      ],
      "stateMutability": "view",
      "type": "function"
    },
    {
      "inputs": [
        {
          "internalType": "address",
          "name": "owner",
          "type": "address"
        }
      ],
      "name": "balanceOf",
      "outputs": [
        {
          "internalType": "uint256",
          "name": "",
          "type": "uint256"
        }
      ],
      "stateMutability": "view",
      "type": "function"
    },
    {
      "inputs": [
        {
          "internalType": "uint256",
          "name": "tokenId",
          "type": "uint256"
        }
      ],
      "name": "burnByTokenId",
      "outputs": [],
      "stateMutability": "nonpayable",
      "type": "function"
    },
    {
      "inputs": [],
      "name": "defaultPrice",
      "outputs": [
        {
          "internalType": "uint256",
          "name": "",
          "type": "uint256"
        }
      ],
      "stateMutability": "view",
      "type": "function"
    },
    {
      "inputs": [
        {
          "internalType": "string",
          "name": "_word",
          "type": "string"
        }
      ],
      "name": "deleteCustomPriceByWord",
      "outputs": [],
      "stateMutability": "nonpayable",
      "type": "function"
    },
    {
      "inputs": [
        {
          "internalType": "string",
          "name": "_word",
          "type": "string"
        }
      ],
      "name": "deleteMaxInstancesByWord",
      "outputs": [],
      "stateMutability": "nonpayable",
      "type": "function"
    },
    {
      "inputs": [],
      "name": "discountPercentage",
      "outputs": [
        {
          "internalType": "uint256",
          "name": "",
          "type": "uint256"
        }
      ],
      "stateMutability": "view",
      "type": "function"
    },
    {
      "inputs": [],
      "name": "discountPercentageGlobal",
      "outputs": [
        {
          "internalType": "uint256",
          "name": "",
          "type": "uint256"
        }
      ],
      "stateMutability": "view",
      "type": "function"
    },
    {
      "inputs": [
        {
          "internalType": "uint256",
          "name": "tokenId",
          "type": "uint256"
        }
      ],
      "name": "getApproved",
      "outputs": [
        {
          "internalType": "address",
          "name": "",
          "type": "address"
        }
      ],
      "stateMutability": "view",
      "type": "function"
    },
    {
      "inputs": [
        {
          "internalType": "string",
          "name": "_word",
          "type": "string"
        }
      ],
      "name": "getCustomPriceByWord",
      "outputs": [
        {
          "internalType": "uint256",
          "name": "",
          "type": "uint256"
        }
      ],
      "stateMutability": "view",
      "type": "function"
    },
    {
      "inputs": [
        {
          "internalType": "string",
          "name": "_word",
          "type": "string"
        }
      ],
      "name": "getInstancesAvailable",
      "outputs": [
        {
          "internalType": "uint256",
          "name": "",
          "type": "uint256"
        }
      ],
      "stateMutability": "view",
      "type": "function"
    },
    {
      "inputs": [
        {
          "internalType": "string",
          "name": "_word",
          "type": "string"
        }
      ],
      "name": "getMaxInstancesByWord",
      "outputs": [
        {
          "internalType": "uint256",
          "name": "",
          "type": "uint256"
        }
      ],
      "stateMutability": "view",
      "type": "function"
    },
    {
      "inputs": [
        {
          "internalType": "address",
          "name": "account",
          "type": "address"
        },
        {
          "internalType": "string",
          "name": "_word",
          "type": "string"
        }
      ],
      "name": "getPrice",
      "outputs": [
        {
          "internalType": "uint256",
          "name": "",
          "type": "uint256"
        }
      ],
      "stateMutability": "view",
      "type": "function"
    },
    {
      "inputs": [
        {
          "internalType": "uint256",
          "name": "_limit",
          "type": "uint256"
        }
      ],
      "name": "getRecentTokenIds",
      "outputs": [
        {
          "internalType": "uint256[]",
          "name": "",
          "type": "uint256[]"
        }
      ],
      "stateMutability": "view",
      "type": "function"
    },
    {
      "inputs": [
        {
          "internalType": "uint256",
          "name": "_limit",
          "type": "uint256"
        }
      ],
      "name": "getRecentWords",
      "outputs": [
        {
          "internalType": "string[]",
          "name": "",
          "type": "string[]"
        }
      ],
      "stateMutability": "view",
      "type": "function"
    },
    {
      "inputs": [
        {
          "internalType": "bytes32",
          "name": "role",
          "type": "bytes32"
        }
      ],
      "name": "getRoleAdmin",
      "outputs": [
        {
          "internalType": "bytes32",
          "name": "",
          "type": "bytes32"
        }
      ],
      "stateMutability": "view",
      "type": "function"
    },
    {
      "inputs": [
        {
          "internalType": "address",
          "name": "_owner",
          "type": "address"
        }
      ],
      "name": "getTokenIdsByOwner",
      "outputs": [
        {
          "internalType": "uint256[]",
          "name": "",
          "type": "uint256[]"
        }
      ],
      "stateMutability": "view",
      "type": "function"
    },
    {
      "inputs": [
        {
          "internalType": "string",
          "name": "_word",
          "type": "string"
        }
      ],
      "name": "getWordInstances",
      "outputs": [
        {
          "internalType": "uint256",
          "name": "",
          "type": "uint256"
        }
      ],
      "stateMutability": "view",
      "type": "function"
    },
    {
      "inputs": [
        {
          "internalType": "string",
          "name": "_word",
          "type": "string"
        }
      ],
      "name": "getWordPrice",
      "outputs": [
        {
          "internalType": "uint256",
          "name": "",
          "type": "uint256"
        }
      ],
      "stateMutability": "view",
      "type": "function"
    },
    {
      "inputs": [
        {
          "internalType": "address",
          "name": "_owner",
          "type": "address"
        }
      ],
      "name": "getWordsByOwner",
      "outputs": [
        {
          "internalType": "string[]",
          "name": "",
          "type": "string[]"
        }
      ],
      "stateMutability": "view",
      "type": "function"
    },
    {
      "inputs": [
        {
          "internalType": "bytes32",
          "name": "role",
          "type": "bytes32"
        },
        {
          "internalType": "address",
          "name": "account",
          "type": "address"
        }
      ],
      "name": "grantRole",
      "outputs": [],
      "stateMutability": "nonpayable",
      "type": "function"
    },
    {
      "inputs": [
        {
          "internalType": "bytes32",
          "name": "role",
          "type": "bytes32"
        },
        {
          "internalType": "address",
          "name": "account",
          "type": "address"
        }
      ],
      "name": "hasRole",
      "outputs": [
        {
          "internalType": "bool",
          "name": "",
          "type": "bool"
        }
      ],
      "stateMutability": "view",
      "type": "function"
    },
    {
      "inputs": [
        {
          "internalType": "string",
          "name": "name",
          "type": "string"
        },
        {
          "internalType": "string",
          "name": "symbol",
          "type": "string"
        },
        {
          "internalType": "address[]",
          "name": "payees",
          "type": "address[]"
        },
        {
          "internalType": "uint256[]",
          "name": "shares",
          "type": "uint256[]"
        }
      ],
      "name": "initialize",
      "outputs": [],
      "stateMutability": "nonpayable",
      "type": "function"
    },
    {
      "inputs": [
        {
          "internalType": "address",
          "name": "owner",
          "type": "address"
        },
        {
          "internalType": "address",
          "name": "operator",
          "type": "address"
        }
      ],
      "name": "isApprovedForAll",
      "outputs": [
        {
          "internalType": "bool",
          "name": "",
          "type": "bool"
        }
      ],
      "stateMutability": "view",
      "type": "function"
    },
    {
      "inputs": [],
      "name": "maxInstances",
      "outputs": [
        {
          "internalType": "uint256",
          "name": "",
          "type": "uint256"
        }
      ],
      "stateMutability": "view",
      "type": "function"
    },
    {
      "inputs": [],
      "name": "name",
      "outputs": [
        {
          "internalType": "string",
          "name": "",
          "type": "string"
        }
      ],
      "stateMutability": "view",
      "type": "function"
    },
    {
      "inputs": [
        {
          "internalType": "uint256",
          "name": "tokenId",
          "type": "uint256"
        }
      ],
      "name": "ownerOf",
      "outputs": [
        {
          "internalType": "address",
          "name": "",
          "type": "address"
        }
      ],
      "stateMutability": "view",
      "type": "function"
    },
    {
      "inputs": [],
      "name": "pause",
      "outputs": [],
      "stateMutability": "nonpayable",
      "type": "function"
    },
    {
      "inputs": [],
      "name": "paused",
      "outputs": [
        {
          "internalType": "bool",
          "name": "",
          "type": "bool"
        }
      ],
      "stateMutability": "view",
      "type": "function"
    },
    {
      "inputs": [
        {
          "internalType": "uint256",
          "name": "index",
          "type": "uint256"
        }
      ],
      "name": "payee",
      "outputs": [
        {
          "internalType": "address",
          "name": "",
          "type": "address"
        }
      ],
      "stateMutability": "view",
      "type": "function"
    },
    {
      "inputs": [
        {
          "internalType": "address",
          "name": "to",
          "type": "address"
        },
        {
          "internalType": "string",
          "name": "_word",
          "type": "string"
        }
      ],
      "name": "purchaseWord",
      "outputs": [],
      "stateMutability": "payable",
      "type": "function"
    },
    {
      "inputs": [
        {
          "internalType": "address payable",
          "name": "account",
          "type": "address"
        }
      ],
      "name": "release",
      "outputs": [],
      "stateMutability": "nonpayable",
      "type": "function"
    },
    {
      "inputs": [
        {
          "internalType": "contract IERC20Upgradeable",
          "name": "token",
          "type": "address"
        },
        {
          "internalType": "address",
          "name": "account",
          "type": "address"
        }
      ],
      "name": "release",
      "outputs": [],
      "stateMutability": "nonpayable",
      "type": "function"
    },
    {
      "inputs": [
        {
          "internalType": "contract IERC20Upgradeable",
          "name": "token",
          "type": "address"
        },
        {
          "internalType": "address",
          "name": "account",
          "type": "address"
        }
      ],
      "name": "released",
      "outputs": [
        {
          "internalType": "uint256",
          "name": "",
          "type": "uint256"
        }
      ],
      "stateMutability": "view",
      "type": "function"
    },
    {
      "inputs": [
        {
          "internalType": "address",
          "name": "account",
          "type": "address"
        }
      ],
      "name": "released",
      "outputs": [
        {
          "internalType": "uint256",
          "name": "",
          "type": "uint256"
        }
      ],
      "stateMutability": "view",
      "type": "function"
    },
    {
      "inputs": [
        {
          "internalType": "bytes32",
          "name": "role",
          "type": "bytes32"
        },
        {
          "internalType": "address",
          "name": "account",
          "type": "address"
        }
      ],
      "name": "renounceRole",
      "outputs": [],
      "stateMutability": "nonpayable",
      "type": "function"
    },
    {
      "inputs": [
        {
          "internalType": "bytes32",
          "name": "role",
          "type": "bytes32"
        },
        {
          "internalType": "address",
          "name": "account",
          "type": "address"
        }
      ],
      "name": "revokeRole",
      "outputs": [],
      "stateMutability": "nonpayable",
      "type": "function"
    },
    {
      "inputs": [],
      "name": "royaltiesPercentage",
      "outputs": [
        {
          "internalType": "uint256",
          "name": "",
          "type": "uint256"
        }
      ],
      "stateMutability": "view",
      "type": "function"
    },
    {
      "inputs": [
        {
          "internalType": "uint256",
          "name": "_tokenId",
          "type": "uint256"
        },
        {
          "internalType": "uint256",
          "name": "_salePrice",
          "type": "uint256"
        }
      ],
      "name": "royaltyInfo",
      "outputs": [
        {
          "internalType": "address",
          "name": "receiver",
          "type": "address"
        },
        {
          "internalType": "uint256",
          "name": "royaltyAmount",
          "type": "uint256"
        }
      ],
      "stateMutability": "view",
      "type": "function"
    },
    {
      "inputs": [
        {
          "internalType": "address",
          "name": "from",
          "type": "address"
        },
        {
          "internalType": "address",
          "name": "to",
          "type": "address"
        },
        {
          "internalType": "uint256",
          "name": "tokenId",
          "type": "uint256"
        }
      ],
      "name": "safeTransferFrom",
      "outputs": [],
      "stateMutability": "nonpayable",
      "type": "function"
    },
    {
      "inputs": [
        {
          "internalType": "address",
          "name": "from",
          "type": "address"
        },
        {
          "internalType": "address",
          "name": "to",
          "type": "address"
        },
        {
          "internalType": "uint256",
          "name": "tokenId",
          "type": "uint256"
        },
        {
          "internalType": "bytes",
          "name": "_data",
          "type": "bytes"
        }
      ],
      "name": "safeTransferFrom",
      "outputs": [],
      "stateMutability": "nonpayable",
      "type": "function"
    },
    {
      "inputs": [
        {
          "internalType": "address",
          "name": "operator",
          "type": "address"
        },
        {
          "internalType": "bool",
          "name": "approved",
          "type": "bool"
        }
      ],
      "name": "setApprovalForAll",
      "outputs": [],
      "stateMutability": "nonpayable",
      "type": "function"
    },
    {
      "inputs": [
        {
          "internalType": "string",
          "name": "_word",
          "type": "string"
        },
        {
          "internalType": "uint256",
          "name": "price",
          "type": "uint256"
        }
      ],
      "name": "setCustomPriceByWord",
      "outputs": [],
      "stateMutability": "nonpayable",
      "type": "function"
    },
    {
      "inputs": [
        {
          "internalType": "uint256",
          "name": "price",
          "type": "uint256"
        }
      ],
      "name": "setDefaultPrice",
      "outputs": [],
      "stateMutability": "nonpayable",
      "type": "function"
    },
    {
      "inputs": [
        {
          "internalType": "uint256",
          "name": "percentage",
          "type": "uint256"
        }
      ],
      "name": "setDiscountPercentage",
      "outputs": [],
      "stateMutability": "nonpayable",
      "type": "function"
    },
    {
      "inputs": [
        {
          "internalType": "uint256",
          "name": "percentage",
          "type": "uint256"
        }
      ],
      "name": "setDiscountPercentageGlobal",
      "outputs": [],
      "stateMutability": "nonpayable",
      "type": "function"
    },
    {
      "inputs": [
        {
          "internalType": "uint256",
          "name": "instances",
          "type": "uint256"
        }
      ],
      "name": "setMaxInstances",
      "outputs": [],
      "stateMutability": "nonpayable",
      "type": "function"
    },
    {
      "inputs": [
        {
          "internalType": "string",
          "name": "_word",
          "type": "string"
        },
        {
          "internalType": "uint256",
          "name": "instances",
          "type": "uint256"
        }
      ],
      "name": "setMaxInstancesByWord",
      "outputs": [],
      "stateMutability": "nonpayable",
      "type": "function"
    },
    {
      "inputs": [
        {
          "internalType": "address",
          "name": "newRoyaltiesReceiver",
          "type": "address"
        }
      ],
      "name": "setRoyaltiesReceiver",
      "outputs": [],
      "stateMutability": "nonpayable",
      "type": "function"
    },
    {
      "inputs": [
        {
          "internalType": "address",
          "name": "account",
          "type": "address"
        }
      ],
      "name": "shares",
      "outputs": [
        {
          "internalType": "uint256",
          "name": "",
          "type": "uint256"
        }
      ],
      "stateMutability": "view",
      "type": "function"
    },
    {
      "inputs": [
        {
          "internalType": "bytes4",
          "name": "interfaceId",
          "type": "bytes4"
        }
      ],
      "name": "supportsInterface",
      "outputs": [
        {
          "internalType": "bool",
          "name": "",
          "type": "bool"
        }
      ],
      "stateMutability": "view",
      "type": "function"
    },
    {
      "inputs": [],
      "name": "symbol",
      "outputs": [
        {
          "internalType": "string",
          "name": "",
          "type": "string"
        }
      ],
      "stateMutability": "view",
      "type": "function"
    },
    {
      "inputs": [
        {
          "internalType": "uint256",
          "name": "index",
          "type": "uint256"
        }
      ],
      "name": "tokenByIndex",
      "outputs": [
        {
          "internalType": "uint256",
          "name": "",
          "type": "uint256"
        }
      ],
      "stateMutability": "view",
      "type": "function"
    },
    {
      "inputs": [
        {
          "internalType": "address",
          "name": "owner",
          "type": "address"
        },
        {
          "internalType": "uint256",
          "name": "index",
          "type": "uint256"
        }
      ],
      "name": "tokenOfOwnerByIndex",
      "outputs": [
        {
          "internalType": "uint256",
          "name": "",
          "type": "uint256"
        }
      ],
      "stateMutability": "view",
      "type": "function"
    },
    {
      "inputs": [
        {
          "internalType": "uint256",
          "name": "tokenId",
          "type": "uint256"
        }
      ],
      "name": "tokenURI",
      "outputs": [
        {
          "internalType": "string",
          "name": "",
          "type": "string"
        }
      ],
      "stateMutability": "view",
      "type": "function"
    },
    {
      "inputs": [
        {
          "internalType": "contract IERC20Upgradeable",
          "name": "token",
          "type": "address"
        }
      ],
      "name": "totalReleased",
      "outputs": [
        {
          "internalType": "uint256",
          "name": "",
          "type": "uint256"
        }
      ],
      "stateMutability": "view",
      "type": "function"
    },
    {
      "inputs": [],
      "name": "totalReleased",
      "outputs": [
        {
          "internalType": "uint256",
          "name": "",
          "type": "uint256"
        }
      ],
      "stateMutability": "view",
      "type": "function"
    },
    {
      "inputs": [],
      "name": "totalShares",
      "outputs": [
        {
          "internalType": "uint256",
          "name": "",
          "type": "uint256"
        }
      ],
      "stateMutability": "view",
      "type": "function"
    },
    {
      "inputs": [],
      "name": "totalSupply",
      "outputs": [
        {
          "internalType": "uint256",
          "name": "",
          "type": "uint256"
        }
      ],
      "stateMutability": "view",
      "type": "function"
    },
    {
      "inputs": [
        {
          "internalType": "address",
          "name": "from",
          "type": "address"
        },
        {
          "internalType": "address",
          "name": "to",
          "type": "address"
        },
        {
          "internalType": "uint256",
          "name": "tokenId",
          "type": "uint256"
        }
      ],
      "name": "transferFrom",
      "outputs": [],
      "stateMutability": "nonpayable",
      "type": "function"
    },
    {
      "inputs": [],
      "name": "unpause",
      "outputs": [],
      "stateMutability": "nonpayable",
      "type": "function"
    },
    {
      "inputs": [
        {
          "internalType": "address",
          "name": "newImplementation",
          "type": "address"
        }
      ],
      "name": "upgradeTo",
      "outputs": [],
      "stateMutability": "nonpayable",
      "type": "function"
    },
    {
      "inputs": [
        {
          "internalType": "address",
          "name": "newImplementation",
          "type": "address"
        },
        {
          "internalType": "bytes",
          "name": "data",
          "type": "bytes"
        }
      ],
      "name": "upgradeToAndCall",
      "outputs": [],
      "stateMutability": "payable",
      "type": "function"
    },
    {
      "inputs": [
        {
          "internalType": "string",
          "name": "_word",
          "type": "string"
        }
      ],
      "name": "wordAvailable",
      "outputs": [
        {
          "internalType": "bool",
          "name": "",
          "type": "bool"
        }
      ],
      "stateMutability": "view",
      "type": "function"
    },
    {
      "stateMutability": "payable",
      "type": "receive"
    }
  ],
  "bytecode": "0x60a06040523060601b60805234801561001757600080fd5b5060805160601c61532161004b600039600081816112d401528181611314015281816117d9015261181901526153216000f3fe6080604052600436106103f35760003560e01c806376977a3a11610208578063b88d4fde11610118578063d547741f116100ab578063e69e04b31161007a578063e69e04b314610c9c578063e76fb8031461087e578063e985e9c514610cb3578063ece7669e14610cfc578063edf4619614610d1c57600080fd5b8063d547741f14610c0f578063d79779b214610c2f578063dd08eae014610c66578063e33b7de314610c8657600080fd5b8063cc14f2f5116100e7578063cc14f2f514610b83578063ce7c2ac214610ba3578063d0fd890d14610bda578063d539139314610bed57600080fd5b8063b88d4fde14610b0c578063c5e885e414610b2c578063c87b56dd14610b4c578063cafa8dfe14610b6c57600080fd5b806395d89b411161019b578063a7abb8b71161016a578063a7abb8b714610a61578063aef9455d14610a95578063b3428d1514610ab5578063b3fa9f2414610ad5578063b514371514610aec57600080fd5b806395d89b41146109e05780639852595c146109f5578063a217fddf14610a2c578063a22cb46514610a4157600080fd5b8063845bcce1116101d7578063845bcce11461096057806387ded6c6146109805780638b83209b146109a057806391d14854146109c057600080fd5b806376977a3a146108de57806377500c54146108fe5780637b63c0fc1461091e5780638456cb591461094b57600080fd5b80633f4ba83a1161030357806359fb3e60116102965780636970bb0a116102655780636970bb0a146108315780636d3c7ec51461085e57806370868d6f1461087e57806370a082311461089e5780637386ca3e146108be57600080fd5b806359fb3e60146107c25780635b4b51cf146107d95780635c975abb146107f95780636352211e1461081157600080fd5b8063445d9787116102d2578063445d97871461074f57806348b750441461076f5780634f1ef2861461078f5780634f6ccce7146107a257600080fd5b80633f4ba83a146106b2578063406072a9146106c757806342842e0e1461070e57806343bc16121461072e57600080fd5b8063248a9ca3116103865780632f745c59116103555780632f745c591461061c57806336568abe1461063c5780633659cfe61461065c5780633a98ef391461067c5780633cad95871461069257600080fd5b8063248a9ca3146105755780632a55205a146105a65780632f0f0dac146105e55780632f2ff15d146105fc57600080fd5b8063095ea7b3116103c2578063095ea7b3146104fe57806318160ddd14610520578063191655871461053557806323b872dd1461055557600080fd5b806301ffc9a714610441578063027e11a71461047657806306fdde03146104a4578063081812fc146104c657600080fd5b3661043c577f6ef95f06320e7a25a04a175ca677b7052bdd97131872c2192525a629f51be77033604080516001600160a01b0390921682523460208301520160405180910390a1005b600080fd5b34801561044d57600080fd5b5061046161045c366004614a38565b610d3c565b60405190151581526020015b60405180910390f35b34801561048257600080fd5b50610496610491366004614a72565b610d67565b60405190815260200161046d565b3480156104b057600080fd5b506104b9610d93565b60405161046d9190614df7565b3480156104d257600080fd5b506104e66104e13660046149fa565b610e25565b6040516001600160a01b03909116815260200161046d565b34801561050a57600080fd5b5061051e6105193660046149b1565b610eb2565b005b34801561052c57600080fd5b50609954610496565b34801561054157600080fd5b5061051e610550366004614832565b610fc8565b34801561056157600080fd5b5061051e610570366004614888565b6110fb565b34801561058157600080fd5b506104966105903660046149fa565b600090815261012d602052604090206001015490565b3480156105b257600080fd5b506105c66105c1366004614c06565b61112c565b604080516001600160a01b03909316835260208301919091520161046d565b3480156105f157600080fd5b506104966101f95481565b34801561060857600080fd5b5061051e610617366004614a13565b61118e565b34801561062857600080fd5b506104966106373660046149b1565b6111b5565b34801561064857600080fd5b5061051e610657366004614a13565b61124b565b34801561066857600080fd5b5061051e610677366004614832565b6112c9565b34801561068857600080fd5b506101c354610496565b34801561069e57600080fd5b5061051e6106ad366004614a72565b611392565b3480156106be57600080fd5b5061051e6113c8565b3480156106d357600080fd5b506104966106e236600461484f565b6001600160a01b0391821660009081526101c96020908152604080832093909416825291909152205490565b34801561071a57600080fd5b5061051e610729366004614888565b6113dc565b34801561073a57600080fd5b506101f6546104e6906001600160a01b031681565b34801561075b57600080fd5b5061051e61076a366004614aa6565b6113f7565b34801561077b57600080fd5b5061051e61078a36600461484f565b6115e1565b61051e61079d366004614962565b6117ce565b3480156107ae57600080fd5b506104966107bd3660046149fa565b611884565b3480156107ce57600080fd5b506104966101f75481565b3480156107e557600080fd5b506104966107f4366004614a72565b611917565b34801561080557600080fd5b5060fb5460ff16610461565b34801561081d57600080fd5b506104e661082c3660046149fa565b61198b565b34801561083d57600080fd5b5061085161084c366004614832565b611a02565b60405161046d9190614db3565b34801561086a57600080fd5b5061051e6108793660046149fa565b611aa5565b34801561088a57600080fd5b50610496610899366004614a72565b611ac8565b3480156108aa57600080fd5b506104966108b9366004614832565b611af4565b3480156108ca57600080fd5b5061051e6108d9366004614ba9565b611b7b565b3480156108ea57600080fd5b506104966108f9366004614962565b611be0565b34801561090a57600080fd5b50610461610919366004614a72565b611c7e565b34801561092a57600080fd5b5061093e610939366004614832565b611cb4565b60405161046d9190614d51565b34801561095757600080fd5b5061051e611e0e565b34801561096c57600080fd5b5061051e61097b3660046149fa565b611e22565b34801561098c57600080fd5b5061093e61099b3660046149fa565b611e45565b3480156109ac57600080fd5b506104e66109bb3660046149fa565b611f97565b3480156109cc57600080fd5b506104616109db366004614a13565b611fc8565b3480156109ec57600080fd5b506104b9611ff4565b348015610a0157600080fd5b50610496610a10366004614832565b6001600160a01b031660009081526101c6602052604090205490565b348015610a3857600080fd5b50610496600081565b348015610a4d57600080fd5b5061051e610a5c366004614934565b612003565b348015610a6d57600080fd5b506104967ff9e9e1c8035f82fd72c5438c5719fd5349deacb4207f4fcbbda606cb5a39d50981565b348015610aa157600080fd5b5061051e610ab03660046149fa565b61200e565b348015610ac157600080fd5b5061051e610ad03660046149fa565b612031565b348015610ae157600080fd5b506104966101fa5481565b348015610af857600080fd5b5061051e610b07366004614832565b612054565b348015610b1857600080fd5b5061051e610b273660046148c9565b6120a0565b348015610b3857600080fd5b5061051e610b47366004614ba9565b6120d8565b348015610b5857600080fd5b506104b9610b673660046149fa565b61213d565b348015610b7857600080fd5b506104966101fb5481565b348015610b8f57600080fd5b5061051e610b9e3660046149fa565b612148565b348015610baf57600080fd5b50610496610bbe366004614832565b6001600160a01b031660009081526101c5602052604090205490565b61051e610be8366004614962565b61215d565b348015610bf957600080fd5b506104966000805160206152aa83398151915281565b348015610c1b57600080fd5b5061051e610c2a366004614a13565b612385565b348015610c3b57600080fd5b50610496610c4a366004614832565b6001600160a01b031660009081526101c8602052604090205490565b348015610c7257600080fd5b50610496610c81366004614a72565b6123ac565b348015610c9257600080fd5b506101c454610496565b348015610ca857600080fd5b506104966101f85481565b348015610cbf57600080fd5b50610461610cce36600461484f565b6001600160a01b039182166000908152606a6020908152604080832093909416825291909152205460ff1690565b348015610d0857600080fd5b50610851610d173660046149fa565b6123d8565b348015610d2857600080fd5b5061051e610d37366004614a72565b6124aa565b60006001600160e01b0319821663152a902d60e11b1480610d615750610d61826124e0565b92915050565b60006101fc82604051610d7a9190614c54565b9081526020016040518091039020600201549050919050565b606060658054610da290615177565b80601f0160208091040260200160405190810160405280929190818152602001828054610dce90615177565b8015610e1b5780601f10610df057610100808354040283529160200191610e1b565b820191906000526020600020905b815481529060010190602001808311610dfe57829003601f168201915b5050505050905090565b6000610e3082612505565b610e965760405162461bcd60e51b815260206004820152602c60248201527f4552433732313a20617070726f76656420717565727920666f72206e6f6e657860448201526b34b9ba32b73a103a37b5b2b760a11b60648201526084015b60405180910390fd5b506000908152606960205260409020546001600160a01b031690565b6000610ebd8261198b565b9050806001600160a01b0316836001600160a01b03161415610f2b5760405162461bcd60e51b815260206004820152602160248201527f4552433732313a20617070726f76616c20746f2063757272656e74206f776e656044820152603960f91b6064820152608401610e8d565b336001600160a01b0382161480610f475750610f478133610cce565b610fb95760405162461bcd60e51b815260206004820152603860248201527f4552433732313a20617070726f76652063616c6c6572206973206e6f74206f7760448201527f6e6572206e6f7220617070726f76656420666f7220616c6c00000000000000006064820152608401610e8d565b610fc38383612522565b505050565b6001600160a01b03811660009081526101c56020526040902054610ffe5760405162461bcd60e51b8152600401610e8d90614ea8565b600061100a6101c45490565b61101490476150d2565b90506000611042838361103d866001600160a01b031660009081526101c6602052604090205490565b612590565b9050806110615760405162461bcd60e51b8152600401610e8d90614f3a565b6001600160a01b03831660009081526101c660205260408120805483929061108a9084906150d2565b92505081905550806101c460008282546110a491906150d2565b909155506110b4905083826125d0565b604080516001600160a01b0385168152602081018390527fdf20fd1e76bc69d672e4814fafb2c449bba3a5369d8359adf9e05e6fde87b056910160405180910390a1505050565b61110533826126e9565b6111215760405162461bcd60e51b8152600401610e8d90614ffd565b610fc38383836127cf565b6000806111476000805160206152aa83398151915233611fc8565b1561115757506000905080611187565b600060646101fb548561116a91906150fe565b61117491906150ea565b6101f6546001600160a01b031693509150505b9250929050565b600082815261012d60205260409020600101546111ab813361297a565b610fc383836129de565b60006111c083611af4565b82106112225760405162461bcd60e51b815260206004820152602b60248201527f455243373231456e756d657261626c653a206f776e657220696e646578206f7560448201526a74206f6620626f756e647360a81b6064820152608401610e8d565b506001600160a01b03919091166000908152609760209081526040808320938352929052205490565b6001600160a01b03811633146112bb5760405162461bcd60e51b815260206004820152602f60248201527f416363657373436f6e74726f6c3a2063616e206f6e6c792072656e6f756e636560448201526e103937b632b9903337b91039b2b63360891b6064820152608401610e8d565b6112c58282612a65565b5050565b306001600160a01b037f00000000000000000000000000000000000000000000000000000000000000001614156113125760405162461bcd60e51b8152600401610e8d90614e5c565b7f00000000000000000000000000000000000000000000000000000000000000006001600160a01b0316611344612acd565b6001600160a01b03161461136a5760405162461bcd60e51b8152600401610e8d90614eee565b61137381612afb565b6040805160008082526020820190925261138f91839190612b07565b50565b600061139e813361297a565b6101fc826040516113af9190614c54565b9081526020016040518091039020600101600090555050565b60006113d4813361297a565b61138f612c4b565b610fc3838383604051806020016040528060008152506120a0565b600054610100900460ff1680611410575060005460ff16155b61142c5760405162461bcd60e51b8152600401610e8d90614faf565b600054610100900460ff1615801561144e576000805461ffff19166101011790555b6114588585612cde565b611460612d65565b611468612d65565b611470612de8565b611478612d65565b611480612e4f565b61148a8383612ead565b6101f68054336001600160a01b0319909116811790915560056101f781905566b1a2bc2ec500006101f85560006101f981905560326101fa556101fb91909155604080516080808201835260018083526020808401868152848601838152606080870185815288516a63727970746f776f72647360a81b81526101fc600b82018190528a5191829003602b01822099518a5460ff19908116911515919091178b5595518a89015593516002808b019190915591516003998a0155968701895285875293860189815286890186815291870186815289516918dc9e5c1d1bdddbdc9960b21b8152600a810194909452985192839003602a0190922095518654909316921515929092178555519284019290925590519082015591519101556115b0916129de565b6115c86000805160206152aa833981519152336129de565b80156115da576000805461ff00191690555b5050505050565b6001600160a01b03811660009081526101c560205260409020546116175760405162461bcd60e51b8152600401610e8d90614ea8565b6001600160a01b03821660009081526101c860205260408120546040516370a0823160e01b81523060048201526001600160a01b038516906370a082319060240160206040518083038186803b15801561167057600080fd5b505afa158015611684573d6000803e3d6000fd5b505050506040513d601f19601f820116820180604052508101906116a89190614bed565b6116b291906150d2565b905060006116ec838361103d87876001600160a01b0391821660009081526101c96020908152604080832093909416825291909152205490565b90508061170b5760405162461bcd60e51b8152600401610e8d90614f3a565b6001600160a01b0380851660009081526101c960209081526040808320938716835292905290812080548392906117439084906150d2565b90915550506001600160a01b03841660009081526101c86020526040812080548392906117719084906150d2565b909155506117829050848483612f16565b604080516001600160a01b038581168252602082018490528616917f3be5b7a71e84ed12875d241991c70855ac5817d847039e17a9d895c1ceb0f18a910160405180910390a250505050565b306001600160a01b037f00000000000000000000000000000000000000000000000000000000000000001614156118175760405162461bcd60e51b8152600401610e8d90614e5c565b7f00000000000000000000000000000000000000000000000000000000000000006001600160a01b0316611849612acd565b6001600160a01b03161461186f5760405162461bcd60e51b8152600401610e8d90614eee565b61187882612afb565b6112c582826001612b07565b600061188f60995490565b82106118f25760405162461bcd60e51b815260206004820152602c60248201527f455243373231456e756d657261626c653a20676c6f62616c20696e646578206f60448201526b7574206f6620626f756e647360a01b6064820152608401610e8d565b609982815481106119055761190561521d565b90600052602060002001549050919050565b60008061192383612f68565b90506101fc836040516119369190614c54565b908152602001604051809103902060030154811015611956576000611984565b6101fc836040516119679190614c54565b90815260200160405180910390206003015481611984919061511d565b9392505050565b6000818152606760205260408120546001600160a01b031680610d615760405162461bcd60e51b815260206004820152602960248201527f4552433732313a206f776e657220717565727920666f72206e6f6e657869737460448201526832b73a103a37b5b2b760b91b6064820152608401610e8d565b60606000611a0f83611af4565b6001600160401b03811115611a2657611a26615233565b604051908082528060200260200182016040528015611a4f578160200160208202803683370190505b50905060005b611a5e84611af4565b811015611a9e57611a6f84826111b5565b828281518110611a8157611a8161521d565b602090810291909101015280611a96816151ac565b915050611a55565b5092915050565b6000611ab1813361297a565b6101f854821415611ac157600080fd5b506101f855565b60006101fc82604051611adb9190614c54565b9081526020016040518091039020600101549050919050565b60006001600160a01b038216611b5f5760405162461bcd60e51b815260206004820152602a60248201527f4552433732313a2062616c616e636520717565727920666f7220746865207a65604482015269726f206164647265737360b01b6064820152608401610e8d565b506001600160a01b031660009081526068602052604090205490565b6000611b87813361297a565b6101fc83604051611b989190614c54565b908152602001604051809103902060020154821415611bb657600080fd5b816101fc84604051611bc89190614c54565b90815260405190819003602001902060020155505050565b6000611bfa6000805160206152aa83398151915284611fc8565b15611c0757506000610d61565b6000611c1283612fad565b90506000611c1f82612ff2565b9050611c4b7ff9e9e1c8035f82fd72c5438c5719fd5349deacb4207f4fcbbda606cb5a39d50986611fc8565b15611c76576101fa546101f95411611c6b57611c6682613019565b611c6d565b805b92505050610d61565b949350505050565b6000611c8982612f68565b6101fc83604051611c9a9190614c54565b908152602001604051809103902060030154109050919050565b60606000611cc183611a02565b9050600081516001600160401b03811115611cde57611cde615233565b604051908082528060200260200182016040528015611d1157816020015b6060815260200190600190039081611cfc5790505b50905060005b8251811015611e06576101fd6000848381518110611d3757611d3761521d565b602002602001015181526020019081526020016000208054611d5890615177565b80601f0160208091040260200160405190810160405280929190818152602001828054611d8490615177565b8015611dd15780601f10611da657610100808354040283529160200191611dd1565b820191906000526020600020905b815481529060010190602001808311611db457829003601f168201915b5050505050828281518110611de857611de861521d565b60200260200101819052508080611dfe906151ac565b915050611d17565b509392505050565b6000611e1a813361297a565b61138f61302c565b6000611e2e813361297a565b6101f954821415611e3e57600080fd5b506101f955565b60606000611e52836123d8565b9050600081516001600160401b03811115611e6f57611e6f615233565b604051908082528060200260200182016040528015611ea257816020015b6060815260200190600190039081611e8d5790505b50905060005b8251811015611e06576101fd6000848381518110611ec857611ec861521d565b602002602001015181526020019081526020016000208054611ee990615177565b80601f0160208091040260200160405190810160405280929190818152602001828054611f1590615177565b8015611f625780601f10611f3757610100808354040283529160200191611f62565b820191906000526020600020905b815481529060010190602001808311611f4557829003601f168201915b5050505050828281518110611f7957611f7961521d565b60200260200101819052508080611f8f906151ac565b915050611ea8565b60006101c78281548110611fad57611fad61521d565b6000918252602090912001546001600160a01b031692915050565b600091825261012d602090815260408084206001600160a01b0393909316845291905290205460ff1690565b606060668054610da290615177565b6112c5338383613084565b600061201a813361297a565b6101f75482141561202a57600080fd5b506101f755565b600061203d813361297a565b6101fa5482141561204d57600080fd5b506101fa55565b6000612060813361297a565b6101f6546001600160a01b038381169116141561207c57600080fd5b506101f680546001600160a01b0319166001600160a01b0392909216919091179055565b6120aa33836126e9565b6120c65760405162461bcd60e51b8152600401610e8d90614ffd565b6120d284848484613153565b50505050565b60006120e4813361297a565b6101fc836040516120f59190614c54565b90815260200160405180910390206001015482141561211357600080fd5b816101fc846040516121259190614c54565b90815260405190819003602001902060010155505050565b6060610d6182613186565b6000612154813361297a565b6112c5826132e8565b60fb5460ff16156121805760405162461bcd60e51b8152600401610e8d90614f85565b6121986000805160206152aa83398151915233611fc8565b612254576121a581611c7e565b6121f15760405162461bcd60e51b815260206004820181905260248201527f5468697320776f7264206973206e6f206c6f6e67657220617661696c61626c656044820152606401610e8d565b6121fb3382611be0565b3410156122545760405162461bcd60e51b815260206004820152602160248201527f4e6f7420656e6f756768204554482073656e743b20636865636b2070726963656044820152602160f81b6064820152608401610e8d565b60006122606101f55490565b90506122716101f580546001019055565b60006101fc836040516122849190614c54565b908152604051908190036020019020805490915060ff166122e457805460ff1916600190811782556000908201556122d36122ce6000805160206152aa8339815191526109db3390565b6132f1565b60038201556000600282015561230f565b6123096122ff6000805160206152aa83398151915233611fc8565b826003015461330b565b60038201555b60008281526101fd60209081526040909120845161232f92860190614682565b5061233a848361332b565b6123448284613345565b7fe7619a6b73b99956e487541f2eafbf4cb611a98b8391e31858fe02ba08669f058284866040516123779392919061504e565b60405180910390a150505050565b600082815261012d60205260409020600101546123a2813361297a565b610fc38383612a65565b60006101fc826040516123bf9190614c54565b9081526020016040518091039020600301549050919050565b606060006123e560995490565b90506000838211156123f757836123f9565b815b90506000816001600160401b0381111561241557612415615233565b60405190808252806020026020018201604052801561243e578160200160208202803683370190505b509050600061244d838561511d565b905060005b8381101561249f5761246382611884565b8382815181106124755761247561521d565b602090810291909101015261248b6001836150d2565b915080612497816151ac565b915050612452565b509095945050505050565b60006124b6813361297a565b6101fc826040516124c79190614c54565b9081526020016040518091039020600201600090555050565b60006001600160e01b03198216637965db0b60e01b1480610d615750610d61826133d0565b6000908152606760205260409020546001600160a01b0316151590565b600081815260696020526040902080546001600160a01b0319166001600160a01b03841690811790915581906125578261198b565b6001600160a01b03167f8c5be1e5ebec7d5bd14f71427d1e84f3dd0314c0f7b2291e5b200ac8c7c3b92560405160405180910390a45050565b6101c3546001600160a01b03841660009081526101c56020526040812054909183916125bc90866150fe565b6125c691906150ea565b611c76919061511d565b804710156126205760405162461bcd60e51b815260206004820152601d60248201527f416464726573733a20696e73756666696369656e742062616c616e63650000006044820152606401610e8d565b6000826001600160a01b03168260405160006040518083038185875af1925050503d806000811461266d576040519150601f19603f3d011682016040523d82523d6000602084013e612672565b606091505b5050905080610fc35760405162461bcd60e51b815260206004820152603a60248201527f416464726573733a20756e61626c6520746f2073656e642076616c75652c207260448201527f6563697069656e74206d617920686176652072657665727465640000000000006064820152608401610e8d565b60006126f482612505565b6127555760405162461bcd60e51b815260206004820152602c60248201527f4552433732313a206f70657261746f7220717565727920666f72206e6f6e657860448201526b34b9ba32b73a103a37b5b2b760a11b6064820152608401610e8d565b60006127608361198b565b9050806001600160a01b0316846001600160a01b0316148061279b5750836001600160a01b031661279084610e25565b6001600160a01b0316145b80611c7657506001600160a01b038082166000908152606a602090815260408083209388168352929052205460ff16611c76565b826001600160a01b03166127e28261198b565b6001600160a01b03161461284a5760405162461bcd60e51b815260206004820152602960248201527f4552433732313a207472616e73666572206f6620746f6b656e2074686174206960448201526839903737ba1037bbb760b91b6064820152608401610e8d565b6001600160a01b0382166128ac5760405162461bcd60e51b8152602060048201526024808201527f4552433732313a207472616e7366657220746f20746865207a65726f206164646044820152637265737360e01b6064820152608401610e8d565b6128b78383836133f5565b6128c2600082612522565b6001600160a01b03831660009081526068602052604081208054600192906128eb90849061511d565b90915550506001600160a01b03821660009081526068602052604081208054600192906129199084906150d2565b909155505060008181526067602052604080822080546001600160a01b0319166001600160a01b0386811691821790925591518493918716917fddf252ad1be2c89b69c2b068fc378daa952ba7f163c4a11628f55a4df523b3ef91a4505050565b6129848282611fc8565b6112c55761299c816001600160a01b03166014613423565b6129a7836020613423565b6040516020016129b8929190614c9f565b60408051601f198184030181529082905262461bcd60e51b8252610e8d91600401614df7565b6129e88282611fc8565b6112c557600082815261012d602090815260408083206001600160a01b03851684529091529020805460ff19166001179055612a213390565b6001600160a01b0316816001600160a01b0316837f2f8788117e7eff1d82e926ec794901d17c78024a50270940304540a733656f0d60405160405180910390a45050565b612a6f8282611fc8565b156112c557600082815261012d602090815260408083206001600160a01b0385168085529252808320805460ff1916905551339285917ff6391f5c32d9c69d2a47ea670b442974b53935d1edc7fd64eb21e047a839171b9190a45050565b7f360894a13ba1a3210667c828492db98dca3e2076cc3735a920a3ca505d382bbc546001600160a01b031690565b60006112c5813361297a565b6000612b11612acd565b9050612b1c846135be565b600083511180612b295750815b15612b3a57612b388484613663565b505b7f4910fdfa16fed3260ed0e7147f7cc6da11a60208b5b9406d12a635614ffd9143805460ff166115da57805460ff191660011781556040516001600160a01b0383166024820152612bb990869060440160408051601f198184030181529190526020810180516001600160e01b0316631b2ce7f360e11b179052613663565b50805460ff19168155612bca612acd565b6001600160a01b0316826001600160a01b031614612c425760405162461bcd60e51b815260206004820152602f60248201527f45524331393637557067726164653a207570677261646520627265616b73206660448201526e75727468657220757067726164657360881b6064820152608401610e8d565b6115da8561374e565b60fb5460ff16612c945760405162461bcd60e51b815260206004820152601460248201527314185d5cd8589b194e881b9bdd081c185d5cd95960621b6044820152606401610e8d565b60fb805460ff191690557f5db9ee0a495bf2e6ff9c91a7834c1ba4fdd244a5e8aa4e537bd38aeae4b073aa335b6040516001600160a01b03909116815260200160405180910390a1565b600054610100900460ff1680612cf7575060005460ff16155b612d135760405162461bcd60e51b8152600401610e8d90614faf565b600054610100900460ff16158015612d35576000805461ffff19166101011790555b612d3d61378e565b612d4561378e565b612d4f83836137f8565b8015610fc3576000805461ff0019169055505050565b600054610100900460ff1680612d7e575060005460ff16155b612d9a5760405162461bcd60e51b8152600401610e8d90614faf565b600054610100900460ff16158015612dbc576000805461ffff19166101011790555b612dc461378e565b612dcc61378e565b612dd461378e565b801561138f576000805461ff001916905550565b600054610100900460ff1680612e01575060005460ff16155b612e1d5760405162461bcd60e51b8152600401610e8d90614faf565b600054610100900460ff16158015612e3f576000805461ffff19166101011790555b612e4761378e565b612dd461388d565b600054610100900460ff1680612e68575060005460ff16155b612e845760405162461bcd60e51b8152600401610e8d90614faf565b600054610100900460ff16158015612dc4576000805461ffff1916610101179055612dcc61378e565b600054610100900460ff1680612ec6575060005460ff16155b612ee25760405162461bcd60e51b8152600401610e8d90614faf565b600054610100900460ff16158015612f04576000805461ffff19166101011790555b612f0c61378e565b612d4f8383613902565b604080516001600160a01b038416602482015260448082018490528251808303909101815260649091019091526020810180516001600160e01b031663a9059cbb60e01b179052610fc3908490613a70565b6000806101fc83604051612f7c9190614c54565b90815260200160405180910390206002015411612f9c576101f754610d61565b6101fc82604051610d7a9190614c54565b6000806101fc83604051612fc19190614c54565b90815260200160405180910390206001015411612fe1576101f854610d61565b6101fc82604051611adb9190614c54565b600060646101f9548361300591906150fe565b61300f91906150ea565b610d61908361511d565b600060646101fa548361300591906150fe565b60fb5460ff161561304f5760405162461bcd60e51b8152600401610e8d90614f85565b60fb805460ff191660011790557f62e78cea01bee320cd4e420270b5ea74000d11b0c9f74754ebdbfc544b05a258612cc13390565b816001600160a01b0316836001600160a01b031614156130e65760405162461bcd60e51b815260206004820152601960248201527f4552433732313a20617070726f766520746f2063616c6c6572000000000000006044820152606401610e8d565b6001600160a01b038381166000818152606a6020908152604080832094871680845294825291829020805460ff191686151590811790915591519182527f17307eab39ab6107e8899845ad3d59bd9653f200f220920489ca2b5937696c31910160405180910390a3505050565b61315e8484846127cf565b61316a84848484613b42565b6120d25760405162461bcd60e51b8152600401610e8d90614e0a565b606061319182612505565b6131f75760405162461bcd60e51b815260206004820152603160248201527f45524337323155524953746f726167653a2055524920717565727920666f72206044820152703737b732bc34b9ba32b73a103a37b5b2b760791b6064820152608401610e8d565b600082815260c960205260408120805461321090615177565b80601f016020809104026020016040519081016040528092919081815260200182805461323c90615177565b80156132895780601f1061325e57610100808354040283529160200191613289565b820191906000526020600020905b81548152906001019060200180831161326c57829003601f168201915b50505050509050600061329a613c4f565b90508051600014156132ad575092915050565b8151156132df5780826040516020016132c7929190614c70565b60405160208183030381529060405292505050919050565b611c7684613c6f565b61138f81613d39565b6000816132ff576001613302565b60005b60ff1692915050565b6000826133255761331d6001836150d2565b915081611984565b50919050565b6112c5828260405180602001604052806000815250613d79565b61334e82612505565b6133b15760405162461bcd60e51b815260206004820152602e60248201527f45524337323155524953746f726167653a2055524920736574206f66206e6f6e60448201526d32bc34b9ba32b73a103a37b5b2b760911b6064820152608401610e8d565b600082815260c9602090815260409091208251610fc392840190614682565b60006001600160e01b0319821663780e9d6360e01b1480610d615750610d6182613dac565b60fb5460ff16156134185760405162461bcd60e51b8152600401610e8d90614f85565b610fc3838383613dfc565b606060006134328360026150fe565b61343d9060026150d2565b6001600160401b0381111561345457613454615233565b6040519080825280601f01601f19166020018201604052801561347e576020820181803683370190505b509050600360fc1b816000815181106134995761349961521d565b60200101906001600160f81b031916908160001a905350600f60fb1b816001815181106134c8576134c861521d565b60200101906001600160f81b031916908160001a90535060006134ec8460026150fe565b6134f79060016150d2565b90505b600181111561356f576f181899199a1a9b1b9c1cb0b131b232b360811b85600f166010811061352b5761352b61521d565b1a60f81b8282815181106135415761354161521d565b60200101906001600160f81b031916908160001a90535060049490941c9361356881615160565b90506134fa565b5083156119845760405162461bcd60e51b815260206004820181905260248201527f537472696e67733a20686578206c656e67746820696e73756666696369656e746044820152606401610e8d565b803b6136225760405162461bcd60e51b815260206004820152602d60248201527f455243313936373a206e657720696d706c656d656e746174696f6e206973206e60448201526c1bdd08184818dbdb9d1c9858dd609a1b6064820152608401610e8d565b7f360894a13ba1a3210667c828492db98dca3e2076cc3735a920a3ca505d382bbc80546001600160a01b0319166001600160a01b0392909216919091179055565b6060823b6136c25760405162461bcd60e51b815260206004820152602660248201527f416464726573733a2064656c65676174652063616c6c20746f206e6f6e2d636f6044820152651b9d1c9858dd60d21b6064820152608401610e8d565b600080846001600160a01b0316846040516136dd9190614c54565b600060405180830381855af49150503d8060008114613718576040519150601f19603f3d011682016040523d82523d6000602084013e61371d565b606091505b5091509150613745828260405180606001604052806027815260200161528360279139613eb4565b95945050505050565b613757816135be565b6040516001600160a01b038216907fbc7cd75a20ee27fd9adebab32041f755214dbc6bffa90cc0225b39da2e5c2d3b90600090a250565b600054610100900460ff16806137a7575060005460ff16155b6137c35760405162461bcd60e51b8152600401610e8d90614faf565b600054610100900460ff16158015612dd4576000805461ffff1916610101179055801561138f576000805461ff001916905550565b600054610100900460ff1680613811575060005460ff16155b61382d5760405162461bcd60e51b8152600401610e8d90614faf565b600054610100900460ff1615801561384f576000805461ffff19166101011790555b8251613862906065906020860190614682565b508151613876906066906020850190614682565b508015610fc3576000805461ff0019169055505050565b600054610100900460ff16806138a6575060005460ff16155b6138c25760405162461bcd60e51b8152600401610e8d90614faf565b600054610100900460ff161580156138e4576000805461ffff19166101011790555b60fb805460ff19169055801561138f576000805461ff001916905550565b600054610100900460ff168061391b575060005460ff16155b6139375760405162461bcd60e51b8152600401610e8d90614faf565b600054610100900460ff16158015613959576000805461ffff19166101011790555b81518351146139c55760405162461bcd60e51b815260206004820152603260248201527f5061796d656e7453706c69747465723a2070617965657320616e6420736861726044820152710cae640d8cadccee8d040dad2e6dac2e8c6d60731b6064820152608401610e8d565b6000835111613a165760405162461bcd60e51b815260206004820152601a60248201527f5061796d656e7453706c69747465723a206e6f207061796565730000000000006044820152606401610e8d565b60005b835181101561387657613a5e848281518110613a3757613a3761521d565b6020026020010151848381518110613a5157613a5161521d565b6020026020010151613eed565b80613a68816151ac565b915050613a19565b6000613ac5826040518060400160405280602081526020017f5361666545524332303a206c6f772d6c6576656c2063616c6c206661696c6564815250856001600160a01b03166140d89092919063ffffffff16565b805190915015610fc35780806020019051810190613ae391906149dd565b610fc35760405162461bcd60e51b815260206004820152602a60248201527f5361666545524332303a204552433230206f7065726174696f6e20646964206e6044820152691bdd081cdd58d8d9595960b21b6064820152608401610e8d565b60006001600160a01b0384163b15613c4457604051630a85bd0160e11b81526001600160a01b0385169063150b7a0290613b86903390899088908890600401614d14565b602060405180830381600087803b158015613ba057600080fd5b505af1925050508015613bd0575060408051601f3d908101601f19168201909252613bcd91810190614a55565b60015b613c2a573d808015613bfe576040519150601f19603f3d011682016040523d82523d6000602084013e613c03565b606091505b508051613c225760405162461bcd60e51b8152600401610e8d90614e0a565b805181602001fd5b6001600160e01b031916630a85bd0160e11b149050611c76565b506001949350505050565b60606040518060600160405280602281526020016152ca60229139905090565b6060613c7a82612505565b613cde5760405162461bcd60e51b815260206004820152602f60248201527f4552433732314d657461646174613a2055524920717565727920666f72206e6f60448201526e3732bc34b9ba32b73a103a37b5b2b760891b6064820152608401610e8d565b6000613ce8613c4f565b90506000815111613d085760405180602001604052806000815250611984565b80613d12846140e7565b604051602001613d23929190614c70565b6040516020818303038152906040529392505050565b613d42816141e4565b600081815260c9602052604090208054613d5b90615177565b15905061138f57600081815260c96020526040812061138f91614706565b613d83838361428b565b613d906000848484613b42565b610fc35760405162461bcd60e51b8152600401610e8d90614e0a565b60006001600160e01b031982166380ac58cd60e01b1480613ddd57506001600160e01b03198216635b5e139f60e01b145b80610d6157506301ffc9a760e01b6001600160e01b0319831614610d61565b6001600160a01b038316613e5757613e5281609980546000838152609a60205260408120829055600182018355919091527f72a152ddfb8e864297c917af52ea6c1c68aead0fee1a62673fcc7e0c94979d000155565b613e7a565b816001600160a01b0316836001600160a01b031614613e7a57613e7a83826143ca565b6001600160a01b038216613e9157610fc381614467565b826001600160a01b0316826001600160a01b031614610fc357610fc38282614516565b60608315613ec3575081611984565b825115613ed35782518084602001fd5b8160405162461bcd60e51b8152600401610e8d9190614df7565b6001600160a01b038216613f585760405162461bcd60e51b815260206004820152602c60248201527f5061796d656e7453706c69747465723a206163636f756e74206973207468652060448201526b7a65726f206164647265737360a01b6064820152608401610e8d565b60008111613fa85760405162461bcd60e51b815260206004820152601d60248201527f5061796d656e7453706c69747465723a207368617265732061726520300000006044820152606401610e8d565b6001600160a01b03821660009081526101c56020526040902054156140235760405162461bcd60e51b815260206004820152602b60248201527f5061796d656e7453706c69747465723a206163636f756e7420616c726561647960448201526a206861732073686172657360a81b6064820152608401610e8d565b6101c78054600181019091557fff6df30967a6a678f565c59a19e91e5c0dbb20cfe9f9bf26d7da6dea0fffa24c0180546001600160a01b0319166001600160a01b03841690811790915560009081526101c5602052604090208190556101c35461408e9082906150d2565b6101c355604080516001600160a01b0384168152602081018390527f40c340f65e17194d14ddddb073d3c9f888e3cb52b5aae0c6c7706b4fbc905fac910160405180910390a15050565b6060611c76848460008561455a565b60608161410b5750506040805180820190915260018152600360fc1b602082015290565b8160005b8115614135578061411f816151ac565b915061412e9050600a836150ea565b915061410f565b6000816001600160401b0381111561414f5761414f615233565b6040519080825280601f01601f191660200182016040528015614179576020820181803683370190505b5090505b8415611c765761418e60018361511d565b915061419b600a866151c7565b6141a69060306150d2565b60f81b8183815181106141bb576141bb61521d565b60200101906001600160f81b031916908160001a9053506141dd600a866150ea565b945061417d565b60006141ef8261198b565b90506141fd816000846133f5565b614208600083612522565b6001600160a01b038116600090815260686020526040812080546001929061423190849061511d565b909155505060008281526067602052604080822080546001600160a01b0319169055518391906001600160a01b038416907fddf252ad1be2c89b69c2b068fc378daa952ba7f163c4a11628f55a4df523b3ef908390a45050565b6001600160a01b0382166142e15760405162461bcd60e51b815260206004820181905260248201527f4552433732313a206d696e7420746f20746865207a65726f20616464726573736044820152606401610e8d565b6142ea81612505565b156143375760405162461bcd60e51b815260206004820152601c60248201527f4552433732313a20746f6b656e20616c7265616479206d696e746564000000006044820152606401610e8d565b614343600083836133f5565b6001600160a01b038216600090815260686020526040812080546001929061436c9084906150d2565b909155505060008181526067602052604080822080546001600160a01b0319166001600160a01b03861690811790915590518392907fddf252ad1be2c89b69c2b068fc378daa952ba7f163c4a11628f55a4df523b3ef908290a45050565b600060016143d784611af4565b6143e1919061511d565b600083815260986020526040902054909150808214614434576001600160a01b03841660009081526097602090815260408083208584528252808320548484528184208190558352609890915290208190555b5060009182526098602090815260408084208490556001600160a01b039094168352609781528383209183525290812055565b6099546000906144799060019061511d565b6000838152609a6020526040812054609980549394509092849081106144a1576144a161521d565b9060005260206000200154905080609983815481106144c2576144c261521d565b6000918252602080832090910192909255828152609a909152604080822084905585825281205560998054806144fa576144fa615207565b6001900381819060005260206000200160009055905550505050565b600061452183611af4565b6001600160a01b039093166000908152609760209081526040808320868452825280832085905593825260989052919091209190915550565b6060824710156145bb5760405162461bcd60e51b815260206004820152602660248201527f416464726573733a20696e73756666696369656e742062616c616e636520666f6044820152651c8818d85b1b60d21b6064820152608401610e8d565b843b6146095760405162461bcd60e51b815260206004820152601d60248201527f416464726573733a2063616c6c20746f206e6f6e2d636f6e74726163740000006044820152606401610e8d565b600080866001600160a01b031685876040516146259190614c54565b60006040518083038185875af1925050503d8060008114614662576040519150601f19603f3d011682016040523d82523d6000602084013e614667565b606091505b5091509150614677828286613eb4565b979650505050505050565b82805461468e90615177565b90600052602060002090601f0160209004810192826146b057600085556146f6565b82601f106146c957805160ff19168380011785556146f6565b828001600101855582156146f6579182015b828111156146f65782518255916020019190600101906146db565b5061470292915061473c565b5090565b50805461471290615177565b6000825580601f10614722575050565b601f01602090049060005260206000209081019061138f91905b5b80821115614702576000815560010161473d565b600082601f83011261476257600080fd5b81356020614777614772836150af565b61507f565b80838252828201915082860187848660051b890101111561479757600080fd5b60005b858110156147b65781358452928401929084019060010161479a565b5090979650505050505050565b600082601f8301126147d457600080fd5b81356001600160401b038111156147ed576147ed615233565b614800601f8201601f191660200161507f565b81815284602083860101111561481557600080fd5b816020850160208301376000918101602001919091529392505050565b60006020828403121561484457600080fd5b813561198481615249565b6000806040838503121561486257600080fd5b823561486d81615249565b9150602083013561487d81615249565b809150509250929050565b60008060006060848603121561489d57600080fd5b83356148a881615249565b925060208401356148b881615249565b929592945050506040919091013590565b600080600080608085870312156148df57600080fd5b84356148ea81615249565b935060208501356148fa81615249565b92506040850135915060608501356001600160401b0381111561491c57600080fd5b614928878288016147c3565b91505092959194509250565b6000806040838503121561494757600080fd5b823561495281615249565b9150602083013561487d8161525e565b6000806040838503121561497557600080fd5b823561498081615249565b915060208301356001600160401b0381111561499b57600080fd5b6149a7858286016147c3565b9150509250929050565b600080604083850312156149c457600080fd5b82356149cf81615249565b946020939093013593505050565b6000602082840312156149ef57600080fd5b81516119848161525e565b600060208284031215614a0c57600080fd5b5035919050565b60008060408385031215614a2657600080fd5b82359150602083013561487d81615249565b600060208284031215614a4a57600080fd5b81356119848161526c565b600060208284031215614a6757600080fd5b81516119848161526c565b600060208284031215614a8457600080fd5b81356001600160401b03811115614a9a57600080fd5b611c76848285016147c3565b60008060008060808587031215614abc57600080fd5b84356001600160401b0380821115614ad357600080fd5b614adf888389016147c3565b9550602091508187013581811115614af657600080fd5b614b0289828a016147c3565b955050604087013581811115614b1757600080fd5b8701601f81018913614b2857600080fd5b8035614b36614772826150af565b8082825285820191508584018c878560051b8701011115614b5657600080fd5b600094505b83851015614b82578035614b6e81615249565b835260019490940193918601918601614b5b565b5096505050506060870135915080821115614b9c57600080fd5b5061492887828801614751565b60008060408385031215614bbc57600080fd5b82356001600160401b03811115614bd257600080fd5b614bde858286016147c3565b95602094909401359450505050565b600060208284031215614bff57600080fd5b5051919050565b60008060408385031215614c1957600080fd5b50508035926020909101359150565b60008151808452614c40816020860160208601615134565b601f01601f19169290920160200192915050565b60008251614c66818460208701615134565b9190910192915050565b60008351614c82818460208801615134565b835190830190614c96818360208801615134565b01949350505050565b7f416363657373436f6e74726f6c3a206163636f756e7420000000000000000000815260008351614cd7816017850160208801615134565b7001034b99036b4b9b9b4b733903937b6329607d1b6017918401918201528351614d08816028840160208801615134565b01602801949350505050565b6001600160a01b0385811682528416602082015260408101839052608060608201819052600090614d4790830184614c28565b9695505050505050565b6000602080830181845280855180835260408601915060408160051b870101925083870160005b82811015614da657603f19888603018452614d94858351614c28565b94509285019290850190600101614d78565b5092979650505050505050565b6020808252825182820181905260009190848201906040850190845b81811015614deb57835183529284019291840191600101614dcf565b50909695505050505050565b6020815260006119846020830184614c28565b60208082526032908201527f4552433732313a207472616e7366657220746f206e6f6e20455243373231526560408201527131b2b4bb32b91034b6b83632b6b2b73a32b960711b606082015260800190565b6020808252602c908201527f46756e6374696f6e206d7573742062652063616c6c6564207468726f7567682060408201526b19195b1959d85d1958d85b1b60a21b606082015260800190565b60208082526026908201527f5061796d656e7453706c69747465723a206163636f756e7420686173206e6f2060408201526573686172657360d01b606082015260800190565b6020808252602c908201527f46756e6374696f6e206d7573742062652063616c6c6564207468726f7567682060408201526b6163746976652070726f787960a01b606082015260800190565b6020808252602b908201527f5061796d656e7453706c69747465723a206163636f756e74206973206e6f742060408201526a191d59481c185e5b595b9d60aa1b606082015260800190565b60208082526010908201526f14185d5cd8589b194e881c185d5cd95960821b604082015260600190565b6020808252602e908201527f496e697469616c697a61626c653a20636f6e747261637420697320616c72656160408201526d191e481a5b9a5d1a585b1a5e995960921b606082015260800190565b60208082526031908201527f4552433732313a207472616e736665722063616c6c6572206973206e6f74206f6040820152701ddb995c881b9bdc88185c1c1c9bdd9959607a1b606082015260800190565b8381526060602082015260006150676060830185614c28565b905060018060a01b0383166040830152949350505050565b604051601f8201601f191681016001600160401b03811182821017156150a7576150a7615233565b604052919050565b60006001600160401b038211156150c8576150c8615233565b5060051b60200190565b600082198211156150e5576150e56151db565b500190565b6000826150f9576150f96151f1565b500490565b6000816000190483118215151615615118576151186151db565b500290565b60008282101561512f5761512f6151db565b500390565b60005b8381101561514f578181015183820152602001615137565b838111156120d25750506000910152565b60008161516f5761516f6151db565b506000190190565b600181811c9082168061518b57607f821691505b6020821081141561332557634e487b7160e01b600052602260045260246000fd5b60006000198214156151c0576151c06151db565b5060010190565b6000826151d6576151d66151f1565b500690565b634e487b7160e01b600052601160045260246000fd5b634e487b7160e01b600052601260045260246000fd5b634e487b7160e01b600052603160045260246000fd5b634e487b7160e01b600052603260045260246000fd5b634e487b7160e01b600052604160045260246000fd5b6001600160a01b038116811461138f57600080fd5b801515811461138f57600080fd5b6001600160e01b03198116811461138f57600080fdfe416464726573733a206c6f772d6c6576656c2064656c65676174652063616c6c206661696c65649f2df0fed2c77648de5860a4cc508cd0818c85b8b8a1ab4ceeef8d981c8956a668747470733a2f2f63727970746f776f7264732e6172742f6170692f746f6b656e2fa26469706673582212200eb7de421ce80dd3630b07252657be78947286b222b73f1b70bc52bdf847a59f64736f6c63430008070033",
  "linkReferences": {},
  "deployedLinkReferences": {}
}