{
  "_format": "hh-sol-artifact-1",
  "contractName": "NiftyWords",
  "sourceName": "contracts/NiftyWords.sol",
  "abi": [
    {
      "inputs": [],
      "stateMutability": "nonpayable",
      "type": "constructor"
    },
    {
      "anonymous": false,
      "inputs": [
        {
          "indexed": true,
          "internalType": "address",
          "name": "owner",
          "type": "address"
        },
        {
          "indexed": true,
          "internalType": "address",
          "name": "approved",
          "type": "address"
        },
        {
          "indexed": true,
          "internalType": "uint256",
          "name": "tokenId",
          "type": "uint256"
        }
      ],
      "name": "Approval",
      "type": "event"
    },
    {
      "anonymous": false,
      "inputs": [
        {
          "indexed": true,
          "internalType": "address",
          "name": "owner",
          "type": "address"
        },
        {
          "indexed": true,
          "internalType": "address",
          "name": "operator",
          "type": "address"
        },
        {
          "indexed": false,
          "internalType": "bool",
          "name": "approved",
          "type": "bool"
        }
      ],
      "name": "ApprovalForAll",
      "type": "event"
    },
    {
      "anonymous": false,
      "inputs": [
        {
          "indexed": false,
          "internalType": "address",
          "name": "account",
          "type": "address"
        }
      ],
      "name": "Paused",
      "type": "event"
    },
    {
      "anonymous": false,
      "inputs": [
        {
          "indexed": false,
          "internalType": "address",
          "name": "account",
          "type": "address"
        },
        {
          "indexed": false,
          "internalType": "uint256",
          "name": "shares",
          "type": "uint256"
        }
      ],
      "name": "PayeeAdded",
      "type": "event"
    },
    {
      "anonymous": false,
      "inputs": [
        {
          "indexed": false,
          "internalType": "address",
          "name": "from",
          "type": "address"
        },
        {
          "indexed": false,
          "internalType": "uint256",
          "name": "amount",
          "type": "uint256"
        }
      ],
      "name": "PaymentReceived",
      "type": "event"
    },
    {
      "anonymous": false,
      "inputs": [
        {
          "indexed": false,
          "internalType": "address",
          "name": "to",
          "type": "address"
        },
        {
          "indexed": false,
          "internalType": "uint256",
          "name": "amount",
          "type": "uint256"
        }
      ],
      "name": "PaymentReleased",
      "type": "event"
    },
    {
      "anonymous": false,
      "inputs": [
        {
          "indexed": true,
          "internalType": "bytes32",
          "name": "role",
          "type": "bytes32"
        },
        {
          "indexed": true,
          "internalType": "bytes32",
          "name": "previousAdminRole",
          "type": "bytes32"
        },
        {
          "indexed": true,
          "internalType": "bytes32",
          "name": "newAdminRole",
          "type": "bytes32"
        }
      ],
      "name": "RoleAdminChanged",
      "type": "event"
    },
    {
      "anonymous": false,
      "inputs": [
        {
          "indexed": true,
          "internalType": "bytes32",
          "name": "role",
          "type": "bytes32"
        },
        {
          "indexed": true,
          "internalType": "address",
          "name": "account",
          "type": "address"
        },
        {
          "indexed": true,
          "internalType": "address",
          "name": "sender",
          "type": "address"
        }
      ],
      "name": "RoleGranted",
      "type": "event"
    },
    {
      "anonymous": false,
      "inputs": [
        {
          "indexed": true,
          "internalType": "bytes32",
          "name": "role",
          "type": "bytes32"
        },
        {
          "indexed": true,
          "internalType": "address",
          "name": "account",
          "type": "address"
        },
        {
          "indexed": true,
          "internalType": "address",
          "name": "sender",
          "type": "address"
        }
      ],
      "name": "RoleRevoked",
      "type": "event"
    },
    {
      "anonymous": false,
      "inputs": [
        {
          "indexed": true,
          "internalType": "address",
          "name": "from",
          "type": "address"
        },
        {
          "indexed": true,
          "internalType": "address",
          "name": "to",
          "type": "address"
        },
        {
          "indexed": true,
          "internalType": "uint256",
          "name": "tokenId",
          "type": "uint256"
        }
      ],
      "name": "Transfer",
      "type": "event"
    },
    {
      "anonymous": false,
      "inputs": [
        {
          "indexed": false,
          "internalType": "address",
          "name": "account",
          "type": "address"
        }
      ],
      "name": "Unpaused",
      "type": "event"
    },
    {
      "inputs": [],
      "name": "DEFAULT_ADMIN_ROLE",
      "outputs": [
        {
          "internalType": "bytes32",
          "name": "",
          "type": "bytes32"
        }
      ],
      "stateMutability": "view",
      "type": "function"
    },
    {
      "inputs": [],
      "name": "DISCOUNTED_ROLE",
      "outputs": [
        {
          "internalType": "bytes32",
          "name": "",
          "type": "bytes32"
        }
      ],
      "stateMutability": "view",
      "type": "function"
    },
    {
      "inputs": [],
      "name": "MINTER_ROLE",
      "outputs": [
        {
          "internalType": "bytes32",
          "name": "",
          "type": "bytes32"
        }
      ],
      "stateMutability": "view",
      "type": "function"
    },
    {
      "inputs": [],
      "name": "PAUSER_ROLE",
      "outputs": [
        {
          "internalType": "bytes32",
          "name": "",
          "type": "bytes32"
        }
      ],
      "stateMutability": "view",
      "type": "function"
    },
    {
      "inputs": [],
      "name": "ROYALTY_FREE_ROLE",
      "outputs": [
        {
          "internalType": "bytes32",
          "name": "",
          "type": "bytes32"
        }
      ],
      "stateMutability": "view",
      "type": "function"
    },
    {
      "inputs": [
        {
          "internalType": "address",
          "name": "to",
          "type": "address"
        },
        {
          "internalType": "uint256",
          "name": "tokenId",
          "type": "uint256"
        }
      ],
      "name": "approve",
      "outputs": [],
      "stateMutability": "nonpayable",
      "type": "function"
    },
    {
      "inputs": [
        {
          "internalType": "address",
          "name": "owner",
          "type": "address"
        }
      ],
      "name": "balanceOf",
      "outputs": [
        {
          "internalType": "uint256",
          "name": "",
          "type": "uint256"
        }
      ],
      "stateMutability": "view",
      "type": "function"
    },
    {
      "inputs": [
        {
          "internalType": "uint256",
          "name": "tokenId",
          "type": "uint256"
        }
      ],
      "name": "getApproved",
      "outputs": [
        {
          "internalType": "address",
          "name": "",
          "type": "address"
        }
      ],
      "stateMutability": "view",
      "type": "function"
    },
    {
      "inputs": [
        {
          "internalType": "address",
          "name": "account",
          "type": "address"
        }
      ],
      "name": "getPrice",
      "outputs": [
        {
          "internalType": "uint256",
          "name": "",
          "type": "uint256"
        }
      ],
      "stateMutability": "view",
      "type": "function"
    },
    {
      "inputs": [
        {
          "internalType": "bytes32",
          "name": "role",
          "type": "bytes32"
        }
      ],
      "name": "getRoleAdmin",
      "outputs": [
        {
          "internalType": "bytes32",
          "name": "",
          "type": "bytes32"
        }
      ],
      "stateMutability": "view",
      "type": "function"
    },
    {
      "inputs": [
        {
          "internalType": "uint256",
          "name": "tokenId",
          "type": "uint256"
        }
      ],
      "name": "getWordById",
      "outputs": [
        {
          "internalType": "string",
          "name": "",
          "type": "string"
        }
      ],
      "stateMutability": "view",
      "type": "function"
    },
    {
      "inputs": [
        {
          "internalType": "bytes32",
          "name": "role",
          "type": "bytes32"
        },
        {
          "internalType": "address",
          "name": "account",
          "type": "address"
        }
      ],
      "name": "grantRole",
      "outputs": [],
      "stateMutability": "nonpayable",
      "type": "function"
    },
    {
      "inputs": [
        {
          "internalType": "bytes32",
          "name": "role",
          "type": "bytes32"
        },
        {
          "internalType": "address",
          "name": "account",
          "type": "address"
        }
      ],
      "name": "hasRole",
      "outputs": [
        {
          "internalType": "bool",
          "name": "",
          "type": "bool"
        }
      ],
      "stateMutability": "view",
      "type": "function"
    },
    {
      "inputs": [
        {
          "internalType": "string",
          "name": "name",
          "type": "string"
        },
        {
          "internalType": "string",
          "name": "symbol",
          "type": "string"
        },
        {
          "internalType": "address[]",
          "name": "payees",
          "type": "address[]"
        },
        {
          "internalType": "uint256[]",
          "name": "shares",
          "type": "uint256[]"
        }
      ],
      "name": "initialize",
      "outputs": [],
      "stateMutability": "payable",
      "type": "function"
    },
    {
      "inputs": [
        {
          "internalType": "address",
          "name": "owner",
          "type": "address"
        },
        {
          "internalType": "address",
          "name": "operator",
          "type": "address"
        }
      ],
      "name": "isApprovedForAll",
      "outputs": [
        {
          "internalType": "bool",
          "name": "",
          "type": "bool"
        }
      ],
      "stateMutability": "view",
      "type": "function"
    },
    {
      "inputs": [],
      "name": "name",
      "outputs": [
        {
          "internalType": "string",
          "name": "",
          "type": "string"
        }
      ],
      "stateMutability": "view",
      "type": "function"
    },
    {
      "inputs": [
        {
          "internalType": "uint256",
          "name": "tokenId",
          "type": "uint256"
        }
      ],
      "name": "ownerOf",
      "outputs": [
        {
          "internalType": "address",
          "name": "",
          "type": "address"
        }
      ],
      "stateMutability": "view",
      "type": "function"
    },
    {
      "inputs": [],
      "name": "pause",
      "outputs": [],
      "stateMutability": "nonpayable",
      "type": "function"
    },
    {
      "inputs": [],
      "name": "paused",
      "outputs": [
        {
          "internalType": "bool",
          "name": "",
          "type": "bool"
        }
      ],
      "stateMutability": "view",
      "type": "function"
    },
    {
      "inputs": [
        {
          "internalType": "uint256",
          "name": "index",
          "type": "uint256"
        }
      ],
      "name": "payee",
      "outputs": [
        {
          "internalType": "address",
          "name": "",
          "type": "address"
        }
      ],
      "stateMutability": "view",
      "type": "function"
    },
    {
      "inputs": [],
      "name": "priceDiscount",
      "outputs": [
        {
          "internalType": "uint256",
          "name": "",
          "type": "uint256"
        }
      ],
      "stateMutability": "view",
      "type": "function"
    },
    {
      "inputs": [],
      "name": "priceFull",
      "outputs": [
        {
          "internalType": "uint256",
          "name": "",
          "type": "uint256"
        }
      ],
      "stateMutability": "view",
      "type": "function"
    },
    {
      "inputs": [
        {
          "internalType": "address",
          "name": "to",
          "type": "address"
        },
        {
          "internalType": "string",
          "name": "word",
          "type": "string"
        }
      ],
      "name": "purchaseWord",
      "outputs": [],
      "stateMutability": "payable",
      "type": "function"
    },
    {
      "inputs": [
        {
          "internalType": "address payable",
          "name": "account",
          "type": "address"
        }
      ],
      "name": "release",
      "outputs": [],
      "stateMutability": "nonpayable",
      "type": "function"
    },
    {
      "inputs": [
        {
          "internalType": "address",
          "name": "account",
          "type": "address"
        }
      ],
      "name": "released",
      "outputs": [
        {
          "internalType": "uint256",
          "name": "",
          "type": "uint256"
        }
      ],
      "stateMutability": "view",
      "type": "function"
    },
    {
      "inputs": [
        {
          "internalType": "bytes32",
          "name": "role",
          "type": "bytes32"
        },
        {
          "internalType": "address",
          "name": "account",
          "type": "address"
        }
      ],
      "name": "renounceRole",
      "outputs": [],
      "stateMutability": "nonpayable",
      "type": "function"
    },
    {
      "inputs": [
        {
          "internalType": "bytes32",
          "name": "role",
          "type": "bytes32"
        },
        {
          "internalType": "address",
          "name": "account",
          "type": "address"
        }
      ],
      "name": "revokeRole",
      "outputs": [],
      "stateMutability": "nonpayable",
      "type": "function"
    },
    {
      "inputs": [
        {
          "internalType": "address",
          "name": "from",
          "type": "address"
        },
        {
          "internalType": "address",
          "name": "to",
          "type": "address"
        },
        {
          "internalType": "uint256",
          "name": "tokenId",
          "type": "uint256"
        }
      ],
      "name": "safeTransferFrom",
      "outputs": [],
      "stateMutability": "nonpayable",
      "type": "function"
    },
    {
      "inputs": [
        {
          "internalType": "address",
          "name": "from",
          "type": "address"
        },
        {
          "internalType": "address",
          "name": "to",
          "type": "address"
        },
        {
          "internalType": "uint256",
          "name": "tokenId",
          "type": "uint256"
        },
        {
          "internalType": "bytes",
          "name": "_data",
          "type": "bytes"
        }
      ],
      "name": "safeTransferFrom",
      "outputs": [],
      "stateMutability": "nonpayable",
      "type": "function"
    },
    {
      "inputs": [
        {
          "internalType": "address",
          "name": "operator",
          "type": "address"
        },
        {
          "internalType": "bool",
          "name": "approved",
          "type": "bool"
        }
      ],
      "name": "setApprovalForAll",
      "outputs": [],
      "stateMutability": "nonpayable",
      "type": "function"
    },
    {
      "inputs": [
        {
          "internalType": "uint256",
          "name": "newPrice",
          "type": "uint256"
        }
      ],
      "name": "setPriceDiscount",
      "outputs": [],
      "stateMutability": "nonpayable",
      "type": "function"
    },
    {
      "inputs": [
        {
          "internalType": "uint256",
          "name": "newPrice",
          "type": "uint256"
        }
      ],
      "name": "setPriceFull",
      "outputs": [],
      "stateMutability": "nonpayable",
      "type": "function"
    },
    {
      "inputs": [
        {
          "internalType": "address",
          "name": "account",
          "type": "address"
        }
      ],
      "name": "shares",
      "outputs": [
        {
          "internalType": "uint256",
          "name": "",
          "type": "uint256"
        }
      ],
      "stateMutability": "view",
      "type": "function"
    },
    {
      "inputs": [
        {
          "internalType": "bytes4",
          "name": "interfaceId",
          "type": "bytes4"
        }
      ],
      "name": "supportsInterface",
      "outputs": [
        {
          "internalType": "bool",
          "name": "",
          "type": "bool"
        }
      ],
      "stateMutability": "view",
      "type": "function"
    },
    {
      "inputs": [],
      "name": "symbol",
      "outputs": [
        {
          "internalType": "string",
          "name": "",
          "type": "string"
        }
      ],
      "stateMutability": "view",
      "type": "function"
    },
    {
      "inputs": [
        {
          "internalType": "uint256",
          "name": "index",
          "type": "uint256"
        }
      ],
      "name": "tokenByIndex",
      "outputs": [
        {
          "internalType": "uint256",
          "name": "",
          "type": "uint256"
        }
      ],
      "stateMutability": "view",
      "type": "function"
    },
    {
      "inputs": [
        {
          "internalType": "address",
          "name": "owner",
          "type": "address"
        },
        {
          "internalType": "uint256",
          "name": "index",
          "type": "uint256"
        }
      ],
      "name": "tokenOfOwnerByIndex",
      "outputs": [
        {
          "internalType": "uint256",
          "name": "",
          "type": "uint256"
        }
      ],
      "stateMutability": "view",
      "type": "function"
    },
    {
      "inputs": [
        {
          "internalType": "uint256",
          "name": "tokenId",
          "type": "uint256"
        }
      ],
      "name": "tokenURI",
      "outputs": [
        {
          "internalType": "string",
          "name": "",
          "type": "string"
        }
      ],
      "stateMutability": "view",
      "type": "function"
    },
    {
      "inputs": [],
      "name": "totalReleased",
      "outputs": [
        {
          "internalType": "uint256",
          "name": "",
          "type": "uint256"
        }
      ],
      "stateMutability": "view",
      "type": "function"
    },
    {
      "inputs": [],
      "name": "totalShares",
      "outputs": [
        {
          "internalType": "uint256",
          "name": "",
          "type": "uint256"
        }
      ],
      "stateMutability": "view",
      "type": "function"
    },
    {
      "inputs": [],
      "name": "totalSupply",
      "outputs": [
        {
          "internalType": "uint256",
          "name": "",
          "type": "uint256"
        }
      ],
      "stateMutability": "view",
      "type": "function"
    },
    {
      "inputs": [
        {
          "internalType": "address",
          "name": "from",
          "type": "address"
        },
        {
          "internalType": "address",
          "name": "to",
          "type": "address"
        },
        {
          "internalType": "uint256",
          "name": "tokenId",
          "type": "uint256"
        }
      ],
      "name": "transferFrom",
      "outputs": [],
      "stateMutability": "nonpayable",
      "type": "function"
    },
    {
      "inputs": [],
      "name": "unpause",
      "outputs": [],
      "stateMutability": "nonpayable",
      "type": "function"
    },
    {
      "inputs": [
        {
          "internalType": "string",
          "name": "word",
          "type": "string"
        }
      ],
      "name": "wordExists",
      "outputs": [
        {
          "internalType": "bool",
          "name": "",
          "type": "bool"
        }
      ],
      "stateMutability": "view",
      "type": "function"
    },
    {
      "stateMutability": "payable",
      "type": "receive"
    }
  ],
  "bytecode": "0x60806040523480156200001157600080fd5b50600054610100900460ff16806200002c575060005460ff16155b620000945760405162461bcd60e51b815260206004820152602e60248201527f496e697469616c697a61626c653a20636f6e747261637420697320616c72656160448201526d191e481a5b9a5d1a585b1a5e995960921b606482015260840160405180910390fd5b600054610100900460ff16158015620000b7576000805461ffff19166101011790555b8015620000ca576000805461ff00191690555b50613a2580620000db6000396000f3fe60806040526004361061026b5760003560e01c80638456cb5911610144578063c32107f6116100b6578063d547741f1161007a578063d547741f14610763578063e33b7de314610783578063e63ab1e914610799578063e985e9c5146107b0578063ed8868fb146107f9578063f8d9365b1461081957600080fd5b8063c32107f6146106c2578063c87b56dd146106e2578063ce7c2ac214610702578063d0fd890d14610739578063d53913931461074c57600080fd5b8063a217fddf11610108578063a217fddf14610628578063a22cb4651461063d578063a7abb8b71461065d578063aa8930d214610674578063ae65965e1461068b578063b88d4fde146106a257600080fd5b80638456cb59146105875780638b83209b1461059c57806391d14854146105bc57806395d89b41146105dc5780639852595c146105f157600080fd5b806336568abe116101dd578063445d9787116101a1578063445d9787146104e55780634f6ccce7146104f85780635c975abb146105185780636352211e1461053057806370a082311461055057806373f36e581461057057600080fd5b806336568abe1461045a5780633a98ef391461047a5780633f4ba83a1461049057806341976e09146104a557806342842e0e146104c557600080fd5b806318160ddd1161022f57806318160ddd1461038a57806319165587146103a957806323b872dd146103c9578063248a9ca3146103e95780632f2ff15d1461041a5780632f745c591461043a57600080fd5b806301ffc9a7146102b957806306fdde03146102ee578063081812fc14610310578063095ea7b3146103485780630c4aac891461036a57600080fd5b366102b4577f6ef95f06320e7a25a04a175ca677b7052bdd97131872c2192525a629f51be77033604080516001600160a01b0390921682523460208301520160405180910390a1005b600080fd5b3480156102c557600080fd5b506102d96102d43660046133db565b610839565b60405190151581526020015b60405180910390f35b3480156102fa57600080fd5b5061030361084a565b6040516102e591906136b5565b34801561031c57600080fd5b5061033061032b36600461339f565b6108dc565b6040516001600160a01b0390911681526020016102e5565b34801561035457600080fd5b50610368610363366004613374565b610969565b005b34801561037657600080fd5b5061036861038536600461339f565b610a7f565b34801561039657600080fd5b506099545b6040519081526020016102e5565b3480156103b557600080fd5b506103686103c43660046131e4565b610ab5565b3480156103d557600080fd5b506103686103e4366004613238565b610c8f565b3480156103f557600080fd5b5061039b61040436600461339f565b600090815261012d602052604090206001015490565b34801561042657600080fd5b506103686104353660046133b7565b610cc0565b34801561044657600080fd5b5061039b610455366004613374565b610ce7565b34801561046657600080fd5b506103686104753660046133b7565b610d7d565b34801561048657600080fd5b5061015f5461039b565b34801561049c57600080fd5b50610368610dfb565b3480156104b157600080fd5b5061039b6104c03660046131e4565b610e14565b3480156104d157600080fd5b506103686104e0366004613238565b610e80565b6103686104f3366004613480565b610e9b565b34801561050457600080fd5b5061039b61051336600461339f565b61103d565b34801561052457600080fd5b5060fb5460ff166102d9565b34801561053c57600080fd5b5061033061054b36600461339f565b6110de565b34801561055c57600080fd5b5061039b61056b3660046131e4565b611155565b34801561057c57600080fd5b5061039b6101975481565b34801561059357600080fd5b506103686111dc565b3480156105a857600080fd5b506103306105b736600461339f565b6111f2565b3480156105c857600080fd5b506102d96105d73660046133b7565b611231565b3480156105e857600080fd5b5061030361125d565b3480156105fd57600080fd5b5061039b61060c3660046131e4565b6001600160a01b03166000908152610162602052604090205490565b34801561063457600080fd5b5061039b600081565b34801561064957600080fd5b506103686106583660046132f5565b61126c565b34801561066957600080fd5b5061039b6101985481565b34801561068057600080fd5b5061039b6101945481565b34801561069757600080fd5b5061039b6101935481565b3480156106ae57600080fd5b506103686106bd366004613278565b611331565b3480156106ce57600080fd5b506102d96106dd366004613413565b611369565b3480156106ee57600080fd5b506103036106fd36600461339f565b611399565b34801561070e57600080fd5b5061039b61071d3660046131e4565b6001600160a01b03166000908152610161602052604090205490565b610368610747366004613326565b6113a4565b34801561075857600080fd5b5061039b6101965481565b34801561076f57600080fd5b5061036861077e3660046133b7565b6115f1565b34801561078f57600080fd5b506101605461039b565b3480156107a557600080fd5b5061039b6101955481565b3480156107bc57600080fd5b506102d96107cb366004613200565b6001600160a01b039182166000908152606a6020908152604080832093909416825291909152205460ff1690565b34801561080557600080fd5b5061030361081436600461339f565b611618565b34801561082557600080fd5b5061036861083436600461339f565b6116c7565b6000610844826116fd565b92915050565b6060606580546108599061391e565b80601f01602080910402602001604051908101604052809291908181526020018280546108859061391e565b80156108d25780601f106108a7576101008083540402835291602001916108d2565b820191906000526020600020905b8154815290600101906020018083116108b557829003601f168201915b5050505050905090565b60006108e782611722565b61094d5760405162461bcd60e51b815260206004820152602c60248201527f4552433732313a20617070726f76656420717565727920666f72206e6f6e657860448201526b34b9ba32b73a103a37b5b2b760a11b60648201526084015b60405180910390fd5b506000908152606960205260409020546001600160a01b031690565b6000610974826110de565b9050806001600160a01b0316836001600160a01b031614156109e25760405162461bcd60e51b815260206004820152602160248201527f4552433732313a20617070726f76616c20746f2063757272656e74206f776e656044820152603960f91b6064820152608401610944565b336001600160a01b03821614806109fe57506109fe81336107cb565b610a705760405162461bcd60e51b815260206004820152603860248201527f4552433732313a20617070726f76652063616c6c6572206973206e6f74206f7760448201527f6e6572206e6f7220617070726f76656420666f7220616c6c00000000000000006064820152608401610944565b610a7a838361173f565b505050565b60fb5460ff1615610aa25760405162461bcd60e51b81526004016109449061371a565b6000610aae81336117ad565b5061019455565b6001600160a01b03811660009081526101616020526040902054610b2a5760405162461bcd60e51b815260206004820152602660248201527f5061796d656e7453706c69747465723a206163636f756e7420686173206e6f2060448201526573686172657360d01b6064820152608401610944565b60006101605447610b3b9190613879565b6001600160a01b0383166000908152610162602090815260408083205461015f54610161909352908320549394509192610b7590856138a5565b610b7f9190613891565b610b8991906138c4565b905080610bec5760405162461bcd60e51b815260206004820152602b60248201527f5061796d656e7453706c69747465723a206163636f756e74206973206e6f742060448201526a191d59481c185e5b595b9d60aa1b6064820152608401610944565b6001600160a01b03831660009081526101626020526040902054610c11908290613879565b6001600160a01b0384166000908152610162602052604090205561016054610c3a908290613879565b61016055610c488382611811565b604080516001600160a01b0385168152602081018390527fdf20fd1e76bc69d672e4814fafb2c449bba3a5369d8359adf9e05e6fde87b056910160405180910390a1505050565b610c99338261192a565b610cb55760405162461bcd60e51b815260040161094490613792565b610a7a838383611a14565b600082815261012d6020526040902060010154610cdd81336117ad565b610a7a8383611bbf565b6000610cf283611155565b8210610d545760405162461bcd60e51b815260206004820152602b60248201527f455243373231456e756d657261626c653a206f776e657220696e646578206f7560448201526a74206f6620626f756e647360a81b6064820152608401610944565b506001600160a01b03919091166000908152609760209081526040808320938352929052205490565b6001600160a01b0381163314610ded5760405162461bcd60e51b815260206004820152602f60248201527f416363657373436f6e74726f6c3a2063616e206f6e6c792072656e6f756e636560448201526e103937b632b9903337b91039b2b63360891b6064820152608401610944565b610df78282611c46565b5050565b61019554610e0981336117ad565b610e11611cae565b50565b6000610e236101965483611231565b158015610e3a5750610e386101985483611231565b155b15610e485750506101935490565b610e556101965483611231565b158015610e6a5750610e6a6101985483611231565b15610e785750506101945490565b506000919050565b610a7a83838360405180602001604052806000815250611331565b600054610100900460ff1680610eb4575060005460ff16155b610ed05760405162461bcd60e51b815260040161094490613744565b600054610100900460ff16158015610ef2576000805461ffff19166101011790555b610efc8585611d41565b610f04611dc8565b610f0c611dc8565b610f14611e4b565b610f1c611dc8565b610f268383611eb2565b61019280546001600160a01b03191633908117909155670366c526c272c0006101935566570a9ec4ff4000610194557f65d7a28e3265b37a6474929f336521b332c1681b933f6cb9f3376673440d862a610195557f9f2df0fed2c77648de5860a4cc508cd0818c85b8b8a1ab4ceeef8d981c8956a6610196557f29434eb5e8812e221f75c8938ee14034fc1cbbc820ce3ab1dd76fa5eb480c48d610197557ff9e9e1c8035f82fd72c5438c5719fd5349deacb4207f4fcbbda606cb5a39d50961019855610ffa90600090611f1b565b611f1b565b61100861019554610ff53390565b61101661019654610ff53390565b61102461019754610ff53390565b8015611036576000805461ff00191690555b5050505050565b600061104860995490565b82106110ab5760405162461bcd60e51b815260206004820152602c60248201527f455243373231456e756d657261626c653a20676c6f62616c20696e646578206f60448201526b7574206f6620626f756e647360a01b6064820152608401610944565b609982815481106110cc57634e487b7160e01b600052603260045260246000fd5b90600052602060002001549050919050565b6000818152606760205260408120546001600160a01b0316806108445760405162461bcd60e51b815260206004820152602960248201527f4552433732313a206f776e657220717565727920666f72206e6f6e657869737460448201526832b73a103a37b5b2b760b91b6064820152608401610944565b60006001600160a01b0382166111c05760405162461bcd60e51b815260206004820152602a60248201527f4552433732313a2062616c616e636520717565727920666f7220746865207a65604482015269726f206164647265737360b01b6064820152608401610944565b506001600160a01b031660009081526068602052604090205490565b610195546111ea81336117ad565b610e11611f25565b6000610163828154811061121657634e487b7160e01b600052603260045260246000fd5b6000918252602090912001546001600160a01b031692915050565b600091825261012d602090815260408084206001600160a01b0393909316845291905290205460ff1690565b6060606680546108599061391e565b6001600160a01b0382163314156112c55760405162461bcd60e51b815260206004820152601960248201527f4552433732313a20617070726f766520746f2063616c6c6572000000000000006044820152606401610944565b336000818152606a602090815260408083206001600160a01b03871680855290835292819020805460ff191686151590811790915590519081529192917f17307eab39ab6107e8899845ad3d59bd9653f200f220920489ca2b5937696c31910160405180910390a35050565b61133b338361192a565b6113575760405162461bcd60e51b815260040161094490613792565b61136384848484611f7d565b50505050565b6000610199838360405161137e9291906135a8565b9081526040519081900360200190205460ff16905092915050565b606061084482611fb0565b60fb5460ff16156113c75760405162461bcd60e51b81526004016109449061371a565b6113d5610196546105d73390565b1580156113ed57506113eb610198546105d73390565b155b15611481576101998160405161140391906135b8565b9081526040519081900360200190205460ff16156114595760405162461bcd60e51b8152602060048201526013602482015272576f726420616c72656164792065786973747360681b6044820152606401610944565b6101935434101561147c5760405162461bcd60e51b8152600401610944906137e3565b611534565b61148f610196546105d73390565b1580156114a557506114a5610198546105d73390565b1561153457610199816040516114bb91906135b8565b9081526040519081900360200190205460ff16156115115760405162461bcd60e51b8152602060048201526013602482015272576f726420616c72656164792065786973747360681b6044820152606401610944565b610194543410156115345760405162461bcd60e51b8152600401610944906137e3565b61154361019180546001019055565b600061154f6101915490565b905060016101998360405161156491906135b8565b9081526040805160209281900383019020805460ff191693151593909317909255600083815261019a82529190912083516115a192850190613065565b50610192546115b9906001600160a01b031682612144565b6115c3818361215e565b610192546001600160a01b03848116911614610a7a5761019254610a7a906001600160a01b03168483611a14565b600082815261012d602052604090206001015461160e81336117ad565b610a7a8383611c46565b6060600061162681336117ad565b600083815261019a6020526040902080546116409061391e565b80601f016020809104026020016040519081016040528092919081815260200182805461166c9061391e565b80156116b95780601f1061168e576101008083540402835291602001916116b9565b820191906000526020600020905b81548152906001019060200180831161169c57829003601f168201915b505050505091505b50919050565b60fb5460ff16156116ea5760405162461bcd60e51b81526004016109449061371a565b60006116f681336117ad565b5061019355565b60006001600160e01b03198216637965db0b60e01b14806108445750610844826121e9565b6000908152606760205260409020546001600160a01b0316151590565b600081815260696020526040902080546001600160a01b0319166001600160a01b0384169081179091558190611774826110de565b6001600160a01b03167f8c5be1e5ebec7d5bd14f71427d1e84f3dd0314c0f7b2291e5b200ac8c7c3b92560405160405180910390a45050565b6117b78282611231565b610df7576117cf816001600160a01b0316601461220e565b6117da83602061220e565b6040516020016117eb929190613603565b60408051601f198184030181529082905262461bcd60e51b8252610944916004016136b5565b804710156118615760405162461bcd60e51b815260206004820152601d60248201527f416464726573733a20696e73756666696369656e742062616c616e63650000006044820152606401610944565b6000826001600160a01b03168260405160006040518083038185875af1925050503d80600081146118ae576040519150601f19603f3d011682016040523d82523d6000602084013e6118b3565b606091505b5050905080610a7a5760405162461bcd60e51b815260206004820152603a60248201527f416464726573733a20756e61626c6520746f2073656e642076616c75652c207260448201527f6563697069656e74206d617920686176652072657665727465640000000000006064820152608401610944565b600061193582611722565b6119965760405162461bcd60e51b815260206004820152602c60248201527f4552433732313a206f70657261746f7220717565727920666f72206e6f6e657860448201526b34b9ba32b73a103a37b5b2b760a11b6064820152608401610944565b60006119a1836110de565b9050806001600160a01b0316846001600160a01b031614806119dc5750836001600160a01b03166119d1846108dc565b6001600160a01b0316145b80611a0c57506001600160a01b038082166000908152606a602090815260408083209388168352929052205460ff165b949350505050565b826001600160a01b0316611a27826110de565b6001600160a01b031614611a8f5760405162461bcd60e51b815260206004820152602960248201527f4552433732313a207472616e73666572206f6620746f6b656e2074686174206960448201526839903737ba1037bbb760b91b6064820152608401610944565b6001600160a01b038216611af15760405162461bcd60e51b8152602060048201526024808201527f4552433732313a207472616e7366657220746f20746865207a65726f206164646044820152637265737360e01b6064820152608401610944565b611afc8383836123f7565b611b0760008261173f565b6001600160a01b0383166000908152606860205260408120805460019290611b309084906138c4565b90915550506001600160a01b0382166000908152606860205260408120805460019290611b5e908490613879565b909155505060008181526067602052604080822080546001600160a01b0319166001600160a01b0386811691821790925591518493918716917fddf252ad1be2c89b69c2b068fc378daa952ba7f163c4a11628f55a4df523b3ef91a4505050565b611bc98282611231565b610df757600082815261012d602090815260408083206001600160a01b03851684529091529020805460ff19166001179055611c023390565b6001600160a01b0316816001600160a01b0316837f2f8788117e7eff1d82e926ec794901d17c78024a50270940304540a733656f0d60405160405180910390a45050565b611c508282611231565b15610df757600082815261012d602090815260408083206001600160a01b0385168085529252808320805460ff1916905551339285917ff6391f5c32d9c69d2a47ea670b442974b53935d1edc7fd64eb21e047a839171b9190a45050565b60fb5460ff16611cf75760405162461bcd60e51b815260206004820152601460248201527314185d5cd8589b194e881b9bdd081c185d5cd95960621b6044820152606401610944565b60fb805460ff191690557f5db9ee0a495bf2e6ff9c91a7834c1ba4fdd244a5e8aa4e537bd38aeae4b073aa335b6040516001600160a01b03909116815260200160405180910390a1565b600054610100900460ff1680611d5a575060005460ff16155b611d765760405162461bcd60e51b815260040161094490613744565b600054610100900460ff16158015611d98576000805461ffff19166101011790555b611da0612425565b611da8612425565b611db2838361248f565b8015610a7a576000805461ff0019169055505050565b600054610100900460ff1680611de1575060005460ff16155b611dfd5760405162461bcd60e51b815260040161094490613744565b600054610100900460ff16158015611e1f576000805461ffff19166101011790555b611e27612425565b611e2f612425565b611e37612425565b8015610e11576000805461ff001916905550565b600054610100900460ff1680611e64575060005460ff16155b611e805760405162461bcd60e51b815260040161094490613744565b600054610100900460ff16158015611ea2576000805461ffff19166101011790555b611eaa612425565b611e37612524565b600054610100900460ff1680611ecb575060005460ff16155b611ee75760405162461bcd60e51b815260040161094490613744565b600054610100900460ff16158015611f09576000805461ffff19166101011790555b611f11612425565b611db28383612599565b610df78282611bbf565b60fb5460ff1615611f485760405162461bcd60e51b81526004016109449061371a565b60fb805460ff191660011790557f62e78cea01bee320cd4e420270b5ea74000d11b0c9f74754ebdbfc544b05a258611d243390565b611f88848484611a14565b611f9484848484612723565b6113635760405162461bcd60e51b8152600401610944906136c8565b6060611fbb82611722565b6120215760405162461bcd60e51b815260206004820152603160248201527f45524337323155524953746f726167653a2055524920717565727920666f72206044820152703737b732bc34b9ba32b73a103a37b5b2b760791b6064820152608401610944565b600082815260c960205260408120805461203a9061391e565b80601f01602080910402602001604051908101604052809291908181526020018280546120669061391e565b80156120b35780601f10612088576101008083540402835291602001916120b3565b820191906000526020600020905b81548152906001019060200180831161209657829003601f168201915b5050505050905060006120f66040805180820190915260208082527f68747470733a2f2f6e69667479776f7264732e6172742f6170692f776f72642f9082015290565b9050805160001415612109575092915050565b81511561213b5780826040516020016121239291906135d4565b60405160208183030381529060405292505050919050565b611a0c84612830565b610df782826040518060200160405280600081525061292c565b61216782611722565b6121ca5760405162461bcd60e51b815260206004820152602e60248201527f45524337323155524953746f726167653a2055524920736574206f66206e6f6e60448201526d32bc34b9ba32b73a103a37b5b2b760911b6064820152608401610944565b600082815260c9602090815260409091208251610a7a92840190613065565b60006001600160e01b0319821663780e9d6360e01b148061084457506108448261295f565b6060600061221d8360026138a5565b612228906002613879565b67ffffffffffffffff81111561224e57634e487b7160e01b600052604160045260246000fd5b6040519080825280601f01601f191660200182016040528015612278576020820181803683370190505b509050600360fc1b816000815181106122a157634e487b7160e01b600052603260045260246000fd5b60200101906001600160f81b031916908160001a905350600f60fb1b816001815181106122de57634e487b7160e01b600052603260045260246000fd5b60200101906001600160f81b031916908160001a90535060006123028460026138a5565b61230d906001613879565b90505b60018111156123a1576f181899199a1a9b1b9c1cb0b131b232b360811b85600f166010811061234f57634e487b7160e01b600052603260045260246000fd5b1a60f81b82828151811061237357634e487b7160e01b600052603260045260246000fd5b60200101906001600160f81b031916908160001a90535060049490941c9361239a81613907565b9050612310565b5083156123f05760405162461bcd60e51b815260206004820181905260248201527f537472696e67733a20686578206c656e67746820696e73756666696369656e746044820152606401610944565b9392505050565b60fb5460ff161561241a5760405162461bcd60e51b81526004016109449061371a565b610a7a8383836129af565b600054610100900460ff168061243e575060005460ff16155b61245a5760405162461bcd60e51b815260040161094490613744565b600054610100900460ff16158015611e37576000805461ffff19166101011790558015610e11576000805461ff001916905550565b600054610100900460ff16806124a8575060005460ff16155b6124c45760405162461bcd60e51b815260040161094490613744565b600054610100900460ff161580156124e6576000805461ffff19166101011790555b82516124f9906065906020860190613065565b50815161250d906066906020850190613065565b508015610a7a576000805461ff0019169055505050565b600054610100900460ff168061253d575060005460ff16155b6125595760405162461bcd60e51b815260040161094490613744565b600054610100900460ff1615801561257b576000805461ffff19166101011790555b60fb805460ff191690558015610e11576000805461ff001916905550565b600054610100900460ff16806125b2575060005460ff16155b6125ce5760405162461bcd60e51b815260040161094490613744565b600054610100900460ff161580156125f0576000805461ffff19166101011790555b815183511461265c5760405162461bcd60e51b815260206004820152603260248201527f5061796d656e7453706c69747465723a2070617965657320616e6420736861726044820152710cae640d8cadccee8d040dad2e6dac2e8c6d60731b6064820152608401610944565b60008351116126ad5760405162461bcd60e51b815260206004820152601a60248201527f5061796d656e7453706c69747465723a206e6f207061796565730000000000006044820152606401610944565b60005b835181101561250d576127118482815181106126dc57634e487b7160e01b600052603260045260246000fd5b602002602001015184838151811061270457634e487b7160e01b600052603260045260246000fd5b6020026020010151612a67565b8061271b81613953565b9150506126b0565b60006001600160a01b0384163b1561282557604051630a85bd0160e11b81526001600160a01b0385169063150b7a0290612767903390899088908890600401613678565b602060405180830381600087803b15801561278157600080fd5b505af19250505080156127b1575060408051601f3d908101601f191682019092526127ae918101906133f7565b60015b61280b573d8080156127df576040519150601f19603f3d011682016040523d82523d6000602084013e6127e4565b606091505b5080516128035760405162461bcd60e51b8152600401610944906136c8565b805181602001fd5b6001600160e01b031916630a85bd0160e11b149050611a0c565b506001949350505050565b606061283b82611722565b61289f5760405162461bcd60e51b815260206004820152602f60248201527f4552433732314d657461646174613a2055524920717565727920666f72206e6f60448201526e3732bc34b9ba32b73a103a37b5b2b760891b6064820152608401610944565b60006128db6040805180820190915260208082527f68747470733a2f2f6e69667479776f7264732e6172742f6170692f776f72642f9082015290565b905060008151116128fb57604051806020016040528060008152506123f0565b8061290584612c52565b6040516020016129169291906135d4565b6040516020818303038152906040529392505050565b6129368383612d6c565b6129436000848484612723565b610a7a5760405162461bcd60e51b8152600401610944906136c8565b60006001600160e01b031982166380ac58cd60e01b148061299057506001600160e01b03198216635b5e139f60e01b145b8061084457506301ffc9a760e01b6001600160e01b0319831614610844565b6001600160a01b038316612a0a57612a0581609980546000838152609a60205260408120829055600182018355919091527f72a152ddfb8e864297c917af52ea6c1c68aead0fee1a62673fcc7e0c94979d000155565b612a2d565b816001600160a01b0316836001600160a01b031614612a2d57612a2d8382612eab565b6001600160a01b038216612a4457610a7a81612f48565b826001600160a01b0316826001600160a01b031614610a7a57610a7a8282613021565b6001600160a01b038216612ad25760405162461bcd60e51b815260206004820152602c60248201527f5061796d656e7453706c69747465723a206163636f756e74206973207468652060448201526b7a65726f206164647265737360a01b6064820152608401610944565b60008111612b225760405162461bcd60e51b815260206004820152601d60248201527f5061796d656e7453706c69747465723a207368617265732061726520300000006044820152606401610944565b6001600160a01b0382166000908152610161602052604090205415612b9d5760405162461bcd60e51b815260206004820152602b60248201527f5061796d656e7453706c69747465723a206163636f756e7420616c726561647960448201526a206861732073686172657360a81b6064820152608401610944565b6101638054600181019091557fb0f3e90519fd0de3100ca1a24094c0a25e5cbf467d74a2603172b5a5204555b30180546001600160a01b0319166001600160a01b03841690811790915560009081526101616020526040902081905561015f54612c08908290613879565b61015f55604080516001600160a01b0384168152602081018390527f40c340f65e17194d14ddddb073d3c9f888e3cb52b5aae0c6c7706b4fbc905fac910160405180910390a15050565b606081612c765750506040805180820190915260018152600360fc1b602082015290565b8160005b8115612ca05780612c8a81613953565b9150612c999050600a83613891565b9150612c7a565b60008167ffffffffffffffff811115612cc957634e487b7160e01b600052604160045260246000fd5b6040519080825280601f01601f191660200182016040528015612cf3576020820181803683370190505b5090505b8415611a0c57612d086001836138c4565b9150612d15600a8661396e565b612d20906030613879565b60f81b818381518110612d4357634e487b7160e01b600052603260045260246000fd5b60200101906001600160f81b031916908160001a905350612d65600a86613891565b9450612cf7565b6001600160a01b038216612dc25760405162461bcd60e51b815260206004820181905260248201527f4552433732313a206d696e7420746f20746865207a65726f20616464726573736044820152606401610944565b612dcb81611722565b15612e185760405162461bcd60e51b815260206004820152601c60248201527f4552433732313a20746f6b656e20616c7265616479206d696e746564000000006044820152606401610944565b612e24600083836123f7565b6001600160a01b0382166000908152606860205260408120805460019290612e4d908490613879565b909155505060008181526067602052604080822080546001600160a01b0319166001600160a01b03861690811790915590518392907fddf252ad1be2c89b69c2b068fc378daa952ba7f163c4a11628f55a4df523b3ef908290a45050565b60006001612eb884611155565b612ec291906138c4565b600083815260986020526040902054909150808214612f15576001600160a01b03841660009081526097602090815260408083208584528252808320548484528184208190558352609890915290208190555b5060009182526098602090815260408084208490556001600160a01b039094168352609781528383209183525290812055565b609954600090612f5a906001906138c4565b6000838152609a602052604081205460998054939450909284908110612f9057634e487b7160e01b600052603260045260246000fd5b906000526020600020015490508060998381548110612fbf57634e487b7160e01b600052603260045260246000fd5b6000918252602080832090910192909255828152609a9091526040808220849055858252812055609980548061300557634e487b7160e01b600052603160045260246000fd5b6001900381819060005260206000200160009055905550505050565b600061302c83611155565b6001600160a01b039093166000908152609760209081526040808320868452825280832085905593825260989052919091209190915550565b8280546130719061391e565b90600052602060002090601f01602090048101928261309357600085556130d9565b82601f106130ac57805160ff19168380011785556130d9565b828001600101855582156130d9579182015b828111156130d95782518255916020019190600101906130be565b506130e59291506130e9565b5090565b5b808211156130e557600081556001016130ea565b600067ffffffffffffffff831115613118576131186139ae565b61312b601f8401601f1916602001613824565b905082815283838301111561313f57600080fd5b828260208301376000602084830101529392505050565b600082601f830112613166578081fd5b8135602061317b61317683613855565b613824565b80838252828201915082860187848660051b890101111561319a578586fd5b855b858110156131b85781358452928401929084019060010161319c565b5090979650505050505050565b600082601f8301126131d5578081fd5b6123f0838335602085016130fe565b6000602082840312156131f5578081fd5b81356123f0816139c4565b60008060408385031215613212578081fd5b823561321d816139c4565b9150602083013561322d816139c4565b809150509250929050565b60008060006060848603121561324c578081fd5b8335613257816139c4565b92506020840135613267816139c4565b929592945050506040919091013590565b6000806000806080858703121561328d578081fd5b8435613298816139c4565b935060208501356132a8816139c4565b925060408501359150606085013567ffffffffffffffff8111156132ca578182fd5b8501601f810187136132da578182fd5b6132e9878235602084016130fe565b91505092959194509250565b60008060408385031215613307578182fd5b8235613312816139c4565b91506020830135801515811461322d578182fd5b60008060408385031215613338578182fd5b8235613343816139c4565b9150602083013567ffffffffffffffff81111561335e578182fd5b61336a858286016131c5565b9150509250929050565b60008060408385031215613386578182fd5b8235613391816139c4565b946020939093013593505050565b6000602082840312156133b0578081fd5b5035919050565b600080604083850312156133c9578182fd5b82359150602083013561322d816139c4565b6000602082840312156133ec578081fd5b81356123f0816139d9565b600060208284031215613408578081fd5b81516123f0816139d9565b60008060208385031215613425578182fd5b823567ffffffffffffffff8082111561343c578384fd5b818501915085601f83011261344f578384fd5b81358181111561345d578485fd5b86602082850101111561346e578485fd5b60209290920196919550909350505050565b60008060008060808587031215613495578182fd5b843567ffffffffffffffff808211156134ac578384fd5b6134b8888389016131c5565b95506020915081870135818111156134ce578485fd5b6134da89828a016131c5565b9550506040870135818111156134ee578485fd5b8701601f810189136134fe578485fd5b803561350c61317682613855565b8082825285820191508584018c878560051b870101111561352b578889fd5b8894505b83851015613556578035613542816139c4565b83526001949094019391860191860161352f565b509650505050606087013591508082111561356f578283fd5b506132e987828801613156565b600081518084526135948160208601602086016138db565b601f01601f19169290920160200192915050565b8183823760009101908152919050565b600082516135ca8184602087016138db565b9190910192915050565b600083516135e68184602088016138db565b8351908301906135fa8183602088016138db565b01949350505050565b7f416363657373436f6e74726f6c3a206163636f756e742000000000000000000081526000835161363b8160178501602088016138db565b7001034b99036b4b9b9b4b733903937b6329607d1b601791840191820152835161366c8160288401602088016138db565b01602801949350505050565b6001600160a01b03858116825284166020820152604081018390526080606082018190526000906136ab9083018461357c565b9695505050505050565b6020815260006123f0602083018461357c565b60208082526032908201527f4552433732313a207472616e7366657220746f206e6f6e20455243373231526560408201527131b2b4bb32b91034b6b83632b6b2b73a32b960711b606082015260800190565b60208082526010908201526f14185d5cd8589b194e881c185d5cd95960821b604082015260600190565b6020808252602e908201527f496e697469616c697a61626c653a20636f6e747261637420697320616c72656160408201526d191e481a5b9a5d1a585b1a5e995960921b606082015260800190565b60208082526031908201527f4552433732313a207472616e736665722063616c6c6572206973206e6f74206f6040820152701ddb995c881b9bdc88185c1c1c9bdd9959607a1b606082015260800190565b60208082526021908201527f4e6f7420656e6f756768204554482073656e743b20636865636b2070726963656040820152602160f81b606082015260800190565b604051601f8201601f1916810167ffffffffffffffff8111828210171561384d5761384d6139ae565b604052919050565b600067ffffffffffffffff82111561386f5761386f6139ae565b5060051b60200190565b6000821982111561388c5761388c613982565b500190565b6000826138a0576138a0613998565b500490565b60008160001904831182151516156138bf576138bf613982565b500290565b6000828210156138d6576138d6613982565b500390565b60005b838110156138f65781810151838201526020016138de565b838111156113635750506000910152565b60008161391657613916613982565b506000190190565b600181811c9082168061393257607f821691505b602082108114156116c157634e487b7160e01b600052602260045260246000fd5b600060001982141561396757613967613982565b5060010190565b60008261397d5761397d613998565b500690565b634e487b7160e01b600052601160045260246000fd5b634e487b7160e01b600052601260045260246000fd5b634e487b7160e01b600052604160045260246000fd5b6001600160a01b0381168114610e1157600080fd5b6001600160e01b031981168114610e1157600080fdfea26469706673582212207f36c86e25ccbc9ebd541ed8ff3f86da0c22465d758b3e0015d61ee2cd0be33264736f6c63430008040033",
  "linkReferences": {},
  "deployedLinkReferences": {}
}